{
  "address": "0xF4984fFeca6Ee05A4628F1E268a5D0d5254D5A10",
  "abi": [
    {
      "inputs": [
        {
          "internalType": "uint256",
          "name": "_price",
          "type": "uint256"
        }
      ],
      "stateMutability": "nonpayable",
      "type": "constructor"
    },
    {
      "anonymous": false,
      "inputs": [
        {
          "indexed": false,
          "internalType": "address",
          "name": "asset",
          "type": "address"
        },
        {
          "indexed": false,
          "internalType": "uint256",
          "name": "newPrice",
          "type": "uint256"
        }
      ],
      "name": "PriceUpdated",
      "type": "event"
    },
    {
      "inputs": [],
      "name": "getPriceInUSD",
      "outputs": [
        {
          "internalType": "uint256",
          "name": "",
          "type": "uint256"
        }
      ],
      "stateMutability": "view",
      "type": "function"
    },
    {
      "inputs": [
        {
          "internalType": "uint256",
          "name": "_newPrice",
          "type": "uint256"
        }
      ],
      "name": "setPrice",
      "outputs": [],
      "stateMutability": "nonpayable",
      "type": "function"
    },
    {
      "inputs": [],
      "name": "viewPriceInUSD",
      "outputs": [
        {
          "internalType": "uint256",
          "name": "",
          "type": "uint256"
        }
      ],
      "stateMutability": "view",
      "type": "function"
    }
  ],
  "transactionHash": "0x7324135ede4476f07cc4b382784bc29cb93f27e911258c798bb302ca266b3adf",
  "args": [
    "100000000"
  ],
  "solcInputHash": "93ebaa441e3462400e4372fabffe5451",
  "bytecode": "0x608060405234801561001057600080fd5b5060405161012a38038061012a83398101604081905261002f91610037565b60005561004f565b600060208284031215610048578081fd5b5051919050565b60cd8061005d6000396000f3fe6080604052348015600f57600080fd5b5060043610603c5760003560e01c806391b7f5ed146041578063e1aa6036146052578063f55fa17f146052575b600080fd5b6050604c3660046077565b606c565b005b60586071565b60405160639190608e565b60405180910390f35b600055565b60005490565b6000602082840312156087578081fd5b5035919050565b9081526020019056fea264697066735822122036a9ab4c2e2fc180e5e4de38438addc34dba52891d90bc2072c1ac3f12d7cb0864736f6c63430008010033",
  "devdoc": {
    "kind": "dev",
    "methods": {},
    "version": 1
  },
  "userdoc": {
    "events": {
      "PriceUpdated(address,uint256)": {
        "notice": "Price update event"
      }
    },
    "kind": "user",
    "methods": {},
    "version": 1
  },
  "storageLayout": {
    "storage": [
      {
        "astId": 11641,
        "contract": "contracts/test/MockPriceOracle.sol:MockPriceOracle",
        "label": "lastestAnswer",
        "offset": 0,
        "slot": "0",
        "type": "t_uint256"
      }
    ],
    "types": {
      "t_uint256": {
        "encoding": "inplace",
        "label": "uint256",
        "numberOfBytes": "32"
      }
    }
  }
}