{
  "address": "0x7D9567f9CC3a0a8Bd52a5A90A1b079926485cf3d",
  "abi": [
    {
      "inputs": [
        {
          "internalType": "contract IBSVault",
          "name": "_vault",
          "type": "address"
        },
        {
          "internalType": "contract IPriceOracleAggregator",
          "name": "_oracle",
          "type": "address"
        },
        {
          "internalType": "address",
          "name": "_feeWithdrawalAddr",
          "type": "address"
        },
        {
          "internalType": "uint256",
          "name": "_procotolLiquidationFeeShare",
          "type": "uint256"
        }
      ],
      "stateMutability": "nonpayable",
      "type": "constructor"
    },
    {
      "anonymous": false,
      "inputs": [
        {
          "indexed": false,
          "internalType": "uint8",
          "name": "action",
          "type": "uint8"
        },
        {
          "indexed": false,
          "internalType": "uint256",
          "name": "timestamp",
          "type": "uint256"
        }
      ],
      "name": "ActionPaused",
      "type": "event"
    },
    {
      "anonymous": false,
      "inputs": [
        {
          "indexed": false,
          "internalType": "uint8",
          "name": "action",
          "type": "uint8"
        },
        {
          "indexed": false,
          "internalType": "uint256",
          "name": "timestamp",
          "type": "uint256"
        }
      ],
      "name": "ActionUnPaused",
      "type": "event"
    },
    {
      "anonymous": false,
      "inputs": [
        {
          "indexed": true,
          "internalType": "address",
          "name": "borrower",
          "type": "address"
        },
        {
          "indexed": false,
          "internalType": "uint256",
          "name": "amount",
          "type": "uint256"
        }
      ],
      "name": "Borrow",
      "type": "event"
    },
    {
      "anonymous": false,
      "inputs": [
        {
          "indexed": true,
          "internalType": "address",
          "name": "pair",
          "type": "address"
        },
        {
          "indexed": true,
          "internalType": "address",
          "name": "asset",
          "type": "address"
        },
        {
          "indexed": true,
          "internalType": "address",
          "name": "tokenReceipeint",
          "type": "address"
        },
        {
          "indexed": false,
          "internalType": "address",
          "name": "user",
          "type": "address"
        },
        {
          "indexed": false,
          "internalType": "uint256",
          "name": "amount",
          "type": "uint256"
        }
      ],
      "name": "Deposit",
      "type": "event"
    },
    {
      "anonymous": false,
      "inputs": [
        {
          "indexed": true,
          "internalType": "address",
          "name": "target",
          "type": "address"
        },
        {
          "indexed": true,
          "internalType": "address",
          "name": "initiator",
          "type": "address"
        },
        {
          "indexed": true,
          "internalType": "address",
          "name": "asset",
          "type": "address"
        },
        {
          "indexed": false,
          "internalType": "uint256",
          "name": "amount",
          "type": "uint256"
        },
        {
          "indexed": false,
          "internalType": "uint256",
          "name": "premium",
          "type": "uint256"
        }
      ],
      "name": "FlashLoan",
      "type": "event"
    },
    {
      "anonymous": false,
      "inputs": [
        {
          "indexed": true,
          "internalType": "address",
          "name": "pair",
          "type": "address"
        },
        {
          "indexed": true,
          "internalType": "address",
          "name": "asset",
          "type": "address"
        },
        {
          "indexed": true,
          "internalType": "address",
          "name": "collateralAsset",
          "type": "address"
        },
        {
          "indexed": false,
          "internalType": "address",
          "name": "pauseGuardian",
          "type": "address"
        }
      ],
      "name": "Initialized",
      "type": "event"
    },
    {
      "anonymous": false,
      "inputs": [
        {
          "indexed": true,
          "internalType": "address",
          "name": "pair",
          "type": "address"
        },
        {
          "indexed": false,
          "internalType": "uint256",
          "name": "accrualBlockNumber",
          "type": "uint256"
        },
        {
          "indexed": false,
          "internalType": "uint256",
          "name": "borrowIndex",
          "type": "uint256"
        },
        {
          "indexed": false,
          "internalType": "uint256",
          "name": "totalBorrows",
          "type": "uint256"
        },
        {
          "indexed": false,
          "internalType": "uint256",
          "name": "totalReserves",
          "type": "uint256"
        }
      ],
      "name": "InterestAccrued",
      "type": "event"
    },
    {
      "anonymous": false,
      "inputs": [
        {
          "indexed": false,
          "internalType": "uint256",
          "name": "blockNumber",
          "type": "uint256"
        }
      ],
      "name": "InterestShortCircuit",
      "type": "event"
    },
    {
      "anonymous": false,
      "inputs": [
        {
          "indexed": true,
          "internalType": "address",
          "name": "pair",
          "type": "address"
        },
        {
          "indexed": true,
          "internalType": "address",
          "name": "asset",
          "type": "address"
        },
        {
          "indexed": true,
          "internalType": "address",
          "name": "user",
          "type": "address"
        },
        {
          "indexed": false,
          "internalType": "uint256",
          "name": "liquidatedCollateralAmount",
          "type": "uint256"
        },
        {
          "indexed": false,
          "internalType": "address",
          "name": "liquidator",
          "type": "address"
        }
      ],
      "name": "Liquidate",
      "type": "event"
    },
    {
      "anonymous": false,
      "inputs": [
        {
          "indexed": true,
          "internalType": "address",
          "name": "pair",
          "type": "address"
        },
        {
          "indexed": true,
          "internalType": "address",
          "name": "asset",
          "type": "address"
        },
        {
          "indexed": true,
          "internalType": "address",
          "name": "user",
          "type": "address"
        },
        {
          "indexed": false,
          "internalType": "address",
          "name": "to",
          "type": "address"
        },
        {
          "indexed": false,
          "internalType": "uint256",
          "name": "amount",
          "type": "uint256"
        },
        {
          "indexed": false,
          "internalType": "uint256",
          "name": "amountofWrappedBurned",
          "type": "uint256"
        }
      ],
      "name": "Redeem",
      "type": "event"
    },
    {
      "anonymous": false,
      "inputs": [
        {
          "indexed": true,
          "internalType": "address",
          "name": "pair",
          "type": "address"
        },
        {
          "indexed": true,
          "internalType": "address",
          "name": "asset",
          "type": "address"
        },
        {
          "indexed": true,
          "internalType": "address",
          "name": "beneficiary",
          "type": "address"
        },
        {
          "indexed": false,
          "internalType": "address",
          "name": "repayer",
          "type": "address"
        },
        {
          "indexed": false,
          "internalType": "uint256",
          "name": "amount",
          "type": "uint256"
        }
      ],
      "name": "Repay",
      "type": "event"
    },
    {
      "anonymous": false,
      "inputs": [
        {
          "indexed": false,
          "internalType": "address",
          "name": "user",
          "type": "address"
        },
        {
          "indexed": false,
          "internalType": "uint256",
          "name": "shares",
          "type": "uint256"
        }
      ],
      "name": "ReserveWithdraw",
      "type": "event"
    },
    {
      "anonymous": false,
      "inputs": [
        {
          "indexed": false,
          "internalType": "address",
          "name": "account",
          "type": "address"
        },
        {
          "indexed": false,
          "internalType": "uint256",
          "name": "amount",
          "type": "uint256"
        }
      ],
      "name": "WithdrawCollateral",
      "type": "event"
    },
    {
      "inputs": [],
      "name": "VERSION",
      "outputs": [
        {
          "internalType": "uint256",
          "name": "",
          "type": "uint256"
        }
      ],
      "stateMutability": "view",
      "type": "function"
    },
    {
      "inputs": [
        {
          "internalType": "address",
          "name": "",
          "type": "address"
        }
      ],
      "name": "accountInterestIndex",
      "outputs": [
        {
          "internalType": "uint256",
          "name": "",
          "type": "uint256"
        }
      ],
      "stateMutability": "view",
      "type": "function"
    },
    {
      "inputs": [],
      "name": "accrueInterest",
      "outputs": [],
      "stateMutability": "nonpayable",
      "type": "function"
    },
    {
      "inputs": [],
      "name": "asset",
      "outputs": [
        {
          "internalType": "contract IERC20",
          "name": "",
          "type": "address"
        }
      ],
      "stateMutability": "view",
      "type": "function"
    },
    {
      "inputs": [
        {
          "internalType": "uint256",
          "name": "_amountToBorrow",
          "type": "uint256"
        },
        {
          "internalType": "address",
          "name": "_debtOwner",
          "type": "address"
        }
      ],
      "name": "borrow",
      "outputs": [],
      "stateMutability": "nonpayable",
      "type": "function"
    },
    {
      "inputs": [
        {
          "internalType": "address",
          "name": "_account",
          "type": "address"
        }
      ],
      "name": "borrowBalanceCurrent",
      "outputs": [
        {
          "internalType": "uint256",
          "name": "",
          "type": "uint256"
        }
      ],
      "stateMutability": "nonpayable",
      "type": "function"
    },
    {
      "inputs": [
        {
          "internalType": "address",
          "name": "_account",
          "type": "address"
        }
      ],
      "name": "borrowBalancePrior",
      "outputs": [
        {
          "internalType": "uint256",
          "name": "balance",
          "type": "uint256"
        }
      ],
      "stateMutability": "view",
      "type": "function"
    },
    {
      "inputs": [],
      "name": "borrowIndex",
      "outputs": [
        {
          "internalType": "uint256",
          "name": "",
          "type": "uint256"
        }
      ],
      "stateMutability": "view",
      "type": "function"
    },
    {
      "inputs": [
        {
          "internalType": "uint256",
          "name": "_collateralValueInUSD",
          "type": "uint256"
        }
      ],
      "name": "calcBorrowLimit",
      "outputs": [
        {
          "internalType": "uint256",
          "name": "",
          "type": "uint256"
        }
      ],
      "stateMutability": "view",
      "type": "function"
    },
    {
      "inputs": [
        {
          "internalType": "uint256",
          "name": "_borrowAmount",
          "type": "uint256"
        }
      ],
      "name": "calcCollateralRequired",
      "outputs": [
        {
          "internalType": "uint256",
          "name": "",
          "type": "uint256"
        }
      ],
      "stateMutability": "view",
      "type": "function"
    },
    {
      "inputs": [
        {
          "internalType": "uint256",
          "name": "_amount",
          "type": "uint256"
        }
      ],
      "name": "calculateLiquidationFee",
      "outputs": [
        {
          "internalType": "uint256",
          "name": "fee",
          "type": "uint256"
        }
      ],
      "stateMutability": "view",
      "type": "function"
    },
    {
      "inputs": [],
      "name": "collateralAsset",
      "outputs": [
        {
          "internalType": "contract IERC20",
          "name": "",
          "type": "address"
        }
      ],
      "stateMutability": "view",
      "type": "function"
    },
    {
      "inputs": [],
      "name": "collateralFactor",
      "outputs": [
        {
          "internalType": "uint256",
          "name": "",
          "type": "uint256"
        }
      ],
      "stateMutability": "view",
      "type": "function"
    },
    {
      "inputs": [
        {
          "internalType": "address",
          "name": "_account",
          "type": "address"
        }
      ],
      "name": "collateralOfAccount",
      "outputs": [
        {
          "internalType": "uint256",
          "name": "",
          "type": "uint256"
        }
      ],
      "stateMutability": "view",
      "type": "function"
    },
    {
      "inputs": [],
      "name": "debtToken",
      "outputs": [
        {
          "internalType": "contract IDebtToken",
          "name": "",
          "type": "address"
        }
      ],
      "stateMutability": "view",
      "type": "function"
    },
    {
      "inputs": [
        {
          "internalType": "address",
          "name": "_tokenReceipeint",
          "type": "address"
        },
        {
          "internalType": "uint256",
          "name": "_amount",
          "type": "uint256"
        }
      ],
      "name": "depositBorrowAsset",
      "outputs": [],
      "stateMutability": "nonpayable",
      "type": "function"
    },
    {
      "inputs": [
        {
          "internalType": "address",
          "name": "_tokenRecipient",
          "type": "address"
        },
        {
          "internalType": "uint256",
          "name": "_amount",
          "type": "uint256"
        }
      ],
      "name": "depositCollateral",
      "outputs": [],
      "stateMutability": "nonpayable",
      "type": "function"
    },
    {
      "inputs": [],
      "name": "exchangeRateCurrent",
      "outputs": [
        {
          "internalType": "uint256",
          "name": "",
          "type": "uint256"
        }
      ],
      "stateMutability": "nonpayable",
      "type": "function"
    },
    {
      "inputs": [],
      "name": "feeWithdrawalAddr",
      "outputs": [
        {
          "internalType": "address",
          "name": "",
          "type": "address"
        }
      ],
      "stateMutability": "view",
      "type": "function"
    },
    {
      "inputs": [
        {
          "internalType": "address",
          "name": "_account",
          "type": "address"
        }
      ],
      "name": "getBorrowLimit",
      "outputs": [
        {
          "internalType": "uint256",
          "name": "",
          "type": "uint256"
        }
      ],
      "stateMutability": "view",
      "type": "function"
    },
    {
      "inputs": [
        {
          "internalType": "address",
          "name": "_account",
          "type": "address"
        }
      ],
      "name": "getBorrowLimitInUSD",
      "outputs": [
        {
          "internalType": "uint256",
          "name": "",
          "type": "uint256"
        }
      ],
      "stateMutability": "nonpayable",
      "type": "function"
    },
    {
      "inputs": [],
      "name": "getCashPrior",
      "outputs": [
        {
          "internalType": "uint256",
          "name": "",
          "type": "uint256"
        }
      ],
      "stateMutability": "view",
      "type": "function"
    },
    {
      "inputs": [
        {
          "internalType": "address",
          "name": "_account",
          "type": "address"
        }
      ],
      "name": "getMaxWithdrawAllowed",
      "outputs": [
        {
          "internalType": "uint256",
          "name": "",
          "type": "uint256"
        }
      ],
      "stateMutability": "nonpayable",
      "type": "function"
    },
    {
      "inputs": [],
      "name": "getPriceOfBorrowAsset",
      "outputs": [
        {
          "internalType": "uint256",
          "name": "",
          "type": "uint256"
        }
      ],
      "stateMutability": "nonpayable",
      "type": "function"
    },
    {
      "inputs": [],
      "name": "getPriceOfCollateral",
      "outputs": [
        {
          "internalType": "uint256",
          "name": "",
          "type": "uint256"
        }
      ],
      "stateMutability": "nonpayable",
      "type": "function"
    },
    {
      "inputs": [
        {
          "internalType": "contract IERC20",
          "name": "_token",
          "type": "address"
        },
        {
          "internalType": "uint256",
          "name": "_amount",
          "type": "uint256"
        }
      ],
      "name": "getPriceOfToken",
      "outputs": [
        {
          "internalType": "uint256",
          "name": "",
          "type": "uint256"
        }
      ],
      "stateMutability": "nonpayable",
      "type": "function"
    },
    {
      "inputs": [
        {
          "internalType": "address",
          "name": "_account",
          "type": "address"
        }
      ],
      "name": "getTotalAvailableCollateralValue",
      "outputs": [
        {
          "internalType": "uint256",
          "name": "",
          "type": "uint256"
        }
      ],
      "stateMutability": "view",
      "type": "function"
    },
    {
      "inputs": [
        {
          "internalType": "address",
          "name": "_account",
          "type": "address"
        }
      ],
      "name": "getTotalAvailableCollateralValueInUSD",
      "outputs": [
        {
          "internalType": "uint256",
          "name": "",
          "type": "uint256"
        }
      ],
      "stateMutability": "nonpayable",
      "type": "function"
    },
    {
      "inputs": [
        {
          "internalType": "string",
          "name": "_name",
          "type": "string"
        },
        {
          "internalType": "string",
          "name": "_symbol",
          "type": "string"
        },
        {
          "internalType": "contract IERC20",
          "name": "_asset",
          "type": "address"
        },
        {
          "internalType": "contract IERC20",
          "name": "_collateralAsset",
          "type": "address"
        },
        {
          "components": [
            {
              "internalType": "uint256",
              "name": "initialExchangeRateMantissa",
              "type": "uint256"
            },
            {
              "internalType": "uint256",
              "name": "reserveFactorMantissa",
              "type": "uint256"
            },
            {
              "internalType": "uint256",
              "name": "collateralFactor",
              "type": "uint256"
            },
            {
              "internalType": "contract IBSWrapperToken",
              "name": "wrappedBorrowAsset",
              "type": "address"
            },
            {
              "internalType": "uint256",
              "name": "liquidationFee",
              "type": "uint256"
            },
            {
              "internalType": "contract IDebtToken",
              "name": "debtToken",
              "type": "address"
            }
          ],
          "internalType": "struct DataTypes.BorrowAssetConfig",
          "name": "borrowConfig",
          "type": "tuple"
        },
        {
          "internalType": "contract IBSWrapperToken",
          "name": "_wrappedCollateralAsset",
          "type": "address"
        },
        {
          "internalType": "contract IInterestRateModel",
          "name": "_interestRate",
          "type": "address"
        },
        {
          "internalType": "address",
          "name": "_pauseGuardian",
          "type": "address"
        }
      ],
      "name": "initialize",
      "outputs": [],
      "stateMutability": "nonpayable",
      "type": "function"
    },
    {
      "inputs": [],
      "name": "interestRate",
      "outputs": [
        {
          "internalType": "contract IInterestRateModel",
          "name": "",
          "type": "address"
        }
      ],
      "stateMutability": "view",
      "type": "function"
    },
    {
      "inputs": [
        {
          "internalType": "address",
          "name": "_borrower",
          "type": "address"
        }
      ],
      "name": "liquidate",
      "outputs": [],
      "stateMutability": "nonpayable",
      "type": "function"
    },
    {
      "inputs": [],
      "name": "liquidationFee",
      "outputs": [
        {
          "internalType": "uint256",
          "name": "",
          "type": "uint256"
        }
      ],
      "stateMutability": "view",
      "type": "function"
    },
    {
      "inputs": [],
      "name": "name",
      "outputs": [
        {
          "internalType": "string",
          "name": "",
          "type": "string"
        }
      ],
      "stateMutability": "view",
      "type": "function"
    },
    {
      "inputs": [],
      "name": "oracle",
      "outputs": [
        {
          "internalType": "contract IPriceOracleAggregator",
          "name": "",
          "type": "address"
        }
      ],
      "stateMutability": "view",
      "type": "function"
    },
    {
      "inputs": [
        {
          "internalType": "enum LendingPair.Actions",
          "name": "action",
          "type": "uint8"
        }
      ],
      "name": "pause",
      "outputs": [],
      "stateMutability": "nonpayable",
      "type": "function"
    },
    {
      "inputs": [],
      "name": "pauseGuardian",
      "outputs": [
        {
          "internalType": "address",
          "name": "",
          "type": "address"
        }
      ],
      "stateMutability": "view",
      "type": "function"
    },
    {
      "inputs": [
        {
          "internalType": "enum LendingPair.Actions",
          "name": "",
          "type": "uint8"
        }
      ],
      "name": "pauseStatus",
      "outputs": [
        {
          "internalType": "bool",
          "name": "",
          "type": "bool"
        }
      ],
      "stateMutability": "view",
      "type": "function"
    },
    {
      "inputs": [],
      "name": "protocolLiquidationFeeShare",
      "outputs": [
        {
          "internalType": "uint256",
          "name": "",
          "type": "uint256"
        }
      ],
      "stateMutability": "view",
      "type": "function"
    },
    {
      "inputs": [
        {
          "internalType": "address",
          "name": "_to",
          "type": "address"
        },
        {
          "internalType": "uint256",
          "name": "_amount",
          "type": "uint256"
        }
      ],
      "name": "redeem",
      "outputs": [],
      "stateMutability": "nonpayable",
      "type": "function"
    },
    {
      "inputs": [
        {
          "internalType": "uint256",
          "name": "_repayAmount",
          "type": "uint256"
        },
        {
          "internalType": "address",
          "name": "_beneficiary",
          "type": "address"
        }
      ],
      "name": "repay",
      "outputs": [],
      "stateMutability": "nonpayable",
      "type": "function"
    },
    {
      "inputs": [],
      "name": "symbol",
      "outputs": [
        {
          "internalType": "string",
          "name": "",
          "type": "string"
        }
      ],
      "stateMutability": "view",
      "type": "function"
    },
    {
      "inputs": [],
      "name": "totalBorrows",
      "outputs": [
        {
          "internalType": "uint256",
          "name": "",
          "type": "uint256"
        }
      ],
      "stateMutability": "view",
      "type": "function"
    },
    {
      "inputs": [],
      "name": "totalReserves",
      "outputs": [
        {
          "internalType": "uint256",
          "name": "",
          "type": "uint256"
        }
      ],
      "stateMutability": "view",
      "type": "function"
    },
    {
      "inputs": [
        {
          "internalType": "enum LendingPair.Actions",
          "name": "action",
          "type": "uint8"
        }
      ],
      "name": "unpause",
      "outputs": [],
      "stateMutability": "nonpayable",
      "type": "function"
    },
    {
      "inputs": [],
      "name": "vault",
      "outputs": [
        {
          "internalType": "contract IBSVault",
          "name": "",
          "type": "address"
        }
      ],
      "stateMutability": "view",
      "type": "function"
    },
    {
      "inputs": [
        {
          "internalType": "uint8[]",
          "name": "actions",
          "type": "uint8[]"
        },
        {
          "internalType": "bytes[]",
          "name": "data",
          "type": "bytes[]"
        }
      ],
      "name": "warp",
      "outputs": [],
      "stateMutability": "nonpayable",
      "type": "function"
    },
    {
      "inputs": [
        {
          "internalType": "uint256",
          "name": "_amount",
          "type": "uint256"
        }
      ],
      "name": "withdrawCollateral",
      "outputs": [],
      "stateMutability": "nonpayable",
      "type": "function"
    },
    {
      "inputs": [
        {
          "internalType": "uint256",
          "name": "_toWithdraw",
          "type": "uint256"
        }
      ],
      "name": "withdrawFees",
      "outputs": [],
      "stateMutability": "nonpayable",
      "type": "function"
    },
    {
      "inputs": [],
      "name": "wrappedCollateralAsset",
      "outputs": [
        {
          "internalType": "contract IBSWrapperToken",
          "name": "",
          "type": "address"
        }
      ],
      "stateMutability": "view",
      "type": "function"
    },
    {
      "inputs": [],
      "name": "wrapperBorrowedAsset",
      "outputs": [
        {
          "internalType": "contract IBSWrapperToken",
          "name": "",
          "type": "address"
        }
      ],
      "stateMutability": "view",
      "type": "function"
    }
  ],
  "transactionHash": "0x6036874918529da520a5c932761ce5c8d35dc54d4a5933f676812de3d54eae3e",
  "args": [
    "0xfd3EA93075DDf1c3C2D3Bc63E9599Ea8cF8768F9",
    "0x137705fFa352b58Bf2156Fff4404924EE7553Ba3",
    "0x97a5b1c6381b1EC5E582E11B3F6Edcf0A329F4b1",
    "50000000000000000"
  ],
  "solcInputHash": "93ebaa441e3462400e4372fabffe5451",
  "bytecode": "0x6101006040523480156200001257600080fd5b5060405162004add38038062004add8339810160408190526200003591620000e3565b6001600160a01b038416620000675760405162461bcd60e51b81526004016200005e906200015a565b60405180910390fd5b6001600160a01b038316620000905760405162461bcd60e51b81526004016200005e906200015a565b6001600160a01b038216620000b95760405162461bcd60e51b81526004016200005e906200013c565b6001600160601b0319606094851b811660805292841b831660c052921b1660e05260a05262000190565b60008060008060808587031215620000f9578384fd5b8451620001068162000177565b6020860151909450620001198162000177565b60408601519093506200012c8162000177565b6060959095015193969295505050565b6020808252600490820152634956574160e01b604082015260600190565b60208082526003908201526204956360ec1b604082015260600190565b6001600160a01b03811681146200018d57600080fd5b50565b60805160601c60a05160c05160601c60e05160601c61481c620002c1600039600081816116030152818161168201526132c7015260008181610d24015281816110c10152818161124801528181611f5001528181611f770152612293015260008181610ca70152610e400152600081816108180152818161094601528181610a9e01528181610b6d01528181610ef40152818161136c015281816114b2015281816115ce0152818161176b01528181611e94015281816120a80152818161214f015281816125840152818161262e015281816126f101528181612861015281816129d501528181612d3201528181612e3801528181612ee301528181612fd201528181613098015281816131450152818161332b015281816133f0015281816134980152613671015261481c6000f3fe608060405234801561001057600080fd5b50600436106103365760003560e01c80637c3a00fd116101b2578063bd6d894d116100f9578063ed6072f6116100a2578063f8d898981161007c578063f8d89898146105fd578063f919b4bf14610605578063fbfa77cf14610618578063ffa1ad741461062057610336565b8063ed6072f6146105cf578063edf07f15146105e2578063f1ab8f70146105f557610336565b8063dcec3124116100d3578063dcec3124146105ac578063dd5a612c146105bf578063df011c41146105c757610336565b8063bd6d894d1461057e578063cc9da5d614610586578063da4f7fb21461059957610336565b8063a5d5db0c1161015b578063aa5af0fd11610135578063aa5af0fd1461055b578063aabaecd614610563578063acb708151461056b57610336565b8063a5d5db0c14610538578063a5f688ee1461054b578063a6afed951461055357610336565b80638f840ddd1161018c5780638f840ddd1461052057806395d89b4114610528578063a36a36301461053057610336565b80637c3a00fd146104fd5780637dc0d1d01461050557806388c342ea1461050d57610336565b806347bd37181161028157806362f256e71161022a5780637746efab116102045780637746efab146104b15780637820f63b146104c45780637af70ba6146104d75780637c17d237146104ea57610336565b806362f256e71461047857806364cc85f11461048b5780636f427d821461049e57610336565b80635e318e071161025b5780635e318e071461043f5780636112fe2e1461045257806362546c401461046557610336565b806347bd37181461041c5780634b3fd14814610424578063588785401461043757610336565b80632bca5f35116102e3578063360e303a116102bd578063360e303a1461040457806338d52e0f1461040c5780633bfc7be81461041457610336565b80632bca5f35146103be5780632f865568146103de578063301c7e5d146103f157610336565b806323b9db031161031457806323b9db031461038e57806324a3d622146103a157806324d873f7146103b657610336565b806306fdde031461033b57806317bfdfbc146103595780631e9a695014610379575b600080fd5b610343610628565b604051610350919061407e565b60405180910390f35b61036c610367366004613bed565b6106b6565b60405161035091906144b6565b61038c610387366004613cd6565b6106d1565b005b61038c61039c366004613cd6565b610a0f565b6103a9610c96565b6040516103509190613f61565b61036c610ca5565b6103d16103cc366004613d6a565b610cc9565b604051610350919061400c565b61038c6103ec366004613bed565b610cde565b61038c6103ff366004613d6a565b610f9d565b6103a9611086565b6103a9611095565b61036c6110a4565b61036c61114f565b61038c610432366004613efa565b6111a8565b6103a9611572565b61038c61044d366004613eca565b611581565b61038c610460366004613eca565b6116b0565b61038c610473366004613d89565b611819565b61036c610486366004613eca565b611c93565b61036c610499366004613bed565b611cb6565b61036c6104ac366004613bed565b611cc8565b61036c6104bf366004613bed565b611d94565b61036c6104d2366004613bed565b611e66565b61036c6104e5366004613bed565b611e84565b61036c6104f8366004613bed565b611f33565b6103a9611f3f565b6103a9611f4e565b61036c61051b366004613cd6565b611f72565b61036c612026565b61034361202c565b61036c612039565b61038c610546366004613cd6565b61203f565b61036c612276565b61038c6122c9565b61036c6124ee565b6103a96124f4565b61038c610579366004613efa565b612503565b61036c612834565b61036c610594366004613bed565b6129bd565b61036c6105a7366004613eca565b612a71565b61038c6105ba366004613d01565b612a8a565b61036c613079565b61036c6131d8565b61036c6105dd366004613eca565b6131de565b61038c6105f0366004613d6a565b6131f6565b6103a96132c5565b6103a96132e9565b61036c610613366004613bed565b6132f8565b6103a9613329565b61036c61334d565b6001805461063590614738565b80601f016020809104026020016040519081016040528092919081815260200182805461066190614738565b80156106ae5780601f10610683576101008083540402835291602001916106ae565b820191906000526020600020905b81548152906001019060200180831161069157829003601f168201915b505050505081565b60006106c06122c9565b6106c982611d94565b90505b919050565b6001600160a01b0382166107005760405162461bcd60e51b81526004016106f79061432b565b60405180910390fd5b610708613a57565b600e546040516370a0823160e01b81526001600160a01b03909116906370a0823190610738903390600401613f61565b60206040518083038186803b15801561075057600080fd5b505afa158015610764573d6000803e3d6000fd5b505050506040513d601f19601f820116820180604052508101906107889190613ee2565b6040820152610795612834565b81526040805160208101825282518152908201516107b39190613352565b6060820152816107cc57606081015160808201526107d4565b608081018290525b6107f4816080015160405180602001604052808460000151815250613372565b60208201526080810151600c54604051633de222bb60e21b81526001600160a01b037f000000000000000000000000000000000000000000000000000000000000000081169263f7888aec926108539291909116903090600401614017565b60206040518083038186803b15801561086b57600080fd5b505afa15801561087f573d6000803e3d6000fd5b505050506040513d601f19601f820116820180604052508101906108a39190613ee2565b10156108c15760405162461bcd60e51b81526004016106f790614447565b600e546020820151604051632770a7eb60e21b81526001600160a01b0390921691639dc29fac916108f791339190600401613fd2565b600060405180830381600087803b15801561091157600080fd5b505af1158015610925573d6000803e3d6000fd5b5050600c546080840151604051633c6340f360e21b81526001600160a01b037f00000000000000000000000000000000000000000000000000000000000000008116955063f18d03cc94506109839316913091899190600401614031565b600060405180830381600087803b15801561099d57600080fd5b505af11580156109b1573d6000803e3d6000fd5b5050600c54608084015160208501516040513395506001600160a01b03909316935030927f18fd144d7dbcbaa6f00fd47a84adc7dc3cc64a326ffa2dc7691a25e3837dba0392610a02928a92613feb565b60405180910390a4505050565b600080805260126020527f7e7fa33969761a458e04f477e039a608702b4f924981d6653935a8319a08ad7b5460ff1615610a5b5760405162461bcd60e51b81526004016106f7906140ec565b6001600160a01b038316610a815760405162461bcd60e51b81526004016106f79061417e565b600c54604051636d289ce560e11b81526000916001600160a01b037f000000000000000000000000000000000000000000000000000000000000000081169263da5139ca92610ad89216908790869060040161405b565b60206040518083038186803b158015610af057600080fd5b505afa158015610b04573d6000803e3d6000fd5b505050506040513d601f19601f82011682018060405250810190610b289190613ee2565b90506000610b34612834565b90506000610b5083604051806020016040528085815250613372565b600c54604051633c6340f360e21b81529192506001600160a01b037f000000000000000000000000000000000000000000000000000000000000000081169263f18d03cc92610ba9921690339030908990600401614031565b600060405180830381600087803b158015610bc357600080fd5b505af1158015610bd7573d6000803e3d6000fd5b5050600e546040516340c10f1960e01b81526001600160a01b0390911692506340c10f199150610c0d9089908590600401613fd2565b600060405180830381600087803b158015610c2757600080fd5b505af1158015610c3b573d6000803e3d6000fd5b5050600c546040516001600160a01b038a81169450909116915030907fa856e8f098813135735b4d4f52d96083d1dbb35fd5603ff424661413f59c281090610c869033908990613fd2565b60405180910390a4505050505050565b600b546001600160a01b031681565b7f000000000000000000000000000000000000000000000000000000000000000081565b60126020526000908152604090205460ff1681565b336001600160a01b0382161415610d075760405162461bcd60e51b81526004016106f7906141b6565b600c54604051630226614760e01b81526000916001600160a01b037f0000000000000000000000000000000000000000000000000000000000000000811692630226614792610d5a921690600401613f61565b602060405180830381600087803b158015610d7457600080fd5b505af1158015610d88573d6000803e3d6000fd5b505050506040513d601f19601f82011682018060405250810190610dac9190613ee2565b90506000610db8612276565b90506000610dc5846106b6565b9050600083610de383600360149054906101000a900460ff1661337f565b610ded91906146df565b9050600083610e10610dfe88611f33565b600354600160a81b900460ff1661337f565b610e1a91906146df565b9050818111610f95576000610e2e84611c93565b90506000670de0b6b3a7640000610e657f0000000000000000000000000000000000000000000000000000000000000000846146df565b610e6f91906145a8565b9050610e86883387610e818582614590565b6133d3565b6001600160a01b038816600090815260116020526040812055600854610ead908290614590565b6008556000610ebc8387614590565b610ec690896146df565b90506000610ed488836145a8565b600d54604051636d289ce560e11b81529192506000916001600160a01b037f000000000000000000000000000000000000000000000000000000000000000081169263da5139ca92610f32929190911690869060019060040161405b565b60206040518083038186803b158015610f4a57600080fd5b505afa158015610f5e573d6000803e3d6000fd5b505050506040513d601f19601f82011682018060405250810190610f829190613ee2565b9050610f8f8b3383613566565b50505050505b505050505050565b600b546001600160a01b03163314610fc75760405162461bcd60e51b81526004016106f79061434b565b600060126000836001811115610fed57634e487b7160e01b600052602160045260246000fd5b600181111561100c57634e487b7160e01b600052602160045260246000fd5b81526020810191909152604001600020805460ff19169115159190911790557fdfa820e666ed1059467a5c9faba2d85f0cb8a9bf8b871537a12766ff5f20107f81600181111561106c57634e487b7160e01b600052602160045260246000fd5b4260405161107b929190614507565b60405180910390a150565b600f546001600160a01b031681565b600c546001600160a01b031681565b600c54604051630226614760e01b81526000916001600160a01b037f00000000000000000000000000000000000000000000000000000000000000008116926302266147926110f7921690600401613f61565b602060405180830381600087803b15801561111157600080fd5b505af1158015611125573d6000803e3d6000fd5b505050506040513d601f19601f820116820180604052508101906111499190613ee2565b90505b90565b601054604080516318160ddd60e01b815290516000926001600160a01b0316916318160ddd916004808301926020929190829003018186803b15801561119457600080fd5b505afa158015611125573d6000803e3d6000fd5b6001600081905260126020527f71a67924699a20698523213e55fe499d539379d7769cd5567e2c45d583f815a35460ff16156111f65760405162461bcd60e51b81526004016106f7906140ec565b6001600160a01b03821661121c5760405162461bcd60e51b81526004016106f7906142f4565b600354600c54600160a01b90910460ff16906001600160a01b03166000611242856106b6565b905060007f00000000000000000000000000000000000000000000000000000000000000006001600160a01b03166302266147846040518263ffffffff1660e01b81526004016112929190613f61565b602060405180830381600087803b1580156112ac57600080fd5b505af11580156112c0573d6000803e3d6000fd5b505050506040513d601f19601f820116820180604052508101906112e49190613ee2565b90506000816112f3848761337f565b6112fd91906146df565b90506000611309612276565b611315610dfe8a611f33565b61131f91906146df565b9050600061132d83836146fe565b905060008461133c8c8a61337f565b61134691906146df565b9050808210156113685760405162461bcd60e51b81526004016106f7906143bd565b60007f00000000000000000000000000000000000000000000000000000000000000006001600160a01b031663da5139ca898e60006040518463ffffffff1660e01b81526004016113bb9392919061405b565b60206040518083038186803b1580156113d357600080fd5b505afa1580156113e7573d6000803e3d6000fd5b505050506040513d601f19601f8201168201806040525081019061140b9190613ee2565b9050601060009054906101000a90046001600160a01b03166001600160a01b031663c6c3bbe68c338f6040518463ffffffff1660e01b815260040161145293929190613fae565b600060405180830381600087803b15801561146c57600080fd5b505af1158015611480573d6000803e3d6000fd5b50506007546001600160a01b03808f1660009081526011602052604090819020929092559051633c6340f360e21b81527f0000000000000000000000000000000000000000000000000000000000000000909116925063f18d03cc91506114f1908b90309033908790600401614031565b600060405180830381600087803b15801561150b57600080fd5b505af115801561151f573d6000803e3d6000fd5b50505050336001600160a01b03167fcbc04eca7e9da35cb1393a6135a199ca52e450d5e9251cbd99f7847d33a367508d60405161155c91906144b6565b60405180910390a2505050505050505050505050565b600e546001600160a01b031681565b8060085410156115a35760405162461bcd60e51b81526004016106f790614447565b806008546115b191906146fe565b600855600c54604051633c6340f360e21b81526001600160a01b037f000000000000000000000000000000000000000000000000000000000000000081169263f18d03cc9261162d92919091169030907f0000000000000000000000000000000000000000000000000000000000000000908790600401614031565b600060405180830381600087803b15801561164757600080fd5b505af115801561165b573d6000803e3d6000fd5b505050507f0529afc4538720fe0b3eadc40486369ab962002d72fead1387b300c66073e7bf7f00000000000000000000000000000000000000000000000000000000000000008260405161107b929190613fd2565b6000806116bc33611cc8565b9050826116cb578091506116cf565b8291505b818110156116ef5760405162461bcd60e51b81526004016106f790614386565b600f54604051632770a7eb60e21b81526001600160a01b0390911690639dc29fac906117219033908690600401613fd2565b600060405180830381600087803b15801561173b57600080fd5b505af115801561174f573d6000803e3d6000fd5b5050600d54604051633c6340f360e21b81526001600160a01b037f00000000000000000000000000000000000000000000000000000000000000008116945063f18d03cc93506117a9921690309033908890600401614031565b600060405180830381600087803b1580156117c357600080fd5b505af11580156117d7573d6000803e3d6000fd5b505050507fa8e76b822fc682be77f3b1c822ea81f6bda5aed92ba82e6873bfd889f328d1d2338360405161180c929190613fd2565b60405180910390a1505050565b600054610100900460ff16806118325750611832613728565b80611840575060005460ff16155b61185c5760405162461bcd60e51b81526004016106f790614228565b600054610100900460ff16158015611887576000805460ff1961ff0019909116610100171660011790555b6001600160a01b038716158015906118a757506001600160a01b03861615155b6118c35760405162461bcd60e51b81526004016106f790614499565b6001600160a01b0382166118e95760405162461bcd60e51b81526004016106f79061420b565b306001600160a01b0316846001600160a01b0316638da5cb5b6040518163ffffffff1660e01b815260040160206040518083038186803b15801561192c57600080fd5b505afa158015611940573d6000803e3d6000fd5b505050506040513d601f19601f820116820180604052508101906119649190613c09565b6001600160a01b03161461198a5760405162461bcd60e51b81526004016106f79061410c565b6001600160a01b0383166119b05760405162461bcd60e51b81526004016106f7906141ed565b60008560800135116119d45760405162461bcd60e51b81526004016106f790614368565b6119ed306119e736889003880188613e60565b9061372e565b8851611a009060019060208c0190613a86565b508751611a149060029060208b0190613a86565b50600b80546001600160a01b038085166001600160a01b031992831617909255600c80548a8416908316179055600d80548984169083161790556003805492861692909116919091179055670de0b6b3a7640000600755843560045560208501356005556040850135600955608085018035600a55611a969060608701613bed565b600e80546001600160a01b0319166001600160a01b0392909216919091179055611ac660c0860160a08701613bed565b601080546001600160a01b03199081166001600160a01b0393841617909155600f8054909116868316179055600c546040805163313ce56760e01b81529051919092169163313ce567916004808301926020929190829003018186803b158015611b2f57600080fd5b505afa158015611b43573d6000803e3d6000fd5b505050506040513d601f19601f82011682018060405250810190611b679190613f45565b600360146101000a81548160ff021916908360ff160217905550600d60009054906101000a90046001600160a01b03166001600160a01b031663313ce5676040518163ffffffff1660e01b815260040160206040518083038186803b158015611bcf57600080fd5b505afa158015611be3573d6000803e3d6000fd5b505050506040513d601f19601f82011682018060405250810190611c079190613f45565b600360156101000a81548160ff021916908360ff160217905550856001600160a01b0316876001600160a01b0316306001600160a01b03167f3514319b7a526ad5f1f42edf0c1df25fa0ea2ae054779987fbe636f164515e2f85604051611c6e9190613f61565b60405180910390a48015611c88576000805461ff00191690555b505050505050505050565b6000670de0b6b3a7640000600a5483611cac91906146df565b6106c991906145a8565b60116020526000908152604090205481565b600354600090600160a81b900460ff1681611cf7611ce5856106b6565b600354600160a01b900460ff1661337f565b90506000611d03612276565b600c54909150600090611d1f906001600160a01b031684611f72565b9050600082611d36611d3089611e84565b8761337f565b611d4091906146df565b90506000611d4d83612a71565b905080821015611d6657600096505050505050506106cc565b6000611d7b611d7583856146fe565b8861395a565b9050611d8785826145a8565b9998505050505050505050565b6010546040516316707ceb60e11b8152600091829182916001600160a01b031690632ce0f9d690611dc9908790600401613f61565b60206040518083038186803b158015611de157600080fd5b505afa158015611df5573d6000803e3d6000fd5b505050506040513d601f19601f82011682018060405250810190611e199190613ee2565b905080611e2b576000925050506106cc565b6001600160a01b038416600090815260116020526040902054600754611e5190836146df565b9250611e5d81846145a8565b95945050505050565b600080611e72836129bd565b9050611e7d816131de565b9392505050565b600d546000906001600160a01b037f0000000000000000000000000000000000000000000000000000000000000000811691635299493b9116611ec6856132f8565b6040518363ffffffff1660e01b8152600401611ee3929190613fd2565b60206040518083038186803b158015611efb57600080fd5b505afa158015611f0f573d6000803e3d6000fd5b505050506040513d601f19601f820116820180604052508101906106c99190613ee2565b600080611e7283611e84565b6003546001600160a01b031681565b7f000000000000000000000000000000000000000000000000000000000000000081565b6000817f00000000000000000000000000000000000000000000000000000000000000006001600160a01b03166302266147856040518263ffffffff1660e01b8152600401611fc19190613f61565b602060405180830381600087803b158015611fdb57600080fd5b505af1158015611fef573d6000803e3d6000fd5b505050506040513d601f19601f820116820180604052508101906120139190613ee2565b61201d91906146df565b90505b92915050565b60085481565b6002805461063590614738565b600a5481565b600080805260126020527f7e7fa33969761a458e04f477e039a608702b4f924981d6653935a8319a08ad7b5460ff161561208b5760405162461bcd60e51b81526004016106f7906140ec565b600d54604051636d289ce560e11b81526000916001600160a01b037f000000000000000000000000000000000000000000000000000000000000000081169263da5139ca926120e29216908790869060040161405b565b60206040518083038186803b1580156120fa57600080fd5b505afa15801561210e573d6000803e3d6000fd5b505050506040513d601f19601f820116820180604052508101906121329190613ee2565b600d54604051633c6340f360e21b81529192506001600160a01b037f000000000000000000000000000000000000000000000000000000000000000081169263f18d03cc9261218b921690339030908790600401614031565b600060405180830381600087803b1580156121a557600080fd5b505af11580156121b9573d6000803e3d6000fd5b5050600f546040516340c10f1960e01b81526001600160a01b0390911692506340c10f1991506121ef9087908590600401613fd2565b600060405180830381600087803b15801561220957600080fd5b505af115801561221d573d6000803e3d6000fd5b5050600d546040516001600160a01b038881169450909116915030907fa856e8f098813135735b4d4f52d96083d1dbb35fd5603ff424661413f59c2810906122689033908790613fd2565b60405180910390a450505050565b600d54604051630226614760e01b81526000916001600160a01b037f00000000000000000000000000000000000000000000000000000000000000008116926302266147926110f7921690600401613f61565b60006122d361397d565b6006549091508082141561231f577fe307fb74a265b8255fabc1154131917ce875f96118a807f88eda1e751722538d8260405161231091906144b6565b60405180910390a150506124ec565b6000612329613079565b9050600061233561114f565b6008546007546003546040516315f2405360e01b8152939450919290916000916001600160a01b03909116906315f2405390612379908890889088906004016144d6565b60206040518083038186803b15801561239157600080fd5b505afa1580156123a5573d6000803e3d6000fd5b505050506040513d601f19601f820116820180604052508101906123c99190613ee2565b905060006123d787896146fe565b90506123e1613b06565b60008060006123fe60405180602001604052808881525086613981565b935061240a848a613352565b92506124276040518060200160405280600554815250848a6139af565b91506124348488896139af565b60068d9055600781905560105460405163146fac4560e01b81529192506001600160a01b03169063146fac459061246f9086906004016144b6565b600060405180830381600087803b15801561248957600080fd5b505af115801561249d573d6000803e3d6000fd5b50505060088390555060065460075430917eaf397b333f747e35288f4f28a97dff5288f74200f7a94532e63e7bc9c2786d916124d9878e614590565b60085460405161155c94939291906144ec565b565b60075481565b600d546001600160a01b031681565b6001600160a01b0381166125295760405162461bcd60e51b81526004016106f790614410565b6000612534826106b6565b9050808311156125565760405162461bcd60e51b81526004016106f7906142bd565b600083612564575080612567565b50825b600c54604051636d289ce560e11b81526000916001600160a01b037f000000000000000000000000000000000000000000000000000000000000000081169263da5139ca926125bf921690869060019060040161405b565b60206040518083038186803b1580156125d757600080fd5b505afa1580156125eb573d6000803e3d6000fd5b505050506040513d601f19601f8201168201806040525081019061260f9190613ee2565b600c54604051633de222bb60e21b815291925082916001600160a01b037f000000000000000000000000000000000000000000000000000000000000000081169263f7888aec926126699291909116903390600401614017565b60206040518083038186803b15801561268157600080fd5b505afa158015612695573d6000803e3d6000fd5b505050506040513d601f19601f820116820180604052508101906126b99190613ee2565b10156126d75760405162461bcd60e51b81526004016106f790614447565b600c54604051633c6340f360e21b81526001600160a01b037f000000000000000000000000000000000000000000000000000000000000000081169263f18d03cc92612730929190911690339030908790600401614031565b600060405180830381600087803b15801561274a57600080fd5b505af115801561275e573d6000803e3d6000fd5b50506007546001600160a01b0380881660009081526011602052604090819020929092556010549151632770a7eb60e21b815291169250639dc29fac91506127ac9087908690600401613fd2565b600060405180830381600087803b1580156127c657600080fd5b505af11580156127da573d6000803e3d6000fd5b5050600c546040516001600160a01b038881169450909116915030907f15e061f85ae0cc955acf34c814a39567895400d498e2e52faa1fbe370bbe46f2906128259033908890613fd2565b60405180910390a45050505050565b600061283e6122c9565b600c54600e54604080516318160ddd60e01b815290516000936001600160a01b037f0000000000000000000000000000000000000000000000000000000000000000811694635299493b94928216939116916318160ddd916004808301926020929190829003018186803b1580156128b557600080fd5b505afa1580156128c9573d6000803e3d6000fd5b505050506040513d601f19601f820116820180604052508101906128ed9190613ee2565b6040518363ffffffff1660e01b815260040161290a929190613fd2565b60206040518083038186803b15801561292257600080fd5b505afa158015612936573d6000803e3d6000fd5b505050506040513d601f19601f8201168201806040525081019061295a9190613ee2565b90508061296b57505060045461114c565b6000612975613079565b90506000612981613b06565b60085461298c61114f565b6129969085614590565b6129a091906146fe565b91506129ac82856139d2565b51945061114c9350505050565b5090565b600d546000906106c9906001600160a01b03908116907f000000000000000000000000000000000000000000000000000000000000000016635299493b82612a04876132f8565b6040518363ffffffff1660e01b8152600401612a21929190613fd2565b60206040518083038186803b158015612a3957600080fd5b505afa158015612a4d573d6000803e3d6000fd5b505050506040513d601f19601f8201168201806040525081019061051b9190613ee2565b6000670de0b6b3a764000060095483611cac91906146df565b828114612aa95760405162461bcd60e51b81526004016106f7906142a0565b60005b60ff811684111561307257600085858360ff16818110612adc57634e487b7160e01b600052603260045260246000fd5b9050602002016020810190612af19190613f29565b905060ff811660021415612b595760008085858560ff16818110612b2557634e487b7160e01b600052603260045260246000fd5b9050602002810190612b37919061451a565b810190612b449190613cd6565b91509150612b528282610a0f565b505061305f565b60ff811660011415612bb85760008085858560ff16818110612b8b57634e487b7160e01b600052603260045260246000fd5b9050602002810190612b9d919061451a565b810190612baa9190613cd6565b91509150612b52828261203f565b60ff811660031415612c175760008085858560ff16818110612bea57634e487b7160e01b600052603260045260246000fd5b9050602002810190612bfc919061451a565b810190612c099190613efa565b91509150612b528282612503565b60ff811660041415612c765760008085858560ff16818110612c4957634e487b7160e01b600052603260045260246000fd5b9050602002810190612c5b919061451a565b810190612c689190613cd6565b91509150612b5282826106d1565b60ff811660051415612cd757600084848460ff16818110612ca757634e487b7160e01b600052603260045260246000fd5b9050602002810190612cb9919061451a565b810190612cc69190613eca565b9050612cd1816116b0565b5061305f565b60ff811660061415612ddd57600080600086868660ff16818110612d0b57634e487b7160e01b600052603260045260246000fd5b9050602002810190612d1d919061451a565b810190612d2a9190613c96565b9250925092507f00000000000000000000000000000000000000000000000000000000000000006001600160a01b0316630284c3f5843385856040518563ffffffff1660e01b8152600401612d829493929190614031565b602060405180830381600087803b158015612d9c57600080fd5b505af1158015612db0573d6000803e3d6000fd5b505050506040513d601f19601f82011682018060405250810190612dd49190613ee2565b5050505061305f565b60ff811660071415612e8857600080600086868660ff16818110612e1157634e487b7160e01b600052603260045260246000fd5b9050602002810190612e23919061451a565b810190612e309190613c96565b9250925092507f00000000000000000000000000000000000000000000000000000000000000006001600160a01b0316630b620b81843385856040518563ffffffff1660e01b8152600401612d829493929190614031565b60ff811660081415612f6d57600080600086868660ff16818110612ebc57634e487b7160e01b600052603260045260246000fd5b9050602002810190612ece919061451a565b810190612edb9190613c96565b9250925092507f00000000000000000000000000000000000000000000000000000000000000006001600160a01b031663f18d03cc843385856040518563ffffffff1660e01b8152600401612f339493929190614031565b600060405180830381600087803b158015612f4d57600080fd5b505af1158015612f61573d6000803e3d6000fd5b5050505050505061305f565b60ff81166009141561305f5760008060008060008089898960ff16818110612fa557634e487b7160e01b600052603260045260246000fd5b9050602002810190612fb7919061451a565b810190612fc49190613c25565b9550955095509550955095507f00000000000000000000000000000000000000000000000000000000000000006001600160a01b0316633f21c1b48787878787876040518763ffffffff1660e01b815260040161302696959493929190613f75565b600060405180830381600087803b15801561304057600080fd5b505af1158015613054573d6000803e3d6000fd5b505050505050505050505b508061306a81614773565b915050612aac565b5050505050565b600c54604051633de222bb60e21b815260009182916001600160a01b037f000000000000000000000000000000000000000000000000000000000000000081169263f7888aec926130d39291909116903090600401614017565b60206040518083038186803b1580156130eb57600080fd5b505afa1580156130ff573d6000803e3d6000fd5b505050506040513d601f19601f820116820180604052508101906131239190613ee2565b9050801561114957600c54604051635299493b60e01b81526001600160a01b037f0000000000000000000000000000000000000000000000000000000000000000811692635299493b926131809291909116908590600401613fd2565b60206040518083038186803b15801561319857600080fd5b505afa1580156131ac573d6000803e3d6000fd5b505050506040513d601f19601f820116820180604052508101906131d09190613ee2565b91505061114c565b60095481565b600954600090611cac670de0b6b3a7640000846146df565b600b546001600160a01b031633146132205760405162461bcd60e51b81526004016106f79061434b565b60016012600083600181111561324657634e487b7160e01b600052602160045260246000fd5b600181111561326557634e487b7160e01b600052602160045260246000fd5b81526020810191909152604001600020805460ff19169115159190911790557feee4857a800dd0d59a522983fa5935c3d0e584b1b60f3552c4941706e6af58ed81600181111561106c57634e487b7160e01b600052602160045260246000fd5b7f000000000000000000000000000000000000000000000000000000000000000081565b6010546001600160a01b031681565b600f546040516370a0823160e01b81526000916001600160a01b0316906370a0823190611ee3908590600401613f61565b7f000000000000000000000000000000000000000000000000000000000000000081565b600181565b60008061335f8484613981565b905061336a81613a13565b949350505050565b60008061335f8484613a2b565b600060128260ff16106133b357613397601283614715565b6133a290600a61460e565b6133ac90846145a8565b9050612020565b6133be826012614715565b6133c990600a61460e565b6133ac90846146df565b600c54604051636d289ce560e11b81526000916001600160a01b037f000000000000000000000000000000000000000000000000000000000000000081169263da5139ca9261342b921690869060019060040161405b565b60206040518083038186803b15801561344357600080fd5b505afa158015613457573d6000803e3d6000fd5b505050506040513d601f19601f8201168201806040525081019061347b9190613ee2565b600c54604051633c6340f360e21b81529192506001600160a01b037f000000000000000000000000000000000000000000000000000000000000000081169263f18d03cc926134d4921690889030908790600401614031565b600060405180830381600087803b1580156134ee57600080fd5b505af1158015613502573d6000803e3d6000fd5b5050601054604051632770a7eb60e21b81526001600160a01b039091169250639dc29fac91506135389088908790600401613fd2565b600060405180830381600087803b15801561355257600080fd5b505af1158015611c88573d6000803e3d6000fd5b600f546040516370a0823160e01b81526000916001600160a01b0316906370a0823190613597908790600401613f61565b60206040518083038186803b1580156135af57600080fd5b505afa1580156135c3573d6000803e3d6000fd5b505050506040513d601f19601f820116820180604052508101906135e79190613ee2565b9050808211156135f5578091505b600f54604051632770a7eb60e21b81526001600160a01b0390911690639dc29fac906136279087908690600401613fd2565b600060405180830381600087803b15801561364157600080fd5b505af1158015613655573d6000803e3d6000fd5b5050600d54604051633c6340f360e21b81526001600160a01b037f00000000000000000000000000000000000000000000000000000000000000008116945063f18d03cc93506136af921690309088908890600401614031565b600060405180830381600087803b1580156136c957600080fd5b505af11580156136dd573d6000803e3d6000fd5b5050600d546040516001600160a01b038881169450909116915030907fcea6068021f706074af611c2a4b6b08820c5b8223a80149684c64c60ce7be3cc9061226890879089906144bf565b303b1590565b815161374c5760405162461bcd60e51b81526004016106f79061419b565b60008260200151116137705760405162461bcd60e51b81526004016106f79061447e565b60008260400151116137945760405162461bcd60e51b81526004016106f7906140d1565b60008260800151116137b85760405162461bcd60e51b81526004016106f790614285565b60608201516001600160a01b03166137e25760405162461bcd60e51b81526004016106f790614163565b60a08201516001600160a01b031661380c5760405162461bcd60e51b81526004016106f79061412a565b806001600160a01b031682606001516001600160a01b0316638da5cb5b6040518163ffffffff1660e01b815260040160206040518083038186803b15801561385357600080fd5b505afa158015613867573d6000803e3d6000fd5b505050506040513d601f19601f8201168201806040525081019061388b9190613c09565b6001600160a01b0316146138b15760405162461bcd60e51b81526004016106f7906143f4565b806001600160a01b03168260a001516001600160a01b0316638da5cb5b6040518163ffffffff1660e01b815260040160206040518083038186803b1580156138f857600080fd5b505afa15801561390c573d6000803e3d6000fd5b505050506040513d601f19601f820116820180604052508101906139309190613c09565b6001600160a01b0316146139565760405162461bcd60e51b81526004016106f790614146565b5050565b600060128260ff1610613972576133be601283614715565b613397826012614715565b4390565b613989613b06565b82516000906139999084906146df565b6040805160208101909152908152949350505050565b6000806139bc8585613981565b9050826139c882613a13565b611e5d9190614590565b6139da613b06565b60006139ee670de0b6b3a7640000856146df565b905060006139fc84836145a8565b604080516020810190915290815295945050505050565b80516000906106c990670de0b6b3a7640000906145a8565b613a33613b06565b6000613a4784670de0b6b3a76400006146df565b905061336a8184600001516139d2565b6040518060a0016040528060008152602001600081526020016000815260200160008152602001600081525090565b828054613a9290614738565b90600052602060002090601f016020900481019282613ab45760008555613afa565b82601f10613acd57805160ff1916838001178555613afa565b82800160010185558215613afa579182015b82811115613afa578251825591602001919060010190613adf565b506129b9929150613b19565b6040518060200160405280600081525090565b5b808211156129b95760008155600101613b1a565b80356106cc816147bf565b60008083601f840112613b4a578182fd5b50813567ffffffffffffffff811115613b61578182fd5b6020830191508360208083028501011115613b7b57600080fd5b9250929050565b600082601f830112613b92578081fd5b813567ffffffffffffffff811115613bac57613bac6147a9565b613bbf601f8201601f191660200161455f565b818152846020838601011115613bd3578283fd5b816020850160208301379081016020019190915292915050565b600060208284031215613bfe578081fd5b8135611e7d816147bf565b600060208284031215613c1a578081fd5b8151611e7d816147bf565b60008060008060008060c08789031215613c3d578182fd5b8635613c48816147bf565b95506020870135613c58816147bf565b945060408701358015158114613c6c578283fd5b93506060870135613c7c816147d7565b9598949750929560808101359460a0909101359350915050565b600080600060608486031215613caa578283fd5b8335613cb5816147bf565b92506020840135613cc5816147bf565b929592945050506040919091013590565b60008060408385031215613ce8578182fd5b8235613cf3816147bf565b946020939093013593505050565b60008060008060408587031215613d16578182fd5b843567ffffffffffffffff80821115613d2d578384fd5b613d3988838901613b39565b90965094506020870135915080821115613d51578384fd5b50613d5e87828801613b39565b95989497509550505050565b600060208284031215613d7b578081fd5b813560028110611e7d578182fd5b600080600080600080600080888a036101a0811215613da6578687fd5b893567ffffffffffffffff80821115613dbd578889fd5b613dc98d838e01613b82565b9a5060208c0135915080821115613dde578889fd5b50613deb8c828d01613b82565b98505060408a0135613dfc816147bf565b965060608a0135613e0c816147bf565b955060c0607f1982011215613e1f578283fd5b50608089019350613e336101408a01613b2e565b9250613e426101608a01613b2e565b9150613e516101808a01613b2e565b90509295985092959890939650565b600060c08284031215613e71578081fd5b613e7b60c061455f565b8235815260208301356020820152604083013560408201526060830135613ea1816147bf565b60608201526080838101359082015260a0830135613ebe816147bf565b60a08201529392505050565b600060208284031215613edb578081fd5b5035919050565b600060208284031215613ef3578081fd5b5051919050565b60008060408385031215613f0c578182fd5b823591506020830135613f1e816147bf565b809150509250929050565b600060208284031215613f3a578081fd5b8135611e7d816147d7565b600060208284031215613f56578081fd5b8151611e7d816147d7565b6001600160a01b0391909116815260200190565b6001600160a01b039687168152949095166020850152911515604084015260ff166060830152608082015260a081019190915260c00190565b6001600160a01b039384168152919092166020820152604081019190915260600190565b6001600160a01b03929092168252602082015260400190565b6001600160a01b039390931683526020830191909152604082015260600190565b901515815260200190565b6001600160a01b0392831681529116602082015260400190565b6001600160a01b039485168152928416602084015292166040820152606081019190915260800190565b6001600160a01b0393909316835260208301919091521515604082015260600190565b6000602080835283518082850152825b818110156140aa5785810183015185820160400152820161408e565b818111156140bb5783604083870101525b50601f01601f1916929092016040019392505050565b6020808252600190820152604360f81b604082015260600190565b60208082526006908201526514105554d15160d21b604082015260600190565b6020808252600490820152634956574360e01b604082015260600190565b60208082526002908201526124a160f11b604082015260600190565b60208082526003908201526249565760e81b604082015260600190565b6020808252600190820152602160f91b604082015260600190565b60208082526003908201526224a22160e91b604082015260600190565b6020808252600190820152604560f81b604082015260600190565b60208082526012908201527f4e4f545f4c49515549444154455f53454c460000000000000000000000000000604082015260600190565b60208082526004908201526324ab24a960e11b604082015260600190565b60208082526003908201526204956560ec1b604082015260600190565b6020808252602e908201527f496e697469616c697a61626c653a20636f6e747261637420697320616c72656160408201527f647920696e697469616c697a6564000000000000000000000000000000000000606082015260800190565b6020808252600190820152601360fa1b604082015260600190565b60208082526003908201526224a72b60e91b604082015260600190565b6020808252600e908201527f4d4f52455f5448414e5f4f574544000000000000000000000000000000000000604082015260600190565b6020808252600e908201527f494e565f444542545f4f574e4552000000000000000000000000000000000000604082015260600190565b602080825260069082015265494e565f544f60d01b604082015260600190565b6020808252600390820152624f5f4760e81b604082015260600190565b60208082526004908201526324a7262360e11b604082015260600190565b6020808252600f908201527f455843454544535f414c4c4f5745440000000000000000000000000000000000604082015260600190565b6020808252601b908201527f424f52524f57494e475f4d4f52455f5448414e5f414c4c4f5745440000000000604082015260600190565b602080825260029082015261495760f01b604082015260600190565b6020808252600f908201527f494e565f42454e45464943494152590000000000000000000000000000000000604082015260600190565b60208082526012908201527f4e4f545f454e4f5547485f42414c414e43450000000000000000000000000000604082015260600190565b6020808252600190820152602360f91b604082015260600190565b60208082526003908201526249414360e81b604082015260600190565b90815260200190565b9182526001600160a01b0316602082015260400190565b9283526020830191909152604082015260600190565b93845260208401929092526040830152606082015260800190565b60ff929092168252602082015260400190565b6000808335601e19843603018112614530578283fd5b83018035915067ffffffffffffffff82111561454a578283fd5b602001915036819003821315613b7b57600080fd5b604051601f8201601f1916810167ffffffffffffffff81118282101715614588576145886147a9565b604052919050565b600082198211156145a3576145a3614793565b500190565b6000826145c357634e487b7160e01b81526012600452602481fd5b500490565b80825b60018086116145da5750614605565b8187048211156145ec576145ec614793565b808616156145f957918102915b9490941c9380026145cb565b94509492505050565b600061201d60001960ff85168460008261462a57506001611e7d565b8161463757506000611e7d565b816001811461464d576002811461465757614684565b6001915050611e7d565b60ff84111561466857614668614793565b6001841b91508482111561467e5761467e614793565b50611e7d565b5060208310610133831016604e8410600b84101617156146b7575081810a838111156146b2576146b2614793565b611e7d565b6146c484848460016145c8565b8086048211156146d6576146d6614793565b02949350505050565b60008160001904831182151516156146f9576146f9614793565b500290565b60008282101561471057614710614793565b500390565b600060ff821660ff84168082101561472f5761472f614793565b90039392505050565b60028104600182168061474c57607f821691505b6020821081141561476d57634e487b7160e01b600052602260045260246000fd5b50919050565b600060ff821660ff81141561478a5761478a614793565b60010192915050565b634e487b7160e01b600052601160045260246000fd5b634e487b7160e01b600052604160045260246000fd5b6001600160a01b03811681146147d457600080fd5b50565b60ff811681146147d457600080fdfea2646970667358221220f3142891fd55d964db1d5d85037f5fd2db1a2e56194be19b6e4889184796f1a264736f6c63430008010033",
  "devdoc": {
    "author": "@samparsky",
    "kind": "dev",
    "methods": {
      "accrueInterest()": {
        "details": "This calculates interest accrued from the last checkpointed block up to the current block and writes new checkpoint to storage."
      },
      "borrow(uint256,address)": {
        "details": "we use normalized amounts to calculate the",
        "params": {
          "_amountToBorrow": "is the amount of the borrow asset vault shares the user wants to borrow",
          "_debtOwner": "this should be the msg.sender or address that delegates credit to the msg.sender"
        }
      },
      "borrowBalanceCurrent(address)": {
        "params": {
          "_account": "The address whose balance should be calculated after updating borrowIndex"
        },
        "returns": {
          "_0": "The calculated balance*"
        }
      },
      "calcBorrowLimit(uint256)": {
        "params": {
          "_collateralValueInUSD": "is the USD value of the users collateral"
        }
      },
      "calcCollateralRequired(uint256)": {
        "params": {
          "_borrowAmount": "is the input borrow amount"
        }
      },
      "calculateLiquidationFee(uint256)": {
        "params": {
          "_amount": "is a uint representing the full amount earned as interest"
        }
      },
      "collateralOfAccount(address)": {
        "params": {
          "_account": "is the address of the account being looked up"
        }
      },
      "depositBorrowAsset(address,uint256)": {
        "details": "the user should initially have deposited in the vault transfer appropriate amount of underlying from msg.sender to the LendingPair",
        "params": {
          "_amount": "is the amount of underlying borrow asset being deposited",
          "_tokenReceipeint": "whom to credit the wrapped tokens"
        }
      },
      "depositCollateral(address,uint256)": {
        "params": {
          "_amount": "is the amount of underlying collateral asset being deposited",
          "_tokenRecipient": "address to credit the wrapped collateral shares"
        }
      },
      "exchangeRateCurrent()": {
        "returns": {
          "_0": "Calculated exchange rate scaled by 1e18"
        }
      },
      "getBorrowLimit(address)": {
        "details": "this calculation uses current values for calculations",
        "params": {
          "_account": "is the input account address"
        }
      },
      "getBorrowLimitInUSD(address)": {
        "details": "this calculation uses current values for calculations",
        "params": {
          "_account": "is the input account address"
        }
      },
      "getMaxWithdrawAllowed(address)": {
        "details": "this function runs calculations to accrue interest for an up to date amount",
        "params": {
          "_account": "is the account being checked"
        }
      },
      "getPriceOfBorrowAsset()": {
        "details": "returns price of collateral in usd"
      },
      "getPriceOfCollateral()": {
        "details": "returns price of collateral in usd"
      },
      "getPriceOfToken(address,uint256)": {
        "params": {
          "_amount": "this is the amount of tokens",
          "_token": "this is the price of the token"
        }
      },
      "getTotalAvailableCollateralValue(address)": {
        "details": "this function runs calculations to accrue interest for an up to date amount",
        "params": {
          "_account": "is the address whos collateral is being retreived"
        }
      },
      "getTotalAvailableCollateralValueInUSD(address)": {
        "details": "this function runs calculations to accrue interest for an up to date amount",
        "params": {
          "_account": "is the address whos collateral is being retreived"
        }
      },
      "initialize(string,string,address,address,(uint256,uint256,uint256,address,uint256,address),address,address,address)": {
        "params": {
          "_asset": "borrow asset  ",
          "_collateralAsset": "pair collateral",
          "_name": "for lending pair",
          "_pauseGuardian": "pause guardian address",
          "_symbol": "for lending pair",
          "_wrappedCollateralAsset": "wrapped token minted when depositing collateral asset"
        }
      },
      "pause(uint8)": {
        "details": "pause actions in the lending pair"
      },
      "redeem(address,uint256)": {
        "params": {
          "_amount": "of wrapper token to redeem",
          "_to": "Address to send the underlying tokens to"
        }
      },
      "repay(uint256,address)": {
        "params": {
          "_beneficiary": "address to repay loan position",
          "_repayAmount": "The amount of borrow asset to repay represented in underlying"
        }
      },
      "unpause(uint8)": {
        "details": "unpause actions in lending pair"
      },
      "withdrawFees(uint256)": {
        "details": "this function can be called by anyone",
        "params": {
          "_toWithdraw": "is the amount of a reservers being withdrawn"
        }
      }
    },
    "stateVariables": {
      "PRECISION": {
        "details": "liquidation fee precision"
      },
      "VERSION": {
        "details": "version"
      },
      "_borrowAssetUnderlyingDecimal": {
        "details": "borrow asset underlying decimal"
      },
      "_collateralAssetUnderlyingDecimal": {
        "details": "collateral asset underlying decimal"
      },
      "accrualBlockNumber": {
        "details": "Block number that interest was last accrued at"
      },
      "borrowIndex": {
        "details": "Accumulator of the total earned interest rate since the opening of the market"
      },
      "collateralFactor": {
        "details": "The amount of collateral required for a borrow position in 1e18"
      },
      "initialExchangeRateMantissa": {
        "details": "initialExchangeRateMantissa Initial exchange rate used when minting"
      },
      "name": {
        "details": "lending pair name"
      },
      "reserveFactorMantissa": {
        "details": "Fraction of interest currently set aside for reserves"
      },
      "symbol": {
        "details": "lending pair symbol"
      }
    },
    "title": "LendingPair",
    "version": 1
  },
  "userdoc": {
    "events": {
      "Deposit(address,address,address,address,uint256)": {
        "notice": "Emitted on deposit"
      },
      "Liquidate(address,address,address,uint256,address)": {
        "notice": "Emitted on liquidation"
      },
      "Redeem(address,address,address,address,uint256,uint256)": {
        "notice": "Emitted on Redeem"
      },
      "Repay(address,address,address,address,uint256)": {
        "notice": "Emitted on repay"
      }
    },
    "kind": "user",
    "methods": {
      "accountInterestIndex(address)": {
        "notice": "Mapping of account addresses to their interest interest index"
      },
      "accrueInterest()": {
        "notice": "Applies accrued interest to total borrows and reserves"
      },
      "asset()": {
        "notice": "The pair borrow asset"
      },
      "borrowBalanceCurrent(address)": {
        "notice": "Accrue interest to updated borrowIndex and then calculate account's borrow balance  using the updated borrowIndex"
      },
      "calcBorrowLimit(uint256)": {
        "notice": "calcBorrowLimit is used to calculate the borrow limit for an account  based on the input value of their collateral"
      },
      "calcCollateralRequired(uint256)": {
        "notice": "calcCollateralRequired returns the amount of collateral needed for an input borrow value"
      },
      "calculateLiquidationFee(uint256)": {
        "notice": "calculateFee is used to calculate the fee earned"
      },
      "collateralAsset()": {
        "notice": "The pair collateral asset"
      },
      "collateralOfAccount(address)": {
        "notice": "collateralOfAccount is a view function to retreive an accounts collateral"
      },
      "debtToken()": {
        "notice": "The wrapper token for debt"
      },
      "depositCollateral(address,uint256)": {
        "notice": "deposit allows a user to deposit underlying collateral from vault"
      },
      "exchangeRateCurrent()": {
        "notice": "Accrue interest then return the up-to-date exchange rate"
      },
      "feeWithdrawalAddr()": {
        "notice": "The address to withdraw fees to"
      },
      "getBorrowLimit(address)": {
        "notice": "getBorrowLimit returns the borrow limit for an account"
      },
      "getBorrowLimitInUSD(address)": {
        "notice": "getBorrowLimit returns the borrow limit for an account"
      },
      "getCashPrior()": {
        "notice": "getCashPrior is a view funcion that returns the balance of all held borrow asset"
      },
      "getMaxWithdrawAllowed(address)": {
        "notice": "Figures out how much of a given collateral an account is allowed to withdraw"
      },
      "getPriceOfToken(address,uint256)": {
        "notice": "getPriceOfToken returns price of token in usd"
      },
      "getTotalAvailableCollateralValue(address)": {
        "notice": "getTotalAvailableCollateralValue returns the total availible collaeral value for an account"
      },
      "getTotalAvailableCollateralValueInUSD(address)": {
        "notice": "getTotalAvailableCollateralValueInUSD returns the total availible collaeral value for an account in USD"
      },
      "initialize(string,string,address,address,(uint256,uint256,uint256,address,uint256,address),address,address,address)": {
        "notice": "Initialize function"
      },
      "interestRate()": {
        "notice": "The interest rate model for the borrow asset"
      },
      "liquidationFee()": {
        "notice": "liquidation fee in 1e18"
      },
      "oracle()": {
        "notice": "The price oracle for the assets"
      },
      "pauseGuardian()": {
        "notice": "the address that can pause borrow & deposits of assets"
      },
      "pauseStatus(uint8)": {
        "notice": "Mapping of action to pause status"
      },
      "protocolLiquidationFeeShare()": {
        "notice": "protocol liquidation fee percent in 1e18"
      },
      "redeem(address,uint256)": {
        "notice": "Allows a user to redeem their Wrapper Token for the appropriate amount of underlying asset"
      },
      "repay(uint256,address)": {
        "notice": "Sender repays their own borrow"
      },
      "totalBorrows()": {
        "notice": "Total amount of outstanding borrows of the asset in this market"
      },
      "totalReserves()": {
        "notice": "Total amount of reserves of the underlying held in this market"
      },
      "vault()": {
        "notice": "where the tokens are stored"
      },
      "withdrawFees(uint256)": {
        "notice": "withdrawFees to the feeWithdrawalAddr"
      },
      "wrappedCollateralAsset()": {
        "notice": "The wrapper token for the collateral asset"
      },
      "wrapperBorrowedAsset()": {
        "notice": "The wrapper token for the borrow asset"
      }
    },
    "version": 1
  },
  "storageLayout": {
    "storage": [
      {
        "astId": 12898,
        "contract": "contracts/LendingPair.sol:LendingPair",
        "label": "_initialized",
        "offset": 0,
        "slot": "0",
        "type": "t_bool"
      },
      {
        "astId": 12901,
        "contract": "contracts/LendingPair.sol:LendingPair",
        "label": "_initializing",
        "offset": 1,
        "slot": "0",
        "type": "t_bool"
      },
      {
        "astId": 2771,
        "contract": "contracts/LendingPair.sol:LendingPair",
        "label": "name",
        "offset": 0,
        "slot": "1",
        "type": "t_string_storage"
      },
      {
        "astId": 2774,
        "contract": "contracts/LendingPair.sol:LendingPair",
        "label": "symbol",
        "offset": 0,
        "slot": "2",
        "type": "t_string_storage"
      },
      {
        "astId": 2789,
        "contract": "contracts/LendingPair.sol:LendingPair",
        "label": "interestRate",
        "offset": 0,
        "slot": "3",
        "type": "t_contract(IInterestRateModel)9054"
      },
      {
        "astId": 2800,
        "contract": "contracts/LendingPair.sol:LendingPair",
        "label": "_borrowAssetUnderlyingDecimal",
        "offset": 20,
        "slot": "3",
        "type": "t_uint8"
      },
      {
        "astId": 2803,
        "contract": "contracts/LendingPair.sol:LendingPair",
        "label": "_collateralAssetUnderlyingDecimal",
        "offset": 21,
        "slot": "3",
        "type": "t_uint8"
      },
      {
        "astId": 2806,
        "contract": "contracts/LendingPair.sol:LendingPair",
        "label": "initialExchangeRateMantissa",
        "offset": 0,
        "slot": "4",
        "type": "t_uint256"
      },
      {
        "astId": 2809,
        "contract": "contracts/LendingPair.sol:LendingPair",
        "label": "reserveFactorMantissa",
        "offset": 0,
        "slot": "5",
        "type": "t_uint256"
      },
      {
        "astId": 2812,
        "contract": "contracts/LendingPair.sol:LendingPair",
        "label": "accrualBlockNumber",
        "offset": 0,
        "slot": "6",
        "type": "t_uint256"
      },
      {
        "astId": 2816,
        "contract": "contracts/LendingPair.sol:LendingPair",
        "label": "borrowIndex",
        "offset": 0,
        "slot": "7",
        "type": "t_uint256"
      },
      {
        "astId": 2820,
        "contract": "contracts/LendingPair.sol:LendingPair",
        "label": "totalReserves",
        "offset": 0,
        "slot": "8",
        "type": "t_uint256"
      },
      {
        "astId": 2823,
        "contract": "contracts/LendingPair.sol:LendingPair",
        "label": "collateralFactor",
        "offset": 0,
        "slot": "9",
        "type": "t_uint256"
      },
      {
        "astId": 2826,
        "contract": "contracts/LendingPair.sol:LendingPair",
        "label": "liquidationFee",
        "offset": 0,
        "slot": "10",
        "type": "t_uint256"
      },
      {
        "astId": 2833,
        "contract": "contracts/LendingPair.sol:LendingPair",
        "label": "pauseGuardian",
        "offset": 0,
        "slot": "11",
        "type": "t_address"
      },
      {
        "astId": 2838,
        "contract": "contracts/LendingPair.sol:LendingPair",
        "label": "asset",
        "offset": 0,
        "slot": "12",
        "type": "t_contract(IERC20)849"
      },
      {
        "astId": 2843,
        "contract": "contracts/LendingPair.sol:LendingPair",
        "label": "collateralAsset",
        "offset": 0,
        "slot": "13",
        "type": "t_contract(IERC20)849"
      },
      {
        "astId": 2848,
        "contract": "contracts/LendingPair.sol:LendingPair",
        "label": "wrapperBorrowedAsset",
        "offset": 0,
        "slot": "14",
        "type": "t_contract(IBSWrapperToken)8915"
      },
      {
        "astId": 2853,
        "contract": "contracts/LendingPair.sol:LendingPair",
        "label": "wrappedCollateralAsset",
        "offset": 0,
        "slot": "15",
        "type": "t_contract(IBSWrapperToken)8915"
      },
      {
        "astId": 2858,
        "contract": "contracts/LendingPair.sol:LendingPair",
        "label": "debtToken",
        "offset": 0,
        "slot": "16",
        "type": "t_contract(IDebtToken)8969"
      },
      {
        "astId": 2864,
        "contract": "contracts/LendingPair.sol:LendingPair",
        "label": "accountInterestIndex",
        "offset": 0,
        "slot": "17",
        "type": "t_mapping(t_address,t_uint256)"
      },
      {
        "astId": 2870,
        "contract": "contracts/LendingPair.sol:LendingPair",
        "label": "pauseStatus",
        "offset": 0,
        "slot": "18",
        "type": "t_mapping(t_enum(Actions)2768,t_bool)"
      }
    ],
    "types": {
      "t_address": {
        "encoding": "inplace",
        "label": "address",
        "numberOfBytes": "20"
      },
      "t_bool": {
        "encoding": "inplace",
        "label": "bool",
        "numberOfBytes": "1"
      },
      "t_contract(IBSWrapperToken)8915": {
        "encoding": "inplace",
        "label": "contract IBSWrapperToken",
        "numberOfBytes": "20"
      },
      "t_contract(IDebtToken)8969": {
        "encoding": "inplace",
        "label": "contract IDebtToken",
        "numberOfBytes": "20"
      },
      "t_contract(IERC20)849": {
        "encoding": "inplace",
        "label": "contract IERC20",
        "numberOfBytes": "20"
      },
      "t_contract(IInterestRateModel)9054": {
        "encoding": "inplace",
        "label": "contract IInterestRateModel",
        "numberOfBytes": "20"
      },
      "t_enum(Actions)2768": {
        "encoding": "inplace",
        "label": "enum LendingPair.Actions",
        "numberOfBytes": "1"
      },
      "t_mapping(t_address,t_uint256)": {
        "encoding": "mapping",
        "key": "t_address",
        "label": "mapping(address => uint256)",
        "numberOfBytes": "32",
        "value": "t_uint256"
      },
      "t_mapping(t_enum(Actions)2768,t_bool)": {
        "encoding": "mapping",
        "key": "t_enum(Actions)2768",
        "label": "mapping(enum LendingPair.Actions => bool)",
        "numberOfBytes": "32",
        "value": "t_bool"
      },
      "t_string_storage": {
        "encoding": "bytes",
        "label": "string",
        "numberOfBytes": "32"
      },
      "t_uint256": {
        "encoding": "inplace",
        "label": "uint256",
        "numberOfBytes": "32"
      },
      "t_uint8": {
        "encoding": "inplace",
        "label": "uint8",
        "numberOfBytes": "1"
      }
    }
  }
}