{
  "address": "0x6068100B56323551d2F98B91b9c3c6E9c0532360",
  "abi": [
    {
      "inputs": [
        {
          "internalType": "address",
          "name": "_admin",
          "type": "address"
        }
      ],
      "stateMutability": "nonpayable",
      "type": "constructor"
    },
    {
      "anonymous": false,
      "inputs": [
        {
          "indexed": false,
          "internalType": "bytes32",
          "name": "uuid",
          "type": "bytes32"
        },
        {
          "indexed": false,
          "internalType": "address",
          "name": "codeAddress",
          "type": "address"
        }
      ],
      "name": "CodeUpdated",
      "type": "event"
    },
    {
      "anonymous": false,
      "inputs": [
        {
          "indexed": false,
          "internalType": "contract IERC20",
          "name": "token",
          "type": "address"
        },
        {
          "indexed": false,
          "internalType": "contract IOracle",
          "name": "oracle",
          "type": "address"
        }
      ],
      "name": "UpdateOracle",
      "type": "event"
    },
    {
      "inputs": [],
      "name": "admin",
      "outputs": [
        {
          "internalType": "address",
          "name": "",
          "type": "address"
        }
      ],
      "stateMutability": "view",
      "type": "function"
    },
    {
      "inputs": [
        {
          "internalType": "contract IERC20",
          "name": "",
          "type": "address"
        }
      ],
      "name": "assetToOracle",
      "outputs": [
        {
          "internalType": "contract IOracle",
          "name": "",
          "type": "address"
        }
      ],
      "stateMutability": "view",
      "type": "function"
    },
    {
      "inputs": [],
      "name": "getCodeAddress",
      "outputs": [
        {
          "internalType": "address",
          "name": "codeAddress",
          "type": "address"
        }
      ],
      "stateMutability": "view",
      "type": "function"
    },
    {
      "inputs": [
        {
          "internalType": "contract IERC20",
          "name": "_token",
          "type": "address"
        }
      ],
      "name": "getPriceInUSD",
      "outputs": [
        {
          "internalType": "uint256",
          "name": "",
          "type": "uint256"
        }
      ],
      "stateMutability": "nonpayable",
      "type": "function"
    },
    {
      "inputs": [],
      "name": "proxiableUUID",
      "outputs": [
        {
          "internalType": "bytes32",
          "name": "",
          "type": "bytes32"
        }
      ],
      "stateMutability": "pure",
      "type": "function"
    },
    {
      "inputs": [
        {
          "internalType": "address",
          "name": "newAddress",
          "type": "address"
        }
      ],
      "name": "updateCode",
      "outputs": [],
      "stateMutability": "nonpayable",
      "type": "function"
    },
    {
      "inputs": [
        {
          "internalType": "contract IERC20",
          "name": "_asset",
          "type": "address"
        },
        {
          "internalType": "contract IOracle",
          "name": "_oracle",
          "type": "address"
        }
      ],
      "name": "updateOracleForAsset",
      "outputs": [],
      "stateMutability": "nonpayable",
      "type": "function"
    },
    {
      "inputs": [
        {
          "internalType": "contract IERC20",
          "name": "_token",
          "type": "address"
        }
      ],
      "name": "viewPriceInUSD",
      "outputs": [
        {
          "internalType": "uint256",
          "name": "",
          "type": "uint256"
        }
      ],
      "stateMutability": "view",
      "type": "function"
    }
  ],
  "args": [
    "0x90F706114CCA699A59196414a14644446A580D96"
  ],
  "solcInputHash": "93ebaa441e3462400e4372fabffe5451",
  "bytecode": "0x60a060405234801561001057600080fd5b506040516108c43803806108c483398101604081905261002f91610073565b6001600160a01b03811661005e5760405162461bcd60e51b8152600401610055906100a1565b60405180910390fd5b60601b6001600160601b0319166080526100c8565b600060208284031215610084578081fd5b81516001600160a01b038116811461009a578182fd5b9392505050565b6020808252600d908201526c24a72b20a624a22fa0a226a4a760991b604082015260600190565b60805160601c6107d06100f460003960008181610220015281816102a7015261044a01526107d06000f3fe608060405234801561001057600080fd5b50600436106100885760003560e01c806352d1902d1161005b57806352d1902d146100f35780635df52114146100fb578063eb9d14a91461010e578063f851a4401461012157610088565b8063022661471461008d5780632e00d245146100b657806346951954146100d657806350d75d25146100eb575b600080fd5b6100a061009b3660046105c8565b610129565b6040516100ad919061064f565b60405180910390f35b6100c96100c43660046105c8565b6101fa565b6040516100ad919061063b565b6100e96100e43660046105c8565b610215565b005b6100c9610269565b6100a0610278565b6100e9610109366004610603565b61029c565b6100a061011c3660046105c8565b6103aa565b6100c9610448565b6001600160a01b0381811660009081526001602052604081205490911661016b5760405162461bcd60e51b815260040161016290610717565b60405180910390fd5b6001600160a01b0380831660009081526001602090815260408083205481516370d5301b60e11b8152915194169363e1aa603693600480840194938390030190829087803b1580156101bc57600080fd5b505af11580156101d0573d6000803e3d6000fd5b505050506040513d601f19601f820116820180604052508101906101f491906105eb565b92915050565b6001602052600090815260409020546001600160a01b031681565b336001600160a01b037f0000000000000000000000000000000000000000000000000000000000000000161461025d5760405162461bcd60e51b8152600401610162906106cc565b6102668161046c565b50565b600061027361057f565b905090565b7f9059eaa97076fc8fbc19feea426633aeb7a2617add27106a2b81c655a26d222890565b336001600160a01b037f000000000000000000000000000000000000000000000000000000000000000016146102e45760405162461bcd60e51b8152600401610162906106cc565b6001600160a01b03821661030a5760405162461bcd60e51b8152600401610162906106f0565b6001600160a01b0381166103305760405162461bcd60e51b815260040161016290610717565b6001600160a01b0382811660009081526001602052604090819020805473ffffffffffffffffffffffffffffffffffffffff191692841692909217909155517fb1d1442dba579887e297ac433e5716c847abf2dc052ee9de4869b7b1b8f6206d9061039e908490849061066f565b60405180910390a15050565b6001600160a01b038181166000908152600160205260408120549091166103e35760405162461bcd60e51b815260040161016290610717565b6001600160a01b0380831660009081526001602090815260409182902054825163f55fa17f60e01b8152925193169263f55fa17f926004808201939291829003018186803b15801561043457600080fd5b505afa1580156101d0573d6000803e3d6000fd5b7f000000000000000000000000000000000000000000000000000000000000000081565b600061047661057f565b6001600160a01b0316141561049d5760405162461bcd60e51b81526004016101629061074e565b806001600160a01b03166352d1902d6040518163ffffffff1660e01b815260040160206040518083038186803b1580156104d657600080fd5b505afa1580156104ea573d6000803e3d6000fd5b505050506040513d601f19601f8201168201806040525081019061050e91906105eb565b610516610278565b146105335760405162461bcd60e51b815260040161016290610689565b61053c816105a4565b7fe011bc04c286c344a8fcbb8de77f953da762c3e25d8cdea984147fc4168a5dcc610565610278565b82604051610574929190610658565b60405180910390a150565b7f360894a13ba1a3210667c828492db98dca3e2076cc3735a920a3ca505d382bbc5490565b7f360894a13ba1a3210667c828492db98dca3e2076cc3735a920a3ca505d382bbc55565b6000602082840312156105d9578081fd5b81356105e481610785565b9392505050565b6000602082840312156105fc578081fd5b5051919050565b60008060408385031215610615578081fd5b823561062081610785565b9150602083013561063081610785565b809150509250929050565b6001600160a01b0391909116815260200190565b90815260200190565b9182526001600160a01b0316602082015260400190565b6001600160a01b0392831681529116602082015260400190565b60208082526023908201527f5555505350726f786961626c653a206e6f7420636f6d70617469626c65206c6f60408201526267696360e81b606082015260800190565b6020808252600a908201526927a7262cafa0a226a4a760b11b604082015260600190565b6020808252600d908201526c1253959053125117d054d4d155609a1b604082015260600190565b6020808252600e908201527f494e56414c49445f4f5241434c45000000000000000000000000000000000000604082015260600190565b6020808252601d908201527f5555505350726f786961626c653a206e6f742075706772616461626c65000000604082015260600190565b6001600160a01b038116811461026657600080fdfea26469706673582212207c2648b0513fdf134355e7d75d1cc83ee7ba6d25a0c61a9a0798c70a8b59203e64736f6c63430008010033",
  "devdoc": {
    "author": "@samparsky",
    "kind": "dev",
    "methods": {
      "getCodeAddress()": {
        "details": "Get current implementation code address."
      },
      "getPriceInUSD(address)": {
        "params": {
          "_token": "token to fetch price"
        }
      },
      "proxiableUUID()": {
        "details": "Proxiable UUID marker function.      This would help to avoid wrong logic contract to be used for upgrading."
      },
      "updateOracleForAsset(address,address)": {
        "params": {
          "_asset": "the oracle for the asset",
          "_oracle": "the oracle address"
        }
      },
      "viewPriceInUSD(address)": {
        "params": {
          "_token": "view price of token"
        }
      }
    },
    "stateVariables": {
      "admin": {
        "details": "admin allowed to update price oracle"
      }
    },
    "title": "PriceOracleAggregator",
    "version": 1
  },
  "userdoc": {
    "kind": "user",
    "methods": {
      "assetToOracle(address)": {
        "notice": "token to the oracle address"
      },
      "getPriceInUSD(address)": {
        "notice": "returns price of token in USD in 1e8 decimals"
      },
      "updateOracleForAsset(address,address)": {
        "notice": "adds oracle for an asset e.g. ETH"
      },
      "viewPriceInUSD(address)": {
        "notice": "returns price of token in USD"
      }
    },
    "notice": "aggregator of price oracle for assets in LendingPairs",
    "version": 1
  },
  "storageLayout": {
    "storage": [
      {
        "astId": 138,
        "contract": "contracts/oracle/PriceOracleAggregator.sol:PriceOracleAggregator",
        "label": "_initialized",
        "offset": 0,
        "slot": "0",
        "type": "t_bool"
      },
      {
        "astId": 141,
        "contract": "contracts/oracle/PriceOracleAggregator.sol:PriceOracleAggregator",
        "label": "_initializing",
        "offset": 1,
        "slot": "0",
        "type": "t_bool"
      },
      {
        "astId": 9454,
        "contract": "contracts/oracle/PriceOracleAggregator.sol:PriceOracleAggregator",
        "label": "assetToOracle",
        "offset": 0,
        "slot": "1",
        "type": "t_mapping(t_contract(IERC20)849,t_contract(IOracle)9074)"
      }
    ],
    "types": {
      "t_bool": {
        "encoding": "inplace",
        "label": "bool",
        "numberOfBytes": "1"
      },
      "t_contract(IERC20)849": {
        "encoding": "inplace",
        "label": "contract IERC20",
        "numberOfBytes": "20"
      },
      "t_contract(IOracle)9074": {
        "encoding": "inplace",
        "label": "contract IOracle",
        "numberOfBytes": "20"
      },
      "t_mapping(t_contract(IERC20)849,t_contract(IOracle)9074)": {
        "encoding": "mapping",
        "key": "t_contract(IERC20)849",
        "label": "mapping(contract IERC20 => contract IOracle)",
        "numberOfBytes": "32",
        "value": "t_contract(IOracle)9074"
      }
    }
  }
}