{
  "address": "0x49392C8f90Bf850E56ae4aE901469bBcF8e29C28",
  "abi": [
    {
      "inputs": [],
      "stateMutability": "nonpayable",
      "type": "constructor"
    },
    {
      "anonymous": false,
      "inputs": [
        {
          "indexed": true,
          "internalType": "address",
          "name": "user",
          "type": "address"
        },
        {
          "indexed": true,
          "internalType": "address",
          "name": "allowed",
          "type": "address"
        },
        {
          "indexed": false,
          "internalType": "bool",
          "name": "status",
          "type": "bool"
        }
      ],
      "name": "Approval",
      "type": "event"
    },
    {
      "anonymous": false,
      "inputs": [
        {
          "indexed": false,
          "internalType": "bytes32",
          "name": "uuid",
          "type": "bytes32"
        },
        {
          "indexed": false,
          "internalType": "address",
          "name": "codeAddress",
          "type": "address"
        }
      ],
      "name": "CodeUpdated",
      "type": "event"
    },
    {
      "anonymous": false,
      "inputs": [
        {
          "indexed": true,
          "internalType": "contract IERC20",
          "name": "token",
          "type": "address"
        },
        {
          "indexed": true,
          "internalType": "address",
          "name": "from",
          "type": "address"
        },
        {
          "indexed": true,
          "internalType": "address",
          "name": "to",
          "type": "address"
        },
        {
          "indexed": false,
          "internalType": "uint256",
          "name": "amount",
          "type": "uint256"
        },
        {
          "indexed": false,
          "internalType": "uint256",
          "name": "shares",
          "type": "uint256"
        }
      ],
      "name": "Deposit",
      "type": "event"
    },
    {
      "anonymous": false,
      "inputs": [
        {
          "indexed": true,
          "internalType": "address",
          "name": "borrower",
          "type": "address"
        },
        {
          "indexed": true,
          "internalType": "contract IERC20",
          "name": "token",
          "type": "address"
        },
        {
          "indexed": false,
          "internalType": "uint256",
          "name": "amount",
          "type": "uint256"
        },
        {
          "indexed": false,
          "internalType": "uint256",
          "name": "feeAmount",
          "type": "uint256"
        },
        {
          "indexed": true,
          "internalType": "address",
          "name": "receiver",
          "type": "address"
        }
      ],
      "name": "FlashLoan",
      "type": "event"
    },
    {
      "anonymous": false,
      "inputs": [
        {
          "indexed": false,
          "internalType": "address",
          "name": "newOwner",
          "type": "address"
        },
        {
          "indexed": false,
          "internalType": "uint256",
          "name": "timestamp",
          "type": "uint256"
        }
      ],
      "name": "OwnershipAccepted",
      "type": "event"
    },
    {
      "anonymous": false,
      "inputs": [
        {
          "indexed": false,
          "internalType": "address",
          "name": "account",
          "type": "address"
        }
      ],
      "name": "Paused",
      "type": "event"
    },
    {
      "anonymous": false,
      "inputs": [
        {
          "indexed": true,
          "internalType": "contract IERC20",
          "name": "token",
          "type": "address"
        },
        {
          "indexed": true,
          "internalType": "address",
          "name": "from",
          "type": "address"
        },
        {
          "indexed": true,
          "internalType": "address",
          "name": "to",
          "type": "address"
        },
        {
          "indexed": false,
          "internalType": "uint256",
          "name": "amount",
          "type": "uint256"
        }
      ],
      "name": "Transfer",
      "type": "event"
    },
    {
      "anonymous": false,
      "inputs": [
        {
          "indexed": false,
          "internalType": "address",
          "name": "_newTeam",
          "type": "address"
        },
        {
          "indexed": false,
          "internalType": "uint256",
          "name": "timestamp",
          "type": "uint256"
        }
      ],
      "name": "TransferControl",
      "type": "event"
    },
    {
      "anonymous": false,
      "inputs": [
        {
          "indexed": false,
          "internalType": "address",
          "name": "account",
          "type": "address"
        }
      ],
      "name": "Unpaused",
      "type": "event"
    },
    {
      "anonymous": false,
      "inputs": [
        {
          "indexed": false,
          "internalType": "uint256",
          "name": "newRate",
          "type": "uint256"
        }
      ],
      "name": "UpdateFlashLoanRate",
      "type": "event"
    },
    {
      "anonymous": false,
      "inputs": [
        {
          "indexed": true,
          "internalType": "contract IERC20",
          "name": "token",
          "type": "address"
        },
        {
          "indexed": true,
          "internalType": "address",
          "name": "from",
          "type": "address"
        },
        {
          "indexed": true,
          "internalType": "address",
          "name": "to",
          "type": "address"
        },
        {
          "indexed": false,
          "internalType": "uint256",
          "name": "shares",
          "type": "uint256"
        },
        {
          "indexed": false,
          "internalType": "uint256",
          "name": "amount",
          "type": "uint256"
        }
      ],
      "name": "Withdraw",
      "type": "event"
    },
    {
      "inputs": [],
      "name": "MAX_FLASHLOAN_RATE",
      "outputs": [
        {
          "internalType": "uint256",
          "name": "",
          "type": "uint256"
        }
      ],
      "stateMutability": "view",
      "type": "function"
    },
    {
      "inputs": [],
      "name": "acceptOwnership",
      "outputs": [],
      "stateMutability": "nonpayable",
      "type": "function"
    },
    {
      "inputs": [
        {
          "internalType": "address",
          "name": "_user",
          "type": "address"
        },
        {
          "internalType": "address",
          "name": "_contract",
          "type": "address"
        },
        {
          "internalType": "bool",
          "name": "_status",
          "type": "bool"
        },
        {
          "internalType": "uint8",
          "name": "v",
          "type": "uint8"
        },
        {
          "internalType": "bytes32",
          "name": "r",
          "type": "bytes32"
        },
        {
          "internalType": "bytes32",
          "name": "s",
          "type": "bytes32"
        }
      ],
      "name": "approveContract",
      "outputs": [],
      "stateMutability": "nonpayable",
      "type": "function"
    },
    {
      "inputs": [
        {
          "internalType": "contract IERC20",
          "name": "",
          "type": "address"
        },
        {
          "internalType": "address",
          "name": "",
          "type": "address"
        }
      ],
      "name": "balanceOf",
      "outputs": [
        {
          "internalType": "uint256",
          "name": "",
          "type": "uint256"
        }
      ],
      "stateMutability": "view",
      "type": "function"
    },
    {
      "inputs": [
        {
          "internalType": "contract IERC20",
          "name": "_token",
          "type": "address"
        },
        {
          "internalType": "address",
          "name": "_from",
          "type": "address"
        },
        {
          "internalType": "address",
          "name": "_to",
          "type": "address"
        },
        {
          "internalType": "uint256",
          "name": "_amount",
          "type": "uint256"
        }
      ],
      "name": "deposit",
      "outputs": [
        {
          "internalType": "uint256",
          "name": "amountOut",
          "type": "uint256"
        }
      ],
      "stateMutability": "nonpayable",
      "type": "function"
    },
    {
      "inputs": [
        {
          "internalType": "address",
          "name": "",
          "type": "address"
        },
        {
          "internalType": "uint256",
          "name": "_amount",
          "type": "uint256"
        }
      ],
      "name": "flashFee",
      "outputs": [
        {
          "internalType": "uint256",
          "name": "",
          "type": "uint256"
        }
      ],
      "stateMutability": "view",
      "type": "function"
    },
    {
      "inputs": [
        {
          "internalType": "contract IERC3156FlashBorrower",
          "name": "_receiver",
          "type": "address"
        },
        {
          "internalType": "address",
          "name": "_token",
          "type": "address"
        },
        {
          "internalType": "uint256",
          "name": "_amount",
          "type": "uint256"
        },
        {
          "internalType": "bytes",
          "name": "_data",
          "type": "bytes"
        }
      ],
      "name": "flashLoan",
      "outputs": [
        {
          "internalType": "bool",
          "name": "",
          "type": "bool"
        }
      ],
      "stateMutability": "nonpayable",
      "type": "function"
    },
    {
      "inputs": [],
      "name": "flashLoanRate",
      "outputs": [
        {
          "internalType": "uint256",
          "name": "",
          "type": "uint256"
        }
      ],
      "stateMutability": "view",
      "type": "function"
    },
    {
      "inputs": [],
      "name": "getCodeAddress",
      "outputs": [
        {
          "internalType": "address",
          "name": "codeAddress",
          "type": "address"
        }
      ],
      "stateMutability": "view",
      "type": "function"
    },
    {
      "inputs": [
        {
          "internalType": "uint256",
          "name": "_flashLoanRate",
          "type": "uint256"
        },
        {
          "internalType": "address",
          "name": "_owner",
          "type": "address"
        }
      ],
      "name": "initialize",
      "outputs": [],
      "stateMutability": "nonpayable",
      "type": "function"
    },
    {
      "inputs": [
        {
          "internalType": "address",
          "name": "_token",
          "type": "address"
        }
      ],
      "name": "maxFlashLoan",
      "outputs": [
        {
          "internalType": "uint256",
          "name": "",
          "type": "uint256"
        }
      ],
      "stateMutability": "view",
      "type": "function"
    },
    {
      "inputs": [],
      "name": "name",
      "outputs": [
        {
          "internalType": "string",
          "name": "",
          "type": "string"
        }
      ],
      "stateMutability": "view",
      "type": "function"
    },
    {
      "inputs": [],
      "name": "newOwner",
      "outputs": [
        {
          "internalType": "address",
          "name": "",
          "type": "address"
        }
      ],
      "stateMutability": "view",
      "type": "function"
    },
    {
      "inputs": [],
      "name": "owner",
      "outputs": [
        {
          "internalType": "address",
          "name": "",
          "type": "address"
        }
      ],
      "stateMutability": "view",
      "type": "function"
    },
    {
      "inputs": [],
      "name": "pause",
      "outputs": [],
      "stateMutability": "nonpayable",
      "type": "function"
    },
    {
      "inputs": [],
      "name": "paused",
      "outputs": [
        {
          "internalType": "bool",
          "name": "",
          "type": "bool"
        }
      ],
      "stateMutability": "view",
      "type": "function"
    },
    {
      "inputs": [],
      "name": "proxiableUUID",
      "outputs": [
        {
          "internalType": "bytes32",
          "name": "",
          "type": "bytes32"
        }
      ],
      "stateMutability": "pure",
      "type": "function"
    },
    {
      "inputs": [
        {
          "internalType": "contract IERC20",
          "name": "_token",
          "type": "address"
        },
        {
          "internalType": "uint256",
          "name": "_amount",
          "type": "uint256"
        },
        {
          "internalType": "bool",
          "name": "_ceil",
          "type": "bool"
        }
      ],
      "name": "toShare",
      "outputs": [
        {
          "internalType": "uint256",
          "name": "share",
          "type": "uint256"
        }
      ],
      "stateMutability": "view",
      "type": "function"
    },
    {
      "inputs": [
        {
          "internalType": "contract IERC20",
          "name": "_token",
          "type": "address"
        },
        {
          "internalType": "uint256",
          "name": "_share",
          "type": "uint256"
        }
      ],
      "name": "toUnderlying",
      "outputs": [
        {
          "internalType": "uint256",
          "name": "amount",
          "type": "uint256"
        }
      ],
      "stateMutability": "view",
      "type": "function"
    },
    {
      "inputs": [
        {
          "internalType": "contract IERC20",
          "name": "",
          "type": "address"
        }
      ],
      "name": "totals",
      "outputs": [
        {
          "internalType": "uint256",
          "name": "",
          "type": "uint256"
        }
      ],
      "stateMutability": "view",
      "type": "function"
    },
    {
      "inputs": [
        {
          "internalType": "contract IERC20",
          "name": "_token",
          "type": "address"
        },
        {
          "internalType": "address",
          "name": "_from",
          "type": "address"
        },
        {
          "internalType": "address",
          "name": "_to",
          "type": "address"
        },
        {
          "internalType": "uint256",
          "name": "_shares",
          "type": "uint256"
        }
      ],
      "name": "transfer",
      "outputs": [],
      "stateMutability": "nonpayable",
      "type": "function"
    },
    {
      "inputs": [
        {
          "internalType": "address",
          "name": "_newOwner",
          "type": "address"
        }
      ],
      "name": "transferToNewOwner",
      "outputs": [],
      "stateMutability": "nonpayable",
      "type": "function"
    },
    {
      "inputs": [],
      "name": "unpause",
      "outputs": [],
      "stateMutability": "nonpayable",
      "type": "function"
    },
    {
      "inputs": [
        {
          "internalType": "address",
          "name": "newAddress",
          "type": "address"
        }
      ],
      "name": "updateCode",
      "outputs": [],
      "stateMutability": "nonpayable",
      "type": "function"
    },
    {
      "inputs": [
        {
          "internalType": "uint256",
          "name": "_newRate",
          "type": "uint256"
        }
      ],
      "name": "updateFlashloanRate",
      "outputs": [],
      "stateMutability": "nonpayable",
      "type": "function"
    },
    {
      "inputs": [
        {
          "internalType": "address",
          "name": "",
          "type": "address"
        }
      ],
      "name": "userApprovalNonce",
      "outputs": [
        {
          "internalType": "uint256",
          "name": "",
          "type": "uint256"
        }
      ],
      "stateMutability": "view",
      "type": "function"
    },
    {
      "inputs": [
        {
          "internalType": "address",
          "name": "",
          "type": "address"
        },
        {
          "internalType": "address",
          "name": "",
          "type": "address"
        }
      ],
      "name": "userApprovedContracts",
      "outputs": [
        {
          "internalType": "bool",
          "name": "",
          "type": "bool"
        }
      ],
      "stateMutability": "view",
      "type": "function"
    },
    {
      "inputs": [],
      "name": "version",
      "outputs": [
        {
          "internalType": "string",
          "name": "",
          "type": "string"
        }
      ],
      "stateMutability": "view",
      "type": "function"
    },
    {
      "inputs": [
        {
          "internalType": "contract IERC20",
          "name": "_token",
          "type": "address"
        },
        {
          "internalType": "address",
          "name": "_from",
          "type": "address"
        },
        {
          "internalType": "address",
          "name": "_to",
          "type": "address"
        },
        {
          "internalType": "uint256",
          "name": "_shares",
          "type": "uint256"
        }
      ],
      "name": "withdraw",
      "outputs": [
        {
          "internalType": "uint256",
          "name": "amountOut",
          "type": "uint256"
        }
      ],
      "stateMutability": "nonpayable",
      "type": "function"
    }
  ],
  "args": [],
  "solcInputHash": "93ebaa441e3462400e4372fabffe5451",
  "bytecode": "0x6101006040523480156200001257600080fd5b506000805462ff00001916905560408051808201825260018152603160f81b6020918201528151808301909252600c82526b576172705661756c7420763160a01b9101527fa40fef20e589d79043a3159d07cb3250ae0cc1485bcb2d436b4b7dc47d197c5c60808190527fc89efdaa54c0f20c7adf612882df0950f5a951637e0307cdcb4c672f298b8bc660a081905290620000d07f8b73c3c69bb8fe3d512ecc4cf759cc79239f7b179b0ffacaa9a75d522b39400f8284620000e9565b60c052620000dd6200012e565b60e052506200015e9050565b6000838383620000f86200012e565b306040516020016200010f95949392919062000132565b6040516020818303038152906040528051906020012090509392505050565b4690565b9485526020850193909352604084019190915260608301526001600160a01b0316608082015260a00190565b60805160a05160c05160e05161232b62000198600039600061136401526000611394015260006113ff015260006113de015261232b6000f3fe608060405234801561001057600080fd5b50600436106101ce5760003560e01c80635c975abb11610104578063c6b45dfa116100a2578063da35a26f11610071578063da35a26f14610369578063da5139ca1461037c578063f18d03cc1461038f578063f7888aec146103a2576101ce565b8063c6b45dfa14610333578063d4ee1d901461033b578063d728e00514610343578063d9d98ce414610356576101ce565b80637372e9be116100de5780637372e9be1461030857806379ba50971461031b5780638456cb59146103235780638da5cb5b1461032b576101ce565b80635c975abb146102cd5780635cffe9de146102e2578063613255ab146102f5576101ce565b80633f4ba83a1161017157806350d75d251161014b57806350d75d25146102955780635299493b146102aa57806352d1902d146102bd57806354fd4d50146102c5576101ce565b80633f4ba83a14610267578063469519541461026f5780634ffe34db14610282576101ce565b80630b620b81116101ad5780630b620b81146102245780631e43a7a1146102375780631fd1ffde1461023f5780633f21c1b414610254576101ce565b8062f5ee4d146101d35780630284c3f5146101fc57806306fdde031461020f575b600080fd5b6101e66101e136600461192e565b6103b5565b6040516101f39190611cb7565b60405180910390f35b6101e661020a366004611a65565b6103c7565b610217610578565b6040516101f39190611d55565b6101e6610232366004611a65565b6105a0565b6101e661073e565b61025261024d366004611b90565b610744565b005b610252610262366004611982565b6107d5565b6102526109ef565b61025261027d36600461192e565b610a23565b6101e661029036600461192e565b610a59565b61029d610a6b565b6040516101f39190611c03565b6101e66102b83660046119f4565b610a7b565b6101e6610b24565b610217610b48565b6102d5610b65565b6040516101f39190611cac565b6102d56102f0366004611af6565b610b74565b6101e661030336600461192e565b610e4a565b61025261031636600461192e565b610e65565b610252610f02565b610252610f8e565b61029d610fc0565b6101e6610fcf565b61029d610fdb565b6102d561035136600461194a565b610fea565b6101e66103643660046119f4565b61100a565b610252610377366004611ba8565b611023565b6101e661038a366004611ab5565b611109565b61025261039d366004611a65565b611205565b6101e66103b0366004611a53565b611299565b60076020526000908152604090205481565b60006103d1610b65565b156103f75760405162461bcd60e51b81526004016103ee90611fb8565b60405180910390fd5b83336001600160a01b038216148061043757506001600160a01b038116600090815260066020908152604080832033845290915290205460ff1615156001145b6104535760405162461bcd60e51b81526004016103ee90612016565b6001600160a01b0384166104795760405162461bcd60e51b81526004016103ee90611f13565b61048586846000611109565b915061049c6001600160a01b0387168630866112b6565b6001600160a01b038087166000908152600460209081526040808320938816835292905220546104cd908390612207565b6001600160a01b038088166000818152600460209081526040808320948a16835293815283822094909455908152600590925290205461050e908390612207565b6001600160a01b03808816600081815260056020526040908190209390935591518682169291881691907f5fe47ed6d4225326d3303476197d782ded5a4e9c14f479dc9ec4992af4e85d599061056790889088906121f9565b60405180910390a450949350505050565b6040518060400160405280600c81526020016b576172705661756c7420763160a01b81525081565b60006105aa610b65565b156105c75760405162461bcd60e51b81526004016103ee90611fb8565b83336001600160a01b038216148061060757506001600160a01b038116600090815260066020908152604080832033845290915290205460ff1615156001145b6106235760405162461bcd60e51b81526004016103ee90612016565b6001600160a01b0384166106495760405162461bcd60e51b81526004016103ee90611f13565b6106538684610a7b565b6001600160a01b038088166000908152600460209081526040808320938a168352929052205490925061068790849061225e565b6001600160a01b038088166000818152600460209081526040808320948b1683529381528382209490945590815260059092529020546106c890849061225e565b6001600160a01b0387166000818152600560205260409020919091556106ef908584611341565b836001600160a01b0316856001600160a01b0316876001600160a01b03167ffbde797d201c681b91056529119e0b02407c7bb96a4a2c75c01fc9667232c8db86866040516105679291906121f9565b60015481565b6002546001600160a01b0316331461076e5760405162461bcd60e51b81526004016103ee9061219e565b67016345785d8a000081106107955760405162461bcd60e51b81526004016103ee90612099565b60018190556040517f351e11b7eebc302a6aa0cf8fb6ed5318359a632eecf29a1cafdf96ee7257be81906107ca908390611cb7565b60405180910390a150565b6001600160a01b0385166107fb5760405162461bcd60e51b81526004016103ee906121c2565b6000610805611360565b7fe8879d0159a5862e68322a449d14dcfb21ad39e0c3dc66f88aff16b87aa27eae86610851577f31d77d35dcd597e2453861d123e3d7ee551c84d42d8d97544835a74f1ccb251b610873565b7f9d3cc82da8126179611840997002f7d09633ad258b9c11d6e1dccc7e1ad477415b6001600160a01b038a16600090815260076020526040812080548c928c928c929161089d836122a1565b919050556040516020016108b696959493929190611cd7565b604051602081830303815290604052805190602001206040516020016108dd929190611be8565b60405160208183030381529060405280519060200120905060006001828686866040516000815260200160405260405161091a9493929190611d37565b6020604051602081039080840390855afa15801561093c573d6000803e3d6000fd5b505050602060405103519050876001600160a01b0316816001600160a01b0316146109795760405162461bcd60e51b81526004016103ee90611edc565b6001600160a01b038881166000818152600660209081526040808320948c168084529490915290819020805460ff19168a1515179055517f1d3e246ebbc933bf65d3290db9f93d67ab91a12d2b19308a35806e04d1c174c5906109dd908a90611cac565b60405180910390a35050505050505050565b6002546001600160a01b03163314610a195760405162461bcd60e51b81526004016103ee9061219e565b610a2161142a565b565b6002546001600160a01b03163314610a4d5760405162461bcd60e51b81526004016103ee9061219e565b610a5681611490565b50565b60056020526000908152604090205481565b6000610a75611598565b90505b90565b6001600160a01b0382166000818152600560205260408082205490516370a0823160e01b8152919290916370a0823190610ab9903090600401611c03565b60206040518083038186803b158015610ad157600080fd5b505afa158015610ae5573d6000803e3d6000fd5b505050506040513d601f19601f82011682018060405250810190610b099190611a3b565b610b13908461223f565b610b1d919061221f565b9392505050565b7f789f0daca1cd17baa821e8d7454225d50b9f3e7c22acb67c2b2fff4f686a128290565b604051806040016040528060018152602001603160f81b81525081565b60005462010000900460ff1690565b6001600160a01b038416600090815260056020526040812054841115610bac5760405162461bcd60e51b81526004016103ee90611f4a565b6040516370a0823160e01b815285906000906001600160a01b038316906370a0823190610bdd903090600401611c03565b60206040518083038186803b158015610bf557600080fd5b505afa158015610c09573d6000803e3d6000fd5b505050506040513d601f19601f82011682018060405250810190610c2d9190611a3b565b9050610c436001600160a01b0383168988611341565b6000610c4f888861100a565b90507f439148f0bbc682ca079e46d6e2c2f0c1e3b820f1a291b069d8882abf8cf18dd9896001600160a01b03166323e30c8b338b8b868c8c6040518763ffffffff1660e01b8152600401610ca896959493929190611c3b565b602060405180830381600087803b158015610cc257600080fd5b505af1158015610cd6573d6000803e3d6000fd5b505050506040513d601f19601f82011682018060405250810190610cfa9190611a3b565b14610d175760405162461bcd60e51b81526004016103ee90611e02565b610d388930610d26848b612207565b6001600160a01b0387169291906112b6565b600082846001600160a01b03166370a08231306040518263ffffffff1660e01b8152600401610d679190611c03565b60206040518083038186803b158015610d7f57600080fd5b505afa158015610d93573d6000803e3d6000fd5b505050506040513d601f19601f82011682018060405250810190610db79190611a3b565b610dc1919061225e565b905081811015610de35760405162461bcd60e51b81526004016103ee90611f81565b896001600160a01b0316846001600160a01b0316336001600160a01b03167f581cf1fe7a440a4f68b6fdeba82ea38faf67f97ec14d5d9831a450e79a3849028b86604051610e329291906121f9565b60405180910390a45060019998505050505050505050565b6001600160a01b031660009081526005602052604090205490565b6002546001600160a01b03163314610e8f5760405162461bcd60e51b81526004016103ee9061219e565b6001600160a01b038116610eb55760405162461bcd60e51b81526004016103ee90611e5f565b600380546001600160a01b0319166001600160a01b0383161790556040517f75ec58ed4c3b4778d64c8fb2682d99b9844d486931205289f0c8e9951eaab832906107ca9083904290611c93565b6003546001600160a01b03163314610f2c5760405162461bcd60e51b81526004016103ee90611fef565b60038054600280546001600160a01b03199081166001600160a01b038416179091551690556040517f56a56c31bb3f318488e30872a32d64e9e9092a6a23043f6d9e9d71b2545e717290610f84906000904290611c93565b60405180910390a1565b6002546001600160a01b03163314610fb85760405162461bcd60e51b81526004016103ee9061219e565b610a216115bd565b6002546001600160a01b031681565b67016345785d8a000081565b6003546001600160a01b031681565b600660209081526000928352604080842090915290825290205460ff1681565b6000670de0b6b3a764000060015483610b13919061223f565b600054610100900460ff168061103c575060005460ff16155b6110585760405162461bcd60e51b81526004016103ee9061203c565b600054610100900460ff16158015611083576000805460ff1961ff0019909116610100171660011790555b6001600160a01b0382166110a95760405162461bcd60e51b81526004016103ee906120bf565b67016345785d8a0000600154106110d25760405162461bcd60e51b81526004016103ee90611e39565b6001839055600280546001600160a01b0319166001600160a01b0384161790558015611104576000805461ff00191690555b505050565b6001600160a01b03831660009081526005602052604081205480156111f9576040516370a0823160e01b81526000906001600160a01b038716906370a0823190611157903090600401611c03565b60206040518083038186803b15801561116f57600080fd5b505afa158015611183573d6000803e3d6000fd5b505050506040513d601f19601f820116820180604052508101906111a79190611a3b565b9050806111b4838761223f565b6111be919061221f565b92508380156111e0575084826111d4838661223f565b6111de919061221f565b105b156111f3576111f0836001612207565b92505b506111fd565b8391505b509392505050565b61120d610b65565b1561122a5760405162461bcd60e51b81526004016103ee90611fb8565b82336001600160a01b038216148061126a57506001600160a01b038116600090815260066020908152604080832033845290915290205460ff1615156001145b6112865760405162461bcd60e51b81526004016103ee90612016565b6112928585858561161c565b5050505050565b600460209081526000928352604080842090915290825290205481565b61133b846323b872dd60e01b8585856040516024016112d793929190611c17565b60408051601f198184030181529190526020810180517bffffffffffffffffffffffffffffffffffffffffffffffffffffffff167fffffffff000000000000000000000000000000000000000000000000000000009093169290921790915261171c565b50505050565b6111048363a9059cbb60e01b84846040516024016112d7929190611c93565b60007f000000000000000000000000000000000000000000000000000000000000000061138b6117ab565b14156113b857507f0000000000000000000000000000000000000000000000000000000000000000610a78565b6114237f8b73c3c69bb8fe3d512ecc4cf759cc79239f7b179b0ffacaa9a75d522b39400f7f00000000000000000000000000000000000000000000000000000000000000007f00000000000000000000000000000000000000000000000000000000000000006117af565b9050610a78565b611432610b65565b61144e5760405162461bcd60e51b81526004016103ee90611dcb565b6000805462ff0000191690557f5db9ee0a495bf2e6ff9c91a7834c1ba4fdd244a5e8aa4e537bd38aeae4b073aa6114836117f0565b604051610f849190611c03565b600061149a611598565b6001600160a01b031614156114c15760405162461bcd60e51b81526004016103ee906120e6565b806001600160a01b03166352d1902d6040518163ffffffff1660e01b815260040160206040518083038186803b1580156114fa57600080fd5b505afa15801561150e573d6000803e3d6000fd5b505050506040513d601f19601f820116820180604052508101906115329190611a3b565b61153a610b24565b146115575760405162461bcd60e51b81526004016103ee90611d88565b611560816117f4565b7fe011bc04c286c344a8fcbb8de77f953da762c3e25d8cdea984147fc4168a5dcc611589610b24565b826040516107ca929190611cc0565b7f360894a13ba1a3210667c828492db98dca3e2076cc3735a920a3ca505d382bbc5490565b6115c5610b65565b156115e25760405162461bcd60e51b81526004016103ee90611fb8565b6000805462ff00001916620100001790557f62e78cea01bee320cd4e420270b5ea74000d11b0c9f74754ebdbfc544b05a2586114836117f0565b6001600160a01b0382166116425760405162461bcd60e51b81526004016103ee90611f13565b6001600160a01b0380851660009081526004602090815260408083209387168352929052205461167390829061225e565b6001600160a01b038581166000908152600460209081526040808320888516845290915280822093909355908416815220546116b0908290612207565b6001600160a01b0380861660008181526004602090815260408083208886168085529252918290209490945551918616917fd1398bee19313d6bf672ccb116e51f4a1a947e91c757907f51fbb5b5e56c698f9061170e908690611cb7565b60405180910390a450505050565b6000611771826040518060400160405280602081526020017f5361666545524332303a206c6f772d6c6576656c2063616c6c206661696c6564815250856001600160a01b03166118189092919063ffffffff16565b805190915015611104578080602001905181019061178f9190611a1f565b6111045760405162461bcd60e51b81526004016103ee90612154565b4690565b60008383836117bc6117ab565b306040516020016117d1959493929190611d0b565b6040516020818303038152906040528051906020012090509392505050565b3390565b7f360894a13ba1a3210667c828492db98dca3e2076cc3735a920a3ca505d382bbc55565b6060611827848460008561182f565b949350505050565b6060824710156118515760405162461bcd60e51b81526004016103ee90611e96565b61185a856118ef565b6118765760405162461bcd60e51b81526004016103ee9061211d565b600080866001600160a01b031685876040516118929190611bcc565b60006040518083038185875af1925050503d80600081146118cf576040519150601f19603f3d011682016040523d82523d6000602084013e6118d4565b606091505b50915091506118e48282866118f5565b979650505050505050565b3b151590565b60608315611904575081610b1d565b8251156119145782518084602001fd5b8160405162461bcd60e51b81526004016103ee9190611d55565b60006020828403121561193f578081fd5b8135610b1d816122d2565b6000806040838503121561195c578081fd5b8235611967816122d2565b91506020830135611977816122d2565b809150509250929050565b60008060008060008060c0878903121561199a578182fd5b86356119a5816122d2565b955060208701356119b5816122d2565b945060408701356119c5816122e7565b9350606087013560ff811681146119da578283fd5b9598949750929560808101359460a0909101359350915050565b60008060408385031215611a06578182fd5b8235611a11816122d2565b946020939093013593505050565b600060208284031215611a30578081fd5b8151610b1d816122e7565b600060208284031215611a4c578081fd5b5051919050565b6000806040838503121561195c578182fd5b60008060008060808587031215611a7a578384fd5b8435611a85816122d2565b93506020850135611a95816122d2565b92506040850135611aa5816122d2565b9396929550929360600135925050565b600080600060608486031215611ac9578283fd5b8335611ad4816122d2565b9250602084013591506040840135611aeb816122e7565b809150509250925092565b600080600080600060808688031215611b0d578081fd5b8535611b18816122d2565b94506020860135611b28816122d2565b935060408601359250606086013567ffffffffffffffff80821115611b4b578283fd5b818801915088601f830112611b5e578283fd5b813581811115611b6c578384fd5b896020828501011115611b7d578384fd5b9699959850939650602001949392505050565b600060208284031215611ba1578081fd5b5035919050565b60008060408385031215611bba578182fd5b823591506020830135611977816122d2565b60008251611bde818460208701612275565b9190910192915050565b61190160f01b81526002810192909252602282015260420190565b6001600160a01b0391909116815260200190565b6001600160a01b039384168152919092166020820152604081019190915260600190565b60006001600160a01b03808916835280881660208401525085604083015284606083015260a060808301528260a0830152828460c084013781830160c090810191909152601f909201601f1916010195945050505050565b6001600160a01b03929092168252602082015260400190565b901515815260200190565b90815260200190565b9182526001600160a01b0316602082015260400190565b95865260208601949094526001600160a01b039283166040860152911660608401521515608083015260a082015260c00190565b9485526020850193909352604084019190915260608301526001600160a01b0316608082015260a00190565b93845260ff9290921660208401526040830152606082015260800190565b6000602082528251806020840152611d74816040850160208701612275565b601f01601f19169190910160400192915050565b60208082526023908201527f5555505350726f786961626c653a206e6f7420636f6d70617469626c65206c6f60408201526267696360e81b606082015260800190565b60208082526014908201527f5061757361626c653a206e6f7420706175736564000000000000000000000000604082015260600190565b60208082526019908201527f49455243333135363a2043616c6c6261636b206661696c656400000000000000604082015260600190565b6020808252600c908201526b494e56414c49445f5241544560a01b604082015260600190565b60208082526011908201527f494e56414c49445f4e45575f4f574e4552000000000000000000000000000000604082015260600190565b60208082526026908201527f416464726573733a20696e73756666696369656e742062616c616e636520666f6040820152651c8818d85b1b60d21b606082015260800190565b60208082526011908201527f494e56414c49445f5349474e4154555245000000000000000000000000000000604082015260600190565b60208082526012908201527f494e56414c49445f544f5f414444524553530000000000000000000000000000604082015260600190565b60208082526012908201527f4e6f7420656e6f7567682062616c616e63650000000000000000000000000000604082015260600190565b6020808252600f908201527f6e6f7420656e6f75676820666565730000000000000000000000000000000000604082015260600190565b60208082526010908201527f5061757361626c653a2070617573656400000000000000000000000000000000604082015260600190565b6020808252600d908201526c34b73b30b634b21037bbb732b960991b604082015260600190565b6020808252600c908201526b13d3931657d0531313d5d15160a21b604082015260600190565b6020808252602e908201527f496e697469616c697a61626c653a20636f6e747261637420697320616c72656160408201527f647920696e697469616c697a6564000000000000000000000000000000000000606082015260800190565b6020808252600c908201526b696e76616c6964207261746560a01b604082015260600190565b6020808252600d908201526c24a72b20a624a22fa7aba722a960991b604082015260600190565b6020808252601d908201527f5555505350726f786961626c653a206e6f742075706772616461626c65000000604082015260600190565b6020808252601d908201527f416464726573733a2063616c6c20746f206e6f6e2d636f6e7472616374000000604082015260600190565b6020808252602a908201527f5361666545524332303a204552433230206f7065726174696f6e20646964206e6040820152691bdd081cdd58d8d9595960b21b606082015260800190565b6020808252600a908201526927a7262cafa7aba722a960b11b604082015260600190565b60208082526010908201527f494e56414c49445f434f4e545241435400000000000000000000000000000000604082015260600190565b918252602082015260400190565b6000821982111561221a5761221a6122bc565b500190565b60008261223a57634e487b7160e01b81526012600452602481fd5b500490565b6000816000190483118215151615612259576122596122bc565b500290565b600082821015612270576122706122bc565b500390565b60005b83811015612290578181015183820152602001612278565b8381111561133b5750506000910152565b60006000198214156122b5576122b56122bc565b5060010190565b634e487b7160e01b600052601160045260246000fd5b6001600160a01b0381168114610a5657600080fd5b8015158114610a5657600080fdfea2646970667358221220fe35717c52b7c5b9ad8d4b3513625120de5155b40e1e6cebbd2df31c9819c92d64736f6c63430008010033",
  "devdoc": {
    "author": "@samparsky",
    "kind": "dev",
    "methods": {
      "constructor": {
        "details": "setup a vault"
      },
      "deposit(address,address,address,uint256)": {
        "params": {
          "_amount": "Token amount in native representation to deposit.",
          "_from": "which account to pull the tokens.",
          "_to": "which account to push the tokens.",
          "_token": "The ERC-20 token to deposit."
        },
        "returns": {
          "amountOut": "The deposit amount in vault shares"
        }
      },
      "flashFee(address,uint256)": {
        "params": {
          "": "// _token The loan currency.",
          "_amount": "The amount of tokens lent."
        },
        "returns": {
          "_0": "The amount of `token` to be charged for the loan, on top of the returned principal."
        }
      },
      "flashLoan(address,address,uint256,bytes)": {
        "params": {
          "_amount": "The amount of tokens lent.",
          "_data": "Arbitrary data structure, intended to contain user-defined parameters.",
          "_receiver": "The receiver of the tokens in the loan, and the receiver of the callback.",
          "_token": "The loan currency."
        }
      },
      "getCodeAddress()": {
        "details": "Get current implementation code address."
      },
      "maxFlashLoan(address)": {
        "params": {
          "_token": "The loan currency."
        },
        "returns": {
          "_0": "The amount of `token` that can be borrowed."
        }
      },
      "paused()": {
        "details": "Returns true if the contract is paused, and false otherwise."
      },
      "proxiableUUID()": {
        "details": "Proxiable UUID marker function.      This would help to avoid wrong logic contract to be used for upgrading."
      },
      "toShare(address,uint256,bool)": {
        "details": "Helper function to represent an `amount` of `token` in shares.",
        "params": {
          "_amount": "The `token` amount.",
          "_ceil": "If to ceil the amount or not",
          "_token": "The ERC-20 token."
        },
        "returns": {
          "share": "The token amount represented in shares."
        }
      },
      "toUnderlying(address,uint256)": {
        "params": {
          "_share": "The amount of shares.",
          "_token": "The ERC-20 token."
        },
        "returns": {
          "amount": "The share amount back into native representation."
        }
      },
      "transfer(address,address,address,uint256)": {
        "params": {
          "_from": "which user to pull the tokens.",
          "_shares": "of shares to transfer",
          "_to": "which user to push the tokens.",
          "_token": "The ERC-20 token to transfer."
        }
      },
      "transferToNewOwner(address)": {
        "params": {
          "_newOwner": "The new team"
        }
      },
      "updateFlashloanRate(uint256)": {
        "details": "Update the flashloan rate charged, only blacksmith team can call",
        "params": {
          "_newRate": "The ERC-20 token."
        }
      },
      "withdraw(address,address,address,uint256)": {
        "params": {
          "_from": "which user to pull the tokens.",
          "_shares": "of shares to withdraw",
          "_to": "which user to push the tokens.",
          "_token": "The ERC-20 token to withdraw."
        },
        "returns": {
          "amountOut": "The amount of underlying transferred"
        }
      }
    },
    "title": "Vault",
    "version": 1
  },
  "userdoc": {
    "events": {
      "Deposit(address,address,address,uint256,uint256)": {
        "notice": "Emitted on deposit"
      },
      "Withdraw(address,address,address,uint256,uint256)": {
        "notice": "Emitted on withdraw"
      }
    },
    "kind": "user",
    "methods": {
      "MAX_FLASHLOAN_RATE()": {
        "notice": "max flashlaon rate 10%"
      },
      "acceptOwnership()": {
        "notice": "accept transfer of control"
      },
      "approveContract(address,address,bool,uint8,bytes32,bytes32)": {
        "notice": "approve a contract to enable the contract to withdraw"
      },
      "balanceOf(address,address)": {
        "notice": "mapping of token asset to user address and balance"
      },
      "deposit(address,address,address,uint256)": {
        "notice": "Deposit an amount of `token`"
      },
      "flashFee(address,uint256)": {
        "notice": "The fee to be charged for a given loan."
      },
      "flashLoan(address,address,uint256,bytes)": {
        "notice": "Initiate a flash loan."
      },
      "flashLoanRate()": {
        "notice": "the flashloan rate to charge for flash loans"
      },
      "maxFlashLoan(address)": {
        "notice": "The amount of currency available to be lent."
      },
      "name()": {
        "notice": "vault name"
      },
      "owner()": {
        "notice": "the address that access to perform `admin` functions"
      },
      "pause()": {
        "notice": "pause vault actions"
      },
      "toUnderlying(address,uint256)": {
        "notice": "Helper function represent shares back into the `token` amount."
      },
      "totals(address)": {
        "notice": "mapping of token asset to total deposit"
      },
      "transfer(address,address,address,uint256)": {
        "notice": "Transfer share of `token` to another account"
      },
      "transferToNewOwner(address)": {
        "notice": "Transfer control from current owner address to another"
      },
      "unpause()": {
        "notice": "unpause vault actions"
      },
      "userApprovalNonce(address)": {
        "notice": "mapping of user to approval nonce"
      },
      "userApprovedContracts(address,address)": {
        "notice": "mapping of user to contract to approval status"
      },
      "version()": {
        "notice": "vault version"
      },
      "withdraw(address,address,address,uint256)": {
        "notice": "Withdraw the underlying share of `token` from a user account."
      }
    },
    "notice": "Vault contract stores assets deposited into the Lending pairs. It enables deposit, withdrawal, flashloans and transfer of tokens. It represents the deposited token amount in form of shares This contract implements the EIP3156 IERC3156FlashBorrower for flashloans.",
    "version": 1
  },
  "storageLayout": {
    "storage": [
      {
        "astId": 138,
        "contract": "contracts/Vault.sol:Vault",
        "label": "_initialized",
        "offset": 0,
        "slot": "0",
        "type": "t_bool"
      },
      {
        "astId": 141,
        "contract": "contracts/Vault.sol:Vault",
        "label": "_initializing",
        "offset": 1,
        "slot": "0",
        "type": "t_bool"
      },
      {
        "astId": 196,
        "contract": "contracts/Vault.sol:Vault",
        "label": "_paused",
        "offset": 2,
        "slot": "0",
        "type": "t_bool"
      },
      {
        "astId": 6652,
        "contract": "contracts/Vault.sol:Vault",
        "label": "flashLoanRate",
        "offset": 0,
        "slot": "1",
        "type": "t_uint256"
      },
      {
        "astId": 6655,
        "contract": "contracts/Vault.sol:Vault",
        "label": "owner",
        "offset": 0,
        "slot": "2",
        "type": "t_address"
      },
      {
        "astId": 6658,
        "contract": "contracts/Vault.sol:Vault",
        "label": "newOwner",
        "offset": 0,
        "slot": "3",
        "type": "t_address"
      },
      {
        "astId": 6667,
        "contract": "contracts/Vault.sol:Vault",
        "label": "balanceOf",
        "offset": 0,
        "slot": "4",
        "type": "t_mapping(t_contract(IERC20)849,t_mapping(t_address,t_uint256))"
      },
      {
        "astId": 6673,
        "contract": "contracts/Vault.sol:Vault",
        "label": "totals",
        "offset": 0,
        "slot": "5",
        "type": "t_mapping(t_contract(IERC20)849,t_uint256)"
      },
      {
        "astId": 6680,
        "contract": "contracts/Vault.sol:Vault",
        "label": "userApprovedContracts",
        "offset": 0,
        "slot": "6",
        "type": "t_mapping(t_address,t_mapping(t_address,t_bool))"
      },
      {
        "astId": 6685,
        "contract": "contracts/Vault.sol:Vault",
        "label": "userApprovalNonce",
        "offset": 0,
        "slot": "7",
        "type": "t_mapping(t_address,t_uint256)"
      }
    ],
    "types": {
      "t_address": {
        "encoding": "inplace",
        "label": "address",
        "numberOfBytes": "20"
      },
      "t_bool": {
        "encoding": "inplace",
        "label": "bool",
        "numberOfBytes": "1"
      },
      "t_contract(IERC20)849": {
        "encoding": "inplace",
        "label": "contract IERC20",
        "numberOfBytes": "20"
      },
      "t_mapping(t_address,t_bool)": {
        "encoding": "mapping",
        "key": "t_address",
        "label": "mapping(address => bool)",
        "numberOfBytes": "32",
        "value": "t_bool"
      },
      "t_mapping(t_address,t_mapping(t_address,t_bool))": {
        "encoding": "mapping",
        "key": "t_address",
        "label": "mapping(address => mapping(address => bool))",
        "numberOfBytes": "32",
        "value": "t_mapping(t_address,t_bool)"
      },
      "t_mapping(t_address,t_uint256)": {
        "encoding": "mapping",
        "key": "t_address",
        "label": "mapping(address => uint256)",
        "numberOfBytes": "32",
        "value": "t_uint256"
      },
      "t_mapping(t_contract(IERC20)849,t_mapping(t_address,t_uint256))": {
        "encoding": "mapping",
        "key": "t_contract(IERC20)849",
        "label": "mapping(contract IERC20 => mapping(address => uint256))",
        "numberOfBytes": "32",
        "value": "t_mapping(t_address,t_uint256)"
      },
      "t_mapping(t_contract(IERC20)849,t_uint256)": {
        "encoding": "mapping",
        "key": "t_contract(IERC20)849",
        "label": "mapping(contract IERC20 => uint256)",
        "numberOfBytes": "32",
        "value": "t_uint256"
      },
      "t_uint256": {
        "encoding": "inplace",
        "label": "uint256",
        "numberOfBytes": "32"
      }
    }
  }
}