{
  "address": "0x829E97E0c94701D5cDDd101405073e0BC6FD39F1",
  "abi": [
    {
      "inputs": [
        {
          "internalType": "address",
          "name": "bribeToken_",
          "type": "address"
        },
        {
          "internalType": "address",
          "name": "aaveToken_",
          "type": "address"
        },
        {
          "internalType": "address",
          "name": "stkAaveToken_",
          "type": "address"
        },
        {
          "internalType": "address",
          "name": "bidAsset_",
          "type": "address"
        },
        {
          "internalType": "address",
          "name": "aave_",
          "type": "address"
        },
        {
          "internalType": "address",
          "name": "feeReceipient_",
          "type": "address"
        },
        {
          "internalType": "contract IWrapperToken",
          "name": "wrapperAaveToken_",
          "type": "address"
        },
        {
          "internalType": "contract IWrapperToken",
          "name": "wrapperStkAaveToken_",
          "type": "address"
        },
        {
          "components": [
            {
              "internalType": "uint128",
              "name": "rewardAmountDistributedPerSecond",
              "type": "uint128"
            },
            {
              "internalType": "uint64",
              "name": "startTimestamp",
              "type": "uint64"
            },
            {
              "internalType": "uint64",
              "name": "endTimestamp",
              "type": "uint64"
            }
          ],
          "internalType": "struct IAavePool.BribeReward",
          "name": "rewardConfig_",
          "type": "tuple"
        }
      ],
      "stateMutability": "nonpayable",
      "type": "constructor"
    },
    {
      "anonymous": false,
      "inputs": [
        {
          "indexed": true,
          "internalType": "contract IERC20",
          "name": "asset",
          "type": "address"
        },
        {
          "indexed": false,
          "internalType": "uint256",
          "name": "totalAmountAccrued",
          "type": "uint256"
        },
        {
          "indexed": false,
          "internalType": "uint256",
          "name": "timestamp",
          "type": "uint256"
        }
      ],
      "name": "AssetReward",
      "type": "event"
    },
    {
      "anonymous": false,
      "inputs": [
        {
          "indexed": true,
          "internalType": "uint256",
          "name": "proposalId",
          "type": "uint256"
        },
        {
          "indexed": false,
          "internalType": "uint256",
          "name": "timestamp",
          "type": "uint256"
        }
      ],
      "name": "BlockProposalId",
      "type": "event"
    },
    {
      "anonymous": false,
      "inputs": [
        {
          "indexed": true,
          "internalType": "contract IERC20",
          "name": "token",
          "type": "address"
        },
        {
          "indexed": true,
          "internalType": "address",
          "name": "user",
          "type": "address"
        },
        {
          "indexed": false,
          "internalType": "uint256",
          "name": "amount",
          "type": "uint256"
        },
        {
          "indexed": false,
          "internalType": "uint256",
          "name": "timestamp",
          "type": "uint256"
        }
      ],
      "name": "Deposit",
      "type": "event"
    },
    {
      "anonymous": false,
      "inputs": [
        {
          "indexed": true,
          "internalType": "uint256",
          "name": "proposalId",
          "type": "uint256"
        },
        {
          "indexed": true,
          "internalType": "address",
          "name": "prevHighestBidder",
          "type": "address"
        },
        {
          "indexed": true,
          "internalType": "address",
          "name": "highestBidder",
          "type": "address"
        },
        {
          "indexed": false,
          "internalType": "address",
          "name": "sender",
          "type": "address"
        },
        {
          "indexed": false,
          "internalType": "uint256",
          "name": "highestBid",
          "type": "uint256"
        },
        {
          "indexed": false,
          "internalType": "bool",
          "name": "support",
          "type": "bool"
        }
      ],
      "name": "HighestBidIncreased",
      "type": "event"
    },
    {
      "anonymous": false,
      "inputs": [
        {
          "indexed": true,
          "internalType": "address",
          "name": "previousOwner",
          "type": "address"
        },
        {
          "indexed": true,
          "internalType": "address",
          "name": "newOwner",
          "type": "address"
        }
      ],
      "name": "OwnershipTransferred",
      "type": "event"
    },
    {
      "anonymous": false,
      "inputs": [
        {
          "indexed": false,
          "internalType": "address",
          "name": "account",
          "type": "address"
        }
      ],
      "name": "Paused",
      "type": "event"
    },
    {
      "anonymous": false,
      "inputs": [
        {
          "indexed": true,
          "internalType": "uint256",
          "name": "proposalId",
          "type": "uint256"
        },
        {
          "indexed": false,
          "internalType": "address",
          "name": "bidder",
          "type": "address"
        },
        {
          "indexed": false,
          "internalType": "uint256",
          "name": "bidAmount",
          "type": "uint256"
        }
      ],
      "name": "Refund",
      "type": "event"
    },
    {
      "anonymous": false,
      "inputs": [
        {
          "indexed": true,
          "internalType": "address",
          "name": "user",
          "type": "address"
        },
        {
          "indexed": false,
          "internalType": "uint256",
          "name": "pendingBidReward",
          "type": "uint256"
        },
        {
          "indexed": false,
          "internalType": "uint256",
          "name": "pendingStkAaveReward",
          "type": "uint256"
        },
        {
          "indexed": false,
          "internalType": "uint256",
          "name": "pendingBribeReward",
          "type": "uint256"
        },
        {
          "indexed": false,
          "internalType": "uint256",
          "name": "timestamp",
          "type": "uint256"
        }
      ],
      "name": "RewardAccrue",
      "type": "event"
    },
    {
      "anonymous": false,
      "inputs": [
        {
          "indexed": true,
          "internalType": "address",
          "name": "user",
          "type": "address"
        },
        {
          "indexed": false,
          "internalType": "uint256",
          "name": "pendingBid",
          "type": "uint256"
        },
        {
          "indexed": false,
          "internalType": "uint256",
          "name": "pendingReward",
          "type": "uint256"
        },
        {
          "indexed": false,
          "internalType": "uint256",
          "name": "pendingBribeReward",
          "type": "uint256"
        },
        {
          "indexed": false,
          "internalType": "uint256",
          "name": "timestamp",
          "type": "uint256"
        }
      ],
      "name": "RewardClaim",
      "type": "event"
    },
    {
      "anonymous": false,
      "inputs": [
        {
          "indexed": false,
          "internalType": "uint256",
          "name": "proposalId",
          "type": "uint256"
        },
        {
          "indexed": false,
          "internalType": "uint256",
          "name": "amount",
          "type": "uint256"
        }
      ],
      "name": "RewardDistributed",
      "type": "event"
    },
    {
      "anonymous": false,
      "inputs": [
        {
          "indexed": false,
          "internalType": "uint256",
          "name": "oldTimestamp",
          "type": "uint256"
        },
        {
          "indexed": false,
          "internalType": "uint256",
          "name": "endTimestamp",
          "type": "uint256"
        }
      ],
      "name": "SetBribeRewardEndTimestamp",
      "type": "event"
    },
    {
      "anonymous": false,
      "inputs": [
        {
          "indexed": false,
          "internalType": "uint256",
          "name": "oldRewardPerSecond",
          "type": "uint256"
        },
        {
          "indexed": false,
          "internalType": "uint256",
          "name": "newRewardPerSecond",
          "type": "uint256"
        }
      ],
      "name": "SetBribeRewardPerSecond",
      "type": "event"
    },
    {
      "anonymous": false,
      "inputs": [
        {
          "indexed": false,
          "internalType": "uint256",
          "name": "oldTimestamp",
          "type": "uint256"
        },
        {
          "indexed": false,
          "internalType": "uint256",
          "name": "endTimestamp",
          "type": "uint256"
        }
      ],
      "name": "SetBribeRewardStartTimestamp",
      "type": "event"
    },
    {
      "anonymous": false,
      "inputs": [
        {
          "indexed": true,
          "internalType": "uint256",
          "name": "proposalId",
          "type": "uint256"
        },
        {
          "indexed": false,
          "internalType": "uint256",
          "name": "timestamp",
          "type": "uint256"
        }
      ],
      "name": "UnblockProposalId",
      "type": "event"
    },
    {
      "anonymous": false,
      "inputs": [
        {
          "indexed": false,
          "internalType": "address",
          "name": "owner",
          "type": "address"
        },
        {
          "indexed": false,
          "internalType": "uint256",
          "name": "amount",
          "type": "uint256"
        }
      ],
      "name": "UnclaimedRewards",
      "type": "event"
    },
    {
      "anonymous": false,
      "inputs": [
        {
          "indexed": false,
          "internalType": "address",
          "name": "account",
          "type": "address"
        }
      ],
      "name": "Unpaused",
      "type": "event"
    },
    {
      "anonymous": false,
      "inputs": [
        {
          "indexed": false,
          "internalType": "uint256",
          "name": "delayperiod",
          "type": "uint256"
        },
        {
          "indexed": false,
          "internalType": "uint256",
          "name": "timestamp",
          "type": "uint256"
        }
      ],
      "name": "UpdateDelayPeriod",
      "type": "event"
    },
    {
      "anonymous": false,
      "inputs": [
        {
          "indexed": false,
          "internalType": "address",
          "name": "sender",
          "type": "address"
        },
        {
          "indexed": false,
          "internalType": "address",
          "name": "receipient",
          "type": "address"
        }
      ],
      "name": "UpdateFeeRecipient",
      "type": "event"
    },
    {
      "anonymous": false,
      "inputs": [
        {
          "indexed": true,
          "internalType": "uint256",
          "name": "proposalId",
          "type": "uint256"
        },
        {
          "indexed": false,
          "internalType": "address",
          "name": "user",
          "type": "address"
        },
        {
          "indexed": false,
          "internalType": "bool",
          "name": "support",
          "type": "bool"
        },
        {
          "indexed": false,
          "internalType": "uint256",
          "name": "timestamp",
          "type": "uint256"
        }
      ],
      "name": "Vote",
      "type": "event"
    },
    {
      "anonymous": false,
      "inputs": [
        {
          "indexed": true,
          "internalType": "contract IERC20",
          "name": "token",
          "type": "address"
        },
        {
          "indexed": true,
          "internalType": "address",
          "name": "user",
          "type": "address"
        },
        {
          "indexed": false,
          "internalType": "uint256",
          "name": "amount",
          "type": "uint256"
        },
        {
          "indexed": false,
          "internalType": "uint256",
          "name": "timestamp",
          "type": "uint256"
        }
      ],
      "name": "Withdraw",
      "type": "event"
    },
    {
      "anonymous": false,
      "inputs": [
        {
          "indexed": true,
          "internalType": "address",
          "name": "sender",
          "type": "address"
        },
        {
          "indexed": false,
          "internalType": "uint256",
          "name": "feesReceived",
          "type": "uint256"
        },
        {
          "indexed": false,
          "internalType": "uint256",
          "name": "timestamp",
          "type": "uint256"
        }
      ],
      "name": "WithdrawFees",
      "type": "event"
    },
    {
      "anonymous": false,
      "inputs": [
        {
          "indexed": false,
          "internalType": "uint256",
          "name": "amount",
          "type": "uint256"
        }
      ],
      "name": "WithdrawRemainingReward",
      "type": "event"
    },
    {
      "inputs": [],
      "name": "aaveGovernance",
      "outputs": [
        {
          "internalType": "address",
          "name": "",
          "type": "address"
        }
      ],
      "stateMutability": "view",
      "type": "function"
    },
    {
      "inputs": [],
      "name": "aaveToken",
      "outputs": [
        {
          "internalType": "contract IERC20",
          "name": "",
          "type": "address"
        }
      ],
      "stateMutability": "view",
      "type": "function"
    },
    {
      "inputs": [],
      "name": "assetIndex",
      "outputs": [
        {
          "internalType": "uint256",
          "name": "lastStkAaveRewardBalance",
          "type": "uint256"
        },
        {
          "internalType": "uint128",
          "name": "rewardIndex",
          "type": "uint128"
        },
        {
          "internalType": "uint128",
          "name": "bribeRewardIndex",
          "type": "uint128"
        },
        {
          "internalType": "uint64",
          "name": "bribeLastRewardTimestamp",
          "type": "uint64"
        },
        {
          "internalType": "uint64",
          "name": "bidId",
          "type": "uint64"
        },
        {
          "internalType": "uint128",
          "name": "bidIndex",
          "type": "uint128"
        },
        {
          "internalType": "uint128",
          "name": "bribeRewardPerShare",
          "type": "uint128"
        },
        {
          "internalType": "uint128",
          "name": "stkAaveRewardPerShare",
          "type": "uint128"
        }
      ],
      "stateMutability": "view",
      "type": "function"
    },
    {
      "inputs": [
        {
          "internalType": "address",
          "name": "bidder",
          "type": "address"
        },
        {
          "internalType": "uint256",
          "name": "proposalId",
          "type": "uint256"
        },
        {
          "internalType": "uint128",
          "name": "amount",
          "type": "uint128"
        },
        {
          "internalType": "bool",
          "name": "support",
          "type": "bool"
        }
      ],
      "name": "bid",
      "outputs": [],
      "stateMutability": "nonpayable",
      "type": "function"
    },
    {
      "inputs": [],
      "name": "bidAsset",
      "outputs": [
        {
          "internalType": "contract IERC20",
          "name": "",
          "type": "address"
        }
      ],
      "stateMutability": "view",
      "type": "function"
    },
    {
      "inputs": [
        {
          "internalType": "uint256",
          "name": "",
          "type": "uint256"
        }
      ],
      "name": "bids",
      "outputs": [
        {
          "internalType": "uint256",
          "name": "totalVotes",
          "type": "uint256"
        },
        {
          "internalType": "uint256",
          "name": "proposalStartBlock",
          "type": "uint256"
        },
        {
          "internalType": "uint128",
          "name": "highestBid",
          "type": "uint128"
        },
        {
          "internalType": "uint64",
          "name": "endTime",
          "type": "uint64"
        },
        {
          "internalType": "bool",
          "name": "support",
          "type": "bool"
        },
        {
          "internalType": "bool",
          "name": "voted",
          "type": "bool"
        },
        {
          "internalType": "address",
          "name": "highestBidder",
          "type": "address"
        }
      ],
      "stateMutability": "view",
      "type": "function"
    },
    {
      "inputs": [
        {
          "internalType": "uint256",
          "name": "proposalId",
          "type": "uint256"
        }
      ],
      "name": "blockProposalId",
      "outputs": [],
      "stateMutability": "nonpayable",
      "type": "function"
    },
    {
      "inputs": [
        {
          "internalType": "uint256",
          "name": "",
          "type": "uint256"
        }
      ],
      "name": "blockedProposals",
      "outputs": [
        {
          "internalType": "bool",
          "name": "",
          "type": "bool"
        }
      ],
      "stateMutability": "view",
      "type": "function"
    },
    {
      "inputs": [],
      "name": "bribeRewardConfig",
      "outputs": [
        {
          "internalType": "uint128",
          "name": "rewardAmountDistributedPerSecond",
          "type": "uint128"
        },
        {
          "internalType": "uint64",
          "name": "startTimestamp",
          "type": "uint64"
        },
        {
          "internalType": "uint64",
          "name": "endTimestamp",
          "type": "uint64"
        }
      ],
      "stateMutability": "view",
      "type": "function"
    },
    {
      "inputs": [],
      "name": "bribeToken",
      "outputs": [
        {
          "internalType": "contract IERC20",
          "name": "",
          "type": "address"
        }
      ],
      "stateMutability": "view",
      "type": "function"
    },
    {
      "inputs": [
        {
          "internalType": "address",
          "name": "to",
          "type": "address"
        },
        {
          "internalType": "contract IBribeExecutor",
          "name": "executor",
          "type": "address"
        },
        {
          "internalType": "bytes",
          "name": "data",
          "type": "bytes"
        },
        {
          "internalType": "bool",
          "name": "claim",
          "type": "bool"
        }
      ],
      "name": "claimReward",
      "outputs": [],
      "stateMutability": "nonpayable",
      "type": "function"
    },
    {
      "inputs": [
        {
          "internalType": "contract IERC20",
          "name": "asset",
          "type": "address"
        },
        {
          "internalType": "address",
          "name": "recipient",
          "type": "address"
        },
        {
          "internalType": "uint128",
          "name": "amount",
          "type": "uint128"
        },
        {
          "internalType": "bool",
          "name": "claim",
          "type": "bool"
        }
      ],
      "name": "deposit",
      "outputs": [],
      "stateMutability": "nonpayable",
      "type": "function"
    },
    {
      "inputs": [
        {
          "internalType": "uint256",
          "name": "proposalId",
          "type": "uint256"
        }
      ],
      "name": "distributeRewards",
      "outputs": [],
      "stateMutability": "nonpayable",
      "type": "function"
    },
    {
      "inputs": [],
      "name": "feeReceipient",
      "outputs": [
        {
          "internalType": "address",
          "name": "",
          "type": "address"
        }
      ],
      "stateMutability": "view",
      "type": "function"
    },
    {
      "inputs": [],
      "name": "feesReceived",
      "outputs": [
        {
          "internalType": "uint128",
          "name": "",
          "type": "uint128"
        }
      ],
      "stateMutability": "view",
      "type": "function"
    },
    {
      "inputs": [],
      "name": "getPendingRewardToBeDistributed",
      "outputs": [
        {
          "internalType": "uint256",
          "name": "pendingReward",
          "type": "uint256"
        }
      ],
      "stateMutability": "view",
      "type": "function"
    },
    {
      "inputs": [
        {
          "internalType": "bytes[]",
          "name": "data",
          "type": "bytes[]"
        }
      ],
      "name": "multicall",
      "outputs": [
        {
          "internalType": "bytes[]",
          "name": "results",
          "type": "bytes[]"
        }
      ],
      "stateMutability": "nonpayable",
      "type": "function"
    },
    {
      "inputs": [],
      "name": "owner",
      "outputs": [
        {
          "internalType": "address",
          "name": "",
          "type": "address"
        }
      ],
      "stateMutability": "view",
      "type": "function"
    },
    {
      "inputs": [],
      "name": "pause",
      "outputs": [],
      "stateMutability": "nonpayable",
      "type": "function"
    },
    {
      "inputs": [],
      "name": "paused",
      "outputs": [
        {
          "internalType": "bool",
          "name": "",
          "type": "bool"
        }
      ],
      "stateMutability": "view",
      "type": "function"
    },
    {
      "inputs": [
        {
          "internalType": "contract IERC20Permit",
          "name": "token",
          "type": "address"
        },
        {
          "internalType": "address",
          "name": "from",
          "type": "address"
        },
        {
          "internalType": "address",
          "name": "to",
          "type": "address"
        },
        {
          "internalType": "uint256",
          "name": "amount",
          "type": "uint256"
        },
        {
          "internalType": "uint256",
          "name": "deadline",
          "type": "uint256"
        },
        {
          "internalType": "uint8",
          "name": "v",
          "type": "uint8"
        },
        {
          "internalType": "bytes32",
          "name": "r",
          "type": "bytes32"
        },
        {
          "internalType": "bytes32",
          "name": "s",
          "type": "bytes32"
        }
      ],
      "name": "permitToken",
      "outputs": [],
      "stateMutability": "nonpayable",
      "type": "function"
    },
    {
      "inputs": [
        {
          "internalType": "uint256",
          "name": "proposalId",
          "type": "uint256"
        }
      ],
      "name": "refund",
      "outputs": [],
      "stateMutability": "nonpayable",
      "type": "function"
    },
    {
      "inputs": [],
      "name": "renounceOwnership",
      "outputs": [],
      "stateMutability": "nonpayable",
      "type": "function"
    },
    {
      "inputs": [
        {
          "internalType": "address",
          "name": "user",
          "type": "address"
        }
      ],
      "name": "rewardBalanceOf",
      "outputs": [
        {
          "internalType": "uint256",
          "name": "totalPendingBidReward",
          "type": "uint256"
        },
        {
          "internalType": "uint256",
          "name": "totalPendingStkAaveReward",
          "type": "uint256"
        },
        {
          "internalType": "uint256",
          "name": "totalPendingBribeReward",
          "type": "uint256"
        }
      ],
      "stateMutability": "view",
      "type": "function"
    },
    {
      "inputs": [
        {
          "internalType": "uint64",
          "name": "endTimestamp",
          "type": "uint64"
        }
      ],
      "name": "setEndTimestamp",
      "outputs": [],
      "stateMutability": "nonpayable",
      "type": "function"
    },
    {
      "inputs": [
        {
          "internalType": "address",
          "name": "newReceipient",
          "type": "address"
        }
      ],
      "name": "setFeeRecipient",
      "outputs": [],
      "stateMutability": "nonpayable",
      "type": "function"
    },
    {
      "inputs": [
        {
          "internalType": "uint128",
          "name": "rewardPerSecond",
          "type": "uint128"
        }
      ],
      "name": "setRewardPerSecond",
      "outputs": [],
      "stateMutability": "nonpayable",
      "type": "function"
    },
    {
      "inputs": [
        {
          "internalType": "uint64",
          "name": "startTimestamp",
          "type": "uint64"
        },
        {
          "internalType": "uint128",
          "name": "rewardPerSecond",
          "type": "uint128"
        }
      ],
      "name": "setStartTimestamp",
      "outputs": [],
      "stateMutability": "nonpayable",
      "type": "function"
    },
    {
      "inputs": [],
      "name": "stkAaveToken",
      "outputs": [
        {
          "internalType": "contract IERC20",
          "name": "",
          "type": "address"
        }
      ],
      "stateMutability": "view",
      "type": "function"
    },
    {
      "inputs": [
        {
          "internalType": "address",
          "name": "newOwner",
          "type": "address"
        }
      ],
      "name": "transferOwnership",
      "outputs": [],
      "stateMutability": "nonpayable",
      "type": "function"
    },
    {
      "inputs": [
        {
          "internalType": "uint256",
          "name": "proposalId",
          "type": "uint256"
        }
      ],
      "name": "unblockProposalId",
      "outputs": [],
      "stateMutability": "nonpayable",
      "type": "function"
    },
    {
      "inputs": [],
      "name": "unpause",
      "outputs": [],
      "stateMutability": "nonpayable",
      "type": "function"
    },
    {
      "inputs": [
        {
          "internalType": "uint256",
          "name": "proposalId",
          "type": "uint256"
        }
      ],
      "name": "vote",
      "outputs": [],
      "stateMutability": "nonpayable",
      "type": "function"
    },
    {
      "inputs": [
        {
          "internalType": "uint256",
          "name": "proposalId",
          "type": "uint256"
        }
      ],
      "name": "votingPower",
      "outputs": [
        {
          "internalType": "uint256",
          "name": "power",
          "type": "uint256"
        }
      ],
      "stateMutability": "view",
      "type": "function"
    },
    {
      "inputs": [
        {
          "internalType": "contract IERC20",
          "name": "asset",
          "type": "address"
        },
        {
          "internalType": "address",
          "name": "recipient",
          "type": "address"
        },
        {
          "internalType": "uint128",
          "name": "amount",
          "type": "uint128"
        },
        {
          "internalType": "bool",
          "name": "claim",
          "type": "bool"
        }
      ],
      "name": "withdraw",
      "outputs": [],
      "stateMutability": "nonpayable",
      "type": "function"
    },
    {
      "inputs": [],
      "name": "withdrawFees",
      "outputs": [
        {
          "internalType": "uint256",
          "name": "feeAmount",
          "type": "uint256"
        }
      ],
      "stateMutability": "nonpayable",
      "type": "function"
    },
    {
      "inputs": [],
      "name": "withdrawRemainingBribeReward",
      "outputs": [],
      "stateMutability": "nonpayable",
      "type": "function"
    },
    {
      "inputs": [],
      "name": "wrapperAaveToken",
      "outputs": [
        {
          "internalType": "contract IWrapperToken",
          "name": "",
          "type": "address"
        }
      ],
      "stateMutability": "view",
      "type": "function"
    },
    {
      "inputs": [],
      "name": "wrapperStkAaveToken",
      "outputs": [
        {
          "internalType": "contract IWrapperToken",
          "name": "",
          "type": "address"
        }
      ],
      "stateMutability": "view",
      "type": "function"
    }
  ],
  "transactionHash": "0x54427ca8afc383fed544f629be68dec9b9dffcb5736834e85501132e820bca69",
  "args": [
    "0xD4e12B224C316664EbB647F69abC1fb8bB2697C7",
    "0x7fc66500c84a76ad7e9c93437bfc5ac33e2ddae9",
    "0x4da27a545c0c5b758a6ba100e3a049001de870f5",
    "0xa0b86991c6218b36c1d19d4a2e9eb0ce3606eb48",
    "0xEC568fffba86c094cf06b22134B23074DFE2252c",
    "0x6fFba89ff0dB0a4CCEa747c8c488699f24f64952",
    "0x34A603A6318C555c2DFf92Bb8c2D5Bc82Ca567CD",
    "0x68cAff88D5118Ef2036Ce35163Fa5c9EaD98cBc5",
    [
      0,
      0,
      0
    ]
  ],
  "solcInputHash": "3174c0b35289423a94f4ca8a4b1cb545",
  "bytecode": "0x6101606040523480156200001257600080fd5b506040516200597838038062005978833981016040819052620000359162000481565b620000403362000414565b6000805460ff60a01b19169055600180556001600160a01b0389166200009b5760405162461bcd60e51b815260206004820152600b60248201526a212924a122afaa27a5a2a760a91b60448201526064015b60405180910390fd5b6001600160a01b038816620000e05760405162461bcd60e51b815260206004820152600a60248201526920a0ab22afaa27a5a2a760b11b604482015260640162000092565b6001600160a01b038716620001285760405162461bcd60e51b815260206004820152600d60248201526c29aa25a0a0ab22afaa27a5a2a760991b604482015260640162000092565b6001600160a01b038516620001725760405162461bcd60e51b815260206004820152600f60248201526e414156455f474f5645524e414e434560881b604482015260640162000092565b6001600160a01b038616620001b65760405162461bcd60e51b815260206004820152600960248201526810925117d054d4d15560ba1b604482015260640162000092565b6001600160a01b038416620001ff5760405162461bcd60e51b815260206004820152600e60248201526d11915157d49150d152541251539560921b604482015260640162000092565b6001600160a01b038316620002465760405162461bcd60e51b815260206004820152600c60248201526b20a0ab22afaba920a82822a960a11b604482015260640162000092565b6001600160a01b0382166200028c5760405162461bcd60e51b815260206004820152600b60248201526a29aa25afaba920a82822a960a91b604482015260640162000092565b606089811b6001600160601b031990811660c05289821b811660e05288821b81166101005286821b81166080529087901b1660a05280516008805460208401516040858101516001600160801b039095166001600160c01b031990931692909217600160801b6001600160401b0392831602176001600160c01b0316600160c01b9190941602929092179055600280546001600160a01b0319166001600160a01b0387811691909117909155905163189acdbd60e31b8152818a1660048201529084169063c4d66de890602401600060405180830381600087803b1580156200037457600080fd5b505af115801562000389573d6000803e3d6000fd5b505060405163189acdbd60e31b81526001600160a01b038a811660048301528516925063c4d66de89150602401600060405180830381600087803b158015620003d157600080fd5b505af1158015620003e6573d6000803e3d6000fd5b5050505050606091821b6001600160601b031990811661012052911b166101405250620005e9945050505050565b600080546001600160a01b038381166001600160a01b0319831681178455604051919092169283917f8be0079c531659141344cd1fd0a4f28419497f9722a3daafe3b4186f6b6457e09190a35050565b80516001600160401b03811681146200047c57600080fd5b919050565b6000806000806000806000806000898b03610160811215620004a1578586fd5b8a51620004ae81620005d0565b60208c0151909a50620004c181620005d0565b60408c0151909950620004d481620005d0565b60608c0151909850620004e781620005d0565b60808c0151909750620004fa81620005d0565b60a08c01519096506200050d81620005d0565b60c08c01519095506200052081620005d0565b60e08c01519094506200053381620005d0565b9250606060ff198201121562000547578182fd5b50604051606081016001600160401b03811182821017156200057757634e487b7160e01b83526041600452602483fd5b6040526101008b01516001600160801b038116811462000595578283fd5b8152620005a66101208c0162000464565b6020820152620005ba6101408c0162000464565b6040820152809150509295985092959850929598565b6001600160a01b0381168114620005e657600080fd5b50565b60805160601c60a05160601c60c05160601c60e05160601c6101005160601c6101205160601c6101405160601c6151eb6200078d600039600081816104da01528181610a5201528181611e3c015281816128ba01528181612a3101528181612ae701528181613539015281816136d60152818161375601528181613d4c015261435101526000818161064c01528181610a0001528181611def0152818161281b015281816129c4015281816134980152818161363c01526143e201526000818161062501528181610a3101528181611e1b01528181611fa80152613c9e01526000818161025c015281816109c201528181611db1015261422901526000818161048201528181611a0901528181611a9a01528181612046015281816120fd015281816121eb0152612e3301526000818161050901528181610d0001528181610f4a015281816110670152818161147c01528181611516015281816115a80152611f46015260008181610368015281816108ad01528181610b3e0152818161113c0152818161132e01528181611b4f01528181611bd3015261305701526151eb6000f3fe608060405234801561001057600080fd5b506004361061023d5760003560e01c80636659c6f01161013b578063aa53e188116100b8578063d7a32b6f1161007c578063d7a32b6f14610681578063e07b098a14610694578063e74b981b1461073e578063e964b64414610751578063f2fde38b1461077f57600080fd5b8063aa53e188146105ce578063ac9650d814610600578063ca49c62114610620578063cf59a79914610647578063cfe3e8491461066e57600080fd5b806380d50307116100ff57806380d503071461057c5780638456cb591461058f578063851cb6f4146105975780638890cf2c146105aa5780638da5cb5b146105bd57600080fd5b80636659c6f014610504578063715018a61461052b57806372c4a9271461053357806378f5d042146105465780637c516e941461056957600080fd5b806341b71d49116101c957806358c93f781161018d57806358c93f781461047d57806359974e38146104a45780635c975abb146104b757806361b699c4146104d557806364902efd146104fc57600080fd5b806341b71d49146103635780634423c5f11461038a57806345425b131461044f578063476343ee146104625780634b4e32661461046a57600080fd5b80631af8cbdd116102105780631af8cbdd1461030c5780631db46f1314610322578063278ecde1146103355780633740ebb3146103485780633f4ba83a1461035b57600080fd5b80630121b93f1461024257806306a3fe59146102575780630f4bd1b91461029b5780631ac03f9d146102f9575b600080fd5b610255610250366004614caf565b610792565b005b61027e7f000000000000000000000000000000000000000000000000000000000000000081565b6040516001600160a01b0390911681526020015b60405180910390f35b6008546102ca906001600160801b038116906001600160401b03600160801b8204811691600160c01b90041683565b604080516001600160801b0390941684526001600160401b039283166020850152911690820152606001610292565b610255610307366004614a95565b61096b565b610314610a83565b604051908152602001610292565b610255610330366004614c95565b610abf565b610255610343366004614caf565b610afd565b60025461027e906001600160a01b031681565b610255610d7d565b61027e7f000000000000000000000000000000000000000000000000000000000000000081565b6103f9610398366004614caf565b6009602052600090815260409020805460018201546002830154600390930154919290916001600160801b038216916001600160401b03600160801b8204169160ff600160c01b8304811692600160c81b900416906001600160a01b031687565b6040805197885260208801969096526001600160801b03909416948601949094526001600160401b0390911660608501521515608084015290151560a08301526001600160a01b031660c082015260e001610292565b61025561045d366004614caf565b610db1565b610314610fb7565b610255610478366004614933565b6110d1565b61027e7f000000000000000000000000000000000000000000000000000000000000000081565b6102556104b2366004614caf565b6116d5565b600054600160a01b900460ff165b6040519015158152602001610292565b61027e7f000000000000000000000000000000000000000000000000000000000000000081565b61025561190a565b61027e7f000000000000000000000000000000000000000000000000000000000000000081565b610255611af8565b610314610541366004614caf565b611b2c565b6104c5610554366004614caf565b600a6020526000908152604090205460ff1681565b610255610577366004614a0e565b611cf2565b61025561058a366004614a95565b611d84565b610255611e63565b6102556105a536600461488c565b611e95565b6102556105b8366004614cdf565b61227e565b6000546001600160a01b031661027e565b6003546105e890600160801b90046001600160801b031681565b6040516001600160801b039091168152602001610292565b61061361060e366004614983565b6123c1565b6040516102929190614de5565b61027e7f000000000000000000000000000000000000000000000000000000000000000081565b61027e7f000000000000000000000000000000000000000000000000000000000000000081565b61025561067c366004614caf565b6124df565b61025561068f366004614cf9565b6125b3565b6004546005546006546007546106e793926001600160801b0380821693600160801b928390048216936001600160401b0380831694600160401b8404909116939281900483169282811692919091041688565b604080519889526001600160801b0397881660208a0152958716958801959095526001600160401b039384166060880152929091166080860152831660a0850152821660c08401521660e082015261010001610292565b61025561074c366004614854565b61272a565b61076461075f366004614854565b6127f3565b60408051938452602084019290925290820152606001610292565b61025561078d366004614854565b612b82565b600260015414156107be5760405162461bcd60e51b81526004016107b590614eb8565b60405180910390fd5b60026001819055600082815260096020526040902090810154600160801b90046001600160401b03166108265760405162461bcd60e51b815260206004820152601060248201526f1253959053125117d41493d413d4d05360821b60448201526064016107b5565b600281015442600160801b9091046001600160401b0316106108775760405162461bcd60e51b815260206004820152600a6024820152694249445f41435449564560b01b60448201526064016107b5565b610880826116d5565b60028101546040516330962b7d60e11b815260048101849052600160c01b90910460ff16151560248201527f00000000000000000000000000000000000000000000000000000000000000006001600160a01b03169063612c56fa90604401600060405180830381600087803b1580156108f957600080fd5b505af115801561090d573d6000803e3d6000fd5b50505050600281015460408051338152600160c01b90920460ff1615156020830152429082015282907f88d35328232823f54954b6627e9f732371656f6daa40cb1b01b27dc7875a7b479060600160405180910390a2505060018055565b600054600160a01b900460ff16156109955760405162461bcd60e51b81526004016107b590614e59565b600260015414156109b85760405162461bcd60e51b81526004016107b590614eb8565b60026001819055507f00000000000000000000000000000000000000000000000000000000000000006001600160a01b0316846001600160a01b03161415610a2c57610a27847f0000000000000000000000000000000000000000000000000000000000000000858585612c1a565b610a79565b610a797f00000000000000000000000000000000000000000000000000000000000000007f0000000000000000000000000000000000000000000000000000000000000000858585612c1a565b5050600180555050565b600354600090610a9b906001600160801b0316612d44565b600354610ab191906001600160801b03166150a3565b6001600160801b0316905090565b6000546001600160a01b03163314610ae95760405162461bcd60e51b81526004016107b590614e83565b610af1612d65565b610afa81612e84565b50565b60026001541415610b205760405162461bcd60e51b81526004016107b590614eb8565b6002600155604051639080936f60e01b8152600481018290526000907f00000000000000000000000000000000000000000000000000000000000000006001600160a01b031690639080936f9060240160206040518083038186803b158015610b8857600080fd5b505afa158015610b9c573d6000803e3d6000fd5b505050506040513d601f19601f82011682018060405250810190610bc09190614ad3565b90506001816007811115610be457634e487b7160e01b600052602160045260246000fd5b14610c235760405162461bcd60e51b815260206004820152600f60248201526e50524f504f53414c5f41435449564560881b60448201526064016107b5565b6000828152600960205260409020600281015460038201546001600160801b03909116906001600160a01b0316811580610c6857506002830154600160c81b900460ff165b15610c765750505050610d76565b6000858152600960205260408120818155600181018290556002810180546001600160d01b0319169055600390810180546001600160a01b03191690558054849290610ccc9084906001600160801b03166150a3565b92506101000a8154816001600160801b0302191690836001600160801b03160217905550610d3781836001600160801b03167f00000000000000000000000000000000000000000000000000000000000000006001600160a01b0316612f2f9092919063ffffffff16565b847f21e12a7cad0da5928167e1084ea4d5fdf8d9af66657a2543a9ac76a0ca0814778284604051610d69929190614d73565b60405180910390a2505050505b5060018055565b6000546001600160a01b03163314610da75760405162461bcd60e51b81526004016107b590614e83565b610daf612f97565b565b6000546001600160a01b03163314610ddb5760405162461bcd60e51b81526004016107b590614e83565b6000818152600a602052604090205460ff1615610e2e5760405162461bcd60e51b815260206004820152601160248201527050524f504f53414c5f494e41435449564560781b60448201526064016107b5565b60008181526009602052604090206002810154600160c81b900460ff1615610e8a5760405162461bcd60e51b815260206004820152600f60248201526e10925117d11254d514925095551151608a1b60448201526064016107b5565b6000828152600a60205260409020805460ff1916600117905560028101546001600160801b03168015610f785760038054829190600090610ed59084906001600160801b03166150a3565b82546101009290920a6001600160801b03818102199093169183160217909155600384810154600087815260096020526040812081815560018101919091556002810180546001600160d01b031916905590910180546001600160a01b03191690556001600160a01b039081169250610f76917f00000000000000000000000000000000000000000000000000000000000000009091169083908516612f2f565b505b827f6cb49e738781b079130cccea5ff5dc5176bae2bf150bbe8a6eca2bf3b03c7c7e42604051610faa91815260200190565b60405180910390a2505050565b600060026001541415610fdc5760405162461bcd60e51b81526004016107b590614eb8565b60026001819055546001600160a01b0316331461102d5760405162461bcd60e51b815260206004820152600f60248201526e13d3931657d49150d1525412515395608a1b60448201526064016107b5565b50600354600160801b90046001600160801b0316801561109057600380546001600160801b03169055600254611090906001600160a01b037f00000000000000000000000000000000000000000000000000000000000000008116911683612f2f565b6040805182815242602082015230917f9cc800ba322ea82ab3e1e911dd4ccd84129687c4952f4ee2f937e3ac68755131910160405180910390a26001805590565b600054600160a01b900460ff16156110fb5760405162461bcd60e51b81526004016107b590614e59565b6002600154141561111e5760405162461bcd60e51b81526004016107b590614eb8565b6002600155604051639080936f60e01b8152600481018490526000907f00000000000000000000000000000000000000000000000000000000000000006001600160a01b031690639080936f9060240160206040518083038186803b15801561118657600080fd5b505afa15801561119a573d6000803e3d6000fd5b505050506040513d601f19601f820116820180604052508101906111be9190614ad3565b905060008160078111156111e257634e487b7160e01b600052602160045260246000fd5b148061120d5750600281600781111561120b57634e487b7160e01b600052602160045260246000fd5b145b6112525760405162461bcd60e51b8152602060048201526016602482015275494e56414c49445f50524f504f53414c5f535441544560501b60448201526064016107b5565b6000848152600a602052604090205460ff16156112a45760405162461bcd60e51b815260206004820152601060248201526f141493d413d4d05317d09313d0d2d15160821b60448201526064016107b5565b60008481526009602052604081206003810154600282015491926001600160a01b03909116916001600160801b031690826113c05760006112e489613034565b60028601805467ffffffffffffffff60801b1916600160801b6001600160401b03841602179055905061131689611b2c565b8555604051633656de2160e01b8152600481018a90527f00000000000000000000000000000000000000000000000000000000000000006001600160a01b031690633656de219060240160006040518083038186803b15801561137857600080fd5b505afa15801561138c573d6000803e3d6000fd5b505050506040513d6000823e601f3d908101601f191682016040526113b49190810190614af2565b61010001516001860155505b600284015442600160801b9091046001600160401b0316116114105760405162461bcd60e51b815260206004820152600960248201526810925117d15391115160ba1b60448201526064016107b5565b83546114555760405162461bcd60e51b815260206004820152601460248201527324a72b20a624a22fab27aa24a723afa827aba2a960611b60448201526064016107b5565b886001600160a01b0316836001600160a01b031614156114be576114ad6001600160a01b037f00000000000000000000000000000000000000000000000000000000000000001633306001600160801b038b1661311b565b6114b78783614fb6565b90506115e2565b816001600160801b0316876001600160801b0316116115095760405162461bcd60e51b81526020600482015260076024820152661313d5d7d0925160ca1b60448201526064016107b5565b6115476001600160a01b037f00000000000000000000000000000000000000000000000000000000000000001633306001600160801b038b1661311b565b6001600160a01b038316156115df57600380548391906000906115749084906001600160801b03166150a3565b92506101000a8154816001600160801b0302191690836001600160801b031602179055506115df83836001600160801b03167f00000000000000000000000000000000000000000000000000000000000000006001600160a01b0316612f2f9092919063ffffffff16565b50855b600380548891906000906116009084906001600160801b0316614fb6565b82546101009290920a6001600160801b0381810219909316918316021790915560028601805491841678ff0000000000000000ffffffffffffffffffffffffffffffff199092168217600160c01b8a1515908102919091179091556003870180546001600160a01b0319166001600160a01b038e81169182179092556040805133815260208101959095528401929092529092508516908a907f23d1e340c793abfddfd9a9423aedf4edc7d834f3e9e373b1df53b4ce57f0e0a69060600160405180910390a450506001805550505050505050565b60008181526009602052604090206002810154600160801b90046001600160401b031642116117335760405162461bcd60e51b815260206004820152600a6024820152694249445f41435449564560b01b60448201526064016107b5565b6002810154600160c81b900460ff161561174b575050565b60028101546001600160801b0316600061176482612d44565b6003805491925083916000906117849084906001600160801b03166150a3565b92506101000a8154816001600160801b0302191690836001600160801b0316021790555080826117b491906150a3565b600680546010906117d6908490600160801b90046001600160801b0316614fb6565b92506101000a8154816001600160801b0302191690836001600160801b0316021790555080600360108282829054906101000a90046001600160801b031661181e9190614fb6565b82546001600160801b039182166101009390930a92830291909202199091161790555060028301805460ff60c81b1916600160c81b179055600680546001600160401b03600160401b9182900481166000908152600b60205260409020879055825460019392600892611895928692900416614ff9565b92506101000a8154816001600160401b0302191690836001600160401b031602179055507feaf3d57629d9b1ce95715ccd98d6f5bf48023be1d5a06e09f64ab7f6d8be01d584836040516118fc9291909182526001600160801b0316602082015260400190565b60405180910390a150505050565b6000546001600160a01b031633146119345760405162461bcd60e51b81526004016107b590614e83565b600854600160c01b90046001600160401b031661198b5760405162461bcd60e51b81526020600482015260156024820152740494e56414c49445f454e445f54494d455354414d5605c1b60448201526064016107b5565b6008546119ab90600160c01b90046001600160401b031662278d00614ff9565b6001600160401b031642116119f15760405162461bcd60e51b815260206004820152600c60248201526b11d49050d157d411549253d160a21b60448201526064016107b5565b6040516370a0823160e01b81523060048201526000907f00000000000000000000000000000000000000000000000000000000000000006001600160a01b0316906370a082319060240160206040518083038186803b158015611a5357600080fd5b505afa158015611a67573d6000803e3d6000fd5b505050506040513d601f19601f82011682018060405250810190611a8b9190614cc7565b9050611ac16001600160a01b037f0000000000000000000000000000000000000000000000000000000000000000163083612f2f565b6040518181527f2ec51804f14c75c95fcf34c20b2b70f178026362b349bd9457addfdaedf89b35906020015b60405180910390a150565b6000546001600160a01b03163314611b225760405162461bcd60e51b81526004016107b590614e83565b610daf6000613159565b604051633656de2160e01b81526004810182905260009081906001600160a01b037f00000000000000000000000000000000000000000000000000000000000000001690633656de219060240160006040518083038186803b158015611b9157600080fd5b505afa158015611ba5573d6000803e3d6000fd5b505050506040513d6000823e601f3d908101601f19168201604052611bcd9190810190614af2565b905060007f00000000000000000000000000000000000000000000000000000000000000006001600160a01b03166306be3e8e6040518163ffffffff1660e01b815260040160206040518083038186803b158015611c2a57600080fd5b505afa158015611c3e573d6000803e3d6000fd5b505050506040513d601f19601f82011682018060405250810190611c629190614870565b61010083015160405163eaeded5f60e01b815230600482015260248101919091529091506001600160a01b0382169063eaeded5f9060440160206040518083038186803b158015611cb257600080fd5b505afa158015611cc6573d6000803e3d6000fd5b505050506040513d601f19601f82011682018060405250810190611cea9190614cc7565b949350505050565b60405163d505accf60e01b81526001600160a01b0388811660048301528781166024830152604482018790526064820186905260ff8516608483015260a4820184905260c4820183905289169063d505accf9060e401600060405180830381600087803b158015611d6257600080fd5b505af1158015611d76573d6000803e3d6000fd5b505050505050505050505050565b60026001541415611da75760405162461bcd60e51b81526004016107b590614eb8565b60026001819055507f00000000000000000000000000000000000000000000000000000000000000006001600160a01b0316846001600160a01b03161415611e1657610a27847f00000000000000000000000000000000000000000000000000000000000000008585856131a9565b610a797f00000000000000000000000000000000000000000000000000000000000000007f00000000000000000000000000000000000000000000000000000000000000008585856131a9565b6000546001600160a01b03163314611e8d5760405162461bcd60e51b81526004016107b590614e83565b610daf613388565b600054600160a01b900460ff1615611ebf5760405162461bcd60e51b81526004016107b590614e59565b60026001541415611ee25760405162461bcd60e51b81526004016107b590614eb8565b6002600155611ef133826133ed565b336000908152600c60205260408120600181018054600283015493909155600480546001600160801b03600160801b840481169182900390925592939181169291168215611f7657611f766001600160a01b037f0000000000000000000000000000000000000000000000000000000000000000168a6001600160801b038616612f2f565b6000826001600160801b0316118015611f8c5750845b15612012576040516309a99b4f60e41b81526001600160a01b037f00000000000000000000000000000000000000000000000000000000000000001690639a99b4f090611fdf908c908690600401614d73565b600060405180830381600087803b158015611ff957600080fd5b505af115801561200d573d6000803e3d6000fd5b505050505b6000816001600160801b03161180156120ca57506040516370a0823160e01b81523060048201526001600160801b038216907f00000000000000000000000000000000000000000000000000000000000000006001600160a01b0316906370a082319060240160206040518083038186803b15801561209057600080fd5b505afa1580156120a4573d6000803e3d6000fd5b505050506040513d601f19601f820116820180604052508101906120c89190614cc7565b115b1561221b576002840180546001600160801b03191690556001600160a01b038816156121965761212d6001600160a01b037f000000000000000000000000000000000000000000000000000000000000000016896001600160801b038416612f2f565b604051635b0e93fb60e11b81526001600160a01b0389169063b61d27f69061215f90339085908c908c90600401614d95565b600060405180830381600087803b15801561217957600080fd5b505af115801561218d573d6000803e3d6000fd5b5050505061221b565b6001600160a01b0389166121de5760405162461bcd60e51b815260206004820152600f60248201526e494e56414c49445f4144445245535360881b60448201526064016107b5565b61221b6001600160a01b037f0000000000000000000000000000000000000000000000000000000000000000168a6001600160801b038416612f2f565b604080516001600160801b0385811682528481166020830152831681830152426060820152905133917f7c4da656e28f0a8f5d75a575562f78c9cd1e53d18ae7969b6f1aaa08068dc02a919081900360800190a250506001805550505050505050565b6000546001600160a01b031633146122a85760405162461bcd60e51b81526004016107b590614e83565b42816001600160401b0316116122f85760405162461bcd60e51b81526020600482015260156024820152740494e56414c49445f454e445f54494d455354414d5605c1b60448201526064016107b5565b6008546001600160401b03600160801b90910481169082161161234d5760405162461bcd60e51b815260206004820152600d60248201526c04c4f575f54494d455354414d5609c1b60448201526064016107b5565b612355612d65565b600880546001600160401b03838116600160c01b8181026001600160c01b0385161790945560408051949093049091168084526020840191909152917f707364861ce6479a4fda7eba324edf3165d78795c9da37ec10d32dd3b76e073c91015b60405180910390a15050565b6060816001600160401b038111156123e957634e487b7160e01b600052604160045260246000fd5b60405190808252806020026020018201604052801561241c57816020015b60608152602001906001900390816124075790505b50905060005b828110156124d85761249a3085858481811061244e57634e487b7160e01b600052603260045260246000fd5b90506020028101906124609190614eef565b8080601f01602080910402602001604051908101604052809392919081815260200183838082843760009201919091525061395c92505050565b8282815181106124ba57634e487b7160e01b600052603260045260246000fd5b602002602001018190525080806124d09061510e565b915050612422565b5092915050565b6000546001600160a01b031633146125095760405162461bcd60e51b81526004016107b590614e83565b6000818152600a602052604090205460ff16151560011461255e5760405162461bcd60e51b815260206004820152600f60248201526e50524f504f53414c5f41435449564560881b60448201526064016107b5565b6000818152600a602052604090819020805460ff191690555181907f704dd40b4d0470c32de723bd93c06b26f94c2aebb2399a3af39bb4396c608231906125a89042815260200190565b60405180910390a250565b6000546001600160a01b031633146125dd5760405162461bcd60e51b81526004016107b590614e83565b42826001600160401b0316116126355760405162461bcd60e51b815260206004820152601760248201527f494e56414c49445f53544152545f54494d455354414d5000000000000000000060448201526064016107b5565b600854600160c01b90046001600160401b0316156126a3576008546001600160401b03600160c01b9091048116908316106126a35760405162461bcd60e51b815260206004820152600e60248201526d0484947485f54494d455354414d560941b60448201526064016107b5565b6126ab612d65565b600880546001600160401b03848116600160801b90810267ffffffffffffffff60801b19841617909355919004166126e282612e84565b604080516001600160401b038084168252851660208201527f2a699a05f818eebe5783e8b61b0624f31e4573e53d1a62849784fc05067e1f3d910160405180910390a1505050565b6000546001600160a01b031633146127545760405162461bcd60e51b81526004016107b590614e83565b6001600160a01b03811661279e5760405162461bcd60e51b81526020600482015260116024820152701253959053125117d49150d25412515395607a1b60448201526064016107b5565b600280546001600160a01b0319166001600160a01b0383169081179091556040805130815260208101929092527fb03f92c8c7ac39710f28b146f754650929499d599a66d51423cbd7f3ceb9aee39101611aed565b6040516370a0823160e01b81526001600160a01b0382811660048301526000918291829182917f000000000000000000000000000000000000000000000000000000000000000016906370a082319060240160206040518083038186803b15801561285d57600080fd5b505afa158015612871573d6000803e3d6000fd5b505050506040513d601f19601f820116820180604052508101906128959190614cc7565b6040516370a0823160e01b81526001600160a01b0387811660048301529192506000917f000000000000000000000000000000000000000000000000000000000000000016906370a082319060240160206040518083038186803b1580156128fc57600080fd5b505afa158015612910573d6000803e3d6000fd5b505050506040513d601f19601f820116820180604052508101906129349190614cc7565b905060006129836129458385614fe1565b6001600160a01b0389166000908152600c6020526040902054600160801b90046001600160801b031661297e612979613981565b613aa3565b613ae7565b600654909150600090600160401b90046001600160401b03168415612a09576001600160a01b0389166000908152600c60205260409020600201546129fc907f0000000000000000000000000000000000000000000000000000000000000000908b90600160801b90046001600160801b031684613b35565b612a069083614fe1565b91505b8315612a6f576001600160a01b0389166000908152600c6020526040902060030154612a62907f0000000000000000000000000000000000000000000000000000000000000000908b906001600160801b031684613b35565b612a6c9083614fe1565b91505b6001600160a01b0389166000908152600c6020526040902060010154612a9f9083906001600160801b0316614fe1565b97506000612aab613c7c565b506001600160a01b038b166000908152600c6020526040902054909150612b0b908b906001600160801b0390811690612ae5908516613d41565b7f0000000000000000000000000000000000000000000000000000000000000000613e19565b6001600160a01b038b166000908152600c6020526040902060010154612b419190600160801b90046001600160801b0316614fe1565b6001600160a01b038b166000908152600c6020526040902060020154909850612b749085906001600160801b0316614fe1565b989a97995050505050505050565b6000546001600160a01b03163314612bac5760405162461bcd60e51b81526004016107b590614e83565b6001600160a01b038116612c115760405162461bcd60e51b815260206004820152602660248201527f4f776e61626c653a206e6577206f776e657220697320746865207a65726f206160448201526564647265737360d01b60648201526084016107b5565b610afa81613159565b6000826001600160801b031611612c645760405162461bcd60e51b815260206004820152600e60248201526d1253959053125117d05353d5539560921b60448201526064016107b5565b612c6e83826133ed565b612c8c6001600160a01b03861633306001600160801b03861661311b565b6040516340c10f1960e01b81526001600160a01b038516906340c10f1990612cba9086908690600401614d73565b600060405180830381600087803b158015612cd457600080fd5b505af1158015612ce8573d6000803e3d6000fd5b5050604080516001600160801b03861681524260208201526001600160a01b038088169450891692507fdcbc1c05240f31ff3ad067ef1ee35ce4997762752e3a095284754544f4c709d791015b60405180910390a35050505050565b6000612710612d5561064084615055565b612d5f919061501b565b92915050565b6000612d6f613981565b9050612d7a42613f27565b6006805467ffffffffffffffff19166001600160401b0392909216919091179055612da481613f93565b60058054601090612dc6908490600160801b90046001600160801b0316614fb6565b92506101000a8154816001600160801b0302191690836001600160801b03160217905550612dfb612df682613aa3565b613f93565b600780546001600160801b0319166001600160801b0392831617905560055460408051600160801b90920490921681524260208201527f00000000000000000000000000000000000000000000000000000000000000006001600160a01b0316917fa253ef031194b54a666afb2d71ff898e1d80c2580df7a7313ae699a0c8c7f82691016125a8565b6000816001600160801b031611612ed55760405162461bcd60e51b81526020600482015260156024820152741253959053125117d49155d0549117d4d150d3d391605a1b60448201526064016107b5565b600880546001600160801b038381166001600160801b031983168117909355604080519190921680825260208201939093527f88c886456f9fb83852bd63da7496a1416f039cfc58a66a3a953df01961c30c1591016123b5565b6040516001600160a01b038316602482015260448101829052612f9290849063a9059cbb60e01b906064015b60408051601f198184030181529190526020810180516001600160e01b03166001600160e01b031990931692909217909152613ffc565b505050565b600054600160a01b900460ff16612fe75760405162461bcd60e51b815260206004820152601460248201527314185d5cd8589b194e881b9bdd081c185d5cd95960621b60448201526064016107b5565b6000805460ff60a01b191690557f5db9ee0a495bf2e6ff9c91a7834c1ba4fdd244a5e8aa4e537bd38aeae4b073aa335b6040516001600160a01b03909116815260200160405180910390a1565b604051633656de2160e01b81526004810182905260009081906001600160a01b037f00000000000000000000000000000000000000000000000000000000000000001690633656de219060240160006040518083038186803b15801561309957600080fd5b505afa1580156130ad573d6000803e3d6000fd5b505050506040513d6000823e601f3d908101601f191682016040526130d59190810190614af2565b9050610e10600d6001600160401b0316438361012001516130f691906150cb565b6131009190615084565b61310a9042614fe1565b61311491906150cb565b9392505050565b6040516001600160a01b03808516602483015283166044820152606481018290526131539085906323b872dd60e01b90608401612f5b565b50505050565b600080546001600160a01b038381166001600160a01b0319831681178455604051919092169283917f8be0079c531659141344cd1fd0a4f28419497f9722a3daafe3b4186f6b6457e09190a35050565b6000826001600160801b0316116131f35760405162461bcd60e51b815260206004820152600e60248201526d1253959053125117d05353d5539560921b60448201526064016107b5565b6040516370a0823160e01b81523360048201526001600160801b038316906001600160a01b038616906370a082319060240160206040518083038186803b15801561323d57600080fd5b505afa158015613251573d6000803e3d6000fd5b505050506040513d601f19601f820116820180604052508101906132759190614cc7565b10156132b55760405162461bcd60e51b815260206004820152600f60248201526e494e56414c49445f42414c414e434560881b60448201526064016107b5565b6132bf33826133ed565b604051632770a7eb60e21b81526001600160a01b03851690639dc29fac906132ed9033908690600401614d73565b600060405180830381600087803b15801561330757600080fd5b505af115801561331b573d6000803e3d6000fd5b5061333d925050506001600160a01b038616846001600160801b038516612f2f565b604080516001600160801b038416815242602082015233916001600160a01b038816917ff341246adaac6f497bc2a656f546ab9e182111d630394f0c57c710a59a2cb5679101612d35565b600054600160a01b900460ff16156133b25760405162461bcd60e51b81526004016107b590614e59565b6000805460ff60a01b1916600160a01b1790557f62e78cea01bee320cd4e420270b5ea74000d11b0c9f74754ebdbfc544b05a2586130173390565b6001600160a01b0382166134355760405162461bcd60e51b815260206004820152600f60248201526e494e56414c49445f4144445245535360881b60448201526064016107b5565b6001600160a01b0382166000908152600c60209081526040808320815160a0810183528481529283018490529082018390526060820183905260808201929092526040516370a0823160e01b81526001600160a01b0385811660048301526000917f0000000000000000000000000000000000000000000000000000000000000000909116906370a082319060240160206040518083038186803b1580156134dc57600080fd5b505afa1580156134f0573d6000803e3d6000fd5b505050506040513d601f19601f820116820180604052508101906135149190614cc7565b6040516370a0823160e01b81526001600160a01b0387811660048301529192506000917f000000000000000000000000000000000000000000000000000000000000000016906370a082319060240160206040518083038186803b15801561357b57600080fd5b505afa15801561358f573d6000803e3d6000fd5b505050506040513d601f19601f820116820180604052508101906135b39190614cc7565b905060006135c18284614fe1565b90506135cb612d65565b80156135fb5784546007546135f59183916001600160801b03600160801b90920482169116613ae7565b60408501525b8215613688576006546001600160a01b0388166000908152600c60205260408120600201549091613667916001600160801b03600160801b928390048116927f0000000000000000000000000000000000000000000000000000000000000000928d92919004166140ce565b6060870191909152855190915081908690613683908390614fe1565b905250505b851561369657613696614173565b8115613781576006546001600160a01b0388166000908152600c602052604081206003015490916136fe916001600160801b03600160801b9092048216917f0000000000000000000000000000000000000000000000000000000000000000918c91166140ce565b608087019190915285519091508190869061371a908390614fe1565b9052506001600160a01b0388166000908152600c602052604090205460075461377a918a916001600160801b0391821691600160801b909104167f0000000000000000000000000000000000000000000000000000000000000000613e19565b6020860152505b61378e8460400151613f93565b6002860180546000906137ab9084906001600160801b0316614fb6565b92506101000a8154816001600160801b0302191690836001600160801b031602179055506137dc8460000151613f93565b6001860180546000906137f99084906001600160801b0316614fb6565b92506101000a8154816001600160801b0302191690836001600160801b0316021790555061382a8460200151613f93565b60018601805460109061384e908490600160801b90046001600160801b0316614fb6565b82546101009290920a6001600160801b03818102199093169183160217909155600780548854600160801b9182900484166001600160801b031990911681178a5591549092169091021786555060608401516138a990613f93565b6002860180546001600160801b03928316600160801b02921691909117905560808401516138d690613f93565b6003860180546001600160801b0319166001600160801b039290921691909117905583516020808601516040808801518151948552928401919091528201524260608201526001600160a01b038816907f0cdedfdc8c391a923073f93f23839bfdf9a1cbfdc45a67596cc365658175e5b79060800160405180910390a250505050505050565b6060613114838360405180606001604052806027815260200161518f60279139614279565b600854600090600160801b90046001600160401b031615806139b5575060085442600160801b9091046001600160401b0316115b156139c05750600090565b6006546008546000916001600160401b03908116600160801b90920416116139f3576006546001600160401b0316613a07565b600854600160801b90046001600160401b03165b600854909150600090600160c01b90046001600160401b0316613a2b575042613a61565b600854600160c01b90046001600160401b03164211613a4a5742613a5e565b600854600160c01b90046001600160401b03165b90505b816001600160401b0316811115613a9e576008546001600160801b0316613a916001600160401b038416836150cb565b613a9b9190615084565b92505b505090565b6000808215613ad057613ab461434d565b613ac364e8d4a5100085615084565b613acd9190615041565b90505b6007546131149082906001600160801b0316614fe1565b60008084118015613af85750600082115b1561311457613b2464e8d4a51000613b1085856150cb565b613b1a9087615084565b612df69190615041565b6001600160801b0316949350505050565b6000825b82811015613c73576000818152600b6020908152604080832054808452600990925290912060028101546001600160801b03168015801590613b8657506002820154600160c81b900460ff165b15613c5d57600182015460405163dcb807df60e01b81526001600160a01b038a8116600483015260248201929092526000918b169063dcb807df9060440160206040518083038186803b158015613bdc57600080fd5b505afa158015613bf0573d6000803e3d6000fd5b505050506040513d601f19601f82011682018060405250810190613c149190614cc7565b90508015613c5b578254613c2783612d44565b613c3190846150a3565b613c44906001600160801b031683615084565b613c4e9190615041565b613c589087614fe1565b95505b505b5050508080613c6b9061510e565b915050613b39565b50949350505050565b6040516346df7f7160e11b815230600482015260009081906001600160a01b037f00000000000000000000000000000000000000000000000000000000000000001690638dbefee29060240160206040518083038186803b158015613ce057600080fd5b505afa158015613cf4573d6000803e3d6000fd5b505050506040513d601f19601f82011682018060405250810190613d189190614cc7565b9050613d28600460000154613f93565b613d3182613f93565b613d3b91906150a3565b91509091565b6000808215613df7577f00000000000000000000000000000000000000000000000000000000000000006001600160a01b03166318160ddd6040518163ffffffff1660e01b815260040160206040518083038186803b158015613da357600080fd5b505afa158015613db7573d6000803e3d6000fd5b505050506040513d601f19601f82011682018060405250810190613ddb9190614cc7565b613dea64e8d4a5100085615084565b613df49190615041565b90505b60075461311490612df6908390600160801b90046001600160801b0316614fe1565b6040516370a0823160e01b81526001600160a01b03858116600483015260009182918416906370a082319060240160206040518083038186803b158015613e5f57600080fd5b505afa158015613e73573d6000803e3d6000fd5b505050506040513d601f19601f82011682018060405250810190613e979190614cc7565b9050600081118015613eb257506000846001600160801b0316115b15613c73576000613ed564e8d4a51000613b1a6001600160801b03891685615084565b9050613f13816001600160801b031664e8d4a51000876001600160801b031685613eff9190615084565b613f099190615041565b612df691906150cb565b6001600160801b0316979650505050505050565b60006001600160401b03821115613f8f5760405162461bcd60e51b815260206004820152602660248201527f53616665436173743a2076616c756520646f65736e27742066697420696e203660448201526534206269747360d01b60648201526084016107b5565b5090565b60006001600160801b03821115613f8f5760405162461bcd60e51b815260206004820152602760248201527f53616665436173743a2076616c756520646f65736e27742066697420696e20316044820152663238206269747360c81b60648201526084016107b5565b6000614051826040518060400160405280602081526020017f5361666545524332303a206c6f772d6c6576656c2063616c6c206661696c6564815250856001600160a01b03166144809092919063ffffffff16565b805190915015612f92578080602001905181019061406f91906149f2565b612f925760405162461bcd60e51b815260206004820152602a60248201527f5361666545524332303a204552433230206f7065726174696f6e20646964206e6044820152691bdd081cdd58d8d9595960b21b60648201526084016107b5565b6000806001600160801b0386166140ea5750600090508061416a565b600654600160401b90046001600160401b03166001600160801b0384168114156141195791506000905061416a565b600a61412e6001600160801b038616836150cb565b111561414d5761413f600a85614fb6565b6001600160801b031661414f565b805b92506141668686866001600160801b031686613b35565b9150505b94509492505050565b60008061417e613c7c565b91509150816001600160801b031660001415614198575050565b600580548391906000906141b69084906001600160801b0316614fb6565b92506101000a8154816001600160801b0302191690836001600160801b031602179055506141ec826001600160801b0316613d41565b600780546001600160801b03928316600160801b029083161790556004829055600554604080519190921681524260208201526001600160a01b037f000000000000000000000000000000000000000000000000000000000000000016917fa253ef031194b54a666afb2d71ff898e1d80c2580df7a7313ae699a0c8c7f826910160405180910390a25050565b6060833b6142d85760405162461bcd60e51b815260206004820152602660248201527f416464726573733a2064656c65676174652063616c6c20746f206e6f6e2d636f6044820152651b9d1c9858dd60d21b60648201526084016107b5565b600080856001600160a01b0316856040516142f39190614d57565b600060405180830381855af49150503d806000811461432e576040519150601f19603f3d011682016040523d82523d6000602084013e614333565b606091505b509150915061434382828661448f565b9695505050505050565b60007f00000000000000000000000000000000000000000000000000000000000000006001600160a01b03166318160ddd6040518163ffffffff1660e01b815260040160206040518083038186803b1580156143a857600080fd5b505afa1580156143bc573d6000803e3d6000fd5b505050506040513d601f19601f820116820180604052508101906143e09190614cc7565b7f00000000000000000000000000000000000000000000000000000000000000006001600160a01b03166318160ddd6040518163ffffffff1660e01b815260040160206040518083038186803b15801561443957600080fd5b505afa15801561444d573d6000803e3d6000fd5b505050506040513d601f19601f820116820180604052508101906144719190614cc7565b61447b9190614fe1565b905090565b6060611cea84846000856144c8565b6060831561449e575081613114565b8251156144ae5782518084602001fd5b8160405162461bcd60e51b81526004016107b59190614e46565b6060824710156145295760405162461bcd60e51b815260206004820152602660248201527f416464726573733a20696e73756666696369656e742062616c616e636520666f6044820152651c8818d85b1b60d21b60648201526084016107b5565b843b6145775760405162461bcd60e51b815260206004820152601d60248201527f416464726573733a2063616c6c20746f206e6f6e2d636f6e747261637400000060448201526064016107b5565b600080866001600160a01b031685876040516145939190614d57565b60006040518083038185875af1925050503d80600081146145d0576040519150601f19603f3d011682016040523d82523d6000602084013e6145d5565b606091505b50915091506145e582828661448f565b979650505050505050565b60006001600160401b0383111561460957614609615155565b61461c601f8401601f1916602001614f63565b905082815283838301111561463057600080fd5b6131148360208301846150e2565b80516146498161516b565b919050565b600082601f83011261465e578081fd5b8151602061467361466e83614f93565b614f63565b80838252828201915082860187848660051b8901011115614692578586fd5b855b858110156146b95781516146a78161516b565b84529284019290840190600101614694565b5090979650505050505050565b600082601f8301126146d6578081fd5b815160206146e661466e83614f93565b80838252828201915082860187848660051b8901011115614705578586fd5b855b858110156146b957815161471a81615180565b84529284019290840190600101614707565b600082601f83011261473c578081fd5b8151602061474c61466e83614f93565b80838252828201915082860187848660051b890101111561476b578586fd5b855b858110156146b95781516001600160401b0381111561478a578788fd5b8801603f81018a1361479a578788fd5b6147ab8a87830151604084016145f0565b855250928401929084019060010161476d565b600082601f8301126147ce578081fd5b815160206147de61466e83614f93565b80838252828201915082860187848660051b89010111156147fd578586fd5b855b858110156146b9578151845292840192908401906001016147ff565b805161464981615180565b80356001600160801b038116811461464957600080fd5b80356001600160401b038116811461464957600080fd5b600060208284031215614865578081fd5b81356131148161516b565b600060208284031215614881578081fd5b81516131148161516b565b6000806000806000608086880312156148a3578081fd5b85356148ae8161516b565b945060208601356148be8161516b565b935060408601356001600160401b03808211156148d9578283fd5b818801915088601f8301126148ec578283fd5b8135818111156148fa578384fd5b89602082850101111561490b578384fd5b602083019550809450505050606086013561492581615180565b809150509295509295909350565b60008060008060808587031215614948578182fd5b84356149538161516b565b93506020850135925061496860408601614826565b9150606085013561497881615180565b939692955090935050565b60008060208385031215614995578182fd5b82356001600160401b03808211156149ab578384fd5b818501915085601f8301126149be578384fd5b8135818111156149cc578485fd5b8660208260051b85010111156149e0578485fd5b60209290920196919550909350505050565b600060208284031215614a03578081fd5b815161311481615180565b600080600080600080600080610100898b031215614a2a578586fd5b8835614a358161516b565b97506020890135614a458161516b565b96506040890135614a558161516b565b9550606089013594506080890135935060a089013560ff81168114614a78578384fd5b979a969950949793969295929450505060c08201359160e0013590565b60008060008060808587031215614aaa578182fd5b8435614ab58161516b565b93506020850135614ac58161516b565b925061496860408601614826565b600060208284031215614ae4578081fd5b815160088110613114578182fd5b600060208284031215614b03578081fd5b81516001600160401b0380821115614b19578283fd5b908301906102208286031215614b2d578283fd5b614b35614f3a565b82518152614b456020840161463e565b6020820152614b566040840161463e565b6040820152606083015182811115614b6c578485fd5b614b788782860161464e565b606083015250608083015182811115614b8f578485fd5b614b9b878286016147be565b60808301525060a083015182811115614bb2578485fd5b614bbe8782860161472c565b60a08301525060c083015182811115614bd5578485fd5b614be18782860161472c565b60c08301525060e083015182811115614bf8578485fd5b614c04878286016146c6565b60e083015250610100838101519082015261012080840151908201526101408084015190820152610160808401519082015261018080840151908201526101a09150614c5182840161481b565b828201526101c09150614c6582840161481b565b828201526101e09150614c7982840161463e565b9181019190915261020091820151918101919091529392505050565b600060208284031215614ca6578081fd5b61311482614826565b600060208284031215614cc0578081fd5b5035919050565b600060208284031215614cd8578081fd5b5051919050565b600060208284031215614cf0578081fd5b6131148261483d565b60008060408385031215614d0b578182fd5b614d148361483d565b9150614d2260208401614826565b90509250929050565b60008151808452614d438160208601602086016150e2565b601f01601f19169290920160200192915050565b60008251614d698184602087016150e2565b9190910192915050565b6001600160a01b039290921682526001600160801b0316602082015260400190565b6001600160a01b03851681526001600160801b03841660208201526060604082018190528101829052818360808301376000818301608090810191909152601f909201601f191601019392505050565b6000602080830181845280855180835260408601915060408160051b8701019250838701855b82811015614e3957603f19888603018452614e27858351614d2b565b94509285019290850190600101614e0b565b5092979650505050505050565b6020815260006131146020830184614d2b565b60208082526010908201526f14185d5cd8589b194e881c185d5cd95960821b604082015260600190565b6020808252818101527f4f776e61626c653a2063616c6c6572206973206e6f7420746865206f776e6572604082015260600190565b6020808252601f908201527f5265656e7472616e637947756172643a207265656e7472616e742063616c6c00604082015260600190565b6000808335601e19843603018112614f05578283fd5b8301803591506001600160401b03821115614f1e578283fd5b602001915036819003821315614f3357600080fd5b9250929050565b60405161022081016001600160401b0381118282101715614f5d57614f5d615155565b60405290565b604051601f8201601f191681016001600160401b0381118282101715614f8b57614f8b615155565b604052919050565b60006001600160401b03821115614fac57614fac615155565b5060051b60200190565b60006001600160801b03808316818516808303821115614fd857614fd8615129565b01949350505050565b60008219821115614ff457614ff4615129565b500190565b60006001600160401b03808316818516808303821115614fd857614fd8615129565b60006001600160801b03808416806150355761503561513f565b92169190910492915050565b6000826150505761505061513f565b500490565b60006001600160801b038083168185168183048111821515161561507b5761507b615129565b02949350505050565b600081600019048311821515161561509e5761509e615129565b500290565b60006001600160801b03838116908316818110156150c3576150c3615129565b039392505050565b6000828210156150dd576150dd615129565b500390565b60005b838110156150fd5781810151838201526020016150e5565b838111156131535750506000910152565b600060001982141561512257615122615129565b5060010190565b634e487b7160e01b600052601160045260246000fd5b634e487b7160e01b600052601260045260246000fd5b634e487b7160e01b600052604160045260246000fd5b6001600160a01b0381168114610afa57600080fd5b8015158114610afa57600080fdfe416464726573733a206c6f772d6c6576656c2064656c65676174652063616c6c206661696c6564a2646970667358221220fcfcf75a3c4c4ec1ffb2eecefbe74a1d4549ec6b7500a59bffb0435c604d905564736f6c63430008040033",
  "devdoc": {
    "author": "contact@bribe.xyz",
    "kind": "dev",
    "methods": {
      "bid(address,uint256,uint128,bool)": {
        "details": "place a bid after check AaveGovernance status",
        "params": {
          "amount": "amount of bid assets",
          "bidder": "bidder address",
          "proposalId": "proposal id",
          "support": "the suport for the proposal"
        }
      },
      "blockProposalId(uint256)": {
        "details": "block a proposalId from used in the pool",
        "params": {
          "proposalId": "proposalId"
        }
      },
      "claimReward(address,address,bytes,bool)": {
        "details": "claimReward for msg.sender",
        "params": {
          "claim": "claim stk aave rewards from Aave",
          "data": "data to call the executor contract",
          "executor": "An external contract to call with",
          "to": "address to send the rewards to"
        }
      },
      "deposit(address,address,uint128,bool)": {
        "params": {
          "amount": "amount of tokens to deposit",
          "asset": "either Aave or stkAave",
          "claim": "claim stk aave rewards from Aave",
          "recipient": "address to mint the receipt tokens"
        }
      },
      "distributeRewards(uint256)": {
        "details": "distribute rewards for the proposal",
        "params": {
          "proposalId": "id of proposal to distribute rewards fo"
        }
      },
      "getPendingRewardToBeDistributed()": {
        "details": "getPendingRewardToBeDistributed returns the pending reward to be distributed minus fees"
      },
      "multicall(bytes[])": {
        "details": "Receives and executes a batch of function calls on this contract."
      },
      "owner()": {
        "details": "Returns the address of the current owner."
      },
      "paused()": {
        "details": "Returns true if the contract is paused, and false otherwise."
      },
      "refund(uint256)": {
        "details": "refund bid for a cancelled proposal ONLY if it was not voted on",
        "params": {
          "proposalId": "proposal id"
        }
      },
      "renounceOwnership()": {
        "details": "Leaves the contract without owner. It will not be possible to call `onlyOwner` functions anymore. Can only be called by the current owner. NOTE: Renouncing ownership will leave the contract without an owner, thereby removing any functionality that is only available to the owner."
      },
      "rewardBalanceOf(address)": {
        "details": "get reward amount for user specified by `user`",
        "params": {
          "user": "address of user to check balance of"
        }
      },
      "setEndTimestamp(uint64)": {
        "params": {
          "endTimestamp": "end of bribe rewards"
        }
      },
      "setFeeRecipient(address)": {
        "params": {
          "newReceipient": "new fee receipeitn"
        }
      },
      "setRewardPerSecond(uint128)": {
        "params": {
          "rewardPerSecond": "amount of rewards to distribute per second"
        }
      },
      "setStartTimestamp(uint64,uint128)": {
        "params": {
          "rewardPerSecond": "reward to distribute per second",
          "startTimestamp": "when to start distributing rewards"
        }
      },
      "transferOwnership(address)": {
        "details": "Transfers ownership of the contract to a new account (`newOwner`). Can only be called by the current owner."
      },
      "unblockProposalId(uint256)": {
        "details": "unblock a proposalId from used in the pool",
        "params": {
          "proposalId": "proposalId"
        }
      },
      "vote(uint256)": {
        "details": "vote to `proposalId` with `support` option",
        "params": {
          "proposalId": "proposal id"
        }
      },
      "votingPower(uint256)": {
        "details": "returns the pool voting power for a proposal",
        "params": {
          "proposalId": "proposalId to fetch pool voting power"
        }
      },
      "withdraw(address,address,uint128,bool)": {
        "params": {
          "amount": "amount of tokens to deposit",
          "asset": "either Aave or stkAave",
          "claim": "claim stk aave rewards from Aave",
          "recipient": "address to mint the receipt tokens"
        }
      },
      "withdrawFees()": {
        "details": "withdrawFees withdraw fees Enables ONLY the fee receipient to withdraw the pool accrued fees"
      },
      "withdrawRemainingBribeReward()": {
        "details": "there is a 30 days window period after endTimestamp where a user can claim rewards before it can be reclaimed by Bribe"
      }
    },
    "stateVariables": {
      "FEE_PERCENTAGE": {
        "details": "fee percentage share is 16%"
      },
      "FEE_PRECISION": {
        "details": "fee precision"
      },
      "MAX_CLAIM_ITERATIONS": {
        "details": "maximum claim iterations"
      },
      "SHARE_SCALE": {
        "details": "share scale"
      },
      "aaveGovernance": {
        "details": "aave governance"
      },
      "aaveToken": {
        "details": "aave token"
      },
      "assetIndex": {
        "details": "asset index"
      },
      "bidAsset": {
        "details": "bidders will bid with bidAsset e.g. usdc"
      },
      "bidIdToProposalId": {
        "details": "proposal id to bid information"
      },
      "bids": {
        "details": "bid id to bid information"
      },
      "blockedProposals": {
        "details": "blocked proposals"
      },
      "bribeRewardConfig": {
        "details": "bribre reward config"
      },
      "bribeToken": {
        "details": "bribe token"
      },
      "feeReceipient": {
        "details": "feeReceipient address to send received fees to"
      },
      "feesReceived": {
        "details": "fees received"
      },
      "pendingRewardToBeDistributed": {
        "details": "pending rewards to be distributed"
      },
      "secondPerBlock": {
        "details": "seconds per block"
      },
      "stkAaveToken": {
        "details": "stkAave token"
      },
      "users": {
        "details": "user info"
      },
      "wrapperAaveToken": {
        "details": "aave wrapper token"
      },
      "wrapperStkAaveToken": {
        "details": "stkAave wrapper token"
      }
    },
    "title": "AavePool",
    "version": 1
  },
  "userdoc": {
    "events": {
      "WithdrawFees(address,uint256,uint256)": {
        "notice": "fee distribution interface to be implemented by all pools so that they conform to the fee Distributor implementation"
      }
    },
    "kind": "user",
    "methods": {
      "deposit(address,address,uint128,bool)": {
        "notice": "deposit"
      },
      "distributeRewards(uint256)": {
        "notice": "called in children's vote function (after bidding process ended)"
      },
      "pause()": {
        "notice": "pause pool actions"
      },
      "permitToken(address,address,address,uint256,uint256,uint8,bytes32,bytes32)": {
        "notice": "Call wrapper that performs `ERC20.permit` on `token`."
      },
      "setEndTimestamp(uint64)": {
        "notice": "setEndTimestamp"
      },
      "setFeeRecipient(address)": {
        "notice": "setFeeRecipient"
      },
      "setRewardPerSecond(uint128)": {
        "notice": "setEndTimestamp"
      },
      "setStartTimestamp(uint64,uint128)": {
        "notice": "setStartTimestamp"
      },
      "unpause()": {
        "notice": "unpause pool actions"
      },
      "withdraw(address,address,uint128,bool)": {
        "notice": "withdraw"
      },
      "withdrawRemainingBribeReward()": {
        "notice": "withdrawRemainingBribeReward"
      }
    },
    "version": 1
  },
  "storageLayout": {
    "storage": [
      {
        "astId": 1172,
        "contract": "contracts/AavePool.sol:AavePool",
        "label": "_owner",
        "offset": 0,
        "slot": "0",
        "type": "t_address"
      },
      {
        "astId": 1287,
        "contract": "contracts/AavePool.sol:AavePool",
        "label": "_paused",
        "offset": 20,
        "slot": "0",
        "type": "t_bool"
      },
      {
        "astId": 1372,
        "contract": "contracts/AavePool.sol:AavePool",
        "label": "_status",
        "offset": 0,
        "slot": "1",
        "type": "t_uint256"
      },
      {
        "astId": 5195,
        "contract": "contracts/AavePool.sol:AavePool",
        "label": "feeReceipient",
        "offset": 0,
        "slot": "2",
        "type": "t_address"
      },
      {
        "astId": 5198,
        "contract": "contracts/AavePool.sol:AavePool",
        "label": "pendingRewardToBeDistributed",
        "offset": 0,
        "slot": "3",
        "type": "t_uint128"
      },
      {
        "astId": 5201,
        "contract": "contracts/AavePool.sol:AavePool",
        "label": "feesReceived",
        "offset": 16,
        "slot": "3",
        "type": "t_uint128"
      },
      {
        "astId": 5205,
        "contract": "contracts/AavePool.sol:AavePool",
        "label": "assetIndex",
        "offset": 0,
        "slot": "4",
        "type": "t_struct(AssetIndex)9742_storage"
      },
      {
        "astId": 5209,
        "contract": "contracts/AavePool.sol:AavePool",
        "label": "bribeRewardConfig",
        "offset": 0,
        "slot": "8",
        "type": "t_struct(BribeReward)9749_storage"
      },
      {
        "astId": 5215,
        "contract": "contracts/AavePool.sol:AavePool",
        "label": "bids",
        "offset": 0,
        "slot": "9",
        "type": "t_mapping(t_uint256,t_struct(Bid)9779_storage)"
      },
      {
        "astId": 5220,
        "contract": "contracts/AavePool.sol:AavePool",
        "label": "blockedProposals",
        "offset": 0,
        "slot": "10",
        "type": "t_mapping(t_uint256,t_bool)"
      },
      {
        "astId": 5225,
        "contract": "contracts/AavePool.sol:AavePool",
        "label": "bidIdToProposalId",
        "offset": 0,
        "slot": "11",
        "type": "t_mapping(t_uint256,t_uint256)"
      },
      {
        "astId": 5231,
        "contract": "contracts/AavePool.sol:AavePool",
        "label": "users",
        "offset": 0,
        "slot": "12",
        "type": "t_mapping(t_address,t_struct(UserInfo)9764_storage)"
      }
    ],
    "types": {
      "t_address": {
        "encoding": "inplace",
        "label": "address",
        "numberOfBytes": "20"
      },
      "t_bool": {
        "encoding": "inplace",
        "label": "bool",
        "numberOfBytes": "1"
      },
      "t_mapping(t_address,t_struct(UserInfo)9764_storage)": {
        "encoding": "mapping",
        "key": "t_address",
        "label": "mapping(address => struct IAavePool.UserInfo)",
        "numberOfBytes": "32",
        "value": "t_struct(UserInfo)9764_storage"
      },
      "t_mapping(t_uint256,t_bool)": {
        "encoding": "mapping",
        "key": "t_uint256",
        "label": "mapping(uint256 => bool)",
        "numberOfBytes": "32",
        "value": "t_bool"
      },
      "t_mapping(t_uint256,t_struct(Bid)9779_storage)": {
        "encoding": "mapping",
        "key": "t_uint256",
        "label": "mapping(uint256 => struct IAavePool.Bid)",
        "numberOfBytes": "32",
        "value": "t_struct(Bid)9779_storage"
      },
      "t_mapping(t_uint256,t_uint256)": {
        "encoding": "mapping",
        "key": "t_uint256",
        "label": "mapping(uint256 => uint256)",
        "numberOfBytes": "32",
        "value": "t_uint256"
      },
      "t_struct(AssetIndex)9742_storage": {
        "encoding": "inplace",
        "label": "struct IAavePool.AssetIndex",
        "members": [
          {
            "astId": 9727,
            "contract": "contracts/AavePool.sol:AavePool",
            "label": "lastStkAaveRewardBalance",
            "offset": 0,
            "slot": "0",
            "type": "t_uint256"
          },
          {
            "astId": 9729,
            "contract": "contracts/AavePool.sol:AavePool",
            "label": "rewardIndex",
            "offset": 0,
            "slot": "1",
            "type": "t_uint128"
          },
          {
            "astId": 9731,
            "contract": "contracts/AavePool.sol:AavePool",
            "label": "bribeRewardIndex",
            "offset": 16,
            "slot": "1",
            "type": "t_uint128"
          },
          {
            "astId": 9733,
            "contract": "contracts/AavePool.sol:AavePool",
            "label": "bribeLastRewardTimestamp",
            "offset": 0,
            "slot": "2",
            "type": "t_uint64"
          },
          {
            "astId": 9735,
            "contract": "contracts/AavePool.sol:AavePool",
            "label": "bidId",
            "offset": 8,
            "slot": "2",
            "type": "t_uint64"
          },
          {
            "astId": 9737,
            "contract": "contracts/AavePool.sol:AavePool",
            "label": "bidIndex",
            "offset": 16,
            "slot": "2",
            "type": "t_uint128"
          },
          {
            "astId": 9739,
            "contract": "contracts/AavePool.sol:AavePool",
            "label": "bribeRewardPerShare",
            "offset": 0,
            "slot": "3",
            "type": "t_uint128"
          },
          {
            "astId": 9741,
            "contract": "contracts/AavePool.sol:AavePool",
            "label": "stkAaveRewardPerShare",
            "offset": 16,
            "slot": "3",
            "type": "t_uint128"
          }
        ],
        "numberOfBytes": "128"
      },
      "t_struct(Bid)9779_storage": {
        "encoding": "inplace",
        "label": "struct IAavePool.Bid",
        "members": [
          {
            "astId": 9766,
            "contract": "contracts/AavePool.sol:AavePool",
            "label": "totalVotes",
            "offset": 0,
            "slot": "0",
            "type": "t_uint256"
          },
          {
            "astId": 9768,
            "contract": "contracts/AavePool.sol:AavePool",
            "label": "proposalStartBlock",
            "offset": 0,
            "slot": "1",
            "type": "t_uint256"
          },
          {
            "astId": 9770,
            "contract": "contracts/AavePool.sol:AavePool",
            "label": "highestBid",
            "offset": 0,
            "slot": "2",
            "type": "t_uint128"
          },
          {
            "astId": 9772,
            "contract": "contracts/AavePool.sol:AavePool",
            "label": "endTime",
            "offset": 16,
            "slot": "2",
            "type": "t_uint64"
          },
          {
            "astId": 9774,
            "contract": "contracts/AavePool.sol:AavePool",
            "label": "support",
            "offset": 24,
            "slot": "2",
            "type": "t_bool"
          },
          {
            "astId": 9776,
            "contract": "contracts/AavePool.sol:AavePool",
            "label": "voted",
            "offset": 25,
            "slot": "2",
            "type": "t_bool"
          },
          {
            "astId": 9778,
            "contract": "contracts/AavePool.sol:AavePool",
            "label": "highestBidder",
            "offset": 0,
            "slot": "3",
            "type": "t_address"
          }
        ],
        "numberOfBytes": "128"
      },
      "t_struct(BribeReward)9749_storage": {
        "encoding": "inplace",
        "label": "struct IAavePool.BribeReward",
        "members": [
          {
            "astId": 9744,
            "contract": "contracts/AavePool.sol:AavePool",
            "label": "rewardAmountDistributedPerSecond",
            "offset": 0,
            "slot": "0",
            "type": "t_uint128"
          },
          {
            "astId": 9746,
            "contract": "contracts/AavePool.sol:AavePool",
            "label": "startTimestamp",
            "offset": 16,
            "slot": "0",
            "type": "t_uint64"
          },
          {
            "astId": 9748,
            "contract": "contracts/AavePool.sol:AavePool",
            "label": "endTimestamp",
            "offset": 24,
            "slot": "0",
            "type": "t_uint64"
          }
        ],
        "numberOfBytes": "32"
      },
      "t_struct(UserInfo)9764_storage": {
        "encoding": "inplace",
        "label": "struct IAavePool.UserInfo",
        "members": [
          {
            "astId": 9751,
            "contract": "contracts/AavePool.sol:AavePool",
            "label": "stkAaveLastRewardPerShare",
            "offset": 0,
            "slot": "0",
            "type": "t_uint128"
          },
          {
            "astId": 9753,
            "contract": "contracts/AavePool.sol:AavePool",
            "label": "bribeLastRewardPerShare",
            "offset": 16,
            "slot": "0",
            "type": "t_uint128"
          },
          {
            "astId": 9755,
            "contract": "contracts/AavePool.sol:AavePool",
            "label": "totalPendingBidReward",
            "offset": 0,
            "slot": "1",
            "type": "t_uint128"
          },
          {
            "astId": 9757,
            "contract": "contracts/AavePool.sol:AavePool",
            "label": "totalPendingStkAaveReward",
            "offset": 16,
            "slot": "1",
            "type": "t_uint128"
          },
          {
            "astId": 9759,
            "contract": "contracts/AavePool.sol:AavePool",
            "label": "totalPendingBribeReward",
            "offset": 0,
            "slot": "2",
            "type": "t_uint128"
          },
          {
            "astId": 9761,
            "contract": "contracts/AavePool.sol:AavePool",
            "label": "aaveLastBidId",
            "offset": 16,
            "slot": "2",
            "type": "t_uint128"
          },
          {
            "astId": 9763,
            "contract": "contracts/AavePool.sol:AavePool",
            "label": "stkAaveLastBidId",
            "offset": 0,
            "slot": "3",
            "type": "t_uint128"
          }
        ],
        "numberOfBytes": "128"
      },
      "t_uint128": {
        "encoding": "inplace",
        "label": "uint128",
        "numberOfBytes": "16"
      },
      "t_uint256": {
        "encoding": "inplace",
        "label": "uint256",
        "numberOfBytes": "32"
      },
      "t_uint64": {
        "encoding": "inplace",
        "label": "uint64",
        "numberOfBytes": "8"
      }
    }
  }
}