{
  "address": "0xC985B40a1870A80468CeeC091495103eF7fCb514",
  "abi": [
    {
      "inputs": [
        {
          "internalType": "address",
          "name": "rewardAsset_",
          "type": "address"
        },
        {
          "internalType": "address",
          "name": "stakeAsset_",
          "type": "address"
        },
        {
          "internalType": "address",
          "name": "feeDistribution_",
          "type": "address"
        },
        {
          "internalType": "string",
          "name": "name_",
          "type": "string"
        },
        {
          "internalType": "string",
          "name": "symbol_",
          "type": "string"
        }
      ],
      "stateMutability": "nonpayable",
      "type": "constructor"
    },
    {
      "anonymous": false,
      "inputs": [
        {
          "indexed": true,
          "internalType": "address",
          "name": "owner",
          "type": "address"
        },
        {
          "indexed": true,
          "internalType": "address",
          "name": "spender",
          "type": "address"
        },
        {
          "indexed": false,
          "internalType": "uint256",
          "name": "value",
          "type": "uint256"
        }
      ],
      "name": "Approval",
      "type": "event"
    },
    {
      "anonymous": false,
      "inputs": [
        {
          "indexed": true,
          "internalType": "address",
          "name": "user",
          "type": "address"
        },
        {
          "indexed": false,
          "internalType": "uint256",
          "name": "amount",
          "type": "uint256"
        }
      ],
      "name": "ClaimDividend",
      "type": "event"
    },
    {
      "anonymous": false,
      "inputs": [
        {
          "indexed": true,
          "internalType": "address",
          "name": "delegator",
          "type": "address"
        },
        {
          "indexed": true,
          "internalType": "address",
          "name": "fromDelegate",
          "type": "address"
        },
        {
          "indexed": true,
          "internalType": "address",
          "name": "toDelegate",
          "type": "address"
        }
      ],
      "name": "DelegateChanged",
      "type": "event"
    },
    {
      "anonymous": false,
      "inputs": [
        {
          "indexed": true,
          "internalType": "address",
          "name": "delegate",
          "type": "address"
        },
        {
          "indexed": false,
          "internalType": "uint256",
          "name": "previousBalance",
          "type": "uint256"
        },
        {
          "indexed": false,
          "internalType": "uint256",
          "name": "newBalance",
          "type": "uint256"
        }
      ],
      "name": "DelegateVotesChanged",
      "type": "event"
    },
    {
      "anonymous": false,
      "inputs": [
        {
          "indexed": false,
          "internalType": "uint256",
          "name": "amount",
          "type": "uint256"
        }
      ],
      "name": "DistributeDividend",
      "type": "event"
    },
    {
      "anonymous": false,
      "inputs": [
        {
          "indexed": true,
          "internalType": "address",
          "name": "previousOwner",
          "type": "address"
        },
        {
          "indexed": true,
          "internalType": "address",
          "name": "newOwner",
          "type": "address"
        }
      ],
      "name": "OwnershipTransferred",
      "type": "event"
    },
    {
      "anonymous": false,
      "inputs": [
        {
          "indexed": false,
          "internalType": "address",
          "name": "account",
          "type": "address"
        }
      ],
      "name": "Paused",
      "type": "event"
    },
    {
      "anonymous": false,
      "inputs": [
        {
          "indexed": false,
          "internalType": "uint256",
          "name": "balance",
          "type": "uint256"
        }
      ],
      "name": "RescueFunds",
      "type": "event"
    },
    {
      "anonymous": false,
      "inputs": [
        {
          "indexed": true,
          "internalType": "address",
          "name": "dividend",
          "type": "address"
        },
        {
          "indexed": true,
          "internalType": "address",
          "name": "sender",
          "type": "address"
        },
        {
          "indexed": true,
          "internalType": "address",
          "name": "to",
          "type": "address"
        },
        {
          "indexed": false,
          "internalType": "uint256",
          "name": "amount",
          "type": "uint256"
        }
      ],
      "name": "Stake",
      "type": "event"
    },
    {
      "anonymous": false,
      "inputs": [
        {
          "indexed": true,
          "internalType": "address",
          "name": "from",
          "type": "address"
        },
        {
          "indexed": true,
          "internalType": "address",
          "name": "to",
          "type": "address"
        },
        {
          "indexed": false,
          "internalType": "uint256",
          "name": "value",
          "type": "uint256"
        }
      ],
      "name": "Transfer",
      "type": "event"
    },
    {
      "anonymous": false,
      "inputs": [
        {
          "indexed": false,
          "internalType": "address",
          "name": "account",
          "type": "address"
        }
      ],
      "name": "Unpaused",
      "type": "event"
    },
    {
      "anonymous": false,
      "inputs": [
        {
          "indexed": true,
          "internalType": "address",
          "name": "user",
          "type": "address"
        },
        {
          "indexed": false,
          "internalType": "uint256",
          "name": "amount",
          "type": "uint256"
        }
      ],
      "name": "Unstake",
      "type": "event"
    },
    {
      "anonymous": false,
      "inputs": [
        {
          "indexed": false,
          "internalType": "address",
          "name": "newFeeDistribution",
          "type": "address"
        }
      ],
      "name": "UpdateFeeDistributor",
      "type": "event"
    },
    {
      "inputs": [],
      "name": "DOMAIN_SEPARATOR",
      "outputs": [
        {
          "internalType": "bytes32",
          "name": "",
          "type": "bytes32"
        }
      ],
      "stateMutability": "view",
      "type": "function"
    },
    {
      "inputs": [],
      "name": "accrueDividend",
      "outputs": [],
      "stateMutability": "nonpayable",
      "type": "function"
    },
    {
      "inputs": [
        {
          "internalType": "address",
          "name": "owner",
          "type": "address"
        },
        {
          "internalType": "address",
          "name": "spender",
          "type": "address"
        }
      ],
      "name": "allowance",
      "outputs": [
        {
          "internalType": "uint256",
          "name": "",
          "type": "uint256"
        }
      ],
      "stateMutability": "view",
      "type": "function"
    },
    {
      "inputs": [
        {
          "internalType": "address",
          "name": "spender",
          "type": "address"
        },
        {
          "internalType": "uint256",
          "name": "amount",
          "type": "uint256"
        }
      ],
      "name": "approve",
      "outputs": [
        {
          "internalType": "bool",
          "name": "",
          "type": "bool"
        }
      ],
      "stateMutability": "nonpayable",
      "type": "function"
    },
    {
      "inputs": [
        {
          "internalType": "address",
          "name": "account",
          "type": "address"
        }
      ],
      "name": "balanceOf",
      "outputs": [
        {
          "internalType": "uint256",
          "name": "",
          "type": "uint256"
        }
      ],
      "stateMutability": "view",
      "type": "function"
    },
    {
      "inputs": [
        {
          "internalType": "address",
          "name": "account",
          "type": "address"
        },
        {
          "internalType": "uint32",
          "name": "pos",
          "type": "uint32"
        }
      ],
      "name": "checkpoints",
      "outputs": [
        {
          "components": [
            {
              "internalType": "uint32",
              "name": "fromBlock",
              "type": "uint32"
            },
            {
              "internalType": "uint224",
              "name": "votes",
              "type": "uint224"
            }
          ],
          "internalType": "struct ERC20Votes.Checkpoint",
          "name": "",
          "type": "tuple"
        }
      ],
      "stateMutability": "view",
      "type": "function"
    },
    {
      "inputs": [
        {
          "internalType": "bool",
          "name": "update",
          "type": "bool"
        }
      ],
      "name": "claimUserDividend",
      "outputs": [],
      "stateMutability": "nonpayable",
      "type": "function"
    },
    {
      "inputs": [],
      "name": "decimals",
      "outputs": [
        {
          "internalType": "uint8",
          "name": "",
          "type": "uint8"
        }
      ],
      "stateMutability": "view",
      "type": "function"
    },
    {
      "inputs": [
        {
          "internalType": "address",
          "name": "spender",
          "type": "address"
        },
        {
          "internalType": "uint256",
          "name": "subtractedValue",
          "type": "uint256"
        }
      ],
      "name": "decreaseAllowance",
      "outputs": [
        {
          "internalType": "bool",
          "name": "",
          "type": "bool"
        }
      ],
      "stateMutability": "nonpayable",
      "type": "function"
    },
    {
      "inputs": [
        {
          "internalType": "address",
          "name": "delegatee",
          "type": "address"
        }
      ],
      "name": "delegate",
      "outputs": [],
      "stateMutability": "nonpayable",
      "type": "function"
    },
    {
      "inputs": [
        {
          "internalType": "address",
          "name": "delegatee",
          "type": "address"
        },
        {
          "internalType": "uint256",
          "name": "nonce",
          "type": "uint256"
        },
        {
          "internalType": "uint256",
          "name": "expiry",
          "type": "uint256"
        },
        {
          "internalType": "uint8",
          "name": "v",
          "type": "uint8"
        },
        {
          "internalType": "bytes32",
          "name": "r",
          "type": "bytes32"
        },
        {
          "internalType": "bytes32",
          "name": "s",
          "type": "bytes32"
        }
      ],
      "name": "delegateBySig",
      "outputs": [],
      "stateMutability": "nonpayable",
      "type": "function"
    },
    {
      "inputs": [
        {
          "internalType": "address",
          "name": "account",
          "type": "address"
        }
      ],
      "name": "delegates",
      "outputs": [
        {
          "internalType": "address",
          "name": "",
          "type": "address"
        }
      ],
      "stateMutability": "view",
      "type": "function"
    },
    {
      "inputs": [
        {
          "internalType": "address",
          "name": "user",
          "type": "address"
        }
      ],
      "name": "dividendOf",
      "outputs": [
        {
          "internalType": "uint256",
          "name": "dividend",
          "type": "uint256"
        }
      ],
      "stateMutability": "view",
      "type": "function"
    },
    {
      "inputs": [],
      "name": "feeDistribution",
      "outputs": [
        {
          "internalType": "address",
          "name": "",
          "type": "address"
        }
      ],
      "stateMutability": "view",
      "type": "function"
    },
    {
      "inputs": [
        {
          "internalType": "uint256",
          "name": "blockNumber",
          "type": "uint256"
        }
      ],
      "name": "getPastTotalSupply",
      "outputs": [
        {
          "internalType": "uint256",
          "name": "",
          "type": "uint256"
        }
      ],
      "stateMutability": "view",
      "type": "function"
    },
    {
      "inputs": [
        {
          "internalType": "address",
          "name": "account",
          "type": "address"
        },
        {
          "internalType": "uint256",
          "name": "blockNumber",
          "type": "uint256"
        }
      ],
      "name": "getPastVotes",
      "outputs": [
        {
          "internalType": "uint256",
          "name": "",
          "type": "uint256"
        }
      ],
      "stateMutability": "view",
      "type": "function"
    },
    {
      "inputs": [
        {
          "internalType": "address",
          "name": "account",
          "type": "address"
        }
      ],
      "name": "getVotes",
      "outputs": [
        {
          "internalType": "uint256",
          "name": "",
          "type": "uint256"
        }
      ],
      "stateMutability": "view",
      "type": "function"
    },
    {
      "inputs": [
        {
          "internalType": "address",
          "name": "spender",
          "type": "address"
        },
        {
          "internalType": "uint256",
          "name": "addedValue",
          "type": "uint256"
        }
      ],
      "name": "increaseAllowance",
      "outputs": [
        {
          "internalType": "bool",
          "name": "",
          "type": "bool"
        }
      ],
      "stateMutability": "nonpayable",
      "type": "function"
    },
    {
      "inputs": [
        {
          "internalType": "bytes[]",
          "name": "data",
          "type": "bytes[]"
        }
      ],
      "name": "multicall",
      "outputs": [
        {
          "internalType": "bytes[]",
          "name": "results",
          "type": "bytes[]"
        }
      ],
      "stateMutability": "nonpayable",
      "type": "function"
    },
    {
      "inputs": [],
      "name": "name",
      "outputs": [
        {
          "internalType": "string",
          "name": "",
          "type": "string"
        }
      ],
      "stateMutability": "view",
      "type": "function"
    },
    {
      "inputs": [
        {
          "internalType": "address",
          "name": "owner",
          "type": "address"
        }
      ],
      "name": "nonces",
      "outputs": [
        {
          "internalType": "uint256",
          "name": "",
          "type": "uint256"
        }
      ],
      "stateMutability": "view",
      "type": "function"
    },
    {
      "inputs": [
        {
          "internalType": "address",
          "name": "account",
          "type": "address"
        }
      ],
      "name": "numCheckpoints",
      "outputs": [
        {
          "internalType": "uint32",
          "name": "",
          "type": "uint32"
        }
      ],
      "stateMutability": "view",
      "type": "function"
    },
    {
      "inputs": [],
      "name": "owner",
      "outputs": [
        {
          "internalType": "address",
          "name": "",
          "type": "address"
        }
      ],
      "stateMutability": "view",
      "type": "function"
    },
    {
      "inputs": [],
      "name": "pause",
      "outputs": [],
      "stateMutability": "nonpayable",
      "type": "function"
    },
    {
      "inputs": [],
      "name": "paused",
      "outputs": [
        {
          "internalType": "bool",
          "name": "",
          "type": "bool"
        }
      ],
      "stateMutability": "view",
      "type": "function"
    },
    {
      "inputs": [
        {
          "internalType": "address",
          "name": "owner",
          "type": "address"
        },
        {
          "internalType": "address",
          "name": "spender",
          "type": "address"
        },
        {
          "internalType": "uint256",
          "name": "value",
          "type": "uint256"
        },
        {
          "internalType": "uint256",
          "name": "deadline",
          "type": "uint256"
        },
        {
          "internalType": "uint8",
          "name": "v",
          "type": "uint8"
        },
        {
          "internalType": "bytes32",
          "name": "r",
          "type": "bytes32"
        },
        {
          "internalType": "bytes32",
          "name": "s",
          "type": "bytes32"
        }
      ],
      "name": "permit",
      "outputs": [],
      "stateMutability": "nonpayable",
      "type": "function"
    },
    {
      "inputs": [],
      "name": "pricePerShare",
      "outputs": [
        {
          "internalType": "uint128",
          "name": "",
          "type": "uint128"
        }
      ],
      "stateMutability": "view",
      "type": "function"
    },
    {
      "inputs": [],
      "name": "renounceOwnership",
      "outputs": [],
      "stateMutability": "nonpayable",
      "type": "function"
    },
    {
      "inputs": [
        {
          "internalType": "contract IERC20",
          "name": "asset",
          "type": "address"
        }
      ],
      "name": "rescueFunds",
      "outputs": [],
      "stateMutability": "nonpayable",
      "type": "function"
    },
    {
      "inputs": [],
      "name": "rewardAsset",
      "outputs": [
        {
          "internalType": "contract IERC20",
          "name": "",
          "type": "address"
        }
      ],
      "stateMutability": "view",
      "type": "function"
    },
    {
      "inputs": [
        {
          "internalType": "address",
          "name": "newFeeDistribution",
          "type": "address"
        }
      ],
      "name": "setFeeDistributor",
      "outputs": [],
      "stateMutability": "nonpayable",
      "type": "function"
    },
    {
      "inputs": [
        {
          "internalType": "address",
          "name": "to",
          "type": "address"
        },
        {
          "internalType": "uint128",
          "name": "amount",
          "type": "uint128"
        },
        {
          "internalType": "bool",
          "name": "update",
          "type": "bool"
        }
      ],
      "name": "stake",
      "outputs": [],
      "stateMutability": "nonpayable",
      "type": "function"
    },
    {
      "inputs": [],
      "name": "stakeAsset",
      "outputs": [
        {
          "internalType": "contract IERC20",
          "name": "",
          "type": "address"
        }
      ],
      "stateMutability": "view",
      "type": "function"
    },
    {
      "inputs": [],
      "name": "symbol",
      "outputs": [
        {
          "internalType": "string",
          "name": "",
          "type": "string"
        }
      ],
      "stateMutability": "view",
      "type": "function"
    },
    {
      "inputs": [],
      "name": "totalDividendsReceived",
      "outputs": [
        {
          "internalType": "uint128",
          "name": "",
          "type": "uint128"
        }
      ],
      "stateMutability": "view",
      "type": "function"
    },
    {
      "inputs": [],
      "name": "totalStaked",
      "outputs": [
        {
          "internalType": "uint128",
          "name": "",
          "type": "uint128"
        }
      ],
      "stateMutability": "view",
      "type": "function"
    },
    {
      "inputs": [],
      "name": "totalSupply",
      "outputs": [
        {
          "internalType": "uint256",
          "name": "",
          "type": "uint256"
        }
      ],
      "stateMutability": "view",
      "type": "function"
    },
    {
      "inputs": [
        {
          "internalType": "address",
          "name": "recipient",
          "type": "address"
        },
        {
          "internalType": "uint256",
          "name": "amount",
          "type": "uint256"
        }
      ],
      "name": "transfer",
      "outputs": [
        {
          "internalType": "bool",
          "name": "",
          "type": "bool"
        }
      ],
      "stateMutability": "nonpayable",
      "type": "function"
    },
    {
      "inputs": [
        {
          "internalType": "address",
          "name": "sender",
          "type": "address"
        },
        {
          "internalType": "address",
          "name": "recipient",
          "type": "address"
        },
        {
          "internalType": "uint256",
          "name": "amount",
          "type": "uint256"
        }
      ],
      "name": "transferFrom",
      "outputs": [
        {
          "internalType": "bool",
          "name": "",
          "type": "bool"
        }
      ],
      "stateMutability": "nonpayable",
      "type": "function"
    },
    {
      "inputs": [
        {
          "internalType": "address",
          "name": "newOwner",
          "type": "address"
        }
      ],
      "name": "transferOwnership",
      "outputs": [],
      "stateMutability": "nonpayable",
      "type": "function"
    },
    {
      "inputs": [],
      "name": "unpause",
      "outputs": [],
      "stateMutability": "nonpayable",
      "type": "function"
    },
    {
      "inputs": [
        {
          "internalType": "uint128",
          "name": "amount",
          "type": "uint128"
        },
        {
          "internalType": "bool",
          "name": "update",
          "type": "bool"
        }
      ],
      "name": "unstake",
      "outputs": [],
      "stateMutability": "nonpayable",
      "type": "function"
    },
    {
      "inputs": [
        {
          "internalType": "address",
          "name": "",
          "type": "address"
        }
      ],
      "name": "userRewards",
      "outputs": [
        {
          "internalType": "uint128",
          "name": "pendingReward",
          "type": "uint128"
        },
        {
          "internalType": "uint128",
          "name": "lastPricePerShare",
          "type": "uint128"
        }
      ],
      "stateMutability": "view",
      "type": "function"
    }
  ],
  "transactionHash": "0x52e49d6f31435e334b6f85d8a034dfbc92e5010c89a01c12ed7309f50a1e3bf7",
  "args": [
    "0xa0b86991c6218b36c1d19d4a2e9eb0ce3606eb48",
    "0xD4e12B224C316664EbB647F69abC1fb8bB2697C7",
    "0x6fFba89ff0dB0a4CCEa747c8c488699f24f64952",
    "stkBribeAavePool",
    "stkBrAave"
  ],
  "solcInputHash": "3174c0b35289423a94f4ca8a4b1cb545",
  "bytecode": "0x6101a06040527f6e71edae12b1b97f4d1f60370fef10105fa2faae0126114a169c64845d6126c9610140523480156200003757600080fd5b5060405162003e0838038062003e088339810160408190526200005a9162000463565b8180604051806040016040528060018152602001603160f81b8152508484816003908051906020019062000090929190620002ed565b508051620000a6906004906020840190620002ed565b5050825160208085019190912083518483012060e08290526101008190524660a0818152604080517f8b73c3c69bb8fe3d512ecc4cf759cc79239f7b179b0ffacaa9a75d522b39400f81880181905281830187905260608201869052608082019490945230818401528151808203909301835260c0019052805194019390932091935091906080523060601b60c05261012052506200015593506200014f925050620002979050565b6200029b565b6009805460ff60a01b191690556001600160a01b038516620001ae5760405162461bcd60e51b815260206004820152600d60248201526c1253959053125117d054d4d155609a1b60448201526064015b60405180910390fd5b6001600160a01b038416620002065760405162461bcd60e51b815260206004820152601360248201527f494e56414c49445f5354414b455f4153534554000000000000000000000000006044820152606401620001a5565b6001600160a01b038316620002525760405162461bcd60e51b81526020600482015260116024820152701253959053125117d1915157d054d4d155607a1b6044820152606401620001a5565b5050606092831b6001600160601b0319908116610160529190921b1661018052600a80546001600160a01b0319166001600160a01b0390921691909117905562000556565b3390565b600980546001600160a01b038381166001600160a01b0319831681179093556040519116919082907f8be0079c531659141344cd1fd0a4f28419497f9722a3daafe3b4186f6b6457e090600090a35050565b828054620002fb9062000503565b90600052602060002090601f0160209004810192826200031f57600085556200036a565b82601f106200033a57805160ff19168380011785556200036a565b828001600101855582156200036a579182015b828111156200036a5782518255916020019190600101906200034d565b50620003789291506200037c565b5090565b5b808211156200037857600081556001016200037d565b80516001600160a01b0381168114620003ab57600080fd5b919050565b600082601f830112620003c1578081fd5b81516001600160401b0380821115620003de57620003de62000540565b604051601f8301601f19908116603f0116810190828211818310171562000409576200040962000540565b8160405283815260209250868385880101111562000425578485fd5b8491505b8382101562000448578582018301518183018401529082019062000429565b838211156200045957848385830101525b9695505050505050565b600080600080600060a086880312156200047b578081fd5b620004868662000393565b9450620004966020870162000393565b9350620004a66040870162000393565b60608701519093506001600160401b0380821115620004c3578283fd5b620004d189838a01620003b0565b93506080880151915080821115620004e7578283fd5b50620004f688828901620003b0565b9150509295509295909350565b600181811c908216806200051857607f821691505b602082108114156200053a57634e487b7160e01b600052602260045260246000fd5b50919050565b634e487b7160e01b600052604160045260246000fd5b60805160a05160c05160601c60e0516101005161012051610140516101605160601c6101805160601c61380e620005fa600039600081816104ad015281816108be01528181611058015261145a01526000818161030401528181610ba20152818161186501526119960152600061131e01526000611f8e01526000611fdd01526000611fb801526000611f1101526000611f3b01526000611f65015261380e6000f3fe608060405234801561001057600080fd5b50600436106102695760003560e01c80637ecebe0011610151578063a9059cbb116100c3578063ccfc2e8d11610087578063ccfc2e8d146105ed578063d505accf14610600578063dd62ed3e14610613578063e53b20171461064c578063f1127ed81461065f578063f2fde38b1461069c57600080fd5b8063a9059cbb14610581578063ac9650d814610594578063b503026d146105b4578063ba95a3a2146105c7578063c3cda520146105da57600080fd5b80638e539e8c116101155780638e539e8c1461051a57806391b89fba1461052d57806395d89b411461054057806399530b06146105485780639ab24eb01461055b578063a457c2d71461056e57600080fd5b80637ecebe001461049557806380cd916d146104a8578063817b1cd2146104cf5780638456cb59146105015780638da5cb5b1461050957600080fd5b80633644e515116101ea578063587cde1e116101ae578063587cde1e146103eb5780635c19a95c146104175780635c975abb1461042a5780636fcfff451461043c57806370a0823114610464578063715018a61461048d57600080fd5b80633644e515146103a257806339509351146103aa5780633a46b1a8146103bd5780633f4ba83a146103d0578063521243eb146103d857600080fd5b806318160ddd1161023157806318160ddd1461035357806323b872dd146103655780632479b17714610378578063313ce5671461038b578063348998171461039a57600080fd5b80630660f1e81461026e57806306fdde03146102c7578063095ea7b3146102dc5780630ac6702a146102ff57806310c6bf901461033e575b600080fd5b6102a261027c3660046131cf565b600d602052600090815260409020546001600160801b0380821691600160801b90041682565b604080516001600160801b039384168152929091166020830152015b60405180910390f35b6102cf6106af565b6040516102be919061357d565b6102ef6102ea366004613318565b610741565b60405190151581526020016102be565b6103267f000000000000000000000000000000000000000000000000000000000000000081565b6040516001600160a01b0390911681526020016102be565b61035161034c3660046132d0565b610757565b005b6002545b6040519081526020016102be565b6102ef610373366004613223565b610946565b600a54610326906001600160a01b031681565b604051601281526020016102be565b6103516109f2565b610357610a26565b6102ef6103b8366004613318565b610a35565b6103576103cb366004613318565b610a71565b610351610ae4565b6103516103e6366004613441565b610b16565b6103266103f93660046131cf565b6001600160a01b039081166000908152600660205260409020541690565b6103516104253660046131cf565b610c0b565b600954600160a01b900460ff166102ef565b61044f61044a3660046131cf565b610c18565b60405163ffffffff90911681526020016102be565b6103576104723660046131cf565b6001600160a01b031660009081526020819052604090205490565b610351610c40565b6103576104a33660046131cf565b610c74565b6103267f000000000000000000000000000000000000000000000000000000000000000081565b600b546104e990600160801b90046001600160801b031681565b6040516001600160801b0390911681526020016102be565b610351610c92565b6009546001600160a01b0316610326565b6103576105283660046134a4565b610cc4565b61035761053b3660046131cf565b610d20565b6102cf610d6d565b600c546104e9906001600160801b031681565b6103576105693660046131cf565b610d7c565b6102ef61057c366004613318565b610e11565b6102ef61058f366004613318565b610eaa565b6105a76105a23660046133d1565b610eb7565b6040516102be919061351c565b600b546104e9906001600160801b031681565b6103516105d5366004613479565b610fd6565b6103516105e8366004613343565b6110ca565b6103516105fb3660046131cf565b611200565b61035161060e366004613263565b6112ca565b6103576106213660046131eb565b6001600160a01b03918216600090815260016020908152604080832093909416825291909152205490565b61035161065a3660046131cf565b61142e565b61067261066d36600461339c565b6115ff565b60408051825163ffffffff1681526020928301516001600160e01b031692810192909252016102be565b6103516106aa3660046131cf565b611691565b6060600380546106be90613728565b80601f01602080910402602001604051908101604052809291908181526020018280546106ea90613728565b80156107375780601f1061070c57610100808354040283529160200191610737565b820191906000526020600020905b81548152906001019060200180831161071a57829003601f168201915b5050505050905090565b600061074e338484611729565b50600192915050565b600954600160a01b900460ff161561078a5760405162461bcd60e51b815260040161078190613590565b60405180910390fd5b6001600160a01b0383166107cd5760405162461bcd60e51b815260206004820152600a602482015269494e56414c49445f544f60b01b6044820152606401610781565b6001600160801b0382166108145760405162461bcd60e51b815260206004820152600e60248201526d1253959053125117d05353d5539560921b6044820152606401610781565b8080610831575068056bc75e2d63100000826001600160801b0316115b8061083c5750333214155b156108495761084961184d565b61085283611b93565b61086583836001600160801b0316611c2a565b81600b60108282829054906101000a90046001600160801b0316610889919061363b565b92506101000a8154816001600160801b0302191690836001600160801b031602179055506108f63330846001600160801b03167f00000000000000000000000000000000000000000000000000000000000000006001600160a01b0316611cba909392919063ffffffff16565b6040516001600160801b03831681526001600160a01b03841690339030907fc5017594d2723c038bb216e5bcef3ac65910ade839c0e63253bf5b59efbf0fd79060200160405180910390a4505050565b6000610953848484611d25565b6001600160a01b0384166000908152600160209081526040808320338452909152902054828110156109d85760405162461bcd60e51b815260206004820152602860248201527f45524332303a207472616e7366657220616d6f756e74206578636565647320616044820152676c6c6f77616e636560c01b6064820152608401610781565b6109e58533858403611729565b60019150505b9392505050565b600954600160a01b900460ff1615610a1c5760405162461bcd60e51b815260040161078190613590565b610a2461184d565b565b6000610a30611f04565b905090565b3360008181526001602090815260408083206001600160a01b0387168452909152812054909161074e918590610a6c908690613666565b611729565b6000438210610ac25760405162461bcd60e51b815260206004820152601f60248201527f4552433230566f7465733a20626c6f636b206e6f7420796574206d696e6564006044820152606401610781565b6001600160a01b03831660009081526007602052604090206109eb908361202b565b6009546001600160a01b03163314610b0e5760405162461bcd60e51b8152600401610781906135ba565b610a24612104565b600954600160a01b900460ff1615610b405760405162461bcd60e51b815260040161078190613590565b8015610b4e57610b4e61184d565b610b5733611b93565b336000908152600d60205260409020546001600160801b03168015610bd157336000818152600d6020526040902080546fffffffffffffffffffffffffffffffff19169055610bd1907f00000000000000000000000000000000000000000000000000000000000000006001600160a01b031690836121a1565b60405181815233907f5287962f37e8311d1f68b563b6969614e0eb2862c1a714c8781511520e87e442906020015b60405180910390a25050565b610c1533826121d6565b50565b6001600160a01b038116600090815260076020526040812054610c3a9061224f565b92915050565b6009546001600160a01b03163314610c6a5760405162461bcd60e51b8152600401610781906135ba565b610a2460006122b8565b6001600160a01b038116600090815260056020526040812054610c3a565b6009546001600160a01b03163314610cbc5760405162461bcd60e51b8152600401610781906135ba565b610a2461230a565b6000438210610d155760405162461bcd60e51b815260206004820152601f60248201527f4552433230566f7465733a20626c6f636b206e6f7420796574206d696e6564006044820152606401610781565b610c3a60088361202b565b600080610d2c8361236f565b506001600160a01b0384166000908152600d6020526040902054909150610d5d9082906001600160801b031661363b565b6001600160801b03169392505050565b6060600480546106be90613728565b6001600160a01b0381166000908152600760205260408120548015610dfe576001600160a01b0383166000908152600760205260409020610dbe6001836136e5565b81548110610ddc57634e487b7160e01b600052603260045260246000fd5b60009182526020909120015464010000000090046001600160e01b0316610e01565b60005b6001600160e01b03169392505050565b3360009081526001602090815260408083206001600160a01b038616845290915281205482811015610e935760405162461bcd60e51b815260206004820152602560248201527f45524332303a2064656372656173656420616c6c6f77616e63652062656c6f77604482015264207a65726f60d81b6064820152608401610781565b610ea03385858403611729565b5060019392505050565b600061074e338484611d25565b60608167ffffffffffffffff811115610ee057634e487b7160e01b600052604160045260246000fd5b604051908082528060200260200182016040528015610f1357816020015b6060815260200190600190039081610efe5790505b50905060005b82811015610fcf57610f9130858584818110610f4557634e487b7160e01b600052603260045260246000fd5b9050602002810190610f5791906135ef565b8080601f01602080910402602001604051908101604052809392919081815260200183838082843760009201919091525061241c92505050565b828281518110610fb157634e487b7160e01b600052603260045260246000fd5b60200260200101819052508080610fc79061375d565b915050610f19565b5092915050565b8015610fe457610fe461184d565b610fed33611b93565b61100033836001600160801b0316612441565b81600b60108282829054906101000a90046001600160801b031661102491906136bd565b92506101000a8154816001600160801b0302191690836001600160801b0316021790555061108f33836001600160801b03167f00000000000000000000000000000000000000000000000000000000000000006001600160a01b03166121a19092919063ffffffff16565b6040516001600160801b038316815233907f85082129d87b2fe11527cb1b3b7a520aeb5aa6913f88a3d8757fe40d1db02fdd90602001610bff565b8342111561111a5760405162461bcd60e51b815260206004820152601d60248201527f4552433230566f7465733a207369676e617475726520657870697265640000006044820152606401610781565b604080517fe48329057bfd03d55e49b547132e39cffd9c1820ad7b9d4c5307691425d15adf60208201526001600160a01b0388169181019190915260608101869052608081018590526000906111949061118c9060a00160405160208183030381529060405280519060200120612459565b8585856124a7565b905061119f816124cf565b86146111ed5760405162461bcd60e51b815260206004820152601960248201527f4552433230566f7465733a20696e76616c6964206e6f6e6365000000000000006044820152606401610781565b6111f781886121d6565b50505050505050565b6009546001600160a01b0316331461122a5760405162461bcd60e51b8152600401610781906135ba565b6001600160a01b0381166112765760405162461bcd60e51b815260206004820152601360248201527224a72b20a624a22fa224a9aa2924a12aaa27a960691b6044820152606401610781565b600a80546001600160a01b0319166001600160a01b0383169081179091556040519081527fd78b614a7d56fe320194248b6eb91456d4a12e27a5c87bf3b6041f6e6a7339ec9060200160405180910390a150565b8342111561131a5760405162461bcd60e51b815260206004820152601d60248201527f45524332305065726d69743a206578706972656420646561646c696e650000006044820152606401610781565b60007f00000000000000000000000000000000000000000000000000000000000000008888886113498c6124cf565b6040805160208101969096526001600160a01b0394851690860152929091166060840152608083015260a082015260c0810186905260e00160405160208183030381529060405280519060200120905060006113a482612459565b905060006113b4828787876124a7565b9050896001600160a01b0316816001600160a01b0316146114175760405162461bcd60e51b815260206004820152601e60248201527f45524332305065726d69743a20696e76616c6964207369676e617475726500006044820152606401610781565b6114228a8a8a611729565b50505050505050505050565b6009546001600160a01b031633146114585760405162461bcd60e51b8152600401610781906135ba565b7f00000000000000000000000000000000000000000000000000000000000000006001600160a01b0316816001600160a01b031614156114ca5760405162461bcd60e51b815260206004820152600d60248201526c1253959053125117d054d4d155609a1b6044820152606401610781565b6040516370a0823160e01b81523060048201526000906001600160a01b038316906370a082319060240160206040518083038186803b15801561150c57600080fd5b505afa158015611520573d6000803e3d6000fd5b505050506040513d601f19601f8201168201806040525081019061154491906134bc565b60405163a9059cbb60e01b8152336004820152602481018290529091506001600160a01b0383169063a9059cbb90604401602060405180830381600087803b15801561158f57600080fd5b505af11580156115a3573d6000803e3d6000fd5b505050506040513d601f19601f820116820180604052508101906115c7919061345d565b506040518181527f8dddfb0fe32b5cc02812108dd5fe699a4ce5aaaf1db07b1612566cef381a26b79060200160405180910390a15050565b60408051808201909152600080825260208201526001600160a01b0383166000908152600760205260409020805463ffffffff841690811061165157634e487b7160e01b600052603260045260246000fd5b60009182526020918290206040805180820190915291015463ffffffff8116825264010000000090046001600160e01b0316918101919091529392505050565b6009546001600160a01b031633146116bb5760405162461bcd60e51b8152600401610781906135ba565b6001600160a01b0381166117205760405162461bcd60e51b815260206004820152602660248201527f4f776e61626c653a206e6577206f776e657220697320746865207a65726f206160448201526564647265737360d01b6064820152608401610781565b610c15816122b8565b6001600160a01b03831661178b5760405162461bcd60e51b8152602060048201526024808201527f45524332303a20617070726f76652066726f6d20746865207a65726f206164646044820152637265737360e01b6064820152608401610781565b6001600160a01b0382166117ec5760405162461bcd60e51b815260206004820152602260248201527f45524332303a20617070726f766520746f20746865207a65726f206164647265604482015261737360f01b6064820152608401610781565b6001600160a01b0383811660008181526001602090815260408083209487168084529482529182902085905590518481527f8c5be1e5ebec7d5bd14f71427d1e84f3dd0314c0f7b2291e5b200ac8c7c3b925910160405180910390a3505050565b6040516370a0823160e01b81523060048201526000907f00000000000000000000000000000000000000000000000000000000000000006001600160a01b0316906370a082319060240160206040518083038186803b1580156118af57600080fd5b505afa1580156118c3573d6000803e3d6000fd5b505050506040513d601f19601f820116820180604052508101906118e791906134bc565b600a546040516304f25cdd60e41b81523060048201529192506000916001600160a01b0390911690634f25cdd090602401602060405180830381600087803b15801561193257600080fd5b505af1158015611946573d6000803e3d6000fd5b505050506040513d601f19601f8201168201806040525081019061196a91906134bc565b905080611975575050565b6040516370a0823160e01b8152306004820152819083906001600160a01b037f000000000000000000000000000000000000000000000000000000000000000016906370a082319060240160206040518083038186803b1580156119d857600080fd5b505afa1580156119ec573d6000803e3d6000fd5b505050506040513d601f19601f82011682018060405250810190611a1091906134bc565b611a1a91906136e5565b1015611a5f5760405162461bcd60e51b815260206004820152601460248201527324a72b20a624a22fa224a9aa2924a12aaa24a7a760611b6044820152606401610781565b611a68816124f7565b600b8054600090611a839084906001600160801b031661363b565b92506101000a8154816001600160801b0302191690836001600160801b03160217905550600080600b60109054906101000a90046001600160801b03166001600160801b031611611ad5576001611ae9565b600b54600160801b90046001600160801b03165b6001600160801b03169050611b1681611b0764e8d4a510008561369e565b611b11919061367e565b6124f7565b600c8054600090611b319084906001600160801b031661363b565b92506101000a8154816001600160801b0302191690836001600160801b031602179055507f29787cd8f0dbad4198976f475ed7dd210c5efdaa90d13801a6de722f7cb48dc582604051611b8691815260200190565b60405180910390a1505050565b600080611b9f8361236f565b6001600160a01b0385166000908152600d6020526040812080549395509193508492611bd59084906001600160801b031661363b565b82546101009290920a6001600160801b038181021990931691831602179091556001600160a01b03949094166000908152600d6020526040902080548516600160801b93909516929092029390931790555050565b611c348282612560565b6002546001600160e01b031015611ca65760405162461bcd60e51b815260206004820152603060248201527f4552433230566f7465733a20746f74616c20737570706c79207269736b73206f60448201526f766572666c6f77696e6720766f74657360801b6064820152608401610781565b611cb4600861265783612663565b50505050565b6040516001600160a01b0380851660248301528316604482015260648101829052611cb49085906323b872dd60e01b906084015b60408051601f198184030181529190526020810180516001600160e01b03166001600160e01b031990931692909217909152612806565b6001600160a01b038316611d895760405162461bcd60e51b815260206004820152602560248201527f45524332303a207472616e736665722066726f6d20746865207a65726f206164604482015264647265737360d81b6064820152608401610781565b6001600160a01b038216611deb5760405162461bcd60e51b815260206004820152602360248201527f45524332303a207472616e7366657220746f20746865207a65726f206164647260448201526265737360e81b6064820152608401610781565b611df68383836128d8565b6001600160a01b03831660009081526020819052604090205481811015611e6e5760405162461bcd60e51b815260206004820152602660248201527f45524332303a207472616e7366657220616d6f756e7420657863656564732062604482015265616c616e636560d01b6064820152608401610781565b6001600160a01b03808516600090815260208190526040808220858503905591851681529081208054849290611ea5908490613666565b92505081905550826001600160a01b0316846001600160a01b03167fddf252ad1be2c89b69c2b068fc378daa952ba7f163c4a11628f55a4df523b3ef84604051611ef191815260200190565b60405180910390a3611cb4848484612908565b6000306001600160a01b037f000000000000000000000000000000000000000000000000000000000000000016148015611f5d57507f000000000000000000000000000000000000000000000000000000000000000046145b15611f8757507f000000000000000000000000000000000000000000000000000000000000000090565b50604080517f00000000000000000000000000000000000000000000000000000000000000006020808301919091527f0000000000000000000000000000000000000000000000000000000000000000828401527f000000000000000000000000000000000000000000000000000000000000000060608301524660808301523060a0808401919091528351808403909101815260c0909201909252805191012090565b8154600090815b8181101561209d576000612046828461293a565b90508486828154811061206957634e487b7160e01b600052603260045260246000fd5b60009182526020909120015463ffffffff16111561208957809250612097565b612094816001613666565b91505b50612032565b81156120ef57846120af6001846136e5565b815481106120cd57634e487b7160e01b600052603260045260246000fd5b60009182526020909120015464010000000090046001600160e01b03166120f2565b60005b6001600160e01b031695945050505050565b600954600160a01b900460ff166121545760405162461bcd60e51b815260206004820152601460248201527314185d5cd8589b194e881b9bdd081c185d5cd95960621b6044820152606401610781565b6009805460ff60a01b191690557f5db9ee0a495bf2e6ff9c91a7834c1ba4fdd244a5e8aa4e537bd38aeae4b073aa335b6040516001600160a01b03909116815260200160405180910390a1565b6040516001600160a01b0383166024820152604481018290526121d190849063a9059cbb60e01b90606401611cee565b505050565b6001600160a01b038281166000818152600660208181526040808420805485845282862054949093528787166001600160a01b03198416811790915590519190951694919391928592917f3134e8a2e6d97e929a7e54011ea5485d7d196dd5f0ba4d4ef95803e8e3fc257f9190a4611cb4828483612955565b600063ffffffff8211156122b45760405162461bcd60e51b815260206004820152602660248201527f53616665436173743a2076616c756520646f65736e27742066697420696e203360448201526532206269747360d01b6064820152608401610781565b5090565b600980546001600160a01b038381166001600160a01b0319831681179093556040519116919082907f8be0079c531659141344cd1fd0a4f28419497f9722a3daafe3b4186f6b6457e090600090a35050565b600954600160a01b900460ff16156123345760405162461bcd60e51b815260040161078190613590565b6009805460ff60a01b1916600160a01b1790557f62e78cea01bee320cd4e420270b5ea74000d11b0c9f74754ebdbfc544b05a2586121843390565b6001600160a01b0381166000908152600d6020908152604080832054918390528220548291600160801b90046001600160801b03169082906123b0906124f7565b600c54600b546001600160801b03918216955091925016158015906123de57506000816001600160801b0316115b156124155761241264e8d4a510006123ff846001600160801b0387166136e5565b611b07906001600160801b03851661369e565b93505b5050915091565b60606109eb83836040518060600160405280602781526020016137b260279139612a92565b61244b8282612b66565b611cb46008612cc783612663565b6000610c3a612466611f04565b8360405161190160f01b6020820152602281018390526042810182905260009060620160405160208183030381529060405280519060200120905092915050565b60008060006124b887878787612cd3565b915091506124c581612dc0565b5095945050505050565b6001600160a01b03811660009081526005602052604090208054600181018255905b50919050565b60006001600160801b038211156122b45760405162461bcd60e51b815260206004820152602760248201527f53616665436173743a2076616c756520646f65736e27742066697420696e20316044820152663238206269747360c81b6064820152608401610781565b6001600160a01b0382166125b65760405162461bcd60e51b815260206004820152601f60248201527f45524332303a206d696e7420746f20746865207a65726f2061646472657373006044820152606401610781565b6125c2600083836128d8565b80600260008282546125d49190613666565b90915550506001600160a01b03821660009081526020819052604081208054839290612601908490613666565b90915550506040518181526001600160a01b038316906000907fddf252ad1be2c89b69c2b068fc378daa952ba7f163c4a11628f55a4df523b3ef9060200160405180910390a361265360008383612908565b5050565b60006109eb8284613666565b8254600090819080156126bc578561267c6001836136e5565b8154811061269a57634e487b7160e01b600052603260045260246000fd5b60009182526020909120015464010000000090046001600160e01b03166126bf565b60005b6001600160e01b031692506126d883858763ffffffff16565b9150600081118015612724575043866126f26001846136e5565b8154811061271057634e487b7160e01b600052603260045260246000fd5b60009182526020909120015463ffffffff16145b156127925761273282612fc1565b8661273e6001846136e5565b8154811061275c57634e487b7160e01b600052603260045260246000fd5b9060005260206000200160000160046101000a8154816001600160e01b0302191690836001600160e01b031602179055506127fd565b8560405180604001604052806127a74361224f565b63ffffffff1681526020016127bb85612fc1565b6001600160e01b0390811690915282546001810184556000938452602093849020835194909301519091166401000000000263ffffffff909316929092179101555b50935093915050565b600061285b826040518060400160405280602081526020017f5361666545524332303a206c6f772d6c6576656c2063616c6c206661696c6564815250856001600160a01b031661302a9092919063ffffffff16565b8051909150156121d15780806020019051810190612879919061345d565b6121d15760405162461bcd60e51b815260206004820152602a60248201527f5361666545524332303a204552433230206f7065726174696f6e20646964206e6044820152691bdd081cdd58d8d9595960b21b6064820152608401610781565b6001600160a01b038316156128f0576128f083611b93565b6001600160a01b038216156121d1576121d182611b93565b6001600160a01b038381166000908152600660205260408082205485841683529120546121d192918216911683612955565b6000612949600284841861367e565b6109eb90848416613666565b816001600160a01b0316836001600160a01b0316141580156129775750600081115b156121d1576001600160a01b03831615612a05576001600160a01b038316600090815260076020526040812081906129b290612cc785612663565b91509150846001600160a01b03167fdec2bacdd2f05b59de34da9b523dff8be42e5e38e818c82fdb0bae774387a72483836040516129fa929190918252602082015260400190565b60405180910390a250505b6001600160a01b038216156121d1576001600160a01b03821660009081526007602052604081208190612a3b9061265785612663565b91509150836001600160a01b03167fdec2bacdd2f05b59de34da9b523dff8be42e5e38e818c82fdb0bae774387a7248383604051612a83929190918252602082015260400190565b60405180910390a25050505050565b6060833b612af15760405162461bcd60e51b815260206004820152602660248201527f416464726573733a2064656c65676174652063616c6c20746f206e6f6e2d636f6044820152651b9d1c9858dd60d21b6064820152608401610781565b600080856001600160a01b031685604051612b0c9190613500565b600060405180830381855af49150503d8060008114612b47576040519150601f19603f3d011682016040523d82523d6000602084013e612b4c565b606091505b5091509150612b5c828286613041565b9695505050505050565b6001600160a01b038216612bc65760405162461bcd60e51b815260206004820152602160248201527f45524332303a206275726e2066726f6d20746865207a65726f206164647265736044820152607360f81b6064820152608401610781565b612bd2826000836128d8565b6001600160a01b03821660009081526020819052604090205481811015612c465760405162461bcd60e51b815260206004820152602260248201527f45524332303a206275726e20616d6f756e7420657863656564732062616c616e604482015261636560f01b6064820152608401610781565b6001600160a01b0383166000908152602081905260408120838303905560028054849290612c759084906136e5565b90915550506040518281526000906001600160a01b038516907fddf252ad1be2c89b69c2b068fc378daa952ba7f163c4a11628f55a4df523b3ef9060200160405180910390a36121d183600084612908565b60006109eb82846136e5565b6000807f7fffffffffffffffffffffffffffffff5d576e7357a4501ddfe92f46681b20a0831115612d0a5750600090506003612db7565b8460ff16601b14158015612d2257508460ff16601c14155b15612d335750600090506004612db7565b6040805160008082526020820180845289905260ff881692820192909252606081018690526080810185905260019060a0016020604051602081039080840390855afa158015612d87573d6000803e3d6000fd5b5050604051601f1901519150506001600160a01b038116612db057600060019250925050612db7565b9150600090505b94509492505050565b6000816004811115612de257634e487b7160e01b600052602160045260246000fd5b1415612deb5750565b6001816004811115612e0d57634e487b7160e01b600052602160045260246000fd5b1415612e5b5760405162461bcd60e51b815260206004820152601860248201527f45434453413a20696e76616c6964207369676e617475726500000000000000006044820152606401610781565b6002816004811115612e7d57634e487b7160e01b600052602160045260246000fd5b1415612ecb5760405162461bcd60e51b815260206004820152601f60248201527f45434453413a20696e76616c6964207369676e6174757265206c656e677468006044820152606401610781565b6003816004811115612eed57634e487b7160e01b600052602160045260246000fd5b1415612f465760405162461bcd60e51b815260206004820152602260248201527f45434453413a20696e76616c6964207369676e6174757265202773272076616c604482015261756560f01b6064820152608401610781565b6004816004811115612f6857634e487b7160e01b600052602160045260246000fd5b1415610c155760405162461bcd60e51b815260206004820152602260248201527f45434453413a20696e76616c6964207369676e6174757265202776272076616c604482015261756560f01b6064820152608401610781565b60006001600160e01b038211156122b45760405162461bcd60e51b815260206004820152602760248201527f53616665436173743a2076616c756520646f65736e27742066697420696e20326044820152663234206269747360c81b6064820152608401610781565b6060613039848460008561307a565b949350505050565b606083156130505750816109eb565b8251156130605782518084602001fd5b8160405162461bcd60e51b8152600401610781919061357d565b6060824710156130db5760405162461bcd60e51b815260206004820152602660248201527f416464726573733a20696e73756666696369656e742062616c616e636520666f6044820152651c8818d85b1b60d21b6064820152608401610781565b843b6131295760405162461bcd60e51b815260206004820152601d60248201527f416464726573733a2063616c6c20746f206e6f6e2d636f6e74726163740000006044820152606401610781565b600080866001600160a01b031685876040516131459190613500565b60006040518083038185875af1925050503d8060008114613182576040519150601f19603f3d011682016040523d82523d6000602084013e613187565b606091505b5091509150613197828286613041565b979650505050505050565b80356001600160801b03811681146131b957600080fd5b919050565b803560ff811681146131b957600080fd5b6000602082840312156131e0578081fd5b81356109eb8161378e565b600080604083850312156131fd578081fd5b82356132088161378e565b915060208301356132188161378e565b809150509250929050565b600080600060608486031215613237578081fd5b83356132428161378e565b925060208401356132528161378e565b929592945050506040919091013590565b600080600080600080600060e0888a03121561327d578283fd5b87356132888161378e565b965060208801356132988161378e565b955060408801359450606088013593506132b4608089016131be565b925060a0880135915060c0880135905092959891949750929550565b6000806000606084860312156132e4578283fd5b83356132ef8161378e565b92506132fd602085016131a2565b9150604084013561330d816137a3565b809150509250925092565b6000806040838503121561332a578182fd5b82356133358161378e565b946020939093013593505050565b60008060008060008060c0878903121561335b578182fd5b86356133668161378e565b95506020870135945060408701359350613382606088016131be565b92506080870135915060a087013590509295509295509295565b600080604083850312156133ae578182fd5b82356133b98161378e565b9150602083013563ffffffff81168114613218578182fd5b600080602083850312156133e3578182fd5b823567ffffffffffffffff808211156133fa578384fd5b818501915085601f83011261340d578384fd5b81358181111561341b578485fd5b8660208260051b850101111561342f578485fd5b60209290920196919550909350505050565b600060208284031215613452578081fd5b81356109eb816137a3565b60006020828403121561346e578081fd5b81516109eb816137a3565b6000806040838503121561348b578182fd5b613494836131a2565b91506020830135613218816137a3565b6000602082840312156134b5578081fd5b5035919050565b6000602082840312156134cd578081fd5b5051919050565b600081518084526134ec8160208601602086016136fc565b601f01601f19169290920160200192915050565b600082516135128184602087016136fc565b9190910192915050565b6000602080830181845280855180835260408601915060408160051b8701019250838701855b8281101561357057603f1988860301845261355e8583516134d4565b94509285019290850190600101613542565b5092979650505050505050565b6020815260006109eb60208301846134d4565b60208082526010908201526f14185d5cd8589b194e881c185d5cd95960821b604082015260600190565b6020808252818101527f4f776e61626c653a2063616c6c6572206973206e6f7420746865206f776e6572604082015260600190565b6000808335601e19843603018112613605578283fd5b83018035915067ffffffffffffffff82111561361f578283fd5b60200191503681900382131561363457600080fd5b9250929050565b60006001600160801b0380831681851680830382111561365d5761365d613778565b01949350505050565b6000821982111561367957613679613778565b500190565b60008261369957634e487b7160e01b81526012600452602481fd5b500490565b60008160001904831182151516156136b8576136b8613778565b500290565b60006001600160801b03838116908316818110156136dd576136dd613778565b039392505050565b6000828210156136f7576136f7613778565b500390565b60005b838110156137175781810151838201526020016136ff565b83811115611cb45750506000910152565b600181811c9082168061373c57607f821691505b602082108114156124f157634e487b7160e01b600052602260045260246000fd5b600060001982141561377157613771613778565b5060010190565b634e487b7160e01b600052601160045260246000fd5b6001600160a01b0381168114610c1557600080fd5b8015158114610c1557600080fdfe416464726573733a206c6f772d6c6576656c2064656c65676174652063616c6c206661696c6564a264697066735822122029748c73297e427584eed5ed00f5cfc60df0ba9a5058ebf997f554db5d5662cf64736f6c63430008040033",
  "devdoc": {
    "author": "contact@bribe.xyz",
    "kind": "dev",
    "methods": {
      "DOMAIN_SEPARATOR()": {
        "details": "See {IERC20Permit-DOMAIN_SEPARATOR}."
      },
      "accrueDividend()": {
        "details": "accrueDividend"
      },
      "allowance(address,address)": {
        "details": "See {IERC20-allowance}."
      },
      "approve(address,uint256)": {
        "details": "See {IERC20-approve}. Requirements: - `spender` cannot be the zero address."
      },
      "balanceOf(address)": {
        "details": "See {IERC20-balanceOf}."
      },
      "checkpoints(address,uint32)": {
        "details": "Get the `pos`-th checkpoint for `account`."
      },
      "claimUserDividend(bool)": {
        "details": "claimUserDividend",
        "params": {
          "update": "update"
        }
      },
      "decimals()": {
        "details": "Returns the number of decimals used to get its user representation. For example, if `decimals` equals `2`, a balance of `505` tokens should be displayed to a user as `5.05` (`505 / 10 ** 2`). Tokens usually opt for a value of 18, imitating the relationship between Ether and Wei. This is the value {ERC20} uses, unless this function is overridden; NOTE: This information is only used for _display_ purposes: it in no way affects any of the arithmetic of the contract, including {IERC20-balanceOf} and {IERC20-transfer}."
      },
      "decreaseAllowance(address,uint256)": {
        "details": "Atomically decreases the allowance granted to `spender` by the caller. This is an alternative to {approve} that can be used as a mitigation for problems described in {IERC20-approve}. Emits an {Approval} event indicating the updated allowance. Requirements: - `spender` cannot be the zero address. - `spender` must have allowance for the caller of at least `subtractedValue`."
      },
      "delegate(address)": {
        "details": "Delegate votes from the sender to `delegatee`."
      },
      "delegateBySig(address,uint256,uint256,uint8,bytes32,bytes32)": {
        "details": "Delegates votes from signer to `delegatee`"
      },
      "delegates(address)": {
        "details": "Get the address `account` is currently delegating to."
      },
      "dividendOf(address)": {
        "details": "dividendOf",
        "params": {
          "user": "address of user"
        }
      },
      "getPastTotalSupply(uint256)": {
        "details": "Retrieve the `totalSupply` at the end of `blockNumber`. Note, this value is the sum of all balances. It is but NOT the sum of all the delegated votes! Requirements: - `blockNumber` must have been already mined"
      },
      "getPastVotes(address,uint256)": {
        "details": "Retrieve the number of votes for `account` at the end of `blockNumber`. Requirements: - `blockNumber` must have been already mined"
      },
      "getVotes(address)": {
        "details": "Gets the current votes balance for `account`"
      },
      "increaseAllowance(address,uint256)": {
        "details": "Atomically increases the allowance granted to `spender` by the caller. This is an alternative to {approve} that can be used as a mitigation for problems described in {IERC20-approve}. Emits an {Approval} event indicating the updated allowance. Requirements: - `spender` cannot be the zero address."
      },
      "multicall(bytes[])": {
        "details": "Receives and executes a batch of function calls on this contract."
      },
      "name()": {
        "details": "Returns the name of the token."
      },
      "nonces(address)": {
        "details": "See {IERC20Permit-nonces}."
      },
      "numCheckpoints(address)": {
        "details": "Get number of checkpoints for `account`."
      },
      "owner()": {
        "details": "Returns the address of the current owner."
      },
      "paused()": {
        "details": "Returns true if the contract is paused, and false otherwise."
      },
      "permit(address,address,uint256,uint256,uint8,bytes32,bytes32)": {
        "details": "See {IERC20Permit-permit}."
      },
      "renounceOwnership()": {
        "details": "Leaves the contract without owner. It will not be possible to call `onlyOwner` functions anymore. Can only be called by the current owner. NOTE: Renouncing ownership will leave the contract without an owner, thereby removing any functionality that is only available to the owner."
      },
      "rescueFunds(address)": {
        "details": "rescueFunds",
        "params": {
          "asset": "asset to rescue funds off"
        }
      },
      "stake(address,uint128,bool)": {
        "details": "deposit",
        "params": {
          "amount": "Amount user wants do stake",
          "to": "address to send",
          "update": "to distribute pending dividends or not"
        }
      },
      "symbol()": {
        "details": "Returns the symbol of the token, usually a shorter version of the name."
      },
      "totalSupply()": {
        "details": "See {IERC20-totalSupply}."
      },
      "transfer(address,uint256)": {
        "details": "See {IERC20-transfer}. Requirements: - `recipient` cannot be the zero address. - the caller must have a balance of at least `amount`."
      },
      "transferFrom(address,address,uint256)": {
        "details": "See {IERC20-transferFrom}. Emits an {Approval} event indicating the updated allowance. This is not required by the EIP. See the note at the beginning of {ERC20}. Requirements: - `sender` and `recipient` cannot be the zero address. - `sender` must have a balance of at least `amount`. - the caller must have allowance for ``sender``'s tokens of at least `amount`."
      },
      "transferOwnership(address)": {
        "details": "Transfers ownership of the contract to a new account (`newOwner`). Can only be called by the current owner."
      },
      "unstake(uint128,bool)": {
        "details": "unstake",
        "params": {
          "amount": "amount of tokens to unstake",
          "update": "Either to claim pending dividend from fee distribution contract"
        }
      }
    },
    "stateVariables": {
      "MINIMUM_DEPOSIT": {
        "details": "minimum deposit to accrue"
      },
      "SHARE_SCALE": {
        "details": "share scale"
      },
      "feeDistribution": {
        "details": "feeDistribution"
      },
      "pricePerShare": {
        "details": "price peer share"
      },
      "rewardAsset": {
        "details": "reward asset"
      },
      "stakeAsset": {
        "details": "stake asset"
      },
      "totalDividendsReceived": {
        "details": "totalDividendsReceived"
      },
      "totalStaked": {
        "details": "totalStaked"
      },
      "userRewards": {
        "details": "userRewards"
      }
    },
    "title": "Dividends",
    "version": 1
  },
  "userdoc": {
    "kind": "user",
    "methods": {
      "accrueDividend()": {
        "notice": "calls the fee distribution contract to claim pending dividend"
      },
      "pause()": {
        "notice": "pause actions"
      },
      "setFeeDistributor(address)": {
        "notice": "setFeeDistributor"
      },
      "unpause()": {
        "notice": "unpause actions"
      }
    },
    "version": 1
  },
  "storageLayout": {
    "storage": [
      {
        "astId": 1417,
        "contract": "contracts/staking/Dividends.sol:Dividends",
        "label": "_balances",
        "offset": 0,
        "slot": "0",
        "type": "t_mapping(t_address,t_uint256)"
      },
      {
        "astId": 1423,
        "contract": "contracts/staking/Dividends.sol:Dividends",
        "label": "_allowances",
        "offset": 0,
        "slot": "1",
        "type": "t_mapping(t_address,t_mapping(t_address,t_uint256))"
      },
      {
        "astId": 1425,
        "contract": "contracts/staking/Dividends.sol:Dividends",
        "label": "_totalSupply",
        "offset": 0,
        "slot": "2",
        "type": "t_uint256"
      },
      {
        "astId": 1427,
        "contract": "contracts/staking/Dividends.sol:Dividends",
        "label": "_name",
        "offset": 0,
        "slot": "3",
        "type": "t_string_storage"
      },
      {
        "astId": 1429,
        "contract": "contracts/staking/Dividends.sol:Dividends",
        "label": "_symbol",
        "offset": 0,
        "slot": "4",
        "type": "t_string_storage"
      },
      {
        "astId": 2719,
        "contract": "contracts/staking/Dividends.sol:Dividends",
        "label": "_nonces",
        "offset": 0,
        "slot": "5",
        "type": "t_mapping(t_address,t_struct(Counter)3450_storage)"
      },
      {
        "astId": 2048,
        "contract": "contracts/staking/Dividends.sol:Dividends",
        "label": "_delegates",
        "offset": 0,
        "slot": "6",
        "type": "t_mapping(t_address,t_address)"
      },
      {
        "astId": 2054,
        "contract": "contracts/staking/Dividends.sol:Dividends",
        "label": "_checkpoints",
        "offset": 0,
        "slot": "7",
        "type": "t_mapping(t_address,t_array(t_struct(Checkpoint)2039_storage)dyn_storage)"
      },
      {
        "astId": 2058,
        "contract": "contracts/staking/Dividends.sol:Dividends",
        "label": "_totalSupplyCheckpoints",
        "offset": 0,
        "slot": "8",
        "type": "t_array(t_struct(Checkpoint)2039_storage)dyn_storage"
      },
      {
        "astId": 1172,
        "contract": "contracts/staking/Dividends.sol:Dividends",
        "label": "_owner",
        "offset": 0,
        "slot": "9",
        "type": "t_address"
      },
      {
        "astId": 1287,
        "contract": "contracts/staking/Dividends.sol:Dividends",
        "label": "_paused",
        "offset": 20,
        "slot": "9",
        "type": "t_bool"
      },
      {
        "astId": 10897,
        "contract": "contracts/staking/Dividends.sol:Dividends",
        "label": "feeDistribution",
        "offset": 0,
        "slot": "10",
        "type": "t_address"
      },
      {
        "astId": 10900,
        "contract": "contracts/staking/Dividends.sol:Dividends",
        "label": "totalDividendsReceived",
        "offset": 0,
        "slot": "11",
        "type": "t_uint128"
      },
      {
        "astId": 10903,
        "contract": "contracts/staking/Dividends.sol:Dividends",
        "label": "totalStaked",
        "offset": 16,
        "slot": "11",
        "type": "t_uint128"
      },
      {
        "astId": 10906,
        "contract": "contracts/staking/Dividends.sol:Dividends",
        "label": "pricePerShare",
        "offset": 0,
        "slot": "12",
        "type": "t_uint128"
      },
      {
        "astId": 10917,
        "contract": "contracts/staking/Dividends.sol:Dividends",
        "label": "userRewards",
        "offset": 0,
        "slot": "13",
        "type": "t_mapping(t_address,t_struct(UserInfo)10911_storage)"
      }
    ],
    "types": {
      "t_address": {
        "encoding": "inplace",
        "label": "address",
        "numberOfBytes": "20"
      },
      "t_array(t_struct(Checkpoint)2039_storage)dyn_storage": {
        "base": "t_struct(Checkpoint)2039_storage",
        "encoding": "dynamic_array",
        "label": "struct ERC20Votes.Checkpoint[]",
        "numberOfBytes": "32"
      },
      "t_bool": {
        "encoding": "inplace",
        "label": "bool",
        "numberOfBytes": "1"
      },
      "t_mapping(t_address,t_address)": {
        "encoding": "mapping",
        "key": "t_address",
        "label": "mapping(address => address)",
        "numberOfBytes": "32",
        "value": "t_address"
      },
      "t_mapping(t_address,t_array(t_struct(Checkpoint)2039_storage)dyn_storage)": {
        "encoding": "mapping",
        "key": "t_address",
        "label": "mapping(address => struct ERC20Votes.Checkpoint[])",
        "numberOfBytes": "32",
        "value": "t_array(t_struct(Checkpoint)2039_storage)dyn_storage"
      },
      "t_mapping(t_address,t_mapping(t_address,t_uint256))": {
        "encoding": "mapping",
        "key": "t_address",
        "label": "mapping(address => mapping(address => uint256))",
        "numberOfBytes": "32",
        "value": "t_mapping(t_address,t_uint256)"
      },
      "t_mapping(t_address,t_struct(Counter)3450_storage)": {
        "encoding": "mapping",
        "key": "t_address",
        "label": "mapping(address => struct Counters.Counter)",
        "numberOfBytes": "32",
        "value": "t_struct(Counter)3450_storage"
      },
      "t_mapping(t_address,t_struct(UserInfo)10911_storage)": {
        "encoding": "mapping",
        "key": "t_address",
        "label": "mapping(address => struct Dividends.UserInfo)",
        "numberOfBytes": "32",
        "value": "t_struct(UserInfo)10911_storage"
      },
      "t_mapping(t_address,t_uint256)": {
        "encoding": "mapping",
        "key": "t_address",
        "label": "mapping(address => uint256)",
        "numberOfBytes": "32",
        "value": "t_uint256"
      },
      "t_string_storage": {
        "encoding": "bytes",
        "label": "string",
        "numberOfBytes": "32"
      },
      "t_struct(Checkpoint)2039_storage": {
        "encoding": "inplace",
        "label": "struct ERC20Votes.Checkpoint",
        "members": [
          {
            "astId": 2036,
            "contract": "contracts/staking/Dividends.sol:Dividends",
            "label": "fromBlock",
            "offset": 0,
            "slot": "0",
            "type": "t_uint32"
          },
          {
            "astId": 2038,
            "contract": "contracts/staking/Dividends.sol:Dividends",
            "label": "votes",
            "offset": 4,
            "slot": "0",
            "type": "t_uint224"
          }
        ],
        "numberOfBytes": "32"
      },
      "t_struct(Counter)3450_storage": {
        "encoding": "inplace",
        "label": "struct Counters.Counter",
        "members": [
          {
            "astId": 3449,
            "contract": "contracts/staking/Dividends.sol:Dividends",
            "label": "_value",
            "offset": 0,
            "slot": "0",
            "type": "t_uint256"
          }
        ],
        "numberOfBytes": "32"
      },
      "t_struct(UserInfo)10911_storage": {
        "encoding": "inplace",
        "label": "struct Dividends.UserInfo",
        "members": [
          {
            "astId": 10908,
            "contract": "contracts/staking/Dividends.sol:Dividends",
            "label": "pendingReward",
            "offset": 0,
            "slot": "0",
            "type": "t_uint128"
          },
          {
            "astId": 10910,
            "contract": "contracts/staking/Dividends.sol:Dividends",
            "label": "lastPricePerShare",
            "offset": 16,
            "slot": "0",
            "type": "t_uint128"
          }
        ],
        "numberOfBytes": "32"
      },
      "t_uint128": {
        "encoding": "inplace",
        "label": "uint128",
        "numberOfBytes": "16"
      },
      "t_uint224": {
        "encoding": "inplace",
        "label": "uint224",
        "numberOfBytes": "28"
      },
      "t_uint256": {
        "encoding": "inplace",
        "label": "uint256",
        "numberOfBytes": "32"
      },
      "t_uint32": {
        "encoding": "inplace",
        "label": "uint32",
        "numberOfBytes": "4"
      }
    }
  }
}