{
  "address": "0xc5ee52aa399FBd972e4ec6d7DA6A4083124dfc78",
  "abi": [
    {
      "inputs": [
        {
          "internalType": "address",
          "name": "bribeToken_",
          "type": "address"
        },
        {
          "internalType": "address",
          "name": "aaveToken_",
          "type": "address"
        },
        {
          "internalType": "address",
          "name": "stkAaveToken_",
          "type": "address"
        },
        {
          "internalType": "address",
          "name": "bidAsset_",
          "type": "address"
        },
        {
          "internalType": "uint64",
          "name": "withdrawalDelayPeriodInSeconds_",
          "type": "uint64"
        },
        {
          "internalType": "address",
          "name": "aave_",
          "type": "address"
        },
        {
          "internalType": "address",
          "name": "feeReceipient_",
          "type": "address"
        },
        {
          "internalType": "contract IWrapperToken",
          "name": "wrapperAaveToken_",
          "type": "address"
        },
        {
          "internalType": "contract IWrapperToken",
          "name": "wrapperStkAaveToken_",
          "type": "address"
        },
        {
          "components": [
            {
              "internalType": "uint128",
              "name": "rewardAmountDistributedPerSecond",
              "type": "uint128"
            },
            {
              "internalType": "uint64",
              "name": "startTimestamp",
              "type": "uint64"
            },
            {
              "internalType": "uint64",
              "name": "endTimestamp",
              "type": "uint64"
            }
          ],
          "internalType": "struct IAavePool.BribeReward",
          "name": "rewardConfig_",
          "type": "tuple"
        }
      ],
      "stateMutability": "nonpayable",
      "type": "constructor"
    },
    {
      "anonymous": false,
      "inputs": [
        {
          "indexed": true,
          "internalType": "contract IERC20",
          "name": "asset",
          "type": "address"
        },
        {
          "indexed": false,
          "internalType": "uint256",
          "name": "totalAmountAccrued",
          "type": "uint256"
        },
        {
          "indexed": false,
          "internalType": "uint256",
          "name": "timestamp",
          "type": "uint256"
        }
      ],
      "name": "AssetReward",
      "type": "event"
    },
    {
      "anonymous": false,
      "inputs": [
        {
          "indexed": true,
          "internalType": "uint256",
          "name": "proposalId",
          "type": "uint256"
        },
        {
          "indexed": false,
          "internalType": "uint256",
          "name": "timestamp",
          "type": "uint256"
        }
      ],
      "name": "BlockProposalId",
      "type": "event"
    },
    {
      "anonymous": false,
      "inputs": [
        {
          "indexed": true,
          "internalType": "contract IERC20",
          "name": "token",
          "type": "address"
        },
        {
          "indexed": true,
          "internalType": "address",
          "name": "user",
          "type": "address"
        },
        {
          "indexed": false,
          "internalType": "uint256",
          "name": "amount",
          "type": "uint256"
        },
        {
          "indexed": false,
          "internalType": "uint256",
          "name": "timestamp",
          "type": "uint256"
        }
      ],
      "name": "Deposit",
      "type": "event"
    },
    {
      "anonymous": false,
      "inputs": [
        {
          "indexed": true,
          "internalType": "uint256",
          "name": "proposalId",
          "type": "uint256"
        },
        {
          "indexed": true,
          "internalType": "address",
          "name": "prevHighestBidder",
          "type": "address"
        },
        {
          "indexed": true,
          "internalType": "address",
          "name": "highestBidder",
          "type": "address"
        },
        {
          "indexed": false,
          "internalType": "uint256",
          "name": "highestBid",
          "type": "uint256"
        }
      ],
      "name": "HighestBidIncreased",
      "type": "event"
    },
    {
      "anonymous": false,
      "inputs": [
        {
          "indexed": true,
          "internalType": "address",
          "name": "previousOwner",
          "type": "address"
        },
        {
          "indexed": true,
          "internalType": "address",
          "name": "newOwner",
          "type": "address"
        }
      ],
      "name": "OwnershipTransferred",
      "type": "event"
    },
    {
      "anonymous": false,
      "inputs": [
        {
          "indexed": false,
          "internalType": "address",
          "name": "account",
          "type": "address"
        }
      ],
      "name": "Paused",
      "type": "event"
    },
    {
      "anonymous": false,
      "inputs": [
        {
          "indexed": true,
          "internalType": "uint256",
          "name": "proposalId",
          "type": "uint256"
        },
        {
          "indexed": false,
          "internalType": "address",
          "name": "bidder",
          "type": "address"
        },
        {
          "indexed": false,
          "internalType": "uint256",
          "name": "bidAmount",
          "type": "uint256"
        }
      ],
      "name": "Refund",
      "type": "event"
    },
    {
      "anonymous": false,
      "inputs": [
        {
          "indexed": true,
          "internalType": "address",
          "name": "user",
          "type": "address"
        },
        {
          "indexed": false,
          "internalType": "uint256",
          "name": "pendingBidReward",
          "type": "uint256"
        },
        {
          "indexed": false,
          "internalType": "uint256",
          "name": "pendingStkAaveReward",
          "type": "uint256"
        },
        {
          "indexed": false,
          "internalType": "uint256",
          "name": "pendingBribeReward",
          "type": "uint256"
        },
        {
          "indexed": false,
          "internalType": "uint256",
          "name": "timestamp",
          "type": "uint256"
        }
      ],
      "name": "RewardAccrue",
      "type": "event"
    },
    {
      "anonymous": false,
      "inputs": [
        {
          "indexed": true,
          "internalType": "address",
          "name": "user",
          "type": "address"
        },
        {
          "indexed": false,
          "internalType": "uint256",
          "name": "pendingBid",
          "type": "uint256"
        },
        {
          "indexed": false,
          "internalType": "uint256",
          "name": "pendingReward",
          "type": "uint256"
        },
        {
          "indexed": false,
          "internalType": "uint256",
          "name": "pendingBribeReward",
          "type": "uint256"
        },
        {
          "indexed": false,
          "internalType": "uint256",
          "name": "timestamp",
          "type": "uint256"
        }
      ],
      "name": "RewardClaim",
      "type": "event"
    },
    {
      "anonymous": false,
      "inputs": [
        {
          "indexed": false,
          "internalType": "uint256",
          "name": "proposalId",
          "type": "uint256"
        },
        {
          "indexed": false,
          "internalType": "uint256",
          "name": "amount",
          "type": "uint256"
        }
      ],
      "name": "RewardDistributed",
      "type": "event"
    },
    {
      "anonymous": false,
      "inputs": [
        {
          "indexed": false,
          "internalType": "uint256",
          "name": "oldTimestamp",
          "type": "uint256"
        },
        {
          "indexed": false,
          "internalType": "uint256",
          "name": "endTimestamp",
          "type": "uint256"
        }
      ],
      "name": "SetBribeRewardEndTimestamp",
      "type": "event"
    },
    {
      "anonymous": false,
      "inputs": [
        {
          "indexed": false,
          "internalType": "uint256",
          "name": "oldRewardPerSecond",
          "type": "uint256"
        },
        {
          "indexed": false,
          "internalType": "uint256",
          "name": "newRewardPerSecond",
          "type": "uint256"
        }
      ],
      "name": "SetBribeRewardPerSecond",
      "type": "event"
    },
    {
      "anonymous": false,
      "inputs": [
        {
          "indexed": false,
          "internalType": "uint256",
          "name": "oldTimestamp",
          "type": "uint256"
        },
        {
          "indexed": false,
          "internalType": "uint256",
          "name": "endTimestamp",
          "type": "uint256"
        }
      ],
      "name": "SetBribeRewardStartTimestamp",
      "type": "event"
    },
    {
      "anonymous": false,
      "inputs": [
        {
          "indexed": true,
          "internalType": "uint256",
          "name": "proposalId",
          "type": "uint256"
        },
        {
          "indexed": false,
          "internalType": "uint256",
          "name": "timestamp",
          "type": "uint256"
        }
      ],
      "name": "UnblockProposalId",
      "type": "event"
    },
    {
      "anonymous": false,
      "inputs": [
        {
          "indexed": false,
          "internalType": "address",
          "name": "owner",
          "type": "address"
        },
        {
          "indexed": false,
          "internalType": "uint256",
          "name": "amount",
          "type": "uint256"
        }
      ],
      "name": "UnclaimedRewards",
      "type": "event"
    },
    {
      "anonymous": false,
      "inputs": [
        {
          "indexed": false,
          "internalType": "address",
          "name": "account",
          "type": "address"
        }
      ],
      "name": "Unpaused",
      "type": "event"
    },
    {
      "anonymous": false,
      "inputs": [
        {
          "indexed": false,
          "internalType": "uint256",
          "name": "delayperiod",
          "type": "uint256"
        },
        {
          "indexed": false,
          "internalType": "uint256",
          "name": "timestamp",
          "type": "uint256"
        }
      ],
      "name": "UpdateDelayPeriod",
      "type": "event"
    },
    {
      "anonymous": false,
      "inputs": [
        {
          "indexed": false,
          "internalType": "address",
          "name": "sender",
          "type": "address"
        },
        {
          "indexed": false,
          "internalType": "address",
          "name": "receipient",
          "type": "address"
        }
      ],
      "name": "UpdateFeeRecipient",
      "type": "event"
    },
    {
      "anonymous": false,
      "inputs": [
        {
          "indexed": true,
          "internalType": "uint256",
          "name": "proposalId",
          "type": "uint256"
        },
        {
          "indexed": false,
          "internalType": "address",
          "name": "user",
          "type": "address"
        },
        {
          "indexed": false,
          "internalType": "bool",
          "name": "support",
          "type": "bool"
        },
        {
          "indexed": false,
          "internalType": "uint256",
          "name": "timestamp",
          "type": "uint256"
        }
      ],
      "name": "Vote",
      "type": "event"
    },
    {
      "anonymous": false,
      "inputs": [
        {
          "indexed": true,
          "internalType": "contract IERC20",
          "name": "token",
          "type": "address"
        },
        {
          "indexed": true,
          "internalType": "address",
          "name": "user",
          "type": "address"
        },
        {
          "indexed": false,
          "internalType": "uint256",
          "name": "amount",
          "type": "uint256"
        },
        {
          "indexed": false,
          "internalType": "uint256",
          "name": "timestamp",
          "type": "uint256"
        }
      ],
      "name": "Withdraw",
      "type": "event"
    },
    {
      "anonymous": false,
      "inputs": [
        {
          "indexed": true,
          "internalType": "address",
          "name": "sender",
          "type": "address"
        },
        {
          "indexed": false,
          "internalType": "uint256",
          "name": "feesReceived",
          "type": "uint256"
        },
        {
          "indexed": false,
          "internalType": "uint256",
          "name": "timestamp",
          "type": "uint256"
        }
      ],
      "name": "WithdrawFees",
      "type": "event"
    },
    {
      "anonymous": false,
      "inputs": [
        {
          "indexed": false,
          "internalType": "uint256",
          "name": "amount",
          "type": "uint256"
        }
      ],
      "name": "WithdrawRemainingReward",
      "type": "event"
    },
    {
      "inputs": [],
      "name": "aaveGovernance",
      "outputs": [
        {
          "internalType": "address",
          "name": "",
          "type": "address"
        }
      ],
      "stateMutability": "view",
      "type": "function"
    },
    {
      "inputs": [],
      "name": "aaveToken",
      "outputs": [
        {
          "internalType": "contract IERC20",
          "name": "",
          "type": "address"
        }
      ],
      "stateMutability": "view",
      "type": "function"
    },
    {
      "inputs": [],
      "name": "assetIndex",
      "outputs": [
        {
          "internalType": "uint128",
          "name": "rewardIndex",
          "type": "uint128"
        },
        {
          "internalType": "uint128",
          "name": "bribeRewardIndex",
          "type": "uint128"
        },
        {
          "internalType": "uint64",
          "name": "bribeLastRewardTimestamp",
          "type": "uint64"
        },
        {
          "internalType": "uint64",
          "name": "bidId",
          "type": "uint64"
        },
        {
          "internalType": "uint128",
          "name": "bidIndex",
          "type": "uint128"
        },
        {
          "internalType": "uint128",
          "name": "bribeRewardPerShare",
          "type": "uint128"
        },
        {
          "internalType": "uint128",
          "name": "stkAaveRewardPerShare",
          "type": "uint128"
        }
      ],
      "stateMutability": "view",
      "type": "function"
    },
    {
      "inputs": [
        {
          "internalType": "uint256",
          "name": "proposalId",
          "type": "uint256"
        },
        {
          "internalType": "uint128",
          "name": "amount",
          "type": "uint128"
        },
        {
          "internalType": "bool",
          "name": "support",
          "type": "bool"
        }
      ],
      "name": "bid",
      "outputs": [],
      "stateMutability": "nonpayable",
      "type": "function"
    },
    {
      "inputs": [],
      "name": "bidAsset",
      "outputs": [
        {
          "internalType": "contract IERC20",
          "name": "",
          "type": "address"
        }
      ],
      "stateMutability": "view",
      "type": "function"
    },
    {
      "inputs": [
        {
          "internalType": "uint256",
          "name": "",
          "type": "uint256"
        }
      ],
      "name": "bids",
      "outputs": [
        {
          "internalType": "uint256",
          "name": "totalVotes",
          "type": "uint256"
        },
        {
          "internalType": "uint256",
          "name": "proposalStartBlock",
          "type": "uint256"
        },
        {
          "internalType": "uint128",
          "name": "highestBid",
          "type": "uint128"
        },
        {
          "internalType": "uint64",
          "name": "endTime",
          "type": "uint64"
        },
        {
          "internalType": "bool",
          "name": "support",
          "type": "bool"
        },
        {
          "internalType": "bool",
          "name": "voted",
          "type": "bool"
        },
        {
          "internalType": "address",
          "name": "highestBidder",
          "type": "address"
        }
      ],
      "stateMutability": "view",
      "type": "function"
    },
    {
      "inputs": [
        {
          "internalType": "uint256",
          "name": "proposalId",
          "type": "uint256"
        }
      ],
      "name": "blockProposalId",
      "outputs": [],
      "stateMutability": "nonpayable",
      "type": "function"
    },
    {
      "inputs": [
        {
          "internalType": "uint256",
          "name": "",
          "type": "uint256"
        }
      ],
      "name": "blockedProposals",
      "outputs": [
        {
          "internalType": "bool",
          "name": "",
          "type": "bool"
        }
      ],
      "stateMutability": "view",
      "type": "function"
    },
    {
      "inputs": [],
      "name": "bribeRewardConfig",
      "outputs": [
        {
          "internalType": "uint128",
          "name": "rewardAmountDistributedPerSecond",
          "type": "uint128"
        },
        {
          "internalType": "uint64",
          "name": "startTimestamp",
          "type": "uint64"
        },
        {
          "internalType": "uint64",
          "name": "endTimestamp",
          "type": "uint64"
        }
      ],
      "stateMutability": "view",
      "type": "function"
    },
    {
      "inputs": [],
      "name": "bribeToken",
      "outputs": [
        {
          "internalType": "contract IERC20",
          "name": "",
          "type": "address"
        }
      ],
      "stateMutability": "view",
      "type": "function"
    },
    {
      "inputs": [
        {
          "internalType": "address",
          "name": "to",
          "type": "address"
        },
        {
          "internalType": "contract IBribeExecutor",
          "name": "executor",
          "type": "address"
        },
        {
          "internalType": "bytes",
          "name": "data",
          "type": "bytes"
        },
        {
          "internalType": "bool",
          "name": "claim",
          "type": "bool"
        }
      ],
      "name": "claimReward",
      "outputs": [],
      "stateMutability": "nonpayable",
      "type": "function"
    },
    {
      "inputs": [
        {
          "internalType": "contract IERC20",
          "name": "asset",
          "type": "address"
        },
        {
          "internalType": "address",
          "name": "recipient",
          "type": "address"
        },
        {
          "internalType": "uint128",
          "name": "amount",
          "type": "uint128"
        },
        {
          "internalType": "bool",
          "name": "claim",
          "type": "bool"
        }
      ],
      "name": "deposit",
      "outputs": [],
      "stateMutability": "nonpayable",
      "type": "function"
    },
    {
      "inputs": [
        {
          "internalType": "uint256",
          "name": "proposalId",
          "type": "uint256"
        }
      ],
      "name": "distributeRewards",
      "outputs": [],
      "stateMutability": "nonpayable",
      "type": "function"
    },
    {
      "inputs": [],
      "name": "feeReceipient",
      "outputs": [
        {
          "internalType": "address",
          "name": "",
          "type": "address"
        }
      ],
      "stateMutability": "view",
      "type": "function"
    },
    {
      "inputs": [],
      "name": "feesReceived",
      "outputs": [
        {
          "internalType": "uint128",
          "name": "",
          "type": "uint128"
        }
      ],
      "stateMutability": "view",
      "type": "function"
    },
    {
      "inputs": [],
      "name": "getPendingRewardToBeDistributed",
      "outputs": [
        {
          "internalType": "uint256",
          "name": "pendingReward",
          "type": "uint256"
        }
      ],
      "stateMutability": "view",
      "type": "function"
    },
    {
      "inputs": [],
      "name": "lastVoteEndTime",
      "outputs": [
        {
          "internalType": "uint64",
          "name": "",
          "type": "uint64"
        }
      ],
      "stateMutability": "view",
      "type": "function"
    },
    {
      "inputs": [
        {
          "internalType": "bytes[]",
          "name": "data",
          "type": "bytes[]"
        }
      ],
      "name": "multicall",
      "outputs": [
        {
          "internalType": "bytes[]",
          "name": "results",
          "type": "bytes[]"
        }
      ],
      "stateMutability": "nonpayable",
      "type": "function"
    },
    {
      "inputs": [],
      "name": "owner",
      "outputs": [
        {
          "internalType": "address",
          "name": "",
          "type": "address"
        }
      ],
      "stateMutability": "view",
      "type": "function"
    },
    {
      "inputs": [],
      "name": "pause",
      "outputs": [],
      "stateMutability": "nonpayable",
      "type": "function"
    },
    {
      "inputs": [],
      "name": "paused",
      "outputs": [
        {
          "internalType": "bool",
          "name": "",
          "type": "bool"
        }
      ],
      "stateMutability": "view",
      "type": "function"
    },
    {
      "inputs": [
        {
          "internalType": "contract IERC20Permit",
          "name": "token",
          "type": "address"
        },
        {
          "internalType": "address",
          "name": "from",
          "type": "address"
        },
        {
          "internalType": "address",
          "name": "to",
          "type": "address"
        },
        {
          "internalType": "uint256",
          "name": "amount",
          "type": "uint256"
        },
        {
          "internalType": "uint256",
          "name": "deadline",
          "type": "uint256"
        },
        {
          "internalType": "uint8",
          "name": "v",
          "type": "uint8"
        },
        {
          "internalType": "bytes32",
          "name": "r",
          "type": "bytes32"
        },
        {
          "internalType": "bytes32",
          "name": "s",
          "type": "bytes32"
        }
      ],
      "name": "permitToken",
      "outputs": [],
      "stateMutability": "nonpayable",
      "type": "function"
    },
    {
      "inputs": [
        {
          "internalType": "uint256",
          "name": "proposalId",
          "type": "uint256"
        }
      ],
      "name": "refund",
      "outputs": [],
      "stateMutability": "nonpayable",
      "type": "function"
    },
    {
      "inputs": [],
      "name": "renounceOwnership",
      "outputs": [],
      "stateMutability": "nonpayable",
      "type": "function"
    },
    {
      "inputs": [
        {
          "internalType": "address",
          "name": "user",
          "type": "address"
        }
      ],
      "name": "rewardBalanceOf",
      "outputs": [
        {
          "internalType": "uint256",
          "name": "totalPendingBidReward",
          "type": "uint256"
        },
        {
          "internalType": "uint256",
          "name": "totalPendingStkAaveReward",
          "type": "uint256"
        },
        {
          "internalType": "uint256",
          "name": "totalPendingBribeReward",
          "type": "uint256"
        }
      ],
      "stateMutability": "view",
      "type": "function"
    },
    {
      "inputs": [
        {
          "internalType": "uint64",
          "name": "_withdrawalDelayPeriodInSeconds",
          "type": "uint64"
        }
      ],
      "name": "setDelayPeriod",
      "outputs": [],
      "stateMutability": "nonpayable",
      "type": "function"
    },
    {
      "inputs": [
        {
          "internalType": "uint64",
          "name": "endTimestamp",
          "type": "uint64"
        }
      ],
      "name": "setEndTimestamp",
      "outputs": [],
      "stateMutability": "nonpayable",
      "type": "function"
    },
    {
      "inputs": [
        {
          "internalType": "address",
          "name": "newReceipient",
          "type": "address"
        }
      ],
      "name": "setFeeRecipient",
      "outputs": [],
      "stateMutability": "nonpayable",
      "type": "function"
    },
    {
      "inputs": [
        {
          "internalType": "uint128",
          "name": "rewardPerSecond",
          "type": "uint128"
        }
      ],
      "name": "setRewardPerSecond",
      "outputs": [],
      "stateMutability": "nonpayable",
      "type": "function"
    },
    {
      "inputs": [
        {
          "internalType": "uint64",
          "name": "startTimestamp",
          "type": "uint64"
        },
        {
          "internalType": "uint128",
          "name": "rewardPerSecond",
          "type": "uint128"
        }
      ],
      "name": "setStartTimestamp",
      "outputs": [],
      "stateMutability": "nonpayable",
      "type": "function"
    },
    {
      "inputs": [],
      "name": "stkAaveToken",
      "outputs": [
        {
          "internalType": "contract IERC20",
          "name": "",
          "type": "address"
        }
      ],
      "stateMutability": "view",
      "type": "function"
    },
    {
      "inputs": [
        {
          "internalType": "address",
          "name": "newOwner",
          "type": "address"
        }
      ],
      "name": "transferOwnership",
      "outputs": [],
      "stateMutability": "nonpayable",
      "type": "function"
    },
    {
      "inputs": [
        {
          "internalType": "uint256",
          "name": "proposalId",
          "type": "uint256"
        }
      ],
      "name": "unblockProposalId",
      "outputs": [],
      "stateMutability": "nonpayable",
      "type": "function"
    },
    {
      "inputs": [],
      "name": "unpause",
      "outputs": [],
      "stateMutability": "nonpayable",
      "type": "function"
    },
    {
      "inputs": [
        {
          "internalType": "uint256",
          "name": "proposalId",
          "type": "uint256"
        }
      ],
      "name": "vote",
      "outputs": [],
      "stateMutability": "nonpayable",
      "type": "function"
    },
    {
      "inputs": [
        {
          "internalType": "uint256",
          "name": "proposalId",
          "type": "uint256"
        }
      ],
      "name": "votingPower",
      "outputs": [
        {
          "internalType": "uint256",
          "name": "power",
          "type": "uint256"
        }
      ],
      "stateMutability": "view",
      "type": "function"
    },
    {
      "inputs": [
        {
          "internalType": "contract IERC20",
          "name": "asset",
          "type": "address"
        },
        {
          "internalType": "address",
          "name": "recipient",
          "type": "address"
        },
        {
          "internalType": "uint128",
          "name": "amount",
          "type": "uint128"
        },
        {
          "internalType": "bool",
          "name": "claim",
          "type": "bool"
        }
      ],
      "name": "withdraw",
      "outputs": [],
      "stateMutability": "nonpayable",
      "type": "function"
    },
    {
      "inputs": [],
      "name": "withdrawFees",
      "outputs": [
        {
          "internalType": "uint256",
          "name": "feeAmount",
          "type": "uint256"
        }
      ],
      "stateMutability": "nonpayable",
      "type": "function"
    },
    {
      "inputs": [],
      "name": "withdrawRemainingBribeReward",
      "outputs": [],
      "stateMutability": "nonpayable",
      "type": "function"
    },
    {
      "inputs": [],
      "name": "withdrawalDelayPeriodInSeconds",
      "outputs": [
        {
          "internalType": "uint64",
          "name": "",
          "type": "uint64"
        }
      ],
      "stateMutability": "view",
      "type": "function"
    },
    {
      "inputs": [],
      "name": "wrapperAaveToken",
      "outputs": [
        {
          "internalType": "contract IWrapperToken",
          "name": "",
          "type": "address"
        }
      ],
      "stateMutability": "view",
      "type": "function"
    },
    {
      "inputs": [],
      "name": "wrapperStkAaveToken",
      "outputs": [
        {
          "internalType": "contract IWrapperToken",
          "name": "",
          "type": "address"
        }
      ],
      "stateMutability": "view",
      "type": "function"
    }
  ],
  "transactionHash": "0xbae9d322e6183365fcb065e45306a5daee46d76f25e9a83038656b56bb2cbd7d",
  "args": [
    "0xDa45C27BDE907b24195Da5a7556551F54D096B7e",
    "0xb597cd8d3217ea6477232f9217fa70837ff667af",
    "0xf2fbf9a6710afda1c4aab2e922de9d69e0c97fd2",
    "0xd0A1E359811322d97991E03f863a0C30C2cF029C",
    86400,
    "0xc2ebab3bac8f2f5028f5c7317027a41ebfca31d2",
    "0xdaCa08EC94D8e85507A5A69E979412d80698D6eD",
    "0x075543E00c3f9dF675ade5C733E5869E232941C6",
    "0x733Dc59f0669EE1bd777B6EE7b4e3Add9B985bFa",
    [
      0,
      0,
      0
    ]
  ],
  "solcInputHash": "7dfe16edbb4bd5c08d37ca1a310bb2a6",
  "bytecode": "0x6101606040523480156200001257600080fd5b5060405162005cd238038062005cd283398101604081905262000035916200051d565b600080546001600160a01b031916339081178255604051909182917f8be0079c531659141344cd1fd0a4f28419497f9722a3daafe3b4186f6b6457e0908290a3506000805460ff60a01b19169055600180556001600160a01b038a16620000d15760405162461bcd60e51b815260206004820152600b60248201526a212924a122afaa27a5a2a760a91b60448201526064015b60405180910390fd5b6001600160a01b038916620001165760405162461bcd60e51b815260206004820152600a60248201526920a0ab22afaa27a5a2a760b11b6044820152606401620000c8565b6001600160a01b0388166200015e5760405162461bcd60e51b815260206004820152600d60248201526c29aa25a0a0ab22afaa27a5a2a760991b6044820152606401620000c8565b6001600160a01b038516620001a85760405162461bcd60e51b815260206004820152600f60248201526e414156455f474f5645524e414e434560881b6044820152606401620000c8565b6001600160a01b038716620001ec5760405162461bcd60e51b815260206004820152600960248201526810925117d054d4d15560ba1b6044820152606401620000c8565b6000866001600160401b031611620002365760405162461bcd60e51b815260206004820152600c60248201526b111153105657d411549253d160a21b6044820152606401620000c8565b62093a806001600160401b03871610620002845760405162461bcd60e51b815260206004820152600e60248201526d1157d11153105657d411549253d160921b6044820152606401620000c8565b6001600160a01b038416620002cd5760405162461bcd60e51b815260206004820152600e60248201526d11915157d49150d152541251539560921b6044820152606401620000c8565b6001600160a01b038316620003145760405162461bcd60e51b815260206004820152600c60248201526b20a0ab22afaba920a82822a960a11b6044820152606401620000c8565b6001600160a01b0382166200035a5760405162461bcd60e51b815260206004820152600b60248201526a29aa25afaba920a82822a960a91b6044820152606401620000c8565b6001600160601b031960608b811b821660c0528a811b821660e05289811b82166101005286811b821660805288901b1660a052600380546001600160401b038881166001600160401b03199092169190911790915581516008805460208501516040868101518616600160c01b026001600160c01b0392909616600160801b026001600160c01b03199093166001600160801b0390951694909417919091171692909217909155600280546001600160a01b038781166001600160a01b031990921691909117909155905163189acdbd60e31b8152818b1660048201529084169063c4d66de890602401600060405180830381600087803b1580156200045f57600080fd5b505af115801562000474573d6000803e3d6000fd5b505060405163189acdbd60e31b81526001600160a01b038b811660048301528516925063c4d66de89150602401600060405180830381600087803b158015620004bc57600080fd5b505af1158015620004d1573d6000803e3d6000fd5b5050505050606091821b6001600160601b031990811661012052911b1661014052506200069995505050505050565b80516001600160401b03811681146200051857600080fd5b919050565b6000806000806000806000806000808a8c036101808112156200053e578687fd5b8b516200054b8162000680565b60208d0151909b506200055e8162000680565b60408d0151909a50620005718162000680565b60608d0151909950620005848162000680565b97506200059460808d0162000500565b965060a08c0151620005a68162000680565b60c08d0151909650620005b98162000680565b60e08d0151909550620005cc8162000680565b6101008d0151909450620005e08162000680565b9250606061011f1982011215620005f5578182fd5b50604051606081016001600160401b03811182821017156200062557634e487b7160e01b83526041600452602483fd5b6040526101208c01516001600160801b038116811462000643578283fd5b8152620006546101408d0162000500565b6020820152620006686101608d0162000500565b6040820152809150509295989b9194979a5092959850565b6001600160a01b03811681146200069657600080fd5b50565b60805160601c60a05160601c60c05160601c60e05160601c6101005160601c6101205160601c6101405160601c6154956200083d600039600081816104e801528181610aed015281816119a10152818161256a015281816126e1015281816127950152818161372d015281816138ca0152818161394a01528181613f6801526145f30152600081816106ab01528181610a9b01528181611954015281816124cb015281816126740152818161368c01528181613830015261468401526000818161068401528181610acc0152818161198001528181611b020152613ecc01526000818161027d01528181610a5d0152818161191601526144d20152600081816104900152818161152e015281816115bf01528181611ba001528181611c5701528181611d45015261318901526000818161051701528181610e5b015281816110730152818161118a01528181611aa001528181612bd101528181612c6b0152612d030152600081816103890152818161094801528181610c8e015281816116b4015281816117380152818161289a01528181612a8c015261415201526154956000f3fe608060405234801561001057600080fd5b506004361061025e5760003560e01c806372c4a92711610146578063aa53e188116100c3578063d7a32b6f11610087578063d7a32b6f146106e0578063e07b098a146106f3578063e74b981b14610792578063e964b644146107a5578063ea244e8d146107d3578063f2fde38b146107e657600080fd5b8063aa53e18814610634578063ac9650d81461065f578063ca49c6211461067f578063cf59a799146106a6578063cfe3e849146106cd57600080fd5b8063851cb6f41161010a578063851cb6f4146105d75780638890cf2c146105ea5780638da5cb5b146105fd57806390f8c0d91461060e5780639cbe52c81461062157600080fd5b806372c4a9271461057357806378f5d042146105865780637c516e94146105a957806380d50307146105bc5780638456cb59146105cf57600080fd5b80634423c5f1116101df5780635c975abb116101a35780635c975abb146104c557806361b699c4146104e357806364902efd1461050a5780636659c6f0146105125780637066171914610539578063715018a61461056b57600080fd5b80634423c5f1146103ab57806345425b1314610470578063476343ee1461048357806358c93f781461048b57806359974e38146104b257600080fd5b80631db46f13116102265780631db46f1314610343578063278ecde1146103565780633740ebb3146103695780633f4ba83a1461037c57806341b71d491461038457600080fd5b80630121b93f1461026357806306a3fe59146102785780630f4bd1b9146102bc5780631ac03f9d1461031a5780631af8cbdd1461032d575b600080fd5b610276610271366004614f17565b6107f9565b005b61029f7f000000000000000000000000000000000000000000000000000000000000000081565b6040516001600160a01b0390911681526020015b60405180910390f35b6008546102eb906001600160801b038116906001600160401b03600160801b8204811691600160c01b90041683565b604080516001600160801b0390941684526001600160401b0392831660208501529116908201526060016102b3565b610276610328366004614ce2565b610a06565b610335610b1e565b6040519081526020016102b3565b610276610351366004614efd565b610b68565b610276610364366004614f17565b610c4d565b60025461029f906001600160a01b031681565b610276610ed8565b61029f7f000000000000000000000000000000000000000000000000000000000000000081565b61041a6103b9366004614f17565b6009602052600090815260409020805460018201546002830154600390930154919290916001600160801b038216916001600160401b03600160801b8204169160ff600160c01b8304811692600160c81b900416906001600160a01b031687565b6040805197885260208801969096526001600160801b03909416948601949094526001600160401b0390911660608501521515608084015290151560a08301526001600160a01b031660c082015260e0016102b3565b61027661047e366004614f17565b610f0c565b6103356110e0565b61029f7f000000000000000000000000000000000000000000000000000000000000000081565b6102766104c0366004614f17565b6111f4565b600054600160a01b900460ff165b60405190151581526020016102b3565b61029f7f000000000000000000000000000000000000000000000000000000000000000081565b61027661142f565b61029f7f000000000000000000000000000000000000000000000000000000000000000081565b60025461055390600160a01b90046001600160401b031681565b6040516001600160401b0390911681526020016102b3565b61027661161d565b610335610581366004614f17565b611691565b6104d3610594366004614f17565b600a6020526000908152604090205460ff1681565b6102766105b7366004614c5b565b611857565b6102766105ca366004614ce2565b6118e9565b6102766119c8565b6102766105e5366004614b29565b6119fa565b6102766105f8366004614f86565b611dd8565b6000546001600160a01b031661029f565b61027661061c366004614f86565b611f13565b600354610553906001600160401b031681565b600454610647906001600160801b031681565b6040516001600160801b0390911681526020016102b3565b61067261066d366004614bd0565b612071565b6040516102b3919061508c565b61029f7f000000000000000000000000000000000000000000000000000000000000000081565b61029f7f000000000000000000000000000000000000000000000000000000000000000081565b6102766106db366004614f17565b61218f565b6102766106ee366004614fa0565b612263565b600554600654600754610742926001600160801b0380821693600160801b928390048216936001600160401b0380831694600160401b8404909116939281900483169282811692919091041687565b604080516001600160801b03988916815296881660208801526001600160401b039586169087015293909216606085015284166080840152831660a08301529190911660c082015260e0016102b3565b6102766107a0366004614af1565b6123da565b6107b86107b3366004614af1565b6124a3565b604080519384526020840192909252908201526060016102b3565b6102766107e1366004614f47565b61282f565b6102766107f4366004614af1565b612e1e565b600260015414156108255760405162461bcd60e51b815260040161081c9061515f565b60405180910390fd5b60026001819055600082815260096020526040902090810154600160801b90046001600160401b031661088d5760405162461bcd60e51b815260206004820152601060248201526f1253959053125117d41493d413d4d05360821b604482015260640161081c565b600281015442600160801b9091046001600160401b0316106108de5760405162461bcd60e51b815260206004820152600a6024820152694249445f41435449564560b01b604482015260640161081c565b6108e7826111f4565b6108f042612f08565b6002805467ffffffffffffffff60a01b1916600160a01b6001600160401b0393909316929092029190911781558101546040516330962b7d60e11b815260048101849052600160c01b90910460ff16151560248201527f00000000000000000000000000000000000000000000000000000000000000006001600160a01b03169063612c56fa90604401600060405180830381600087803b15801561099457600080fd5b505af11580156109a8573d6000803e3d6000fd5b50505050600281015460408051338152600160c01b90920460ff1615156020830152429082015282907f88d35328232823f54954b6627e9f732371656f6daa40cb1b01b27dc7875a7b479060600160405180910390a2505060018055565b600054600160a01b900460ff1615610a305760405162461bcd60e51b815260040161081c90615100565b60026001541415610a535760405162461bcd60e51b815260040161081c9061515f565b60026001819055507f00000000000000000000000000000000000000000000000000000000000000006001600160a01b0316846001600160a01b03161415610ac757610ac2847f0000000000000000000000000000000000000000000000000000000000000000858585612f70565b610b14565b610b147f00000000000000000000000000000000000000000000000000000000000000007f0000000000000000000000000000000000000000000000000000000000000000858585612f70565b5050600180555050565b600354600090610b3d90600160401b90046001600160801b031661309a565b600354610b5a9190600160401b90046001600160801b031661534a565b6001600160801b0316905090565b6000546001600160a01b03163314610b925760405162461bcd60e51b815260040161081c9061512a565b6000816001600160801b031611610be35760405162461bcd60e51b81526020600482015260156024820152741253959053125117d49155d0549117d4d150d3d391605a1b604482015260640161081c565b610beb6130bb565b600880546001600160801b038381166001600160801b031983168117909355604080519190921680825260208201939093527f88c886456f9fb83852bd63da7496a1416f039cfc58a66a3a953df01961c30c1591015b60405180910390a15050565b60026001541415610c705760405162461bcd60e51b815260040161081c9061515f565b6002600155604051639080936f60e01b8152600481018290526000907f00000000000000000000000000000000000000000000000000000000000000006001600160a01b031690639080936f9060240160206040518083038186803b158015610cd857600080fd5b505afa158015610cec573d6000803e3d6000fd5b505050506040513d601f19601f82011682018060405250810190610d109190614d3b565b90506001816007811115610d3457634e487b7160e01b600052602160045260246000fd5b14610d735760405162461bcd60e51b815260206004820152600f60248201526e50524f504f53414c5f41435449564560881b604482015260640161081c565b6000828152600960205260409020600281015460038201546001600160801b03909116906001600160a01b0316811580610db857506002830154600160c81b900460ff165b15610dc65750505050610ed1565b600085815260096020526040812081815560018101919091556002810180546001600160d01b0319169055600390810180546001600160a01b03191690558054839190600890610e27908490600160401b90046001600160801b031661534a565b92506101000a8154816001600160801b0302191690836001600160801b03160217905550610e9281836001600160801b03167f00000000000000000000000000000000000000000000000000000000000000006001600160a01b03166131da9092919063ffffffff16565b847f21e12a7cad0da5928167e1084ea4d5fdf8d9af66657a2543a9ac76a0ca0814778284604051610ec492919061501a565b60405180910390a2505050505b5060018055565b6000546001600160a01b03163314610f025760405162461bcd60e51b815260040161081c9061512a565b610f0a613242565b565b6000546001600160a01b03163314610f365760405162461bcd60e51b815260040161081c9061512a565b6000818152600a602052604090205460ff1615610f895760405162461bcd60e51b815260206004820152601160248201527050524f504f53414c5f494e41435449564560781b604482015260640161081c565b6000818152600a60209081526040808320805460ff191660011790556009909152902060028101546001600160801b03168015801590610fd557506002820154600160c81b900460ff16155b156110a15780600360088282829054906101000a90046001600160801b0316610ffe919061534a565b82546101009290920a6001600160801b03818102199093169183160217909155600384810154600087815260096020526040812081815560018101919091556002810180546001600160d01b031916905590910180546001600160a01b03191690556001600160a01b03908116925061109f917f000000000000000000000000000000000000000000000000000000000000000090911690839085166131da565b505b827f6cb49e738781b079130cccea5ff5dc5176bae2bf150bbe8a6eca2bf3b03c7c7e426040516110d391815260200190565b60405180910390a2505050565b6000600260015414156111055760405162461bcd60e51b815260040161081c9061515f565b60026001819055546001600160a01b031633146111565760405162461bcd60e51b815260206004820152600f60248201526e13d3931657d49150d1525412515395608a1b604482015260640161081c565b506004546001600160801b031680156111b357600480546001600160801b03191690556002546111b3906001600160a01b037f000000000000000000000000000000000000000000000000000000000000000081169116836131da565b6040805182815242602082015230917f9cc800ba322ea82ab3e1e911dd4ccd84129687c4952f4ee2f937e3ac68755131910160405180910390a26001805590565b60008181526009602052604090206002810154600160801b90046001600160401b031642116112525760405162461bcd60e51b815260206004820152600a6024820152694249445f41435449564560b01b604482015260640161081c565b6002810154600160c81b900460ff161561126a575050565b60028101546001600160801b031660006112838261309a565b905081600360088282829054906101000a90046001600160801b03166112a9919061534a565b92506101000a8154816001600160801b0302191690836001600160801b0316021790555080826112d9919061534a565b600680546010906112fb908490600160801b90046001600160801b031661525d565b92506101000a8154816001600160801b0302191690836001600160801b0316021790555080600460008282829054906101000a90046001600160801b0316611343919061525d565b82546001600160801b039182166101009390930a92830291909202199091161790555060028301805460ff60c81b1916600160c81b179055600680546001600160401b03600160401b9182900481166000908152600b602052604090208790558254600193926008926113ba9286929004166152a0565b92506101000a8154816001600160401b0302191690836001600160401b031602179055507feaf3d57629d9b1ce95715ccd98d6f5bf48023be1d5a06e09f64ab7f6d8be01d584836040516114219291909182526001600160801b0316602082015260400190565b60405180910390a150505050565b6000546001600160a01b031633146114595760405162461bcd60e51b815260040161081c9061512a565b600854600160c01b90046001600160401b03166114b05760405162461bcd60e51b81526020600482015260156024820152740494e56414c49445f454e445f54494d455354414d5605c1b604482015260640161081c565b6008546114d090600160c01b90046001600160401b031662278d006152a0565b6001600160401b031642116115165760405162461bcd60e51b815260206004820152600c60248201526b11d49050d157d411549253d160a21b604482015260640161081c565b6040516370a0823160e01b81523060048201526000907f00000000000000000000000000000000000000000000000000000000000000006001600160a01b0316906370a082319060240160206040518083038186803b15801561157857600080fd5b505afa15801561158c573d6000803e3d6000fd5b505050506040513d601f19601f820116820180604052508101906115b09190614f2f565b90506115e66001600160a01b037f00000000000000000000000000000000000000000000000000000000000000001630836131da565b6040518181527f2ec51804f14c75c95fcf34c20b2b70f178026362b349bd9457addfdaedf89b35906020015b60405180910390a150565b6000546001600160a01b031633146116475760405162461bcd60e51b815260040161081c9061512a565b600080546040516001600160a01b03909116907f8be0079c531659141344cd1fd0a4f28419497f9722a3daafe3b4186f6b6457e0908390a3600080546001600160a01b0319169055565b604051633656de2160e01b81526004810182905260009081906001600160a01b037f00000000000000000000000000000000000000000000000000000000000000001690633656de219060240160006040518083038186803b1580156116f657600080fd5b505afa15801561170a573d6000803e3d6000fd5b505050506040513d6000823e601f3d908101601f191682016040526117329190810190614d5a565b905060007f00000000000000000000000000000000000000000000000000000000000000006001600160a01b03166306be3e8e6040518163ffffffff1660e01b815260040160206040518083038186803b15801561178f57600080fd5b505afa1580156117a3573d6000803e3d6000fd5b505050506040513d601f19601f820116820180604052508101906117c79190614b0d565b61010083015160405163eaeded5f60e01b815230600482015260248101919091529091506001600160a01b0382169063eaeded5f9060440160206040518083038186803b15801561181757600080fd5b505afa15801561182b573d6000803e3d6000fd5b505050506040513d601f19601f8201168201806040525081019061184f9190614f2f565b949350505050565b60405163d505accf60e01b81526001600160a01b0388811660048301528781166024830152604482018790526064820186905260ff8516608483015260a4820184905260c4820183905289169063d505accf9060e401600060405180830381600087803b1580156118c757600080fd5b505af11580156118db573d6000803e3d6000fd5b505050505050505050505050565b6002600154141561190c5760405162461bcd60e51b815260040161081c9061515f565b60026001819055507f00000000000000000000000000000000000000000000000000000000000000006001600160a01b0316846001600160a01b0316141561197b57610ac2847f00000000000000000000000000000000000000000000000000000000000000008585856132df565b610b147f00000000000000000000000000000000000000000000000000000000000000007f00000000000000000000000000000000000000000000000000000000000000008585856132df565b6000546001600160a01b031633146119f25760405162461bcd60e51b815260040161081c9061512a565b610f0a61357c565b600054600160a01b900460ff1615611a245760405162461bcd60e51b815260040161081c90615100565b60026001541415611a475760405162461bcd60e51b815260040161081c9061515f565b6002600155611a5633826135e1565b336000908152600c6020526040812060018101805460028301549390915590916001600160801b0380831692600160801b9004811691168215611ad057611ad06001600160a01b037f0000000000000000000000000000000000000000000000000000000000000000168a6001600160801b0386166131da565b6000826001600160801b0316118015611ae65750845b15611b6c576040516309a99b4f60e41b81526001600160a01b037f00000000000000000000000000000000000000000000000000000000000000001690639a99b4f090611b39908c90869060040161501a565b600060405180830381600087803b158015611b5357600080fd5b505af1158015611b67573d6000803e3d6000fd5b505050505b6000816001600160801b0316118015611c2457506040516370a0823160e01b81523060048201526001600160801b038216907f00000000000000000000000000000000000000000000000000000000000000006001600160a01b0316906370a082319060240160206040518083038186803b158015611bea57600080fd5b505afa158015611bfe573d6000803e3d6000fd5b505050506040513d601f19601f82011682018060405250810190611c229190614f2f565b115b15611d75576002840180546001600160801b03191690556001600160a01b03881615611cf057611c876001600160a01b037f000000000000000000000000000000000000000000000000000000000000000016896001600160801b0384166131da565b604051635b0e93fb60e11b81526001600160a01b0389169063b61d27f690611cb990339085908c908c9060040161503c565b600060405180830381600087803b158015611cd357600080fd5b505af1158015611ce7573d6000803e3d6000fd5b50505050611d75565b6001600160a01b038916611d385760405162461bcd60e51b815260206004820152600f60248201526e494e56414c49445f4144445245535360881b604482015260640161081c565b611d756001600160a01b037f0000000000000000000000000000000000000000000000000000000000000000168a6001600160801b0384166131da565b604080516001600160801b0385811682528481166020830152831681830152426060820152905133917f7c4da656e28f0a8f5d75a575562f78c9cd1e53d18ae7969b6f1aaa08068dc02a919081900360800190a250506001805550505050505050565b6000546001600160a01b03163314611e025760405162461bcd60e51b815260040161081c9061512a565b42816001600160401b031611611e525760405162461bcd60e51b81526020600482015260156024820152740494e56414c49445f454e445f54494d455354414d5605c1b604482015260640161081c565b6008546001600160401b03600160801b909104811690821611611ea75760405162461bcd60e51b815260206004820152600d60248201526c04c4f575f54494d455354414d5609c1b604482015260640161081c565b611eaf6130bb565b600880546001600160401b03838116600160c01b8181026001600160c01b0385161790945560408051949093049091168084526020840191909152917f707364861ce6479a4fda7eba324edf3165d78795c9da37ec10d32dd3b76e073c9101610c41565b6000546001600160a01b03163314611f3d5760405162461bcd60e51b815260040161081c9061512a565b6000816001600160401b031611611f875760405162461bcd60e51b815260206004820152600e60248201526d1253959053125117d411549253d160921b604482015260640161081c565b6003546001600160401b0382811691161415611fd35760405162461bcd60e51b815260206004820152600b60248201526a14d0535157d411549253d160aa1b604482015260640161081c565b62093a806001600160401b038216111561201d5760405162461bcd60e51b815260206004820152600b60248201526a08ab0868a8a88a6be9a82b60ab1b604482015260640161081c565b6003805467ffffffffffffffff19166001600160401b038316908117909155604080519182524260208301527f081b3986ddf9086c5c13b9e86cc7ac5a5123c4aa6afdac51dd693830a8c8909f9101611612565b6060816001600160401b0381111561209957634e487b7160e01b600052604160045260246000fd5b6040519080825280602002602001820160405280156120cc57816020015b60608152602001906001900390816120b75790505b50905060005b828110156121885761214a308585848181106120fe57634e487b7160e01b600052603260045260246000fd5b90506020028101906121109190615196565b8080601f016020809104026020016040519081016040528093929190818152602001838380828437600092019190915250613b5092505050565b82828151811061216a57634e487b7160e01b600052603260045260246000fd5b60200260200101819052508080612180906153b5565b9150506120d2565b5092915050565b6000546001600160a01b031633146121b95760405162461bcd60e51b815260040161081c9061512a565b6000818152600a602052604090205460ff16151560011461220e5760405162461bcd60e51b815260206004820152600f60248201526e50524f504f53414c5f41435449564560881b604482015260640161081c565b6000818152600a602052604090819020805460ff191690555181907f704dd40b4d0470c32de723bd93c06b26f94c2aebb2399a3af39bb4396c608231906122589042815260200190565b60405180910390a250565b6000546001600160a01b0316331461228d5760405162461bcd60e51b815260040161081c9061512a565b42826001600160401b0316116122e55760405162461bcd60e51b815260206004820152601760248201527f494e56414c49445f53544152545f54494d455354414d50000000000000000000604482015260640161081c565b600854600160c01b90046001600160401b031615612353576008546001600160401b03600160c01b9091048116908316106123535760405162461bcd60e51b815260206004820152600e60248201526d0484947485f54494d455354414d560941b604482015260640161081c565b61235b6130bb565b600880546001600160401b03848116600160801b90810267ffffffffffffffff60801b198416179093559190041661239282610b68565b604080516001600160401b038084168252851660208201527f2a699a05f818eebe5783e8b61b0624f31e4573e53d1a62849784fc05067e1f3d910160405180910390a1505050565b6000546001600160a01b031633146124045760405162461bcd60e51b815260040161081c9061512a565b6001600160a01b03811661244e5760405162461bcd60e51b81526020600482015260116024820152701253959053125117d49150d25412515395607a1b604482015260640161081c565b600280546001600160a01b0319166001600160a01b0383169081179091556040805130815260208101929092527fb03f92c8c7ac39710f28b146f754650929499d599a66d51423cbd7f3ceb9aee39101611612565b6040516370a0823160e01b81526001600160a01b0382811660048301526000918291829182917f000000000000000000000000000000000000000000000000000000000000000016906370a082319060240160206040518083038186803b15801561250d57600080fd5b505afa158015612521573d6000803e3d6000fd5b505050506040513d601f19601f820116820180604052508101906125459190614f2f565b6040516370a0823160e01b81526001600160a01b0387811660048301529192506000917f000000000000000000000000000000000000000000000000000000000000000016906370a082319060240160206040518083038186803b1580156125ac57600080fd5b505afa1580156125c0573d6000803e3d6000fd5b505050506040513d601f19601f820116820180604052508101906125e49190614f2f565b905060006126336125f58385615288565b6001600160a01b0389166000908152600c6020526040902054600160801b90046001600160801b031661262e612629613b7c565b613c9e565b613ce2565b600654909150600090600160401b90046001600160401b031684156126b9576001600160a01b0389166000908152600c60205260409020600201546126ac907f0000000000000000000000000000000000000000000000000000000000000000908b90600160801b90046001600160801b031684613d5c565b6126b69083615288565b91505b831561271f576001600160a01b0389166000908152600c6020526040902060030154612712907f0000000000000000000000000000000000000000000000000000000000000000908b906001600160801b031684613d5c565b61271c9083615288565b91505b6001600160a01b0389166000908152600c602052604090206001015461274f9083906001600160801b0316615288565b6001600160a01b038a166000908152600c60205260409020549098506127b9908a906001600160801b0316612793612785613ea3565b6001600160801b0316613f5d565b7f0000000000000000000000000000000000000000000000000000000000000000614035565b6001600160a01b038a166000908152600c60205260409020600101546127ef9190600160801b90046001600160801b0316615288565b6001600160a01b038a166000908152600c60205260409020600201549097506128229084906001600160801b0316615288565b9799969850505050505050565b600054600160a01b900460ff16156128595760405162461bcd60e51b815260040161081c90615100565b6002600154141561287c5760405162461bcd60e51b815260040161081c9061515f565b6002600155604051639080936f60e01b8152600481018490526000907f00000000000000000000000000000000000000000000000000000000000000006001600160a01b031690639080936f9060240160206040518083038186803b1580156128e457600080fd5b505afa1580156128f8573d6000803e3d6000fd5b505050506040513d601f19601f8201168201806040525081019061291c9190614d3b565b9050600081600781111561294057634e487b7160e01b600052602160045260246000fd5b148061296b5750600281600781111561296957634e487b7160e01b600052602160045260246000fd5b145b6129b05760405162461bcd60e51b8152602060048201526016602482015275494e56414c49445f50524f504f53414c5f535441544560501b604482015260640161081c565b6000848152600a602052604090205460ff1615612a025760405162461bcd60e51b815260206004820152601060248201526f141493d413d4d05317d09313d0d2d15160821b604482015260640161081c565b60008481526009602052604081206003810154600282015491926001600160a01b03909116916001600160801b03169082612b1e576000612a428961412f565b60028601805467ffffffffffffffff60801b1916600160801b6001600160401b038416021790559050612a7489611691565b8555604051633656de2160e01b8152600481018a90527f00000000000000000000000000000000000000000000000000000000000000006001600160a01b031690633656de219060240160006040518083038186803b158015612ad657600080fd5b505afa158015612aea573d6000803e3d6000fd5b505050506040513d6000823e601f3d908101601f19168201604052612b129190810190614d5a565b61010001516001860155505b600284015442600160801b9091046001600160401b031611612b6e5760405162461bcd60e51b815260206004820152600960248201526810925117d15391115160ba1b604482015260640161081c565b8354612bb35760405162461bcd60e51b815260206004820152601460248201527324a72b20a624a22fab27aa24a723afa827aba2a960611b604482015260640161081c565b6001600160a01b038316331415612c1357612c026001600160a01b037f00000000000000000000000000000000000000000000000000000000000000001633306001600160801b038b1661420f565b612c0c878361525d565b9050612d3d565b816001600160801b0316876001600160801b031611612c5e5760405162461bcd60e51b81526020600482015260076024820152661313d5d7d0925160ca1b604482015260640161081c565b612c9c6001600160a01b037f00000000000000000000000000000000000000000000000000000000000000001633306001600160801b038b1661420f565b6001600160a01b03831615612d3a5781600360088282829054906101000a90046001600160801b0316612ccf919061534a565b92506101000a8154816001600160801b0302191690836001600160801b03160217905550612d3a83836001600160801b03167f00000000000000000000000000000000000000000000000000000000000000006001600160a01b03166131da9092919063ffffffff16565b50855b86600360088282829054906101000a90046001600160801b0316612d61919061525d565b82546101009290920a6001600160801b0381810219909316918316021790915560028601805491841678ff0000000000000000ffffffffffffffffffffffffffffffff199092168217600160c01b8a151502179055600386018054336001600160a01b0319909116811790915560405191825291506001600160a01b038516908a907f5733d8f05640d4bcd37dca4f99394d85a091e75f20c8e7af67a7ecbd6879418f9060200160405180910390a4505060018055505050505050565b6000546001600160a01b03163314612e485760405162461bcd60e51b815260040161081c9061512a565b6001600160a01b038116612ead5760405162461bcd60e51b815260206004820152602660248201527f4f776e61626c653a206e6577206f776e657220697320746865207a65726f206160448201526564647265737360d01b606482015260840161081c565b600080546040516001600160a01b03808516939216917f8be0079c531659141344cd1fd0a4f28419497f9722a3daafe3b4186f6b6457e091a3600080546001600160a01b0319166001600160a01b0392909216919091179055565b6000600160401b8210612f6c5760405162461bcd60e51b815260206004820152602660248201527f53616665436173743a2076616c756520646f65736e27742066697420696e203660448201526534206269747360d01b606482015260840161081c565b5090565b6000826001600160801b031611612fba5760405162461bcd60e51b815260206004820152600e60248201526d1253959053125117d05353d5539560921b604482015260640161081c565b612fc483826135e1565b612fe26001600160a01b03861633306001600160801b03861661420f565b6040516340c10f1960e01b81526001600160a01b038516906340c10f1990613010908690869060040161501a565b600060405180830381600087803b15801561302a57600080fd5b505af115801561303e573d6000803e3d6000fd5b5050604080516001600160801b03861681524260208201526001600160a01b038088169450891692507fdcbc1c05240f31ff3ad067ef1ee35ce4997762752e3a095284754544f4c709d791015b60405180910390a35050505050565b60006127106130ab610640846152fc565b6130b591906152c2565b92915050565b60006130c5613b7c565b90506130d042612f08565b6006805467ffffffffffffffff19166001600160401b03929092169190911790556130fa8161424d565b6005805460109061311c908490600160801b90046001600160801b031661525d565b92506101000a8154816001600160801b0302191690836001600160801b0316021790555061315161314c82613c9e565b61424d565b600780546001600160801b0319166001600160801b0392831617905560055460408051600160801b90920490921681524260208201527f00000000000000000000000000000000000000000000000000000000000000006001600160a01b0316917fa253ef031194b54a666afb2d71ff898e1d80c2580df7a7313ae699a0c8c7f8269101612258565b6040516001600160a01b03831660248201526044810182905261323d90849063a9059cbb60e01b906064015b60408051601f198184030181529190526020810180516001600160e01b03166001600160e01b0319909316929092179091526142b2565b505050565b600054600160a01b900460ff166132925760405162461bcd60e51b815260206004820152601460248201527314185d5cd8589b194e881b9bdd081c185d5cd95960621b604482015260640161081c565b6000805460ff60a01b191690557f5db9ee0a495bf2e6ff9c91a7834c1ba4fdd244a5e8aa4e537bd38aeae4b073aa335b6040516001600160a01b03909116815260200160405180910390a1565b6000826001600160801b0316116133295760405162461bcd60e51b815260206004820152600e60248201526d1253959053125117d05353d5539560921b604482015260640161081c565b6040516370a0823160e01b81523360048201526001600160801b038316906001600160a01b038616906370a082319060240160206040518083038186803b15801561337357600080fd5b505afa158015613387573d6000803e3d6000fd5b505050506040513d601f19601f820116820180604052508101906133ab9190614f2f565b10156133eb5760405162461bcd60e51b815260206004820152600f60248201526e494e56414c49445f42414c414e434560881b604482015260640161081c565b60035460025461340e916001600160401b0390811691600160a01b9004166152a0565b6001600160401b031642101561345c5760405162461bcd60e51b81526020600482015260136024820152721050d512559157d11153105657d411549253d1606a1b604482015260640161081c565b600354600160401b90046001600160801b0316156134a95760405162461bcd60e51b815260206004820152600a6024820152691050d512559157d0925160b21b604482015260640161081c565b6134b333826135e1565b604051632770a7eb60e21b81526001600160a01b03851690639dc29fac906134e1903390869060040161501a565b600060405180830381600087803b1580156134fb57600080fd5b505af115801561350f573d6000803e3d6000fd5b50613531925050506001600160a01b038616846001600160801b0385166131da565b604080516001600160801b038416815242602082015233916001600160a01b038816917ff341246adaac6f497bc2a656f546ab9e182111d630394f0c57c710a59a2cb567910161308b565b600054600160a01b900460ff16156135a65760405162461bcd60e51b815260040161081c90615100565b6000805460ff60a01b1916600160a01b1790557f62e78cea01bee320cd4e420270b5ea74000d11b0c9f74754ebdbfc544b05a2586132c23390565b6001600160a01b0382166136295760405162461bcd60e51b815260206004820152600f60248201526e494e56414c49445f4144445245535360881b604482015260640161081c565b6001600160a01b0382166000908152600c60209081526040808320815160a0810183528481529283018490529082018390526060820183905260808201929092526040516370a0823160e01b81526001600160a01b0385811660048301526000917f0000000000000000000000000000000000000000000000000000000000000000909116906370a082319060240160206040518083038186803b1580156136d057600080fd5b505afa1580156136e4573d6000803e3d6000fd5b505050506040513d601f19601f820116820180604052508101906137089190614f2f565b6040516370a0823160e01b81526001600160a01b0387811660048301529192506000917f000000000000000000000000000000000000000000000000000000000000000016906370a082319060240160206040518083038186803b15801561376f57600080fd5b505afa158015613783573d6000803e3d6000fd5b505050506040513d601f19601f820116820180604052508101906137a79190614f2f565b905060006137b58284615288565b90506137bf6130bb565b80156137ef5784546007546137e99183916001600160801b03600160801b90920482169116613ce2565b60408501525b821561387c576006546001600160a01b0388166000908152600c6020526040812060020154909161385b916001600160801b03600160801b928390048116927f0000000000000000000000000000000000000000000000000000000000000000928d9291900416614384565b6060870191909152855190915081908690613877908390615288565b905250505b851561388a5761388a614429565b8115613975576006546001600160a01b0388166000908152600c602052604081206003015490916138f2916001600160801b03600160801b9092048216917f0000000000000000000000000000000000000000000000000000000000000000918c9116614384565b608087019190915285519091508190869061390e908390615288565b9052506001600160a01b0388166000908152600c602052604090205460075461396e918a916001600160801b0391821691600160801b909104167f0000000000000000000000000000000000000000000000000000000000000000614035565b6020860152505b613982846040015161424d565b60028601805460009061399f9084906001600160801b031661525d565b92506101000a8154816001600160801b0302191690836001600160801b031602179055506139d0846000015161424d565b6001860180546000906139ed9084906001600160801b031661525d565b92506101000a8154816001600160801b0302191690836001600160801b03160217905550613a1e846020015161424d565b600186018054601090613a42908490600160801b90046001600160801b031661525d565b82546101009290920a6001600160801b03818102199093169183160217909155600780548854600160801b9182900484166001600160801b031990911681178a559154909216909102178655506060840151613a9d9061424d565b6002860180546001600160801b03928316600160801b0292169190911790556080840151613aca9061424d565b6003860180546001600160801b0319166001600160801b039290921691909117905583516020808601516040808801518151948552928401919091528201524260608201526001600160a01b038816907f0cdedfdc8c391a923073f93f23839bfdf9a1cbfdc45a67596cc365658175e5b79060800160405180910390a250505050505050565b6060613b7583836040518060600160405280602781526020016154396027913961451b565b9392505050565b600854600090600160801b90046001600160401b03161580613bb0575060085442600160801b9091046001600160401b0316115b15613bbb5750600090565b6006546008546000916001600160401b03908116600160801b9092041611613bee576006546001600160401b0316613c02565b600854600160801b90046001600160401b03165b600854909150600090600160c01b90046001600160401b0316613c26575042613c5c565b600854600160c01b90046001600160401b03164211613c455742613c59565b600854600160c01b90046001600160401b03165b90505b816001600160401b0316811115613c99576008546001600160801b0316613c8c6001600160401b03841683615372565b613c96919061532b565b92505b505090565b6000808215613ccb57613caf6145ef565b613cbe64e8d4a510008561532b565b613cc891906152e8565b90505b600754613b759082906001600160801b0316615288565b60008084118015613cf35750600082115b15613b75576000613d1764e8d4a51000613d0d868861532b565b61314c91906152e8565b9050613d4a6001600160801b03821664e8d4a51000613d36868961532b565b613d4091906152e8565b61314c9190615372565b6001600160801b031695945050505050565b6000825b82811015613e9a576000818152600b6020908152604080832054808452600990925290912060028101546001600160801b03168015801590613dad57506002820154600160c81b900460ff165b15613e8457600182015460405163dcb807df60e01b81526001600160a01b038a8116600483015260248201929092526000918b169063dcb807df9060440160206040518083038186803b158015613e0357600080fd5b505afa158015613e17573d6000803e3d6000fd5b505050506040513d601f19601f82011682018060405250810190613e3b9190614f2f565b90508015613e82578254613e4e8361309a565b613e58908461534a565b613e6b906001600160801b03168361532b565b613e7591906152e8565b613e7f9087615288565b95505b505b5050508080613e92906153b5565b915050613d60565b50949350505050565b6005546040516346df7f7160e11b81523060048201526000916001600160801b031690613f4e907f00000000000000000000000000000000000000000000000000000000000000006001600160a01b031690638dbefee29060240160206040518083038186803b158015613f1657600080fd5b505afa158015613f2a573d6000803e3d6000fd5b505050506040513d601f19601f8201168201806040525081019061314c9190614f2f565b613f58919061534a565b905090565b6000808215614013577f00000000000000000000000000000000000000000000000000000000000000006001600160a01b03166318160ddd6040518163ffffffff1660e01b815260040160206040518083038186803b158015613fbf57600080fd5b505afa158015613fd3573d6000803e3d6000fd5b505050506040513d601f19601f82011682018060405250810190613ff79190614f2f565b61400664e8d4a510008561532b565b61401091906152e8565b90505b600754613b759061314c908390600160801b90046001600160801b0316615288565b6040516370a0823160e01b81526001600160a01b03858116600483015260009182918416906370a082319060240160206040518083038186803b15801561407b57600080fd5b505afa15801561408f573d6000803e3d6000fd5b505050506040513d601f19601f820116820180604052508101906140b39190614f2f565b90506000811180156140ce57506000846001600160801b0316115b15613e9a5760006140f164e8d4a51000613d0d6001600160801b0389168561532b565b905061411b816001600160801b031664e8d4a51000876001600160801b031685613d36919061532b565b6001600160801b0316979650505050505050565b604051633656de2160e01b81526004810182905260009081906001600160a01b037f00000000000000000000000000000000000000000000000000000000000000001690633656de219060240160006040518083038186803b15801561419457600080fd5b505afa1580156141a8573d6000803e3d6000fd5b505050506040513d6000823e601f3d908101601f191682016040526141d09190810190614d5a565b9050610e10600d6001600160401b0316438361012001516141f19190615372565b6141fb919061532b565b6142059042615288565b613b759190615372565b6040516001600160a01b03808516602483015283166044820152606481018290526142479085906323b872dd60e01b90608401613206565b50505050565b6000600160801b8210612f6c5760405162461bcd60e51b815260206004820152602760248201527f53616665436173743a2076616c756520646f65736e27742066697420696e20316044820152663238206269747360c81b606482015260840161081c565b6000614307826040518060400160405280602081526020017f5361666545524332303a206c6f772d6c6576656c2063616c6c206661696c6564815250856001600160a01b031661471d9092919063ffffffff16565b80519091501561323d57808060200190518101906143259190614c3f565b61323d5760405162461bcd60e51b815260206004820152602a60248201527f5361666545524332303a204552433230206f7065726174696f6e20646964206e6044820152691bdd081cdd58d8d9595960b21b606482015260840161081c565b6000806001600160801b0386166143a057506000905080614420565b600654600160401b90046001600160401b03166001600160801b0384168114156143cf57915060009050614420565b600a6143e46001600160801b03861683615372565b1115614403576143f5600a8561525d565b6001600160801b0316614405565b805b925061441c8686866001600160801b031686613d5c565b9150505b94509492505050565b6000614433613ea3565b90506001600160801b0381166144465750565b600580548291906000906144649084906001600160801b031661525d565b92506101000a8154816001600160801b0302191690836001600160801b0316021790555061449a816001600160801b0316613f5d565b600780546001600160801b03928316600160801b02908316179055600554604080519190921681524260208201526001600160a01b037f000000000000000000000000000000000000000000000000000000000000000016917fa253ef031194b54a666afb2d71ff898e1d80c2580df7a7313ae699a0c8c7f8269101612258565b6060833b61457a5760405162461bcd60e51b815260206004820152602660248201527f416464726573733a2064656c65676174652063616c6c20746f206e6f6e2d636f6044820152651b9d1c9858dd60d21b606482015260840161081c565b600080856001600160a01b0316856040516145959190614ffe565b600060405180830381855af49150503d80600081146145d0576040519150601f19603f3d011682016040523d82523d6000602084013e6145d5565b606091505b50915091506145e582828661472c565b9695505050505050565b60007f00000000000000000000000000000000000000000000000000000000000000006001600160a01b03166318160ddd6040518163ffffffff1660e01b815260040160206040518083038186803b15801561464a57600080fd5b505afa15801561465e573d6000803e3d6000fd5b505050506040513d601f19601f820116820180604052508101906146829190614f2f565b7f00000000000000000000000000000000000000000000000000000000000000006001600160a01b03166318160ddd6040518163ffffffff1660e01b815260040160206040518083038186803b1580156146db57600080fd5b505afa1580156146ef573d6000803e3d6000fd5b505050506040513d601f19601f820116820180604052508101906147139190614f2f565b613f589190615288565b606061184f8484600085614765565b6060831561473b575081613b75565b82511561474b5782518084602001fd5b8160405162461bcd60e51b815260040161081c91906150ed565b6060824710156147c65760405162461bcd60e51b815260206004820152602660248201527f416464726573733a20696e73756666696369656e742062616c616e636520666f6044820152651c8818d85b1b60d21b606482015260840161081c565b843b6148145760405162461bcd60e51b815260206004820152601d60248201527f416464726573733a2063616c6c20746f206e6f6e2d636f6e7472616374000000604482015260640161081c565b600080866001600160a01b031685876040516148309190614ffe565b60006040518083038185875af1925050503d806000811461486d576040519150601f19603f3d011682016040523d82523d6000602084013e614872565b606091505b509150915061488282828661472c565b979650505050505050565b60006001600160401b038311156148a6576148a66153fc565b6148b9601f8401601f191660200161520a565b90508281528383830111156148cd57600080fd5b613b75836020830184615389565b80516148e681615412565b919050565b600082601f8301126148fb578081fd5b8151602061491061490b8361523a565b61520a565b80838252828201915082860187848660051b890101111561492f578586fd5b855b8581101561495657815161494481615412565b84529284019290840190600101614931565b5090979650505050505050565b600082601f830112614973578081fd5b8151602061498361490b8361523a565b80838252828201915082860187848660051b89010111156149a2578586fd5b855b858110156149565781516149b78161542a565b845292840192908401906001016149a4565b600082601f8301126149d9578081fd5b815160206149e961490b8361523a565b80838252828201915082860187848660051b8901011115614a08578586fd5b855b858110156149565781516001600160401b03811115614a27578788fd5b8801603f81018a13614a37578788fd5b614a488a878301516040840161488d565b8552509284019290840190600101614a0a565b600082601f830112614a6b578081fd5b81516020614a7b61490b8361523a565b80838252828201915082860187848660051b8901011115614a9a578586fd5b855b8581101561495657815184529284019290840190600101614a9c565b80516148e68161542a565b80356001600160801b03811681146148e657600080fd5b80356001600160401b03811681146148e657600080fd5b600060208284031215614b02578081fd5b8135613b7581615412565b600060208284031215614b1e578081fd5b8151613b7581615412565b600080600080600060808688031215614b40578081fd5b8535614b4b81615412565b94506020860135614b5b81615412565b935060408601356001600160401b0380821115614b76578283fd5b818801915088601f830112614b89578283fd5b813581811115614b97578384fd5b896020828501011115614ba8578384fd5b6020830195508094505050506060860135614bc28161542a565b809150509295509295909350565b60008060208385031215614be2578182fd5b82356001600160401b0380821115614bf8578384fd5b818501915085601f830112614c0b578384fd5b813581811115614c19578485fd5b8660208260051b8501011115614c2d578485fd5b60209290920196919550909350505050565b600060208284031215614c50578081fd5b8151613b758161542a565b600080600080600080600080610100898b031215614c77578586fd5b8835614c8281615412565b97506020890135614c9281615412565b96506040890135614ca281615412565b9550606089013594506080890135935060a089013560ff81168114614cc5578384fd5b979a969950949793969295929450505060c08201359160e0013590565b60008060008060808587031215614cf7578182fd5b8435614d0281615412565b93506020850135614d1281615412565b9250614d2060408601614ac3565b91506060850135614d308161542a565b939692955090935050565b600060208284031215614d4c578081fd5b815160088110613b75578182fd5b600060208284031215614d6b578081fd5b81516001600160401b0380821115614d81578283fd5b908301906102208286031215614d95578283fd5b614d9d6151e1565b82518152614dad602084016148db565b6020820152614dbe604084016148db565b6040820152606083015182811115614dd4578485fd5b614de0878286016148eb565b606083015250608083015182811115614df7578485fd5b614e0387828601614a5b565b60808301525060a083015182811115614e1a578485fd5b614e26878286016149c9565b60a08301525060c083015182811115614e3d578485fd5b614e49878286016149c9565b60c08301525060e083015182811115614e60578485fd5b614e6c87828601614963565b60e083015250610100838101519082015261012080840151908201526101408084015190820152610160808401519082015261018080840151908201526101a09150614eb9828401614ab8565b828201526101c09150614ecd828401614ab8565b828201526101e09150614ee18284016148db565b9181019190915261020091820151918101919091529392505050565b600060208284031215614f0e578081fd5b613b7582614ac3565b600060208284031215614f28578081fd5b5035919050565b600060208284031215614f40578081fd5b5051919050565b600080600060608486031215614f5b578081fd5b83359250614f6b60208501614ac3565b91506040840135614f7b8161542a565b809150509250925092565b600060208284031215614f97578081fd5b613b7582614ada565b60008060408385031215614fb2578182fd5b614fbb83614ada565b9150614fc960208401614ac3565b90509250929050565b60008151808452614fea816020860160208601615389565b601f01601f19169290920160200192915050565b60008251615010818460208701615389565b9190910192915050565b6001600160a01b039290921682526001600160801b0316602082015260400190565b6001600160a01b03851681526001600160801b03841660208201526060604082018190528101829052818360808301376000818301608090810191909152601f909201601f191601019392505050565b6000602080830181845280855180835260408601915060408160051b8701019250838701855b828110156150e057603f198886030184526150ce858351614fd2565b945092850192908501906001016150b2565b5092979650505050505050565b602081526000613b756020830184614fd2565b60208082526010908201526f14185d5cd8589b194e881c185d5cd95960821b604082015260600190565b6020808252818101527f4f776e61626c653a2063616c6c6572206973206e6f7420746865206f776e6572604082015260600190565b6020808252601f908201527f5265656e7472616e637947756172643a207265656e7472616e742063616c6c00604082015260600190565b6000808335601e198436030181126151ac578283fd5b8301803591506001600160401b038211156151c5578283fd5b6020019150368190038213156151da57600080fd5b9250929050565b60405161022081016001600160401b0381118282101715615204576152046153fc565b60405290565b604051601f8201601f191681016001600160401b0381118282101715615232576152326153fc565b604052919050565b60006001600160401b03821115615253576152536153fc565b5060051b60200190565b60006001600160801b0380831681851680830382111561527f5761527f6153d0565b01949350505050565b6000821982111561529b5761529b6153d0565b500190565b60006001600160401b0380831681851680830382111561527f5761527f6153d0565b60006001600160801b03808416806152dc576152dc6153e6565b92169190910492915050565b6000826152f7576152f76153e6565b500490565b60006001600160801b0380831681851681830481118215151615615322576153226153d0565b02949350505050565b6000816000190483118215151615615345576153456153d0565b500290565b60006001600160801b038381169083168181101561536a5761536a6153d0565b039392505050565b600082821015615384576153846153d0565b500390565b60005b838110156153a457818101518382015260200161538c565b838111156142475750506000910152565b60006000198214156153c9576153c96153d0565b5060010190565b634e487b7160e01b600052601160045260246000fd5b634e487b7160e01b600052601260045260246000fd5b634e487b7160e01b600052604160045260246000fd5b6001600160a01b038116811461542757600080fd5b50565b801515811461542757600080fdfe416464726573733a206c6f772d6c6576656c2064656c65676174652063616c6c206661696c6564a26469706673582212202ec0819fbd3dbb29dc5ec30e03b66b2b2b2fdbf7ff105fa6c2508a44c8026a6c64736f6c63430008040033",
  "devdoc": {
    "author": "contact@bribe.xyz",
    "kind": "dev",
    "methods": {
      "bid(uint256,uint128,bool)": {
        "details": "place a bid after check AaveGovernance status",
        "params": {
          "amount": "amount of bid assets",
          "proposalId": "proposal id",
          "support": "the suport for the proposal"
        }
      },
      "blockProposalId(uint256)": {
        "details": "block a proposalId from used in the pool",
        "params": {
          "proposalId": "proposalId"
        }
      },
      "claimReward(address,address,bytes,bool)": {
        "details": "claimReward for msg.sender",
        "params": {
          "claim": "claim stk aave rewards from Aave",
          "data": "data to call the executor contract",
          "executor": "An external contract to call with",
          "to": "address to send the rewards to"
        }
      },
      "deposit(address,address,uint128,bool)": {
        "params": {
          "amount": "amount of tokens to deposit",
          "asset": "either Aave or stkAave",
          "claim": "claim stk aave rewards from Aave",
          "recipient": "address to mint the receipt tokens"
        }
      },
      "distributeRewards(uint256)": {
        "details": "distribute rewards for the proposal",
        "params": {
          "proposalId": "id of proposal to distribute rewards fo"
        }
      },
      "getPendingRewardToBeDistributed()": {
        "details": "getPendingRewardToBeDistributed returns the pending reward to be distributed minus fees"
      },
      "multicall(bytes[])": {
        "details": "Receives and executes a batch of function calls on this contract."
      },
      "owner()": {
        "details": "Returns the address of the current owner."
      },
      "paused()": {
        "details": "Returns true if the contract is paused, and false otherwise."
      },
      "refund(uint256)": {
        "details": "refund bid for a cancelled proposal ONLY if it was not voted on",
        "params": {
          "proposalId": "proposal id"
        }
      },
      "renounceOwnership()": {
        "details": "Leaves the contract without owner. It will not be possible to call `onlyOwner` functions anymore. Can only be called by the current owner. NOTE: Renouncing ownership will leave the contract without an owner, thereby removing any functionality that is only available to the owner."
      },
      "rewardBalanceOf(address)": {
        "details": "get reward amount for user specified by `user`",
        "params": {
          "user": "address of user to check balance of"
        }
      },
      "setDelayPeriod(uint64)": {
        "details": "update delay period by owner",
        "params": {
          "_withdrawalDelayPeriodInSeconds": "new delay period"
        }
      },
      "setEndTimestamp(uint64)": {
        "params": {
          "endTimestamp": "end of bribe rewards"
        }
      },
      "setFeeRecipient(address)": {
        "params": {
          "newReceipient": "new fee receipeitn"
        }
      },
      "setRewardPerSecond(uint128)": {
        "params": {
          "rewardPerSecond": "amount of rewards to distribute per second"
        }
      },
      "setStartTimestamp(uint64,uint128)": {
        "params": {
          "rewardPerSecond": "reward to distribute per second",
          "startTimestamp": "when to start distributing rewards"
        }
      },
      "transferOwnership(address)": {
        "details": "Transfers ownership of the contract to a new account (`newOwner`). Can only be called by the current owner."
      },
      "unblockProposalId(uint256)": {
        "details": "unblock a proposalId from used in the pool",
        "params": {
          "proposalId": "proposalId"
        }
      },
      "vote(uint256)": {
        "details": "vote to `proposalId` with `support` option",
        "params": {
          "proposalId": "proposal id"
        }
      },
      "votingPower(uint256)": {
        "details": "returns the pool voting power for a proposal",
        "params": {
          "proposalId": "proposalId to fetch pool voting power"
        }
      },
      "withdraw(address,address,uint128,bool)": {
        "params": {
          "amount": "amount of tokens to deposit",
          "asset": "either Aave or stkAave",
          "claim": "claim stk aave rewards from Aave",
          "recipient": "address to mint the receipt tokens"
        }
      },
      "withdrawFees()": {
        "details": "withdrawFees withdraw fees Enables ONLY the fee receipient to withdraw the pool accrued fees"
      },
      "withdrawRemainingBribeReward()": {
        "details": "there is a 30 days window period after endTimestamp where a user can claim rewards before it can be reclaimed by Bribe"
      }
    },
    "stateVariables": {
      "FEE_PERCENTAGE": {
        "details": "fee percentage share is 16%"
      },
      "FEE_PRECISION": {
        "details": "fee precision"
      },
      "MAX_CLAIM_ITERATIONS": {
        "details": "maximum claim iterations"
      },
      "MAX_WITHDRAW_DELAY_SECONDS": {
        "details": "maximum withdraw delay in seconds; 1 week in seconds"
      },
      "SHARE_SCALE": {
        "details": "share scale"
      },
      "aaveGovernance": {
        "details": "aave governance"
      },
      "aaveToken": {
        "details": "aave token"
      },
      "assetIndex": {
        "details": "asset index"
      },
      "bidAsset": {
        "details": "bidders will bid with bidAsset e.g. usdc"
      },
      "bidIdToProposalId": {
        "details": "proposal id to bid information"
      },
      "bids": {
        "details": "bid id to bid information"
      },
      "blockedProposals": {
        "details": "blocked proposals"
      },
      "bribeRewardConfig": {
        "details": "bribre reward config"
      },
      "bribeToken": {
        "details": "bribe token"
      },
      "feeReceipient": {
        "details": "feeReceipient address to send received fees to"
      },
      "feesReceived": {
        "details": "fees received"
      },
      "lastVoteEndTime": {
        "details": "last vote timestamp"
      },
      "pendingRewardToBeDistributed": {
        "details": "pending rewards to be distributed"
      },
      "secondPerBlock": {
        "details": "seconds per block"
      },
      "stkAaveToken": {
        "details": "stkAave token"
      },
      "users": {
        "details": "user info"
      },
      "withdrawalDelayPeriodInSeconds": {
        "details": "delay period for withdrawal after vote ends"
      },
      "wrapperAaveToken": {
        "details": "aave wrapper token"
      },
      "wrapperStkAaveToken": {
        "details": "stkAave wrapper token"
      }
    },
    "title": "AavePool",
    "version": 1
  },
  "userdoc": {
    "events": {
      "WithdrawFees(address,uint256,uint256)": {
        "notice": "fee distribution interface to be implemented by all pools so that they conform to the fee Distributor implementation"
      }
    },
    "kind": "user",
    "methods": {
      "deposit(address,address,uint128,bool)": {
        "notice": "deposit"
      },
      "distributeRewards(uint256)": {
        "notice": "called in children's vote function (after bidding process ended)"
      },
      "pause()": {
        "notice": "pause pool actions"
      },
      "permitToken(address,address,address,uint256,uint256,uint8,bytes32,bytes32)": {
        "notice": "Call wrapper that performs `ERC20.permit` on `token`."
      },
      "setEndTimestamp(uint64)": {
        "notice": "setEndTimestamp"
      },
      "setFeeRecipient(address)": {
        "notice": "setFeeRecipient"
      },
      "setRewardPerSecond(uint128)": {
        "notice": "setEndTimestamp"
      },
      "setStartTimestamp(uint64,uint128)": {
        "notice": "setStartTimestamp"
      },
      "unpause()": {
        "notice": "unpause pool actions"
      },
      "withdraw(address,address,uint128,bool)": {
        "notice": "withdraw"
      },
      "withdrawRemainingBribeReward()": {
        "notice": "withdrawRemainingBribeReward"
      }
    },
    "version": 1
  },
  "storageLayout": {
    "storage": [
      {
        "astId": 899,
        "contract": "contracts/AavePool.sol:AavePool",
        "label": "_owner",
        "offset": 0,
        "slot": "0",
        "type": "t_address"
      },
      {
        "astId": 1019,
        "contract": "contracts/AavePool.sol:AavePool",
        "label": "_paused",
        "offset": 20,
        "slot": "0",
        "type": "t_bool"
      },
      {
        "astId": 1104,
        "contract": "contracts/AavePool.sol:AavePool",
        "label": "_status",
        "offset": 0,
        "slot": "1",
        "type": "t_uint256"
      },
      {
        "astId": 3289,
        "contract": "contracts/AavePool.sol:AavePool",
        "label": "feeReceipient",
        "offset": 0,
        "slot": "2",
        "type": "t_address"
      },
      {
        "astId": 3292,
        "contract": "contracts/AavePool.sol:AavePool",
        "label": "lastVoteEndTime",
        "offset": 20,
        "slot": "2",
        "type": "t_uint64"
      },
      {
        "astId": 3295,
        "contract": "contracts/AavePool.sol:AavePool",
        "label": "withdrawalDelayPeriodInSeconds",
        "offset": 0,
        "slot": "3",
        "type": "t_uint64"
      },
      {
        "astId": 3298,
        "contract": "contracts/AavePool.sol:AavePool",
        "label": "pendingRewardToBeDistributed",
        "offset": 8,
        "slot": "3",
        "type": "t_uint128"
      },
      {
        "astId": 3301,
        "contract": "contracts/AavePool.sol:AavePool",
        "label": "feesReceived",
        "offset": 0,
        "slot": "4",
        "type": "t_uint128"
      },
      {
        "astId": 3305,
        "contract": "contracts/AavePool.sol:AavePool",
        "label": "assetIndex",
        "offset": 0,
        "slot": "5",
        "type": "t_struct(AssetIndex)7605_storage"
      },
      {
        "astId": 3309,
        "contract": "contracts/AavePool.sol:AavePool",
        "label": "bribeRewardConfig",
        "offset": 0,
        "slot": "8",
        "type": "t_struct(BribeReward)7612_storage"
      },
      {
        "astId": 3315,
        "contract": "contracts/AavePool.sol:AavePool",
        "label": "bids",
        "offset": 0,
        "slot": "9",
        "type": "t_mapping(t_uint256,t_struct(Bid)7642_storage)"
      },
      {
        "astId": 3320,
        "contract": "contracts/AavePool.sol:AavePool",
        "label": "blockedProposals",
        "offset": 0,
        "slot": "10",
        "type": "t_mapping(t_uint256,t_bool)"
      },
      {
        "astId": 3325,
        "contract": "contracts/AavePool.sol:AavePool",
        "label": "bidIdToProposalId",
        "offset": 0,
        "slot": "11",
        "type": "t_mapping(t_uint256,t_uint256)"
      },
      {
        "astId": 3331,
        "contract": "contracts/AavePool.sol:AavePool",
        "label": "users",
        "offset": 0,
        "slot": "12",
        "type": "t_mapping(t_address,t_struct(UserInfo)7627_storage)"
      }
    ],
    "types": {
      "t_address": {
        "encoding": "inplace",
        "label": "address",
        "numberOfBytes": "20"
      },
      "t_bool": {
        "encoding": "inplace",
        "label": "bool",
        "numberOfBytes": "1"
      },
      "t_mapping(t_address,t_struct(UserInfo)7627_storage)": {
        "encoding": "mapping",
        "key": "t_address",
        "label": "mapping(address => struct IAavePool.UserInfo)",
        "numberOfBytes": "32",
        "value": "t_struct(UserInfo)7627_storage"
      },
      "t_mapping(t_uint256,t_bool)": {
        "encoding": "mapping",
        "key": "t_uint256",
        "label": "mapping(uint256 => bool)",
        "numberOfBytes": "32",
        "value": "t_bool"
      },
      "t_mapping(t_uint256,t_struct(Bid)7642_storage)": {
        "encoding": "mapping",
        "key": "t_uint256",
        "label": "mapping(uint256 => struct IAavePool.Bid)",
        "numberOfBytes": "32",
        "value": "t_struct(Bid)7642_storage"
      },
      "t_mapping(t_uint256,t_uint256)": {
        "encoding": "mapping",
        "key": "t_uint256",
        "label": "mapping(uint256 => uint256)",
        "numberOfBytes": "32",
        "value": "t_uint256"
      },
      "t_struct(AssetIndex)7605_storage": {
        "encoding": "inplace",
        "label": "struct IAavePool.AssetIndex",
        "members": [
          {
            "astId": 7592,
            "contract": "contracts/AavePool.sol:AavePool",
            "label": "rewardIndex",
            "offset": 0,
            "slot": "0",
            "type": "t_uint128"
          },
          {
            "astId": 7594,
            "contract": "contracts/AavePool.sol:AavePool",
            "label": "bribeRewardIndex",
            "offset": 16,
            "slot": "0",
            "type": "t_uint128"
          },
          {
            "astId": 7596,
            "contract": "contracts/AavePool.sol:AavePool",
            "label": "bribeLastRewardTimestamp",
            "offset": 0,
            "slot": "1",
            "type": "t_uint64"
          },
          {
            "astId": 7598,
            "contract": "contracts/AavePool.sol:AavePool",
            "label": "bidId",
            "offset": 8,
            "slot": "1",
            "type": "t_uint64"
          },
          {
            "astId": 7600,
            "contract": "contracts/AavePool.sol:AavePool",
            "label": "bidIndex",
            "offset": 16,
            "slot": "1",
            "type": "t_uint128"
          },
          {
            "astId": 7602,
            "contract": "contracts/AavePool.sol:AavePool",
            "label": "bribeRewardPerShare",
            "offset": 0,
            "slot": "2",
            "type": "t_uint128"
          },
          {
            "astId": 7604,
            "contract": "contracts/AavePool.sol:AavePool",
            "label": "stkAaveRewardPerShare",
            "offset": 16,
            "slot": "2",
            "type": "t_uint128"
          }
        ],
        "numberOfBytes": "96"
      },
      "t_struct(Bid)7642_storage": {
        "encoding": "inplace",
        "label": "struct IAavePool.Bid",
        "members": [
          {
            "astId": 7629,
            "contract": "contracts/AavePool.sol:AavePool",
            "label": "totalVotes",
            "offset": 0,
            "slot": "0",
            "type": "t_uint256"
          },
          {
            "astId": 7631,
            "contract": "contracts/AavePool.sol:AavePool",
            "label": "proposalStartBlock",
            "offset": 0,
            "slot": "1",
            "type": "t_uint256"
          },
          {
            "astId": 7633,
            "contract": "contracts/AavePool.sol:AavePool",
            "label": "highestBid",
            "offset": 0,
            "slot": "2",
            "type": "t_uint128"
          },
          {
            "astId": 7635,
            "contract": "contracts/AavePool.sol:AavePool",
            "label": "endTime",
            "offset": 16,
            "slot": "2",
            "type": "t_uint64"
          },
          {
            "astId": 7637,
            "contract": "contracts/AavePool.sol:AavePool",
            "label": "support",
            "offset": 24,
            "slot": "2",
            "type": "t_bool"
          },
          {
            "astId": 7639,
            "contract": "contracts/AavePool.sol:AavePool",
            "label": "voted",
            "offset": 25,
            "slot": "2",
            "type": "t_bool"
          },
          {
            "astId": 7641,
            "contract": "contracts/AavePool.sol:AavePool",
            "label": "highestBidder",
            "offset": 0,
            "slot": "3",
            "type": "t_address"
          }
        ],
        "numberOfBytes": "128"
      },
      "t_struct(BribeReward)7612_storage": {
        "encoding": "inplace",
        "label": "struct IAavePool.BribeReward",
        "members": [
          {
            "astId": 7607,
            "contract": "contracts/AavePool.sol:AavePool",
            "label": "rewardAmountDistributedPerSecond",
            "offset": 0,
            "slot": "0",
            "type": "t_uint128"
          },
          {
            "astId": 7609,
            "contract": "contracts/AavePool.sol:AavePool",
            "label": "startTimestamp",
            "offset": 16,
            "slot": "0",
            "type": "t_uint64"
          },
          {
            "astId": 7611,
            "contract": "contracts/AavePool.sol:AavePool",
            "label": "endTimestamp",
            "offset": 24,
            "slot": "0",
            "type": "t_uint64"
          }
        ],
        "numberOfBytes": "32"
      },
      "t_struct(UserInfo)7627_storage": {
        "encoding": "inplace",
        "label": "struct IAavePool.UserInfo",
        "members": [
          {
            "astId": 7614,
            "contract": "contracts/AavePool.sol:AavePool",
            "label": "stkAaveLastRewardPerShare",
            "offset": 0,
            "slot": "0",
            "type": "t_uint128"
          },
          {
            "astId": 7616,
            "contract": "contracts/AavePool.sol:AavePool",
            "label": "bribeLastRewardPerShare",
            "offset": 16,
            "slot": "0",
            "type": "t_uint128"
          },
          {
            "astId": 7618,
            "contract": "contracts/AavePool.sol:AavePool",
            "label": "totalPendingBidReward",
            "offset": 0,
            "slot": "1",
            "type": "t_uint128"
          },
          {
            "astId": 7620,
            "contract": "contracts/AavePool.sol:AavePool",
            "label": "totalPendingStkAaveReward",
            "offset": 16,
            "slot": "1",
            "type": "t_uint128"
          },
          {
            "astId": 7622,
            "contract": "contracts/AavePool.sol:AavePool",
            "label": "totalPendingBribeReward",
            "offset": 0,
            "slot": "2",
            "type": "t_uint128"
          },
          {
            "astId": 7624,
            "contract": "contracts/AavePool.sol:AavePool",
            "label": "aaveLastBidId",
            "offset": 16,
            "slot": "2",
            "type": "t_uint128"
          },
          {
            "astId": 7626,
            "contract": "contracts/AavePool.sol:AavePool",
            "label": "stkAaveLastBidId",
            "offset": 0,
            "slot": "3",
            "type": "t_uint128"
          }
        ],
        "numberOfBytes": "128"
      },
      "t_uint128": {
        "encoding": "inplace",
        "label": "uint128",
        "numberOfBytes": "16"
      },
      "t_uint256": {
        "encoding": "inplace",
        "label": "uint256",
        "numberOfBytes": "32"
      },
      "t_uint64": {
        "encoding": "inplace",
        "label": "uint64",
        "numberOfBytes": "8"
      }
    }
  }
}