{
  "address": "0x5f86BB4b92EED38C1B92b337098328287B37c74e",
  "abi": [
    {
      "inputs": [
        {
          "internalType": "contract IERC20",
          "name": "bribeToken_",
          "type": "address"
        },
        {
          "internalType": "contract IDividends",
          "name": "staking_",
          "type": "address"
        }
      ],
      "stateMutability": "nonpayable",
      "type": "constructor"
    },
    {
      "inputs": [],
      "name": "bribeToken",
      "outputs": [
        {
          "internalType": "contract IERC20",
          "name": "",
          "type": "address"
        }
      ],
      "stateMutability": "view",
      "type": "function"
    },
    {
      "inputs": [
        {
          "internalType": "address",
          "name": "user",
          "type": "address"
        },
        {
          "internalType": "uint256",
          "name": "amount",
          "type": "uint256"
        },
        {
          "internalType": "bytes",
          "name": "",
          "type": "bytes"
        }
      ],
      "name": "execute",
      "outputs": [],
      "stateMutability": "nonpayable",
      "type": "function"
    },
    {
      "inputs": [],
      "name": "staking",
      "outputs": [
        {
          "internalType": "contract IDividends",
          "name": "",
          "type": "address"
        }
      ],
      "stateMutability": "view",
      "type": "function"
    }
  ],
  "transactionHash": "0xdfc6887742334fa104d6e08fcc92063b3165ecf00081b0c1eae40ae10f0653fc",
  "args": [
    "0xDa45C27BDE907b24195Da5a7556551F54D096B7e",
    "0x98259229BeA61a50C15a646ADfDFdb16932a5D5b"
  ],
  "solcInputHash": "7dfe16edbb4bd5c08d37ca1a310bb2a6",
  "bytecode": "0x60c060405234801561001057600080fd5b506040516107ac3803806107ac83398101604081905261002f9161004e565b6001600160601b0319606091821b811660805291901b1660a05261009f565b60008060408385031215610060578182fd5b825161006b81610087565b602084015190925061007c81610087565b809150509250929050565b6001600160a01b038116811461009c57600080fd5b50565b60805160601c60a05160601c6106d16100db60003960008181608e015260d2015260008181604b0152818160f4015261015701526106d16000f3fe608060405234801561001057600080fd5b50600436106100415760003560e01c80634cf088d91461004657806358c93f7814610089578063b61d27f6146100b0575b600080fd5b61006d7f000000000000000000000000000000000000000000000000000000000000000081565b6040516001600160a01b03909116815260200160405180910390f35b61006d7f000000000000000000000000000000000000000000000000000000000000000081565b6100c36100be366004610555565b6100c5565b005b6101196001600160a01b037f0000000000000000000000000000000000000000000000000000000000000000167f0000000000000000000000000000000000000000000000000000000000000000856101b9565b60405163010c6bf960e41b81526001600160a01b0385811660048301526fffffffffffffffffffffffffffffffff85166024830152600060448301527f000000000000000000000000000000000000000000000000000000000000000016906310c6bf9090606401600060405180830381600087803b15801561019b57600080fd5b505af11580156101af573d6000803e3d6000fd5b5050505050505050565b8015806102425750604051636eb1769f60e11b81523060048201526001600160a01b03838116602483015284169063dd62ed3e9060440160206040518083038186803b15801561020857600080fd5b505afa15801561021c573d6000803e3d6000fd5b505050506040513d601f19601f820116820180604052508101906102409190610604565b155b6102b25760405162461bcd60e51b815260206004820152603660248201527f5361666545524332303a20617070726f76652066726f6d206e6f6e2d7a65726f60448201527520746f206e6f6e2d7a65726f20616c6c6f77616e636560501b60648201526084015b60405180910390fd5b604080516001600160a01b038416602482015260448082018490528251808303909101815260649091019091526020810180516001600160e01b031663095ea7b360e01b179052610304908490610309565b505050565b600061035e826040518060400160405280602081526020017f5361666545524332303a206c6f772d6c6576656c2063616c6c206661696c6564815250856001600160a01b03166103db9092919063ffffffff16565b805190915015610304578080602001905181019061037c91906105e4565b6103045760405162461bcd60e51b815260206004820152602a60248201527f5361666545524332303a204552433230206f7065726174696f6e20646964206e6044820152691bdd081cdd58d8d9595960b21b60648201526084016102a9565b60606103ea84846000856103f4565b90505b9392505050565b6060824710156104555760405162461bcd60e51b815260206004820152602660248201527f416464726573733a20696e73756666696369656e742062616c616e636520666f6044820152651c8818d85b1b60d21b60648201526084016102a9565b843b6104a35760405162461bcd60e51b815260206004820152601d60248201527f416464726573733a2063616c6c20746f206e6f6e2d636f6e747261637400000060448201526064016102a9565b600080866001600160a01b031685876040516104bf919061061c565b60006040518083038185875af1925050503d80600081146104fc576040519150601f19603f3d011682016040523d82523d6000602084013e610501565b606091505b509150915061051182828661051c565b979650505050505050565b6060831561052b5750816103ed565b82511561053b5782518084602001fd5b8160405162461bcd60e51b81526004016102a99190610638565b6000806000806060858703121561056a578384fd5b84356001600160a01b0381168114610580578485fd5b935060208501359250604085013567ffffffffffffffff808211156105a3578384fd5b818701915087601f8301126105b6578384fd5b8135818111156105c4578485fd5b8860208285010111156105d5578485fd5b95989497505060200194505050565b6000602082840312156105f5578081fd5b815180151581146103ed578182fd5b600060208284031215610615578081fd5b5051919050565b6000825161062e81846020870161066b565b9190910192915050565b602081526000825180602084015261065781604085016020870161066b565b601f01601f19169190910160400192915050565b60005b8381101561068657818101518382015260200161066e565b83811115610695576000848401525b5050505056fea2646970667358221220adf9dc630f8bef824f0dfba8f8a6a8e44d8cb6d9b51dba111a082ed66898816864736f6c63430008040033",
  "devdoc": {
    "kind": "dev",
    "methods": {
      "execute(address,uint256,bytes)": {
        "details": "execute Stakes the bribe token NOTE: Do not transfer tokens to this contract directly without calling execute function",
        "params": {
          "amount": "amount transferred to the contract",
          "user": "user address"
        }
      }
    },
    "stateVariables": {
      "bribeToken": {
        "details": "stake token"
      },
      "staking": {
        "details": "staking contract"
      }
    },
    "version": 1
  },
  "userdoc": {
    "kind": "user",
    "methods": {},
    "version": 1
  },
  "storageLayout": {
    "storage": [],
    "types": null
  }
}