{
  "address": "0x98259229BeA61a50C15a646ADfDFdb16932a5D5b",
  "abi": [
    {
      "inputs": [
        {
          "internalType": "address",
          "name": "rewardAsset_",
          "type": "address"
        },
        {
          "internalType": "address",
          "name": "stakeAsset_",
          "type": "address"
        },
        {
          "internalType": "address",
          "name": "feeDistribution_",
          "type": "address"
        }
      ],
      "stateMutability": "nonpayable",
      "type": "constructor"
    },
    {
      "anonymous": false,
      "inputs": [
        {
          "indexed": true,
          "internalType": "address",
          "name": "user",
          "type": "address"
        },
        {
          "indexed": false,
          "internalType": "uint256",
          "name": "amount",
          "type": "uint256"
        }
      ],
      "name": "ClaimDividend",
      "type": "event"
    },
    {
      "anonymous": false,
      "inputs": [
        {
          "indexed": false,
          "internalType": "uint256",
          "name": "amount",
          "type": "uint256"
        }
      ],
      "name": "DistributeDividend",
      "type": "event"
    },
    {
      "anonymous": false,
      "inputs": [
        {
          "indexed": true,
          "internalType": "address",
          "name": "previousOwner",
          "type": "address"
        },
        {
          "indexed": true,
          "internalType": "address",
          "name": "newOwner",
          "type": "address"
        }
      ],
      "name": "OwnershipTransferred",
      "type": "event"
    },
    {
      "anonymous": false,
      "inputs": [
        {
          "indexed": false,
          "internalType": "address",
          "name": "account",
          "type": "address"
        }
      ],
      "name": "Paused",
      "type": "event"
    },
    {
      "anonymous": false,
      "inputs": [
        {
          "indexed": false,
          "internalType": "uint256",
          "name": "balance",
          "type": "uint256"
        }
      ],
      "name": "RescueFunds",
      "type": "event"
    },
    {
      "anonymous": false,
      "inputs": [
        {
          "indexed": true,
          "internalType": "address",
          "name": "dividend",
          "type": "address"
        },
        {
          "indexed": true,
          "internalType": "address",
          "name": "sender",
          "type": "address"
        },
        {
          "indexed": true,
          "internalType": "address",
          "name": "to",
          "type": "address"
        },
        {
          "indexed": false,
          "internalType": "uint256",
          "name": "amount",
          "type": "uint256"
        }
      ],
      "name": "Stake",
      "type": "event"
    },
    {
      "anonymous": false,
      "inputs": [
        {
          "indexed": false,
          "internalType": "address",
          "name": "account",
          "type": "address"
        }
      ],
      "name": "Unpaused",
      "type": "event"
    },
    {
      "anonymous": false,
      "inputs": [
        {
          "indexed": true,
          "internalType": "address",
          "name": "user",
          "type": "address"
        },
        {
          "indexed": false,
          "internalType": "uint256",
          "name": "amount",
          "type": "uint256"
        }
      ],
      "name": "Unstake",
      "type": "event"
    },
    {
      "anonymous": false,
      "inputs": [
        {
          "indexed": false,
          "internalType": "address",
          "name": "newFeeDistribution",
          "type": "address"
        }
      ],
      "name": "UpdateFeeDistributor",
      "type": "event"
    },
    {
      "inputs": [],
      "name": "accrueDividend",
      "outputs": [],
      "stateMutability": "nonpayable",
      "type": "function"
    },
    {
      "inputs": [
        {
          "internalType": "bool",
          "name": "update",
          "type": "bool"
        }
      ],
      "name": "claimUserDividend",
      "outputs": [],
      "stateMutability": "nonpayable",
      "type": "function"
    },
    {
      "inputs": [
        {
          "internalType": "address",
          "name": "user",
          "type": "address"
        }
      ],
      "name": "dividendOf",
      "outputs": [
        {
          "internalType": "uint256",
          "name": "dividend",
          "type": "uint256"
        }
      ],
      "stateMutability": "view",
      "type": "function"
    },
    {
      "inputs": [],
      "name": "feeDistribution",
      "outputs": [
        {
          "internalType": "address",
          "name": "",
          "type": "address"
        }
      ],
      "stateMutability": "view",
      "type": "function"
    },
    {
      "inputs": [
        {
          "internalType": "bytes[]",
          "name": "data",
          "type": "bytes[]"
        }
      ],
      "name": "multicall",
      "outputs": [
        {
          "internalType": "bytes[]",
          "name": "results",
          "type": "bytes[]"
        }
      ],
      "stateMutability": "nonpayable",
      "type": "function"
    },
    {
      "inputs": [],
      "name": "owner",
      "outputs": [
        {
          "internalType": "address",
          "name": "",
          "type": "address"
        }
      ],
      "stateMutability": "view",
      "type": "function"
    },
    {
      "inputs": [],
      "name": "pause",
      "outputs": [],
      "stateMutability": "nonpayable",
      "type": "function"
    },
    {
      "inputs": [],
      "name": "paused",
      "outputs": [
        {
          "internalType": "bool",
          "name": "",
          "type": "bool"
        }
      ],
      "stateMutability": "view",
      "type": "function"
    },
    {
      "inputs": [],
      "name": "pricePerShare",
      "outputs": [
        {
          "internalType": "uint128",
          "name": "",
          "type": "uint128"
        }
      ],
      "stateMutability": "view",
      "type": "function"
    },
    {
      "inputs": [],
      "name": "renounceOwnership",
      "outputs": [],
      "stateMutability": "nonpayable",
      "type": "function"
    },
    {
      "inputs": [],
      "name": "rescueFunds",
      "outputs": [],
      "stateMutability": "nonpayable",
      "type": "function"
    },
    {
      "inputs": [],
      "name": "rewardAsset",
      "outputs": [
        {
          "internalType": "contract IERC20",
          "name": "",
          "type": "address"
        }
      ],
      "stateMutability": "view",
      "type": "function"
    },
    {
      "inputs": [
        {
          "internalType": "address",
          "name": "newFeeDistribution",
          "type": "address"
        }
      ],
      "name": "setFeeDistributor",
      "outputs": [],
      "stateMutability": "nonpayable",
      "type": "function"
    },
    {
      "inputs": [
        {
          "internalType": "address",
          "name": "to",
          "type": "address"
        },
        {
          "internalType": "uint128",
          "name": "amount",
          "type": "uint128"
        },
        {
          "internalType": "bool",
          "name": "update",
          "type": "bool"
        }
      ],
      "name": "stake",
      "outputs": [],
      "stateMutability": "nonpayable",
      "type": "function"
    },
    {
      "inputs": [],
      "name": "stakeAsset",
      "outputs": [
        {
          "internalType": "contract IERC20",
          "name": "",
          "type": "address"
        }
      ],
      "stateMutability": "view",
      "type": "function"
    },
    {
      "inputs": [],
      "name": "totalDividendsReceived",
      "outputs": [
        {
          "internalType": "uint128",
          "name": "",
          "type": "uint128"
        }
      ],
      "stateMutability": "view",
      "type": "function"
    },
    {
      "inputs": [],
      "name": "totalStaked",
      "outputs": [
        {
          "internalType": "uint128",
          "name": "",
          "type": "uint128"
        }
      ],
      "stateMutability": "view",
      "type": "function"
    },
    {
      "inputs": [
        {
          "internalType": "address",
          "name": "newOwner",
          "type": "address"
        }
      ],
      "name": "transferOwnership",
      "outputs": [],
      "stateMutability": "nonpayable",
      "type": "function"
    },
    {
      "inputs": [],
      "name": "unpause",
      "outputs": [],
      "stateMutability": "nonpayable",
      "type": "function"
    },
    {
      "inputs": [
        {
          "internalType": "uint128",
          "name": "amount",
          "type": "uint128"
        },
        {
          "internalType": "bool",
          "name": "update",
          "type": "bool"
        }
      ],
      "name": "unstake",
      "outputs": [],
      "stateMutability": "nonpayable",
      "type": "function"
    },
    {
      "inputs": [
        {
          "internalType": "address",
          "name": "",
          "type": "address"
        }
      ],
      "name": "userRewards",
      "outputs": [
        {
          "internalType": "uint128",
          "name": "pendingReward",
          "type": "uint128"
        },
        {
          "internalType": "uint128",
          "name": "lastPricePerShare",
          "type": "uint128"
        },
        {
          "internalType": "uint256",
          "name": "balance",
          "type": "uint256"
        }
      ],
      "stateMutability": "view",
      "type": "function"
    }
  ],
  "transactionHash": "0x4342dd983265cbc2af17b697021729fead1c821f9d09d1cb8f8f1ee1b2de972b",
  "args": [
    "0xd0A1E359811322d97991E03f863a0C30C2cF029C",
    "0xDa45C27BDE907b24195Da5a7556551F54D096B7e",
    "0xdaCa08EC94D8e85507A5A69E979412d80698D6eD"
  ],
  "solcInputHash": "7dfe16edbb4bd5c08d37ca1a310bb2a6",
  "bytecode": "0x60c06040523480156200001157600080fd5b5060405162001e3e38038062001e3e8339810160408190526200003491620001d0565b600080546001600160a01b031916339081178255604051909182917f8be0079c531659141344cd1fd0a4f28419497f9722a3daafe3b4186f6b6457e0908290a3506000805460ff60a01b191690556001600160a01b038316620000ce5760405162461bcd60e51b815260206004820152600d60248201526c1253959053125117d054d4d155609a1b60448201526064015b60405180910390fd5b6001600160a01b038216620001265760405162461bcd60e51b815260206004820152601360248201527f494e56414c49445f5354414b455f4153534554000000000000000000000000006044820152606401620000c5565b6001600160a01b038116620001725760405162461bcd60e51b81526020600482015260116024820152701253959053125117d1915157d054d4d155607a1b6044820152606401620000c5565b606092831b6001600160601b03199081166080529190921b1660a052600180546001600160a01b0319166001600160a01b0390921691909117905562000219565b80516001600160a01b0381168114620001cb57600080fd5b919050565b600080600060608486031215620001e5578283fd5b620001f084620001b3565b92506200020060208501620001b3565b91506200021060408501620001b3565b90509250925092565b60805160601c60a05160601c611bc86200027660003960008181610257015281816104500152610c9f0152600081816101a8015281816105ae015281816106d70152818161099401528181610e1e0152610ebf0152611bc86000f3fe608060405234801561001057600080fd5b50600436106101375760003560e01c8063817b1cd2116100b8578063ac9650d81161007c578063ac9650d8146102f8578063b503026d14610318578063ba95a3a21461032b578063ccfc2e8d1461033e578063e6b2603b14610351578063f2fde38b1461035957600080fd5b8063817b1cd2146102795780638456cb59146102ab5780638da5cb5b146102b357806391b89fba146102c457806399530b06146102e557600080fd5b80633f4ba83a116100ff5780633f4ba83a14610212578063521243eb1461021a5780635c975abb1461022d578063715018a61461024a57806380cd916d1461025257600080fd5b80630660f1e81461013c5780630ac6702a146101a357806310c6bf90146101e25780632479b177146101f7578063348998171461020a575b600080fd5b61017861014a366004611750565b600460205260009081526040902080546001909101546001600160801b0380831692600160801b9004169083565b604080516001600160801b039485168152939092166020840152908201526060015b60405180910390f35b6101ca7f000000000000000000000000000000000000000000000000000000000000000081565b6040516001600160a01b03909116815260200161019a565b6101f56101f036600461176a565b61036c565b005b6001546101ca906001600160a01b031681565b6101f561056c565b6101f56108d4565b6101f5610228366004611820565b610908565b600054600160a01b900460ff16604051901515815260200161019a565b6101f56109fd565b6101ca7f000000000000000000000000000000000000000000000000000000000000000081565b60025461029390600160801b90046001600160801b031681565b6040516001600160801b03909116815260200161019a565b6101f5610a71565b6000546001600160a01b03166101ca565b6102d76102d2366004611750565b610aa3565b60405190815260200161019a565b600354610293906001600160801b031681565b61030b6103063660046117b0565b610ae0565b60405161019a91906118ee565b600254610293906001600160801b031681565b6101f5610339366004611858565b610bff565b6101f561034c366004611750565b610d11565b6101f5610ddc565b6101f5610367366004611750565b610f74565b600054600160a01b900460ff161561039f5760405162461bcd60e51b815260040161039690611962565b60405180910390fd5b6001600160a01b0383166103e25760405162461bcd60e51b815260206004820152600a602482015269494e56414c49445f544f60b01b6044820152606401610396565b6000826001600160801b03161161042c5760405162461bcd60e51b815260206004820152600e60248201526d1253959053125117d05353d5539560921b6044820152606401610396565b801561043a5761043a61056c565b6104438361105e565b6104816001600160a01b037f00000000000000000000000000000000000000000000000000000000000000001633306001600160801b0386166110f0565b6001600160a01b038316600090815260046020526040812060010180546001600160801b03851692906104b5908490611a38565b9091555050600280548391906010906104df908490600160801b90046001600160801b0316611a0d565b92506101000a8154816001600160801b0302191690836001600160801b03160217905550826001600160a01b0316336001600160a01b0316306001600160a01b03167fc5017594d2723c038bb216e5bcef3ac65910ade839c0e63253bf5b59efbf0fd78560405161055f91906001600160801b0391909116815260200190565b60405180910390a4505050565b600054600160a01b900460ff16156105965760405162461bcd60e51b815260040161039690611962565b6040516370a0823160e01b81523060048201526000907f00000000000000000000000000000000000000000000000000000000000000006001600160a01b0316906370a082319060240160206040518083038186803b1580156105f857600080fd5b505afa15801561060c573d6000803e3d6000fd5b505050506040513d601f19601f82011682018060405250810190610630919061188e565b6001546040516304f25cdd60e41b81523060048201529192506000916001600160a01b0390911690634f25cdd090602401602060405180830381600087803b15801561067b57600080fd5b505af115801561068f573d6000803e3d6000fd5b505050506040513d601f19601f820116820180604052508101906106b3919061188e565b6040516370a0823160e01b8152306004820152909150819083906001600160a01b037f000000000000000000000000000000000000000000000000000000000000000016906370a082319060240160206040518083038186803b15801561071957600080fd5b505afa15801561072d573d6000803e3d6000fd5b505050506040513d601f19601f82011682018060405250810190610751919061188e565b61075b9190611ae6565b10156107a05760405162461bcd60e51b815260206004820152601460248201527324a72b20a624a22fa224a9aa2924a12aaa24a7a760611b6044820152606401610396565b6107a981611161565b600280546000906107c49084906001600160801b0316611a0d565b92506101000a8154816001600160801b0302191690836001600160801b03160217905550600080600260109054906101000a90046001600160801b03166001600160801b03161161081657600161082a565b600254600160801b90046001600160801b03165b6001600160801b031690506108578161084864e8d4a5100085611a9f565b6108529190611a50565b611161565b600380546000906108729084906001600160801b0316611a0d565b92506101000a8154816001600160801b0302191690836001600160801b031602179055507f29787cd8f0dbad4198976f475ed7dd210c5efdaa90d13801a6de722f7cb48dc5826040516108c791815260200190565b60405180910390a1505050565b6000546001600160a01b031633146108fe5760405162461bcd60e51b81526004016103969061198c565b6109066111ca565b565b600054600160a01b900460ff16156109325760405162461bcd60e51b815260040161039690611962565b80156109405761094061056c565b6109493361105e565b336000908152600460205260409020546001600160801b031680156109c35733600081815260046020526040902080546fffffffffffffffffffffffffffffffff191690556109c3907f00000000000000000000000000000000000000000000000000000000000000006001600160a01b03169083611267565b60405181815233907f5287962f37e8311d1f68b563b6969614e0eb2862c1a714c8781511520e87e442906020015b60405180910390a25050565b6000546001600160a01b03163314610a275760405162461bcd60e51b81526004016103969061198c565b600080546040516001600160a01b03909116907f8be0079c531659141344cd1fd0a4f28419497f9722a3daafe3b4186f6b6457e0908390a3600080546001600160a01b0319169055565b6000546001600160a01b03163314610a9b5760405162461bcd60e51b81526004016103969061198c565b61090661129c565b6000610aae82611301565b6001600160a01b038316600090815260046020526040902054610ada91906001600160801b0316611a38565b92915050565b60608167ffffffffffffffff811115610b0957634e487b7160e01b600052604160045260246000fd5b604051908082528060200260200182016040528015610b3c57816020015b6060815260200190600190039081610b275790505b50905060005b82811015610bf857610bba30858584818110610b6e57634e487b7160e01b600052603260045260246000fd5b9050602002810190610b8091906119c1565b8080601f0160208091040260200160405190810160405280939291908181526020018383808284376000920191909152506113d392505050565b828281518110610bda57634e487b7160e01b600052603260045260246000fd5b60200260200101819052508080610bf090611b29565b915050610b42565b5092915050565b8015610c0d57610c0d61056c565b610c163361105e565b33600090815260046020526040812060010180546001600160801b0385169290610c41908490611ae6565b909155505060028054839190601090610c6b908490600160801b90046001600160801b0316611abe565b92506101000a8154816001600160801b0302191690836001600160801b03160217905550610cd633836001600160801b03167f00000000000000000000000000000000000000000000000000000000000000006001600160a01b03166112679092919063ffffffff16565b6040516001600160801b038316815233907f85082129d87b2fe11527cb1b3b7a520aeb5aa6913f88a3d8757fe40d1db02fdd906020016109f1565b6000546001600160a01b03163314610d3b5760405162461bcd60e51b81526004016103969061198c565b6001600160a01b038116610d875760405162461bcd60e51b815260206004820152601360248201527224a72b20a624a22fa224a9aa2924a12aaa27a960691b6044820152606401610396565b600180546001600160a01b0319166001600160a01b0383169081179091556040519081527fd78b614a7d56fe320194248b6eb91456d4a12e27a5c87bf3b6041f6e6a7339ec906020015b60405180910390a150565b6000546001600160a01b03163314610e065760405162461bcd60e51b81526004016103969061198c565b6040516370a0823160e01b81523060048201526000907f00000000000000000000000000000000000000000000000000000000000000006001600160a01b0316906370a082319060240160206040518083038186803b158015610e6857600080fd5b505afa158015610e7c573d6000803e3d6000fd5b505050506040513d601f19601f82011682018060405250810190610ea0919061188e565b60405163a9059cbb60e01b8152336004820152602481018290529091507f00000000000000000000000000000000000000000000000000000000000000006001600160a01b03169063a9059cbb90604401602060405180830381600087803b158015610f0b57600080fd5b505af1158015610f1f573d6000803e3d6000fd5b505050506040513d601f19601f82011682018060405250810190610f43919061183c565b506040518181527f8dddfb0fe32b5cc02812108dd5fe699a4ce5aaaf1db07b1612566cef381a26b790602001610dd1565b6000546001600160a01b03163314610f9e5760405162461bcd60e51b81526004016103969061198c565b6001600160a01b0381166110035760405162461bcd60e51b815260206004820152602660248201527f4f776e61626c653a206e6577206f776e657220697320746865207a65726f206160448201526564647265737360d01b6064820152608401610396565b600080546040516001600160a01b03808516939216917f8be0079c531659141344cd1fd0a4f28419497f9722a3daafe3b4186f6b6457e091a3600080546001600160a01b0319166001600160a01b0392909216919091179055565b61106a61085282611301565b6001600160a01b0382166000908152600460205260408120805490919061109b9084906001600160801b0316611a0d565b82546101009290920a6001600160801b038181021990931691831602179091556003546001600160a01b039390931660009081526004602052604090208054821693909116600160801b029290921790915550565b6040516001600160a01b038085166024830152831660448201526064810182905261115b9085906323b872dd60e01b906084015b60408051601f198184030181529190526020810180516001600160e01b03166001600160e01b0319909316929092179091526113ff565b50505050565b6000600160801b82106111c65760405162461bcd60e51b815260206004820152602760248201527f53616665436173743a2076616c756520646f65736e27742066697420696e20316044820152663238206269747360c81b6064820152608401610396565b5090565b600054600160a01b900460ff1661121a5760405162461bcd60e51b815260206004820152601460248201527314185d5cd8589b194e881b9bdd081c185d5cd95960621b6044820152606401610396565b6000805460ff60a01b191690557f5db9ee0a495bf2e6ff9c91a7834c1ba4fdd244a5e8aa4e537bd38aeae4b073aa335b6040516001600160a01b03909116815260200160405180910390a1565b6040516001600160a01b03831660248201526044810182905261129790849063a9059cbb60e01b90606401611124565b505050565b600054600160a01b900460ff16156112c65760405162461bcd60e51b815260040161039690611962565b6000805460ff60a01b1916600160a01b1790557f62e78cea01bee320cd4e420270b5ea74000d11b0c9f74754ebdbfc544b05a25861124a3390565b6001600160a01b03811660009081526004602052604081208054600190910154600160801b9091046001600160801b031690829061133e90611161565b6002549091506001600160801b03161580159061136457506000816001600160801b0316115b156113cc57600061138764e8d4a51000610848856001600160801b038616611a9f565b6003549091506001600160801b038083169164e8d4a51000916113ab911685611a70565b6001600160801b03166113be9190611a50565b6113c89190611ae6565b9350505b5050919050565b60606113f88383604051806060016040528060278152602001611b6c602791396114d1565b9392505050565b6000611454826040518060400160405280602081526020017f5361666545524332303a206c6f772d6c6576656c2063616c6c206661696c6564815250856001600160a01b03166115a59092919063ffffffff16565b8051909150156112975780806020019051810190611472919061183c565b6112975760405162461bcd60e51b815260206004820152602a60248201527f5361666545524332303a204552433230206f7065726174696f6e20646964206e6044820152691bdd081cdd58d8d9595960b21b6064820152608401610396565b6060833b6115305760405162461bcd60e51b815260206004820152602660248201527f416464726573733a2064656c65676174652063616c6c20746f206e6f6e2d636f6044820152651b9d1c9858dd60d21b6064820152608401610396565b600080856001600160a01b03168560405161154b91906118d2565b600060405180830381855af49150503d8060008114611586576040519150601f19603f3d011682016040523d82523d6000602084013e61158b565b606091505b509150915061159b8282866115bc565b9695505050505050565b60606115b484846000856115f5565b949350505050565b606083156115cb5750816113f8565b8251156115db5782518084602001fd5b8160405162461bcd60e51b8152600401610396919061194f565b6060824710156116565760405162461bcd60e51b815260206004820152602660248201527f416464726573733a20696e73756666696369656e742062616c616e636520666f6044820152651c8818d85b1b60d21b6064820152608401610396565b843b6116a45760405162461bcd60e51b815260206004820152601d60248201527f416464726573733a2063616c6c20746f206e6f6e2d636f6e74726163740000006044820152606401610396565b600080866001600160a01b031685876040516116c091906118d2565b60006040518083038185875af1925050503d80600081146116fd576040519150601f19603f3d011682016040523d82523d6000602084013e611702565b606091505b50915091506117128282866115bc565b979650505050505050565b80356001600160a01b038116811461173457600080fd5b919050565b80356001600160801b038116811461173457600080fd5b600060208284031215611761578081fd5b6113f88261171d565b60008060006060848603121561177e578182fd5b6117878461171d565b925061179560208501611739565b915060408401356117a581611b5a565b809150509250925092565b600080602083850312156117c2578182fd5b823567ffffffffffffffff808211156117d9578384fd5b818501915085601f8301126117ec578384fd5b8135818111156117fa578485fd5b8660208260051b850101111561180e578485fd5b60209290920196919550909350505050565b600060208284031215611831578081fd5b81356113f881611b5a565b60006020828403121561184d578081fd5b81516113f881611b5a565b6000806040838503121561186a578182fd5b61187383611739565b9150602083013561188381611b5a565b809150509250929050565b60006020828403121561189f578081fd5b5051919050565b600081518084526118be816020860160208601611afd565b601f01601f19169290920160200192915050565b600082516118e4818460208701611afd565b9190910192915050565b6000602080830181845280855180835260408601915060408160051b8701019250838701855b8281101561194257603f198886030184526119308583516118a6565b94509285019290850190600101611914565b5092979650505050505050565b6020815260006113f860208301846118a6565b60208082526010908201526f14185d5cd8589b194e881c185d5cd95960821b604082015260600190565b6020808252818101527f4f776e61626c653a2063616c6c6572206973206e6f7420746865206f776e6572604082015260600190565b6000808335601e198436030181126119d7578283fd5b83018035915067ffffffffffffffff8211156119f1578283fd5b602001915036819003821315611a0657600080fd5b9250929050565b60006001600160801b03808316818516808303821115611a2f57611a2f611b44565b01949350505050565b60008219821115611a4b57611a4b611b44565b500190565b600082611a6b57634e487b7160e01b81526012600452602481fd5b500490565b60006001600160801b0380831681851681830481118215151615611a9657611a96611b44565b02949350505050565b6000816000190483118215151615611ab957611ab9611b44565b500290565b60006001600160801b0383811690831681811015611ade57611ade611b44565b039392505050565b600082821015611af857611af8611b44565b500390565b60005b83811015611b18578181015183820152602001611b00565b8381111561115b5750506000910152565b6000600019821415611b3d57611b3d611b44565b5060010190565b634e487b7160e01b600052601160045260246000fd5b8015158114611b6857600080fd5b5056fe416464726573733a206c6f772d6c6576656c2064656c65676174652063616c6c206661696c6564a26469706673582212205c358967c5a01c6b8de0c6ca12fce1b881affd39f62ccb63d4bd86a25a26f48264736f6c63430008040033",
  "devdoc": {
    "author": "contact@bribe.xyz",
    "kind": "dev",
    "methods": {
      "accrueDividend()": {
        "details": "accrueDividend"
      },
      "claimUserDividend(bool)": {
        "details": "claimUserDividend",
        "params": {
          "update": "update"
        }
      },
      "dividendOf(address)": {
        "details": "dividendOf",
        "params": {
          "user": "address of user"
        }
      },
      "multicall(bytes[])": {
        "details": "Receives and executes a batch of function calls on this contract."
      },
      "owner()": {
        "details": "Returns the address of the current owner."
      },
      "paused()": {
        "details": "Returns true if the contract is paused, and false otherwise."
      },
      "renounceOwnership()": {
        "details": "Leaves the contract without owner. It will not be possible to call `onlyOwner` functions anymore. Can only be called by the current owner. NOTE: Renouncing ownership will leave the contract without an owner, thereby removing any functionality that is only available to the owner."
      },
      "rescueFunds()": {
        "details": "rescueFunds"
      },
      "stake(address,uint128,bool)": {
        "details": "deposit",
        "params": {
          "amount": "Amount user wants do stake",
          "to": "address to send",
          "update": "to distribute pending dividends or not"
        }
      },
      "transferOwnership(address)": {
        "details": "Transfers ownership of the contract to a new account (`newOwner`). Can only be called by the current owner."
      },
      "unstake(uint128,bool)": {
        "details": "unstake",
        "params": {
          "amount": "amount of tokens to unstake",
          "update": "Either to claim pending dividend from fee distribution contract"
        }
      }
    },
    "stateVariables": {
      "feeDistribution": {
        "details": "feeDistribution"
      },
      "pricePerShare": {
        "details": "price peer share"
      },
      "rewardAsset": {
        "details": "reward asset"
      },
      "stakeAsset": {
        "details": "stake asset"
      },
      "totalDividendsReceived": {
        "details": "totalDividendsReceived"
      },
      "totalStaked": {
        "details": "totalStaked"
      },
      "userRewards": {
        "details": "userRewards"
      }
    },
    "title": "Dividends",
    "version": 1
  },
  "userdoc": {
    "kind": "user",
    "methods": {
      "accrueDividend()": {
        "notice": "calls the fee distribution contract to claim pending dividend"
      },
      "pause()": {
        "notice": "pause actions"
      },
      "setFeeDistributor(address)": {
        "notice": "setFeeDistributor"
      },
      "unpause()": {
        "notice": "unpause actions"
      }
    },
    "version": 1
  },
  "storageLayout": {
    "storage": [
      {
        "astId": 899,
        "contract": "contracts/staking/Dividends.sol:Dividends",
        "label": "_owner",
        "offset": 0,
        "slot": "0",
        "type": "t_address"
      },
      {
        "astId": 1019,
        "contract": "contracts/staking/Dividends.sol:Dividends",
        "label": "_paused",
        "offset": 20,
        "slot": "0",
        "type": "t_bool"
      },
      {
        "astId": 8524,
        "contract": "contracts/staking/Dividends.sol:Dividends",
        "label": "feeDistribution",
        "offset": 0,
        "slot": "1",
        "type": "t_address"
      },
      {
        "astId": 8527,
        "contract": "contracts/staking/Dividends.sol:Dividends",
        "label": "totalDividendsReceived",
        "offset": 0,
        "slot": "2",
        "type": "t_uint128"
      },
      {
        "astId": 8530,
        "contract": "contracts/staking/Dividends.sol:Dividends",
        "label": "totalStaked",
        "offset": 16,
        "slot": "2",
        "type": "t_uint128"
      },
      {
        "astId": 8533,
        "contract": "contracts/staking/Dividends.sol:Dividends",
        "label": "pricePerShare",
        "offset": 0,
        "slot": "3",
        "type": "t_uint128"
      },
      {
        "astId": 8546,
        "contract": "contracts/staking/Dividends.sol:Dividends",
        "label": "userRewards",
        "offset": 0,
        "slot": "4",
        "type": "t_mapping(t_address,t_struct(UserInfo)8540_storage)"
      }
    ],
    "types": {
      "t_address": {
        "encoding": "inplace",
        "label": "address",
        "numberOfBytes": "20"
      },
      "t_bool": {
        "encoding": "inplace",
        "label": "bool",
        "numberOfBytes": "1"
      },
      "t_mapping(t_address,t_struct(UserInfo)8540_storage)": {
        "encoding": "mapping",
        "key": "t_address",
        "label": "mapping(address => struct Dividends.UserInfo)",
        "numberOfBytes": "32",
        "value": "t_struct(UserInfo)8540_storage"
      },
      "t_struct(UserInfo)8540_storage": {
        "encoding": "inplace",
        "label": "struct Dividends.UserInfo",
        "members": [
          {
            "astId": 8535,
            "contract": "contracts/staking/Dividends.sol:Dividends",
            "label": "pendingReward",
            "offset": 0,
            "slot": "0",
            "type": "t_uint128"
          },
          {
            "astId": 8537,
            "contract": "contracts/staking/Dividends.sol:Dividends",
            "label": "lastPricePerShare",
            "offset": 16,
            "slot": "0",
            "type": "t_uint128"
          },
          {
            "astId": 8539,
            "contract": "contracts/staking/Dividends.sol:Dividends",
            "label": "balance",
            "offset": 0,
            "slot": "1",
            "type": "t_uint256"
          }
        ],
        "numberOfBytes": "64"
      },
      "t_uint128": {
        "encoding": "inplace",
        "label": "uint128",
        "numberOfBytes": "16"
      },
      "t_uint256": {
        "encoding": "inplace",
        "label": "uint256",
        "numberOfBytes": "32"
      }
    }
  }
}