{
  "address": "0x88659695A1d65e3ca2428b6F71F90C508927F8f2",
  "abi": [
    {
      "inputs": [
        {
          "internalType": "uint256",
          "name": "proposalId",
          "type": "uint256"
        }
      ],
      "name": "cancel",
      "outputs": [],
      "stateMutability": "nonpayable",
      "type": "function"
    },
    {
      "inputs": [
        {
          "internalType": "uint256",
          "name": "proposalId",
          "type": "uint256"
        }
      ],
      "name": "createProposal",
      "outputs": [],
      "stateMutability": "nonpayable",
      "type": "function"
    },
    {
      "inputs": [],
      "name": "getGovernanceStrategy",
      "outputs": [
        {
          "internalType": "address",
          "name": "",
          "type": "address"
        }
      ],
      "stateMutability": "view",
      "type": "function"
    },
    {
      "inputs": [
        {
          "internalType": "uint256",
          "name": "proposalId",
          "type": "uint256"
        }
      ],
      "name": "getProposalById",
      "outputs": [
        {
          "components": [
            {
              "internalType": "uint256",
              "name": "id",
              "type": "uint256"
            },
            {
              "internalType": "address",
              "name": "creator",
              "type": "address"
            },
            {
              "internalType": "contract IExecutorWithTimelock",
              "name": "executor",
              "type": "address"
            },
            {
              "internalType": "address[]",
              "name": "targets",
              "type": "address[]"
            },
            {
              "internalType": "uint256[]",
              "name": "values",
              "type": "uint256[]"
            },
            {
              "internalType": "string[]",
              "name": "signatures",
              "type": "string[]"
            },
            {
              "internalType": "bytes[]",
              "name": "calldatas",
              "type": "bytes[]"
            },
            {
              "internalType": "bool[]",
              "name": "withDelegatecalls",
              "type": "bool[]"
            },
            {
              "internalType": "uint256",
              "name": "startBlock",
              "type": "uint256"
            },
            {
              "internalType": "uint256",
              "name": "endBlock",
              "type": "uint256"
            },
            {
              "internalType": "uint256",
              "name": "executionTime",
              "type": "uint256"
            },
            {
              "internalType": "uint256",
              "name": "forVotes",
              "type": "uint256"
            },
            {
              "internalType": "uint256",
              "name": "againstVotes",
              "type": "uint256"
            },
            {
              "internalType": "bool",
              "name": "executed",
              "type": "bool"
            },
            {
              "internalType": "bool",
              "name": "canceled",
              "type": "bool"
            },
            {
              "internalType": "address",
              "name": "strategy",
              "type": "address"
            },
            {
              "internalType": "bytes32",
              "name": "ipfsHash",
              "type": "bytes32"
            }
          ],
          "internalType": "struct MockAaveGovernanceWithTokens.ProposalWithoutVotes",
          "name": "p",
          "type": "tuple"
        }
      ],
      "stateMutability": "view",
      "type": "function"
    },
    {
      "inputs": [
        {
          "internalType": "uint256",
          "name": "proposalId",
          "type": "uint256"
        }
      ],
      "name": "getProposalState",
      "outputs": [
        {
          "internalType": "enum MockAaveGovernanceWithTokens.ProposalState",
          "name": "",
          "type": "uint8"
        }
      ],
      "stateMutability": "view",
      "type": "function"
    },
    {
      "inputs": [
        {
          "internalType": "address",
          "name": "",
          "type": "address"
        },
        {
          "internalType": "uint256",
          "name": "",
          "type": "uint256"
        }
      ],
      "name": "getVotingPowerAt",
      "outputs": [
        {
          "internalType": "uint256",
          "name": "",
          "type": "uint256"
        }
      ],
      "stateMutability": "view",
      "type": "function"
    },
    {
      "inputs": [],
      "name": "receiptAaveToken",
      "outputs": [
        {
          "internalType": "contract IERC20",
          "name": "",
          "type": "address"
        }
      ],
      "stateMutability": "view",
      "type": "function"
    },
    {
      "inputs": [],
      "name": "receiptstkAaveToken",
      "outputs": [
        {
          "internalType": "contract IERC20",
          "name": "",
          "type": "address"
        }
      ],
      "stateMutability": "view",
      "type": "function"
    },
    {
      "inputs": [
        {
          "internalType": "contract IERC20",
          "name": "receiptAaveToken_",
          "type": "address"
        },
        {
          "internalType": "contract IERC20",
          "name": "receiptstkAaveToken_",
          "type": "address"
        }
      ],
      "name": "setReceiptTokens",
      "outputs": [],
      "stateMutability": "nonpayable",
      "type": "function"
    },
    {
      "inputs": [
        {
          "internalType": "uint256",
          "name": "proposalId",
          "type": "uint256"
        },
        {
          "internalType": "bool",
          "name": "support",
          "type": "bool"
        }
      ],
      "name": "submitVote",
      "outputs": [],
      "stateMutability": "nonpayable",
      "type": "function"
    }
  ],
  "transactionHash": "0x5de86dcb9c98f0eb8da0bbf81a32022824da979efa59126518251215617190fe",
  "args": [],
  "solcInputHash": "7dfe16edbb4bd5c08d37ca1a310bb2a6",
  "bytecode": "0x608060405234801561001057600080fd5b50610959806100206000396000f3fe608060405234801561001057600080fd5b506004361061009e5760003560e01c80635a43dc00116100665780635a43dc001461015f578063612c56fa146101805780639080936f14610192578063c999b5dc146101b2578063eaeded5f146101c557600080fd5b806306be3e8e146100a357806330e787e3146100c25780633656de211461010057806340e58ee5146101205780634e17f0b61461014c575b600080fd5b305b6040516001600160a01b0390911681526020015b60405180910390f35b6100fe6100d0366004610538565b600280546001600160a01b039384166001600160a01b03199182161790915560038054929093169116179055565b005b61011361010e366004610570565b6101e6565b6040516100b99190610779565b6100fe61012e366004610570565b6000908152600160208190526040909120805460ff19169091179055565b6003546100a5906001600160a01b031681565b6100fe61016d366004610570565b6000908152602081905260409020439055565b6100fe61018e3660046105a0565b5050565b6101a56101a0366004610570565b6103cd565b6040516100b99190610751565b6002546100a5906001600160a01b031681565b6101d86101d336600461050d565b6103f9565b6040519081526020016100b9565b61028f6040518061022001604052806000815260200160006001600160a01b0316815260200160006001600160a01b031681526020016060815260200160608152602001606081526020016060815260200160608152602001600081526020016000815260200160008152602001600081526020016000815260200160001515815260200160001515815260200160006001600160a01b03168152602001600080191681525090565b6040805161022081018252838152600060208083018290528284018290528351828152808201855260608401528351828152808201855260808401528351828152908101909352909160a08301916102f7565b60608152602001906001900390816102e25790505b508152602001600060405190808252806020026020018201604052801561033257816020015b606081526020019060019003908161031d5790505b5081526020016000604051908082528060200260200182016040528015610363578160200160208202803683370190505b508152600084815260208181526040808320548285018190528784529290915290910190610393906118586108e7565b815260006020820181905260408201819052606082018190526080820181905260a0820181905260c0820181905260e09091015292915050565b600081815260016020819052604082205460ff16151514156103f157506001919050565b506002919050565b600354604080516318160ddd60e01b815290516000926001600160a01b0316916318160ddd916004808301926020929190829003018186803b15801561043e57600080fd5b505afa158015610452573d6000803e3d6000fd5b505050506040513d601f19601f820116820180604052508101906104769190610588565b600260009054906101000a90046001600160a01b03166001600160a01b03166318160ddd6040518163ffffffff1660e01b815260040160206040518083038186803b1580156104c457600080fd5b505afa1580156104d8573d6000803e3d6000fd5b505050506040513d601f19601f820116820180604052508101906104fc9190610588565b61050691906108e7565b9392505050565b6000806040838503121561051f578182fd5b823561052a8161090b565b946020939093013593505050565b6000806040838503121561054a578182fd5b82356105558161090b565b915060208301356105658161090b565b809150509250929050565b600060208284031215610581578081fd5b5035919050565b600060208284031215610599578081fd5b5051919050565b600080604083850312156105b2578182fd5b8235915060208301358015158114610565578182fd5b6000815180845260208085019450808401835b838110156106005781516001600160a01b0316875295820195908201906001016105db565b509495945050505050565b6000815180845260208085019450808401835b8381101561060057815115158752958201959082019060010161061e565b600082825180855260208086019550808260051b840101818601855b8481101561068657601f19868403018952610674838351610706565b98840198925090830190600101610658565b5090979650505050505050565b6000815180845260208085019450848260051b8601828601855b858110156106865783830389526106c5838351610706565b988501989250908401906001016106ad565b6000815180845260208085019450808401835b83811015610600578151875295820195908201906001016106ea565b60008151808452815b8181101561072b5760208185018101518683018201520161070f565b8181111561073c5782602083870101525b50601f01601f19169290920160200192915050565b602081016008831061077357634e487b7160e01b600052602160045260246000fd5b91905290565b6020815281516020820152600060208301516107a060408401826001600160a01b03169052565b5060408301516001600160a01b03811660608401525060608301516102208060808501526107d26102408501836105c8565b91506080850151601f19808685030160a08701526107f084836106d7565b935060a08701519150808685030160c087015261080d8483610693565b935060c08701519150808685030160e087015261082a848361063c565b935060e08701519150610100818786030181880152610849858461060b565b90880151610120888101919091528801516101408089019190915288015161016080890191909152880151610180808901919091528801516101a08089019190915288015190945091506101c090506108a58187018315159052565b86015190506101e06108ba8682018315159052565b86015190506102006108d6868201836001600160a01b03169052565b959095015193019290925250919050565b6000821982111561090657634e487b7160e01b81526011600452602481fd5b500190565b6001600160a01b038116811461092057600080fd5b5056fea264697066735822122099942935be5ec85a9f8015c008c219e02963fb8a5fa4e161f3856cff44e46bc964736f6c63430008040033",
  "devdoc": {
    "kind": "dev",
    "methods": {},
    "version": 1
  },
  "userdoc": {
    "kind": "user",
    "methods": {},
    "version": 1
  },
  "storageLayout": {
    "storage": [
      {
        "astId": 8195,
        "contract": "contracts/mocks/MockAaveGovernanceWithTokens.sol:MockAaveGovernanceWithTokens",
        "label": "proposals",
        "offset": 0,
        "slot": "0",
        "type": "t_mapping(t_uint256,t_uint256)"
      },
      {
        "astId": 8199,
        "contract": "contracts/mocks/MockAaveGovernanceWithTokens.sol:MockAaveGovernanceWithTokens",
        "label": "cancelled",
        "offset": 0,
        "slot": "1",
        "type": "t_mapping(t_uint256,t_bool)"
      },
      {
        "astId": 8202,
        "contract": "contracts/mocks/MockAaveGovernanceWithTokens.sol:MockAaveGovernanceWithTokens",
        "label": "receiptAaveToken",
        "offset": 0,
        "slot": "2",
        "type": "t_contract(IERC20)1718"
      },
      {
        "astId": 8205,
        "contract": "contracts/mocks/MockAaveGovernanceWithTokens.sol:MockAaveGovernanceWithTokens",
        "label": "receiptstkAaveToken",
        "offset": 0,
        "slot": "3",
        "type": "t_contract(IERC20)1718"
      }
    ],
    "types": {
      "t_bool": {
        "encoding": "inplace",
        "label": "bool",
        "numberOfBytes": "1"
      },
      "t_contract(IERC20)1718": {
        "encoding": "inplace",
        "label": "contract IERC20",
        "numberOfBytes": "20"
      },
      "t_mapping(t_uint256,t_bool)": {
        "encoding": "mapping",
        "key": "t_uint256",
        "label": "mapping(uint256 => bool)",
        "numberOfBytes": "32",
        "value": "t_bool"
      },
      "t_mapping(t_uint256,t_uint256)": {
        "encoding": "mapping",
        "key": "t_uint256",
        "label": "mapping(uint256 => uint256)",
        "numberOfBytes": "32",
        "value": "t_uint256"
      },
      "t_uint256": {
        "encoding": "inplace",
        "label": "uint256",
        "numberOfBytes": "32"
      }
    }
  }
}